{
  "address": "0x39cbA0cC28EE67EAa8134C0e80a061c13EBC3603",
  "abi": [
    {
      "inputs": [
        {
          "internalType": "address",
          "name": "easyAuctionAddress",
          "type": "address"
        },
        {
          "internalType": "address",
          "name": "_nativeTokenWrapper",
          "type": "address"
        }
      ],
      "stateMutability": "nonpayable",
      "type": "constructor"
    },
    {
      "inputs": [
        {
          "internalType": "uint256",
          "name": "auctionId",
          "type": "uint256"
        },
        {
          "internalType": "uint96[]",
          "name": "_minBuyAmounts",
          "type": "uint96[]"
        },
        {
          "internalType": "bytes32[]",
          "name": "_prevSellOrders",
          "type": "bytes32[]"
        },
        {
          "internalType": "bytes",
          "name": "allowListCallData",
          "type": "bytes"
        }
      ],
      "name": "depositAndPlaceOrder",
      "outputs": [
        {
          "internalType": "uint64",
          "name": "userId",
          "type": "uint64"
        }
      ],
      "stateMutability": "payable",
      "type": "function"
    },
    {
      "inputs": [],
      "name": "easyAuction",
      "outputs": [
        {
          "internalType": "contract EasyAuction",
          "name": "",
          "type": "address"
        }
      ],
      "stateMutability": "view",
      "type": "function"
    },
    {
      "inputs": [],
      "name": "nativeTokenWrapper",
      "outputs": [
        {
          "internalType": "contract IWETH",
          "name": "",
          "type": "address"
        }
      ],
      "stateMutability": "view",
      "type": "function"
    }
  ],
  "transactionHash": "0x844cc9ef060ca9e167a0aea72bb165772426156184cacb5e83b5013a4cbeb741",
  "args": [
    "0xa5cd8D8effACB7Ad861e3797404924199D1463a5",
    "0xd9d01a9f7c810ec035c0e42cb9e80ef44d7f8692"
  ],
  "solcInputHash": "5eba733a863885b70d211ee9a7fcde70",
  "bytecode": "0x60c060405234801561001057600080fd5b506040516108303803806108308339818101604052604081101561003357600080fd5b8101908080519060200190929190805190602001909291905050508073ffffffffffffffffffffffffffffffffffffffff1660a08173ffffffffffffffffffffffffffffffffffffffff1660601b815250508173ffffffffffffffffffffffffffffffffffffffff1660808173ffffffffffffffffffffffffffffffffffffffff1660601b815250508073ffffffffffffffffffffffffffffffffffffffff1663095ea7b3837fffffffffffffffffffffffffffffffffffffffffffffffffffffffffffffffff6040518363ffffffff1660e01b8152600401808373ffffffffffffffffffffffffffffffffffffffff16815260200182815260200192505050602060405180830381600087803b15801561014d57600080fd5b505af1158015610161573d6000803e3d6000fd5b505050506040513d602081101561017757600080fd5b810190808051906020019092919050505050505060805160601c60a05160601c6106726101be6000398061037a528061061a525080610286528061043352506106726000f3fe6080604052600436106100345760003560e01c8063537a338114610039578063eb30ee571461007a578063f9ea29cb14610243575b600080fd5b34801561004557600080fd5b5061004e610284565b604051808273ffffffffffffffffffffffffffffffffffffffff16815260200191505060405180910390f35b6102236004803603608081101561009057600080fd5b8101908080359060200190929190803590602001906401000000008111156100b757600080fd5b8201836020820111156100c957600080fd5b803590602001918460208302840111640100000000831117156100eb57600080fd5b919080806020026020016040519081016040528093929190818152602001838360200280828437600081840152601f19601f8201169050808301925050505050505091929192908035906020019064010000000081111561014b57600080fd5b82018360208201111561015d57600080fd5b8035906020019184602083028401116401000000008311171561017f57600080fd5b919080806020026020016040519081016040528093929190818152602001838360200280828437600081840152601f19601f820116905080830192505050505050509192919290803590602001906401000000008111156101df57600080fd5b8201836020820111156101f157600080fd5b8035906020019184600183028401116401000000008311171561021357600080fd5b90919293919293905050506102a8565b604051808267ffffffffffffffff16815260200191505060405180910390f35b34801561024f57600080fd5b50610258610618565b604051808273ffffffffffffffffffffffffffffffffffffffff16815260200191505060405180910390f35b7f000000000000000000000000000000000000000000000000000000000000000081565b60006060600167ffffffffffffffff811180156102c457600080fd5b506040519080825280602002602001820160405280156102f35781602001602082028036833780820191505090505b5090506c010000000000000000000000003410610378576040517f08c379a00000000000000000000000000000000000000000000000000000000081526004018080602001828103825260138152602001807f746f6f206d7563682076616c75652073656e740000000000000000000000000081525060200191505060405180910390fd5b7f000000000000000000000000000000000000000000000000000000000000000073ffffffffffffffffffffffffffffffffffffffff1663d0e30db0346040518263ffffffff1660e01b81526004016000604051808303818588803b1580156103e057600080fd5b505af11580156103f4573d6000803e3d6000fd5b5050505050348160008151811061040757fe5b60200260200101906bffffffffffffffffffffffff1690816bffffffffffffffffffffffff16815250507f000000000000000000000000000000000000000000000000000000000000000073ffffffffffffffffffffffffffffffffffffffff1663ec20d0bb888884898989336040518863ffffffff1660e01b815260040180888152602001806020018060200180602001806020018673ffffffffffffffffffffffffffffffffffffffff16815260200185810385528b818151815260200191508051906020019060200280838360005b838110156104f45780820151818401526020810190506104d9565b5050505090500185810384528a818151815260200191508051906020019060200280838360005b8381101561053657808201518184015260208101905061051b565b50505050905001858103835289818151815260200191508051906020019060200280838360005b8381101561057857808201518184015260208101905061055d565b505050509050018581038252888882818152602001925080828437600081840152601f19601f8201169050808301925050509b505050505050505050505050602060405180830381600087803b1580156105d157600080fd5b505af11580156105e5573d6000803e3d6000fd5b505050506040513d60208110156105fb57600080fd5b810190808051906020019092919050505091505095945050505050565b7f00000000000000000000000000000000000000000000000000000000000000008156fea264697066735822122017ad4c899fe0bab078c7b85af8ef6ed960b2c7ba492d7b5bb5e160325a56e51464736f6c634300060c0033",
  "devdoc": {
    "kind": "dev",
    "methods": {},
    "version": 1
  },
  "userdoc": {
    "kind": "user",
    "methods": {},
    "version": 1
  },
  "storageLayout": {
    "storage": [],
    "types": null
  }
}