{
  "address": "0xa5cd8D8effACB7Ad861e3797404924199D1463a5",
  "abi": [
    {
      "inputs": [],
      "stateMutability": "nonpayable",
      "type": "constructor"
    },
    {
      "anonymous": false,
      "inputs": [
        {
          "indexed": true,
          "internalType": "uint256",
          "name": "auctionId",
          "type": "uint256"
        },
        {
          "indexed": false,
          "internalType": "uint96",
          "name": "soldAuctioningTokens",
          "type": "uint96"
        },
        {
          "indexed": false,
          "internalType": "uint96",
          "name": "soldBiddingTokens",
          "type": "uint96"
        },
        {
          "indexed": false,
          "internalType": "bytes32",
          "name": "clearingPriceOrder",
          "type": "bytes32"
        }
      ],
      "name": "AuctionCleared",
      "type": "event"
    },
    {
      "anonymous": false,
      "inputs": [
        {
          "indexed": true,
          "internalType": "uint256",
          "name": "auctionId",
          "type": "uint256"
        },
        {
          "indexed": true,
          "internalType": "uint64",
          "name": "userId",
          "type": "uint64"
        },
        {
          "indexed": false,
          "internalType": "uint96",
          "name": "buyAmount",
          "type": "uint96"
        },
        {
          "indexed": false,
          "internalType": "uint96",
          "name": "sellAmount",
          "type": "uint96"
        }
      ],
      "name": "CancellationSellOrder",
      "type": "event"
    },
    {
      "anonymous": false,
      "inputs": [
        {
          "indexed": true,
          "internalType": "uint256",
          "name": "auctionId",
          "type": "uint256"
        },
        {
          "indexed": true,
          "internalType": "uint64",
          "name": "userId",
          "type": "uint64"
        },
        {
          "indexed": false,
          "internalType": "uint96",
          "name": "buyAmount",
          "type": "uint96"
        },
        {
          "indexed": false,
          "internalType": "uint96",
          "name": "sellAmount",
          "type": "uint96"
        }
      ],
      "name": "ClaimedFromOrder",
      "type": "event"
    },
    {
      "anonymous": false,
      "inputs": [
        {
          "indexed": true,
          "internalType": "uint256",
          "name": "auctionId",
          "type": "uint256"
        },
        {
          "indexed": true,
          "internalType": "contract IERC20",
          "name": "_auctioningToken",
          "type": "address"
        },
        {
          "indexed": true,
          "internalType": "contract IERC20",
          "name": "_biddingToken",
          "type": "address"
        },
        {
          "indexed": false,
          "internalType": "uint256",
          "name": "orderCancellationEndDate",
          "type": "uint256"
        },
        {
          "indexed": false,
          "internalType": "uint256",
          "name": "auctionEndDate",
          "type": "uint256"
        },
        {
          "indexed": false,
          "internalType": "uint64",
          "name": "userId",
          "type": "uint64"
        },
        {
          "indexed": false,
          "internalType": "uint96",
          "name": "_auctionedSellAmount",
          "type": "uint96"
        },
        {
          "indexed": false,
          "internalType": "uint96",
          "name": "_minBuyAmount",
          "type": "uint96"
        },
        {
          "indexed": false,
          "internalType": "uint256",
          "name": "minimumBiddingAmountPerOrder",
          "type": "uint256"
        },
        {
          "indexed": false,
          "internalType": "uint256",
          "name": "minFundingThreshold",
          "type": "uint256"
        },
        {
          "indexed": false,
          "internalType": "address",
          "name": "allowListContract",
          "type": "address"
        },
        {
          "indexed": false,
          "internalType": "bytes",
          "name": "allowListData",
          "type": "bytes"
        }
      ],
      "name": "NewAuction",
      "type": "event"
    },
    {
      "anonymous": false,
      "inputs": [
        {
          "indexed": true,
          "internalType": "uint256",
          "name": "auctionId",
          "type": "uint256"
        },
        {
          "indexed": true,
          "internalType": "uint64",
          "name": "userId",
          "type": "uint64"
        },
        {
          "indexed": false,
          "internalType": "uint96",
          "name": "buyAmount",
          "type": "uint96"
        },
        {
          "indexed": false,
          "internalType": "uint96",
          "name": "sellAmount",
          "type": "uint96"
        }
      ],
      "name": "NewSellOrder",
      "type": "event"
    },
    {
      "anonymous": false,
      "inputs": [
        {
          "indexed": true,
          "internalType": "uint64",
          "name": "userId",
          "type": "uint64"
        },
        {
          "indexed": true,
          "internalType": "address",
          "name": "userAddress",
          "type": "address"
        }
      ],
      "name": "NewUser",
      "type": "event"
    },
    {
      "anonymous": false,
      "inputs": [
        {
          "indexed": true,
          "internalType": "address",
          "name": "previousOwner",
          "type": "address"
        },
        {
          "indexed": true,
          "internalType": "address",
          "name": "newOwner",
          "type": "address"
        }
      ],
      "name": "OwnershipTransferred",
      "type": "event"
    },
    {
      "anonymous": false,
      "inputs": [
        {
          "indexed": true,
          "internalType": "address",
          "name": "user",
          "type": "address"
        },
        {
          "indexed": false,
          "internalType": "uint64",
          "name": "userId",
          "type": "uint64"
        }
      ],
      "name": "UserRegistration",
      "type": "event"
    },
    {
      "inputs": [],
      "name": "FEE_DENOMINATOR",
      "outputs": [
        {
          "internalType": "uint256",
          "name": "",
          "type": "uint256"
        }
      ],
      "stateMutability": "view",
      "type": "function"
    },
    {
      "inputs": [
        {
          "internalType": "uint256",
          "name": "",
          "type": "uint256"
        }
      ],
      "name": "auctionAccessData",
      "outputs": [
        {
          "internalType": "bytes",
          "name": "",
          "type": "bytes"
        }
      ],
      "stateMutability": "view",
      "type": "function"
    },
    {
      "inputs": [
        {
          "internalType": "uint256",
          "name": "",
          "type": "uint256"
        }
      ],
      "name": "auctionAccessManager",
      "outputs": [
        {
          "internalType": "address",
          "name": "",
          "type": "address"
        }
      ],
      "stateMutability": "view",
      "type": "function"
    },
    {
      "inputs": [],
      "name": "auctionCounter",
      "outputs": [
        {
          "internalType": "uint256",
          "name": "",
          "type": "uint256"
        }
      ],
      "stateMutability": "view",
      "type": "function"
    },
    {
      "inputs": [
        {
          "internalType": "uint256",
          "name": "",
          "type": "uint256"
        }
      ],
      "name": "auctionData",
      "outputs": [
        {
          "internalType": "contract IERC20",
          "name": "auctioningToken",
          "type": "address"
        },
        {
          "internalType": "contract IERC20",
          "name": "biddingToken",
          "type": "address"
        },
        {
          "internalType": "uint256",
          "name": "orderCancellationEndDate",
          "type": "uint256"
        },
        {
          "internalType": "uint256",
          "name": "auctionEndDate",
          "type": "uint256"
        },
        {
          "internalType": "bytes32",
          "name": "initialAuctionOrder",
          "type": "bytes32"
        },
        {
          "internalType": "uint256",
          "name": "minimumBiddingAmountPerOrder",
          "type": "uint256"
        },
        {
          "internalType": "uint256",
          "name": "interimSumBidAmount",
          "type": "uint256"
        },
        {
          "internalType": "bytes32",
          "name": "interimOrder",
          "type": "bytes32"
        },
        {
          "internalType": "bytes32",
          "name": "clearingPriceOrder",
          "type": "bytes32"
        },
        {
          "internalType": "uint96",
          "name": "volumeClearingPriceOrder",
          "type": "uint96"
        },
        {
          "internalType": "bool",
          "name": "minFundingThresholdNotReached",
          "type": "bool"
        },
        {
          "internalType": "bool",
          "name": "isAtomicClosureAllowed",
          "type": "bool"
        },
        {
          "internalType": "uint256",
          "name": "feeNumerator",
          "type": "uint256"
        },
        {
          "internalType": "uint256",
          "name": "minFundingThreshold",
          "type": "uint256"
        }
      ],
      "stateMutability": "view",
      "type": "function"
    },
    {
      "inputs": [
        {
          "internalType": "uint256",
          "name": "auctionId",
          "type": "uint256"
        },
        {
          "internalType": "bytes32[]",
          "name": "_sellOrders",
          "type": "bytes32[]"
        }
      ],
      "name": "cancelSellOrders",
      "outputs": [],
      "stateMutability": "nonpayable",
      "type": "function"
    },
    {
      "inputs": [
        {
          "internalType": "uint256",
          "name": "auctionId",
          "type": "uint256"
        },
        {
          "internalType": "bytes32[]",
          "name": "orders",
          "type": "bytes32[]"
        }
      ],
      "name": "claimFromParticipantOrder",
      "outputs": [
        {
          "internalType": "uint256",
          "name": "sumAuctioningTokenAmount",
          "type": "uint256"
        },
        {
          "internalType": "uint256",
          "name": "sumBiddingTokenAmount",
          "type": "uint256"
        }
      ],
      "stateMutability": "nonpayable",
      "type": "function"
    },
    {
      "inputs": [
        {
          "internalType": "uint256",
          "name": "auctionId",
          "type": "uint256"
        },
        {
          "internalType": "bytes32",
          "name": "order",
          "type": "bytes32"
        }
      ],
      "name": "containsOrder",
      "outputs": [
        {
          "internalType": "bool",
          "name": "",
          "type": "bool"
        }
      ],
      "stateMutability": "view",
      "type": "function"
    },
    {
      "inputs": [],
      "name": "feeNumerator",
      "outputs": [
        {
          "internalType": "uint256",
          "name": "",
          "type": "uint256"
        }
      ],
      "stateMutability": "view",
      "type": "function"
    },
    {
      "inputs": [],
      "name": "feeReceiverUserId",
      "outputs": [
        {
          "internalType": "uint64",
          "name": "",
          "type": "uint64"
        }
      ],
      "stateMutability": "view",
      "type": "function"
    },
    {
      "inputs": [
        {
          "internalType": "uint256",
          "name": "auctionId",
          "type": "uint256"
        }
      ],
      "name": "getSecondsRemainingInBatch",
      "outputs": [
        {
          "internalType": "uint256",
          "name": "",
          "type": "uint256"
        }
      ],
      "stateMutability": "view",
      "type": "function"
    },
    {
      "inputs": [
        {
          "internalType": "address",
          "name": "user",
          "type": "address"
        }
      ],
      "name": "getUserId",
      "outputs": [
        {
          "internalType": "uint64",
          "name": "userId",
          "type": "uint64"
        }
      ],
      "stateMutability": "nonpayable",
      "type": "function"
    },
    {
      "inputs": [
        {
          "internalType": "contract IERC20",
          "name": "_auctioningToken",
          "type": "address"
        },
        {
          "internalType": "contract IERC20",
          "name": "_biddingToken",
          "type": "address"
        },
        {
          "internalType": "uint256",
          "name": "orderCancellationEndDate",
          "type": "uint256"
        },
        {
          "internalType": "uint256",
          "name": "auctionEndDate",
          "type": "uint256"
        },
        {
          "internalType": "uint96",
          "name": "_auctionedSellAmount",
          "type": "uint96"
        },
        {
          "internalType": "uint96",
          "name": "_minBuyAmount",
          "type": "uint96"
        },
        {
          "internalType": "uint256",
          "name": "minimumBiddingAmountPerOrder",
          "type": "uint256"
        },
        {
          "internalType": "uint256",
          "name": "minFundingThreshold",
          "type": "uint256"
        },
        {
          "internalType": "bool",
          "name": "isAtomicClosureAllowed",
          "type": "bool"
        },
        {
          "internalType": "address",
          "name": "accessManagerContract",
          "type": "address"
        },
        {
          "internalType": "bytes",
          "name": "accessManagerContractData",
          "type": "bytes"
        }
      ],
      "name": "initiateAuction",
      "outputs": [
        {
          "internalType": "uint256",
          "name": "",
          "type": "uint256"
        }
      ],
      "stateMutability": "nonpayable",
      "type": "function"
    },
    {
      "inputs": [],
      "name": "numUsers",
      "outputs": [
        {
          "internalType": "uint64",
          "name": "",
          "type": "uint64"
        }
      ],
      "stateMutability": "view",
      "type": "function"
    },
    {
      "inputs": [],
      "name": "owner",
      "outputs": [
        {
          "internalType": "address",
          "name": "",
          "type": "address"
        }
      ],
      "stateMutability": "view",
      "type": "function"
    },
    {
      "inputs": [
        {
          "internalType": "uint256",
          "name": "auctionId",
          "type": "uint256"
        },
        {
          "internalType": "uint96[]",
          "name": "_minBuyAmounts",
          "type": "uint96[]"
        },
        {
          "internalType": "uint96[]",
          "name": "_sellAmounts",
          "type": "uint96[]"
        },
        {
          "internalType": "bytes32[]",
          "name": "_prevSellOrders",
          "type": "bytes32[]"
        },
        {
          "internalType": "bytes",
          "name": "allowListCallData",
          "type": "bytes"
        }
      ],
      "name": "placeSellOrders",
      "outputs": [
        {
          "internalType": "uint64",
          "name": "userId",
          "type": "uint64"
        }
      ],
      "stateMutability": "nonpayable",
      "type": "function"
    },
    {
      "inputs": [
        {
          "internalType": "uint256",
          "name": "auctionId",
          "type": "uint256"
        },
        {
          "internalType": "uint96[]",
          "name": "_minBuyAmounts",
          "type": "uint96[]"
        },
        {
          "internalType": "uint96[]",
          "name": "_sellAmounts",
          "type": "uint96[]"
        },
        {
          "internalType": "bytes32[]",
          "name": "_prevSellOrders",
          "type": "bytes32[]"
        },
        {
          "internalType": "bytes",
          "name": "allowListCallData",
          "type": "bytes"
        },
        {
          "internalType": "address",
          "name": "orderSubmitter",
          "type": "address"
        }
      ],
      "name": "placeSellOrdersOnBehalf",
      "outputs": [
        {
          "internalType": "uint64",
          "name": "userId",
          "type": "uint64"
        }
      ],
      "stateMutability": "nonpayable",
      "type": "function"
    },
    {
      "inputs": [
        {
          "internalType": "uint256",
          "name": "auctionId",
          "type": "uint256"
        },
        {
          "internalType": "uint256",
          "name": "iterationSteps",
          "type": "uint256"
        }
      ],
      "name": "precalculateSellAmountSum",
      "outputs": [],
      "stateMutability": "nonpayable",
      "type": "function"
    },
    {
      "inputs": [
        {
          "internalType": "address",
          "name": "user",
          "type": "address"
        }
      ],
      "name": "registerUser",
      "outputs": [
        {
          "internalType": "uint64",
          "name": "userId",
          "type": "uint64"
        }
      ],
      "stateMutability": "nonpayable",
      "type": "function"
    },
    {
      "inputs": [],
      "name": "renounceOwnership",
      "outputs": [],
      "stateMutability": "nonpayable",
      "type": "function"
    },
    {
      "inputs": [
        {
          "internalType": "uint256",
          "name": "newFeeNumerator",
          "type": "uint256"
        },
        {
          "internalType": "address",
          "name": "newfeeReceiverAddress",
          "type": "address"
        }
      ],
      "name": "setFeeParameters",
      "outputs": [],
      "stateMutability": "nonpayable",
      "type": "function"
    },
    {
      "inputs": [
        {
          "internalType": "uint256",
          "name": "auctionId",
          "type": "uint256"
        }
      ],
      "name": "settleAuction",
      "outputs": [
        {
          "internalType": "bytes32",
          "name": "clearingOrder",
          "type": "bytes32"
        }
      ],
      "stateMutability": "nonpayable",
      "type": "function"
    },
    {
      "inputs": [
        {
          "internalType": "uint256",
          "name": "auctionId",
          "type": "uint256"
        },
        {
          "internalType": "uint96[]",
          "name": "_minBuyAmount",
          "type": "uint96[]"
        },
        {
          "internalType": "uint96[]",
          "name": "_sellAmount",
          "type": "uint96[]"
        },
        {
          "internalType": "bytes32[]",
          "name": "_prevSellOrder",
          "type": "bytes32[]"
        },
        {
          "internalType": "bytes",
          "name": "allowListCallData",
          "type": "bytes"
        }
      ],
      "name": "settleAuctionAtomically",
      "outputs": [],
      "stateMutability": "nonpayable",
      "type": "function"
    },
    {
      "inputs": [
        {
          "internalType": "address",
          "name": "newOwner",
          "type": "address"
        }
      ],
      "name": "transferOwnership",
      "outputs": [],
      "stateMutability": "nonpayable",
      "type": "function"
    }
  ],
  "transactionHash": "0xcad6dafa8d5a30df455312cb58026c2f47a8724ff4bbf57fbb77f97381676d7d",
  "args": [],
  "solcInputHash": "5eba733a863885b70d211ee9a7fcde70",
  "bytecode": "0x608060405260006009556001600a60006101000a81548167ffffffffffffffff021916908367ffffffffffffffff1602179055503480156200004057600080fd5b50600062000053620000f760201b60201c565b9050806000806101000a81548173ffffffffffffffffffffffffffffffffffffffff021916908373ffffffffffffffffffffffffffffffffffffffff1602179055508073ffffffffffffffffffffffffffffffffffffffff16600073ffffffffffffffffffffffffffffffffffffffff167f8be0079c531659141344cd1fd0a4f28419497f9722a3daafe3b4186f6b6457e060405160405180910390a350620000ff565b600033905090565b615a15806200010f6000396000f3fe608060405234801561001057600080fd5b50600436106101585760003560e01c80637882deaf116100c3578063d73792a91161007c578063d73792a914610ccf578063e4a59ef414610ced578063e86dea4a14610d45578063ec20d0bb14610d63578063f2fde38b14610fe0578063f59c2f061461102457610158565b80637882deaf146106425780637ed18b701461071f5780638da5cb5b146107e157806391cfc1d414610815578063a7e7664414610a54578063d225269c14610a7257610158565b80633e12905f116101155780633e12905f1461046157806340b20b091461049957806355fc62d2146104e75780635cefb291146105c257806363c699a4146105ea578063715018a61461063857610158565b80630a4cd6c91461015d57806315d37b4b146102f157806319a50f49146103335780632199d5cd1461035b5780632b956ff7146103bd5780632e9936111461041f575b600080fd5b6102db600480360361016081101561017457600080fd5b81019080803573ffffffffffffffffffffffffffffffffffffffff169060200190929190803573ffffffffffffffffffffffffffffffffffffffff169060200190929190803590602001909291908035906020019092919080356bffffffffffffffffffffffff16906020019092919080356bffffffffffffffffffffffff1690602001909291908035906020019092919080359060200190929190803515159060200190929190803573ffffffffffffffffffffffffffffffffffffffff1690602001909291908035906020019064010000000081111561025557600080fd5b82018360208201111561026757600080fd5b8035906020019184600183028401116401000000008311171561028957600080fd5b91908080601f016020809104026020016040519081016040528093929190818152602001838380828437600081840152601f19601f8201169050808301925050505050505091929192905050506110cb565b6040518082815260200191505060405180910390f35b61031d6004803603602081101561030757600080fd5b810190808035906020019092919050505061178a565b6040518082815260200191505060405180910390f35b61033b6117e4565b604051808267ffffffffffffffff16815260200191505060405180910390f35b61039d6004803603602081101561037157600080fd5b81019080803573ffffffffffffffffffffffffffffffffffffffff1690602001909291905050506117fe565b604051808267ffffffffffffffff16815260200191505060405180910390f35b6103ff600480360360208110156103d357600080fd5b81019080803573ffffffffffffffffffffffffffffffffffffffff169060200190929190505050611978565b604051808267ffffffffffffffff16815260200191505060405180910390f35b61044b6004803603602081101561043557600080fd5b8101908080359060200190929190505050611a0d565b6040518082815260200191505060405180910390f35b6104976004803603604081101561047757600080fd5b810190808035906020019092919080359060200190929190505050611fb4565b005b6104e5600480360360408110156104af57600080fd5b8101908080359060200190929190803573ffffffffffffffffffffffffffffffffffffffff1690602001909291905050506122d6565b005b610513600480360360208110156104fd57600080fd5b810190808035906020019092919050505061241b565b604051808f73ffffffffffffffffffffffffffffffffffffffff1681526020018e73ffffffffffffffffffffffffffffffffffffffff1681526020018d81526020018c81526020018b81526020018a8152602001898152602001888152602001878152602001866bffffffffffffffffffffffff168152602001851515815260200184151581526020018381526020018281526020019e50505050505050505050505050505060405180910390f35b6105ca6124f9565b604051808267ffffffffffffffff16815260200191505060405180910390f35b6106206004803603604081101561060057600080fd5b810190808035906020019092919080359060200190929190505050612513565b60405180821515815260200191505060405180910390f35b610640612542565b005b6107026004803603604081101561065857600080fd5b81019080803590602001909291908035906020019064010000000081111561067f57600080fd5b82018360208201111561069157600080fd5b803590602001918460208302840111640100000000831117156106b357600080fd5b919080806020026020016040519081016040528093929190818152602001838360200280828437600081840152601f19601f8201169050808301925050505050505091929192905050506126af565b604051808381526020018281526020019250505060405180910390f35b6107df6004803603604081101561073557600080fd5b81019080803590602001909291908035906020019064010000000081111561075c57600080fd5b82018360208201111561076e57600080fd5b8035906020019184602083028401116401000000008311171561079057600080fd5b919080806020026020016040519081016040528093929190818152602001838360200280828437600081840152601f19601f820116905080830192505050505050509192919290505050612cfb565b005b6107e9612f5e565b604051808273ffffffffffffffffffffffffffffffffffffffff16815260200191505060405180910390f35b610a52600480360360a081101561082b57600080fd5b81019080803590602001909291908035906020019064010000000081111561085257600080fd5b82018360208201111561086457600080fd5b8035906020019184602083028401116401000000008311171561088657600080fd5b919080806020026020016040519081016040528093929190818152602001838360200280828437600081840152601f19601f820116905080830192505050505050509192919290803590602001906401000000008111156108e657600080fd5b8201836020820111156108f857600080fd5b8035906020019184602083028401116401000000008311171561091a57600080fd5b919080806020026020016040519081016040528093929190818152602001838360200280828437600081840152601f19601f8201169050808301925050505050505091929192908035906020019064010000000081111561097a57600080fd5b82018360208201111561098c57600080fd5b803590602001918460208302840111640100000000831117156109ae57600080fd5b919080806020026020016040519081016040528093929190818152602001838360200280828437600081840152601f19601f82011690508083019250505050505050919291929080359060200190640100000000811115610a0e57600080fd5b820183602082011115610a2057600080fd5b80359060200191846001830284011164010000000083111715610a4257600080fd5b9091929391929390505050612f87565b005b610a5c6131ef565b6040518082815260200191505060405180910390f35b610caf600480360360a0811015610a8857600080fd5b810190808035906020019092919080359060200190640100000000811115610aaf57600080fd5b820183602082011115610ac157600080fd5b80359060200191846020830284011164010000000083111715610ae357600080fd5b919080806020026020016040519081016040528093929190818152602001838360200280828437600081840152601f19601f82011690508083019250505050505050919291929080359060200190640100000000811115610b4357600080fd5b820183602082011115610b5557600080fd5b80359060200191846020830284011164010000000083111715610b7757600080fd5b919080806020026020016040519081016040528093929190818152602001838360200280828437600081840152601f19601f82011690508083019250505050505050919291929080359060200190640100000000811115610bd757600080fd5b820183602082011115610be957600080fd5b80359060200191846020830284011164010000000083111715610c0b57600080fd5b919080806020026020016040519081016040528093929190818152602001838360200280828437600081840152601f19601f82011690508083019250505050505050919291929080359060200190640100000000811115610c6b57600080fd5b820183602082011115610c7d57600080fd5b80359060200191846001830284011164010000000083111715610c9f57600080fd5b90919293919293905050506131f5565b604051808267ffffffffffffffff16815260200191505060405180910390f35b610cd7613282565b6040518082815260200191505060405180910390f35b610d1960048036036020811015610d0357600080fd5b8101908080359060200190929190505050613288565b604051808273ffffffffffffffffffffffffffffffffffffffff16815260200191505060405180910390f35b610d4d6132bb565b6040518082815260200191505060405180910390f35b610fc0600480360360c0811015610d7957600080fd5b810190808035906020019092919080359060200190640100000000811115610da057600080fd5b820183602082011115610db257600080fd5b80359060200191846020830284011164010000000083111715610dd457600080fd5b919080806020026020016040519081016040528093929190818152602001838360200280828437600081840152601f19601f82011690508083019250505050505050919291929080359060200190640100000000811115610e3457600080fd5b820183602082011115610e4657600080fd5b80359060200191846020830284011164010000000083111715610e6857600080fd5b919080806020026020016040519081016040528093929190818152602001838360200280828437600081840152601f19601f82011690508083019250505050505050919291929080359060200190640100000000811115610ec857600080fd5b820183602082011115610eda57600080fd5b80359060200191846020830284011164010000000083111715610efc57600080fd5b919080806020026020016040519081016040528093929190818152602001838360200280828437600081840152601f19601f82011690508083019250505050505050919291929080359060200190640100000000811115610f5c57600080fd5b820183602082011115610f6e57600080fd5b80359060200191846001830284011164010000000083111715610f9057600080fd5b9091929391929390803573ffffffffffffffffffffffffffffffffffffffff1690602001909291905050506132c1565b604051808267ffffffffffffffff16815260200191505060405180910390f35b61102260048036036020811015610ff657600080fd5b81019080803573ffffffffffffffffffffffffffffffffffffffff16906020019092919050505061334f565b005b6110506004803603602081101561103a57600080fd5b8101908080359060200190929190505050613541565b6040518080602001828103825283818151815260200191508051906020019080838360005b83811015611090578082015181840152602081019050611075565b50505050905090810190601f1680156110bd5780820380516001836020036101000a031916815260200191505b509250505060405180910390f35b6000611144333061111d6103e861110f6110f26009546103e86135f190919063ffffffff16565b8e6bffffffffffffffffffffffff1661367990919063ffffffff16565b6136ff90919063ffffffff16565b8f73ffffffffffffffffffffffffffffffffffffffff16613788909392919063ffffffff16565b6000886bffffffffffffffffffffffff16116111c8576040517f08c379a000000000000000000000000000000000000000000000000000000000815260040180806020018281038252601a8152602001807f63616e6e6f742061756374696f6e207a65726f20746f6b656e7300000000000081525060200191505060405180910390fd5b6000876bffffffffffffffffffffffff161161122f576040517f08c379a00000000000000000000000000000000000000000000000000000000081526004018080602001828103825260238152602001806156e76023913960400191505060405180910390fd5b60008611611288576040517f08c379a000000000000000000000000000000000000000000000000000000000815260040180806020018281038252603681526020018061584d6036913960400191505060405180910390fd5b888a11156112e1576040517f08c379a000000000000000000000000000000000000000000000000000000000815260040180806020018281038252602981526020018061596b6029913960400191505060405180910390fd5b428911611339576040517f08c379a00000000000000000000000000000000000000000000000000000000081526004018080602001828103825260268152602001806157d66026913960400191505060405180910390fd5b61134f60016008546135f190919063ffffffff16565b600881905550611372600160006008548152602001908152602001600020613849565b600061137d33611978565b9050604051806101c001604052808e73ffffffffffffffffffffffffffffffffffffffff1681526020018d73ffffffffffffffffffffffffffffffffffffffff1681526020018c81526020018b81526020016113da838b8d6138ce565b815260200188815260200160008152602001600160001b81526020016000801b815260200160006bffffffffffffffffffffffff168152602001600015158152602001861515815260200160095481526020018781525060026000600854815260200190815260200160002060008201518160000160006101000a81548173ffffffffffffffffffffffffffffffffffffffff021916908373ffffffffffffffffffffffffffffffffffffffff16021790555060208201518160010160006101000a81548173ffffffffffffffffffffffffffffffffffffffff021916908373ffffffffffffffffffffffffffffffffffffffff16021790555060408201518160020155606082015181600301556080820151816004015560a0820151816005015560c0820151816006015560e0820151816007015561010082015181600801556101208201518160090160006101000a8154816bffffffffffffffffffffffff02191690836bffffffffffffffffffffffff16021790555061014082015181600901600c6101000a81548160ff02191690831515021790555061016082015181600901600d6101000a81548160ff02191690831515021790555061018082015181600a01556101a082015181600b01559050508360036000600854815260200190815260200160002060006101000a81548173ffffffffffffffffffffffffffffffffffffffff021916908373ffffffffffffffffffffffffffffffffffffffff16021790555082600460006008548152602001908152602001600020908051906020019061162b929190615483565b508b73ffffffffffffffffffffffffffffffffffffffff168d73ffffffffffffffffffffffffffffffffffffffff166008547f728d0fed13687f1840de94f5ae640eae49b43eda26b7ffe97e55e79a0de6e40c8e8e868f8f8f8f8e8e604051808a81526020018981526020018867ffffffffffffffff168152602001876bffffffffffffffffffffffff168152602001866bffffffffffffffffffffffff1681526020018581526020018481526020018373ffffffffffffffffffffffffffffffffffffffff16815260200180602001828103825283818151815260200191508051906020019080838360005b83811015611733578082015181840152602081019050611718565b50505050905090810190601f1680156117605780820380516001836020036101000a031916815260200191505b509a505050505050505050505060405180910390a46008549150509b9a5050505050505050505050565b600042600260008481526020019081526020016000206003015410156117b357600090506117df565b6117dc42600260008581526020019081526020016000206003015461390f90919063ffffffff16565b90505b919050565b600760009054906101000a900467ffffffffffffffff1681565b600061183c6118376001600760009054906101000a900467ffffffffffffffff1667ffffffffffffffff166135f190919063ffffffff16565b613992565b600760006101000a81548167ffffffffffffffff021916908367ffffffffffffffff160217905550611890600760009054906101000a900467ffffffffffffffff168360056139fd9092919063ffffffff16565b611902576040517f08c379a00000000000000000000000000000000000000000000000000000000081526004018080602001828103825260178152602001807f5573657220616c7265616479207265676973746572656400000000000000000081525060200191505060405180910390fd5b600760009054906101000a900467ffffffffffffffff1690508173ffffffffffffffffffffffffffffffffffffffff167f6838f67cb358c332087b73dbe769a6c869a5f87225236c16dda5d0013a77074c82604051808267ffffffffffffffff16815260200191505060405180910390a2919050565b600061198e826005613d2390919063ffffffff16565b156119ae576119a7826005613d9090919063ffffffff16565b9050611a08565b6119b7826117fe565b90508173ffffffffffffffffffffffffffffffffffffffff168167ffffffffffffffff167f969d438b19b6b5fb3c0d3c6f16867e519fcec4233799d6be29d1c00f2045ba2660405160405180910390a35b919050565b60008160006002600083815260200190815260200160002060030154905060008114158015611a3c5750804210155b8015611a6057506000801b6002600084815260200190815260200160002060080154145b611ab5576040517f08c379a00000000000000000000000000000000000000000000000000000000081526004018080602001828103825260288152602001806158ed6028913960400191505060405180910390fd5b506000806000611ada6002600088815260200190815260200160002060040154613e6f565b92509250925060006002600088815260200190815260200160002060060154905060006002600089815260200190815260200160002060070154905060008060008590505b6000611b4685600160008f8152602001908152602001600020613e9590919063ffffffff16565b90507fffffffffffffffffffffffffffffffffffffffff00000000000000000000000160001b811415611b795750611c02565b809450611b8585613e6f565b909150816bffffffffffffffffffffffff169150806bffffffffffffffffffffffff1690508094508195505050611bc583876135f190919063ffffffff16565b955050611be982876bffffffffffffffffffffffff1661367990919063ffffffff16565b611bfc848761367990919063ffffffff16565b10611b1f575b600085118015611c445750611c2e82876bffffffffffffffffffffffff1661367990919063ffffffff16565b611c41848761367990919063ffffffff16565b10155b15611d4d576000611c90611c8185611c73868b6bffffffffffffffffffffffff1661367990919063ffffffff16565b6136ff90919063ffffffff16565b8761390f90919063ffffffff16565b9050808310611d1b576000611cae828561390f90919063ffffffff16565b9050611cb981613f93565b600260008f815260200190815260200160002060090160006101000a8154816bffffffffffffffffffffffff02191690836bffffffffffffffffffffffff160217905550611d10828861390f90919063ffffffff16565b9650859b5050611d47565b611d2e838761390f90919063ffffffff16565b9550611d44600088611d3f89613f93565b6138ce565b9a505b50611dd9565b866bffffffffffffffffffffffff16851115611d7e57611d77600087611d7288613f93565b6138ce565b9950611dd8565b611d8a600087896138ce565b9950611dd5611dd0886bffffffffffffffffffffffff16611dc2896bffffffffffffffffffffffff168961367990919063ffffffff16565b6136ff90919063ffffffff16565b613f93565b90505b5b89600260008d81526020019081526020016000206008018190555084600260008d8152602001908152602001600020600b01541115611e42576001600260008d8152602001908152602001600020600901600c6101000a81548160ff0219169083151502179055505b611e5c8b826bffffffffffffffffffffffff168a89614002565b8a7f4d160a2a345f2faeb9ac2e65272820b8ca5473b80aabef416bdf7e07ee7f591082878d60405180846bffffffffffffffffffffffff168152602001836bffffffffffffffffffffffff168152602001828152602001935050505060405180910390a26000600360008d815260200190815260200160002060006101000a81548173ffffffffffffffffffffffffffffffffffffffff021916908373ffffffffffffffffffffffffffffffffffffffff160217905550600460008c81526020019081526020016000206000611f329190615503565b6000801b600260008d8152602001908152602001600020600401819055506000801b600260008d8152602001908152602001600020600701819055506000600260008d8152602001908152602001600020600601819055506000600260008d815260200190815260200160002060050181905550505050505050505050919050565b8160006002600083815260200190815260200160002060030154905060008114158015611fe15750804210155b801561200557506000801b6002600084815260200190815260200160002060080154145b61205a576040517f08c379a00000000000000000000000000000000000000000000000000000000081526004018080602001828103825260288152602001806158ed6028913960400191505060405180910390fd5b50600061207c6002600086815260200190815260200160002060040154613e6f565b9250505060006002600086815260200190815260200160002060060154905060006002600087815260200190815260200160002060070154905060005b85811015612128576120e682600160008a8152602001908152602001600020613e9590919063ffffffff16565b915060006120f383613e6f565b92505050612118816bffffffffffffffffffffffff16856135f190919063ffffffff16565b93505080806001019150506120b9565b507fffffffffffffffffffffffffffffffffffffffff00000000000000000000000160001b8114156121c2576040517f08c379a00000000000000000000000000000000000000000000000000000000081526004018080602001828103825260198152602001807f7265616368656420656e64206f66206f72646572206c6973740000000000000081525060200191505060405180910390fd5b6000806121ce83613e6f565b9250925050612202816bffffffffffffffffffffffff16866bffffffffffffffffffffffff1661367990919063ffffffff16565b612223836bffffffffffffffffffffffff168661367990919063ffffffff16565b10612296576040517f08c379a00000000000000000000000000000000000000000000000000000000081526004018080602001828103825260198152602001807f746f6f206d616e79206f72646572732073756d6d65642075700000000000000081525060200191505060405180910390fd5b83600260008a81526020019081526020016000206006018190555082600260008a8152602001908152602001600020600701819055505050505050505050565b6122de6141f4565b73ffffffffffffffffffffffffffffffffffffffff166122fc612f5e565b73ffffffffffffffffffffffffffffffffffffffff1614612385576040517f08c379a00000000000000000000000000000000000000000000000000000000081526004018080602001828103825260208152602001807f4f776e61626c653a2063616c6c6572206973206e6f7420746865206f776e657281525060200191505060405180910390fd5b600f8211156123df576040517f08c379a000000000000000000000000000000000000000000000000000000000815260040180806020018281038252602d8152602001806157a9602d913960400191505060405180910390fd5b6123e881611978565b600a60006101000a81548167ffffffffffffffff021916908367ffffffffffffffff160217905550816009819055505050565b60026020528060005260406000206000915090508060000160009054906101000a900473ffffffffffffffffffffffffffffffffffffffff16908060010160009054906101000a900473ffffffffffffffffffffffffffffffffffffffff16908060020154908060030154908060040154908060050154908060060154908060070154908060080154908060090160009054906101000a90046bffffffffffffffffffffffff169080600901600c9054906101000a900460ff169080600901600d9054906101000a900460ff169080600a01549080600b015490508e565b600a60009054906101000a900467ffffffffffffffff1681565b600061253a82600160008681526020019081526020016000206141fc90919063ffffffff16565b905092915050565b61254a6141f4565b73ffffffffffffffffffffffffffffffffffffffff16612568612f5e565b73ffffffffffffffffffffffffffffffffffffffff16146125f1576040517f08c379a00000000000000000000000000000000000000000000000000000000081526004018080602001828103825260208152602001807f4f776e61626c653a2063616c6c6572206973206e6f7420746865206f776e657281525060200191505060405180910390fd5b600073ffffffffffffffffffffffffffffffffffffffff1660008054906101000a900473ffffffffffffffffffffffffffffffffffffffff1673ffffffffffffffffffffffffffffffffffffffff167f8be0079c531659141344cd1fd0a4f28419497f9722a3daafe3b4186f6b6457e060405160405180910390a360008060006101000a81548173ffffffffffffffffffffffffffffffffffffffff021916908373ffffffffffffffffffffffffffffffffffffffff160217905550565b600080836000801b60026000838152602001908152602001600020600801541415612742576040517f08c379a00000000000000000000000000000000000000000000000000000000081526004018080602001828103825260188152602001807f41756374696f6e206e6f74207965742066696e6973686564000000000000000081525060200191505060405180910390fd5b60005b84518110156128055761278685828151811061275d57fe5b60200260200101516001600089815260200190815260200160002061423890919063ffffffff16565b6127f8576040517f08c379a000000000000000000000000000000000000000000000000000000000815260040180806020018281038252601c8152602001807f6f72646572206973206e6f206c6f6e67657220636c61696d61626c650000000081525060200191505060405180910390fd5b8080600101915050612745565b5061280e61554b565b60026000878152602001908152602001600020604051806101c00160405290816000820160009054906101000a900473ffffffffffffffffffffffffffffffffffffffff1673ffffffffffffffffffffffffffffffffffffffff1673ffffffffffffffffffffffffffffffffffffffff1681526020016001820160009054906101000a900473ffffffffffffffffffffffffffffffffffffffff1673ffffffffffffffffffffffffffffffffffffffff1673ffffffffffffffffffffffffffffffffffffffff168152602001600282015481526020016003820154815260200160048201548152602001600582015481526020016006820154815260200160078201548152602001600882015481526020016009820160009054906101000a90046bffffffffffffffffffffffff166bffffffffffffffffffffffff166bffffffffffffffffffffffff16815260200160098201600c9054906101000a900460ff1615151515815260200160098201600d9054906101000a900460ff16151515158152602001600a8201548152602001600b8201548152505090506000806129ba836101000151613e6f565b925092505060006129de886000815181106129d157fe5b6020026020010151613e6f565b505090506000600260008b8152602001908152602001600020600901600c9054906101000a900460ff16905060005b8951811015612ce1576000806000612a378d8581518110612a2a57fe5b6020026020010151613e6f565b9250925092508567ffffffffffffffff168367ffffffffffffffff1614612aa9576040517f08c379a00000000000000000000000000000000000000000000000000000000081526004018080602001828103825260238152602001806158ca6023913960400191505060405180910390fd5b8415612ad757612ad0816bffffffffffffffffffffffff168c6135f190919063ffffffff16565b9a50612c6a565b8861010001518d8581518110612ae957fe5b60200260200101511415612bac57612b5d612b4e886bffffffffffffffffffffffff16612b408b6bffffffffffffffffffffffff168d61012001516bffffffffffffffffffffffff1661367990919063ffffffff16565b6136ff90919063ffffffff16565b8d6135f190919063ffffffff16565b9b50612ba5612b968a61012001516bffffffffffffffffffffffff16836bffffffffffffffffffffffff1661390f90919063ffffffff16565b8c6135f190919063ffffffff16565b9a50612c69565b612bd78961010001518e8681518110612bc157fe5b602002602001015161427590919063ffffffff16565b15612c4457612c3d612c2e886bffffffffffffffffffffffff16612c208b6bffffffffffffffffffffffff16856bffffffffffffffffffffffff1661367990919063ffffffff16565b6136ff90919063ffffffff16565b8d6135f190919063ffffffff16565b9b50612c68565b612c65816bffffffffffffffffffffffff168c6135f190919063ffffffff16565b9a505b5b5b8567ffffffffffffffff168e7f3f2c83616e48a2f8b3c9cc26499e2e5c61643714dac49027d82cf6732f96a91a848460405180836bffffffffffffffffffffffff168152602001826bffffffffffffffffffffffff1681526020019250505060405180910390a35050508080600101915050612a0d565b50612cee8a898985614493565b5050505050509250929050565b8160026000828152602001908152602001600020600201544210612d6a576040517f08c379a000000000000000000000000000000000000000000000000000000000815260040180806020018281038252603281526020018061570a6032913960400191505060405180910390fd5b6000612d7533611978565b90506000805b8451811015612ef5576000612dbe868381518110612d9557fe5b6020026020010151600160008a815260200190815260200160002061458890919063ffffffff16565b90508015612ee7576000806000612de7898681518110612dda57fe5b6020026020010151613e6f565b9250925092508667ffffffffffffffff168367ffffffffffffffff1614612e59576040517f08c379a000000000000000000000000000000000000000000000000000000000815260040180806020018281038252602381526020018061569e6023913960400191505060405180910390fd5b612e7a816bffffffffffffffffffffffff16876135f190919063ffffffff16565b95508667ffffffffffffffff168a7f7edae327fe79804b2f38bd490d874a0d188d3ae8911b303205abe47400086ac4848460405180836bffffffffffffffffffffffff168152602001826bffffffffffffffffffffffff1681526020019250505060405180910390a35050505b508080600101915050612d7b565b50612f5733826002600089815260200190815260200160002060010160009054906101000a900473ffffffffffffffffffffffffffffffffffffffff1673ffffffffffffffffffffffffffffffffffffffff166146339092919063ffffffff16565b5050505050565b60008060009054906101000a900473ffffffffffffffffffffffffffffffffffffffff16905090565b8560006002600083815260200190815260200160002060030154905060008114158015612fb45750804210155b8015612fd857506000801b6002600084815260200190815260200160002060080154145b61302d576040517f08c379a00000000000000000000000000000000000000000000000000000000081526004018080602001828103825260288152602001806158ed6028913960400191505060405180910390fd5b5060026000888152602001908152602001600020600901600d9054906101000a900460ff166130a7576040517f08c379a00000000000000000000000000000000000000000000000000000000081526004018080602001828103825260288152602001806156456028913960400191505060405180910390fd5b600186511480156130b9575060018551145b61310e576040517f08c379a00000000000000000000000000000000000000000000000000000000081526004018080602001828103825260278152602001806157fc6027913960400191505060405180910390fd5b600061311933611978565b9050613176613151828960008151811061312f57fe5b60200260200101518960008151811061314457fe5b60200260200101516138ce565b600260008b81526020019081526020016000206007015461427590919063ffffffff16565b6131cb576040517f08c379a000000000000000000000000000000000000000000000000000000000815260040180806020018281038252603181526020018061566d6031913960400191505060405180910390fd5b6131da888888888888336146d5565b506131e488611a0d565b505050505050505050565b60085481565b60008660026000828152602001908152602001600020600301544210613266576040517f08c379a00000000000000000000000000000000000000000000000000000000081526004018080602001828103825260228152602001806159be6022913960400191505060405180910390fd5b613275888888888888336146d5565b9150509695505050505050565b6103e881565b60036020528060005260406000206000915054906101000a900473ffffffffffffffffffffffffffffffffffffffff1681565b60095481565b60008760026000828152602001908152602001600020600301544210613332576040517f08c379a00000000000000000000000000000000000000000000000000000000081526004018080602001828103825260228152602001806159be6022913960400191505060405180910390fd5b613341898989898989896146d5565b915050979650505050505050565b6133576141f4565b73ffffffffffffffffffffffffffffffffffffffff16613375612f5e565b73ffffffffffffffffffffffffffffffffffffffff16146133fe576040517f08c379a00000000000000000000000000000000000000000000000000000000081526004018080602001828103825260208152602001807f4f776e61626c653a2063616c6c6572206973206e6f7420746865206f776e657281525060200191505060405180910390fd5b600073ffffffffffffffffffffffffffffffffffffffff168173ffffffffffffffffffffffffffffffffffffffff161415613484576040517f08c379a00000000000000000000000000000000000000000000000000000000081526004018080602001828103825260268152602001806156c16026913960400191505060405180910390fd5b8073ffffffffffffffffffffffffffffffffffffffff1660008054906101000a900473ffffffffffffffffffffffffffffffffffffffff1673ffffffffffffffffffffffffffffffffffffffff167f8be0079c531659141344cd1fd0a4f28419497f9722a3daafe3b4186f6b6457e060405160405180910390a3806000806101000a81548173ffffffffffffffffffffffffffffffffffffffff021916908373ffffffffffffffffffffffffffffffffffffffff16021790555050565b60046020528060005260406000206000915090508054600181600116156101000203166002900480601f0160208091040260200160405190810160405280929190818152602001828054600181600116156101000203166002900480156135e95780601f106135be576101008083540402835291602001916135e9565b820191906000526020600020905b8154815290600101906020018083116135cc57829003601f168201915b505050505081565b60008082840190508381101561366f576040517f08c379a000000000000000000000000000000000000000000000000000000000815260040180806020018281038252601b8152602001807f536166654d6174683a206164646974696f6e206f766572666c6f77000000000081525060200191505060405180910390fd5b8091505092915050565b60008083141561368c57600090506136f9565b600082840290508284828161369d57fe5b04146136f4576040517f08c379a00000000000000000000000000000000000000000000000000000000081526004018080602001828103825260218152602001806158836021913960400191505060405180910390fd5b809150505b92915050565b6000808211613776576040517f08c379a000000000000000000000000000000000000000000000000000000000815260040180806020018281038252601a8152602001807f536166654d6174683a206469766973696f6e206279207a65726f00000000000081525060200191505060405180910390fd5b81838161377f57fe5b04905092915050565b613843846323b872dd60e01b858585604051602401808473ffffffffffffffffffffffffffffffffffffffff1681526020018373ffffffffffffffffffffffffffffffffffffffff1681526020018281526020019350505050604051602081830303815290604052907bffffffffffffffffffffffffffffffffffffffffffffffffffffffff19166020820180517bffffffffffffffffffffffffffffffffffffffffffffffffffffffff8381831617835250505050614ced565b50505050565b7fffffffffffffffffffffffffffffffffffffffff00000000000000000000000160001b816000016000600160001b815260200190815260200160002081905550600160001b8160010160007fffffffffffffffffffffffffffffffffffffffff00000000000000000000000160001b81526020019081526020016000208190555050565b6000816bffffffffffffffffffffffff166060846bffffffffffffffffffffffff16901b60c08667ffffffffffffffff16901b010160001b90509392505050565b600082821115613987576040517f08c379a000000000000000000000000000000000000000000000000000000000815260040180806020018281038252601e8152602001807f536166654d6174683a207375627472616374696f6e206f766572666c6f77000081525060200191505060405180910390fd5b818303905092915050565b60006801000000000000000082106139f5576040517f08c379a00000000000000000000000000000000000000000000000000000000081526004018080602001828103825260268152602001806158a46026913960400191505060405180910390fd5b819050919050565b60008073ffffffffffffffffffffffffffffffffffffffff168273ffffffffffffffffffffffffffffffffffffffff161415613aa1576040517f08c379a000000000000000000000000000000000000000000000000000000000815260040180806020018281038252601a8152602001807f43616e6e6f7420696e73657274207a65726f206164647265737300000000000081525060200191505060405180910390fd5b7fffffffffffffffffffffffffffffffffffffffffffffffffffffffffffffffff67ffffffffffffffff168367ffffffffffffffff161415613b4b576040517f08c379a00000000000000000000000000000000000000000000000000000000081526004018080602001828103825260188152602001807f43616e6e6f7420696e73657274206d61782075696e743634000000000000000081525060200191505060405180910390fd5b60008460010160008473ffffffffffffffffffffffffffffffffffffffff1673ffffffffffffffffffffffffffffffffffffffff16815260200190815260200160002060009054906101000a900467ffffffffffffffff1667ffffffffffffffff16141580613c335750600073ffffffffffffffffffffffffffffffffffffffff168460000160006001860167ffffffffffffffff1667ffffffffffffffff16815260200190815260200160002060009054906101000a900473ffffffffffffffffffffffffffffffffffffffff1673ffffffffffffffffffffffffffffffffffffffff1614155b15613c415760009050613d1c565b818460000160006001860167ffffffffffffffff1667ffffffffffffffff16815260200190815260200160002060006101000a81548173ffffffffffffffffffffffffffffffffffffffff021916908373ffffffffffffffffffffffffffffffffffffffff160217905550600183018460010160008473ffffffffffffffffffffffffffffffffffffffff1673ffffffffffffffffffffffffffffffffffffffff16815260200190815260200160002060006101000a81548167ffffffffffffffff021916908367ffffffffffffffff160217905550600190505b9392505050565b6000808360010160008473ffffffffffffffffffffffffffffffffffffffff1673ffffffffffffffffffffffffffffffffffffffff16815260200190815260200160002060009054906101000a900467ffffffffffffffff1667ffffffffffffffff161415905092915050565b6000613d9c8383613d23565b613e0e576040517f08c379a000000000000000000000000000000000000000000000000000000000815260040180806020018281038252601b8152602001807f4d7573742068617665204164647265737320746f20676574204944000000000081525060200191505060405180910390fd5b60018360010160008473ffffffffffffffffffffffffffffffffffffffff1673ffffffffffffffffffffffffffffffffffffffff16815260200190815260200160002060009054906101000a900467ffffffffffffffff1603905092915050565b600080600060c08460001c901c925060608460001c901c91508360001c90509193909250565b60007fffffffffffffffffffffffffffffffffffffffff00000000000000000000000160001b821415613f13576040517f08c379a00000000000000000000000000000000000000000000000000000000081526004018080602001828103825260228152602001806157616022913960400191505060405180910390fd5b60008360000160008481526020019081526020016000205490506000801b811415613f89576040517f08c379a000000000000000000000000000000000000000000000000000000000815260040180806020018281038252602a815260200180615823602a913960400191505060405180910390fd5b8091505092915050565b60006c010000000000000000000000008210613ffa576040517f08c379a000000000000000000000000000000000000000000000000000000000815260040180806020018281038252602681526020018061561f6026913960400191505060405180910390fd5b819050919050565b600061404f6103e861404160026000898152602001908152602001600020600a0154856bffffffffffffffffffffffff1661367990919063ffffffff16565b6136ff90919063ffffffff16565b905060026000868152602001908152602001600020600901600c9054906101000a900460ff16156140ac576140a78561409f83856bffffffffffffffffffffffff166135f190919063ffffffff16565b600086614493565b6141ed565b6000806140ce6002600089815260200190815260200160002060080154613e6f565b925092505060006140f687866bffffffffffffffffffffffff1661390f90919063ffffffff16565b9050600061413f614130876bffffffffffffffffffffffff16614122858961367990919063ffffffff16565b6136ff90919063ffffffff16565b836135f190919063ffffffff16565b90506000614184856bffffffffffffffffffffffff16614176866bffffffffffffffffffffffff168c61367990919063ffffffff16565b6136ff90919063ffffffff16565b90506141928a83838b614493565b6141e78a6141c9896bffffffffffffffffffffffff166141bb8d8b61367990919063ffffffff16565b6136ff90919063ffffffff16565b6000600a60009054906101000a900467ffffffffffffffff16614493565b50505050505b5050505050565b600033905090565b6000600160001b8214156142135760009050614232565b6000801b83600001600084815260200190815260200160002054141590505b92915050565b6000806142458484614588565b9050801561426b576000801b846001016000858152602001908152602001600020819055505b8091505092915050565b60008060008061428486613e6f565b925092509250600080600061429888613e6f565b9250925092506142cd846bffffffffffffffffffffffff16836bffffffffffffffffffffffff1661367990919063ffffffff16565b6142fc826bffffffffffffffffffffffff16876bffffffffffffffffffffffff1661367990919063ffffffff16565b1015614311576001965050505050505061448d565b614340846bffffffffffffffffffffffff16836bffffffffffffffffffffffff1661367990919063ffffffff16565b61436f826bffffffffffffffffffffffff16876bffffffffffffffffffffffff1661367990919063ffffffff16565b1115614384576000965050505050505061448d565b816bffffffffffffffffffffffff16856bffffffffffffffffffffffff1610156143b7576001965050505050505061448d565b816bffffffffffffffffffffffff16856bffffffffffffffffffffffff1611156143ea576000965050505050505061448d565b8267ffffffffffffffff168667ffffffffffffffff161415614457576040517f08c379a000000000000000000000000000000000000000000000000000000000815260040180806020018281038252602d815260200180615915602d913960400191505060405180910390fd5b8267ffffffffffffffff168667ffffffffffffffff161015614482576001965050505050505061448d565b600096505050505050505b92915050565b60006144a9826005614ddc90919063ffffffff16565b905060008411156145165761451581856002600089815260200190815260200160002060000160009054906101000a900473ffffffffffffffffffffffffffffffffffffffff1673ffffffffffffffffffffffffffffffffffffffff166146339092919063ffffffff16565b5b60008311156145815761458081846002600089815260200190815260200160002060010160009054906101000a900473ffffffffffffffffffffffffffffffffffffffff1673ffffffffffffffffffffffffffffffffffffffff166146339092919063ffffffff16565b5b5050505050565b600061459483836141fc565b6145a1576000905061462d565b60008360010160008481526020019081526020016000205490506000846000016000858152602001908152602001600020549050808560000160008481526020019081526020016000208190555081856001016000838152602001908152602001600020819055506000801b856000016000868152602001908152602001600020819055506001925050505b92915050565b6146d08363a9059cbb60e01b8484604051602401808373ffffffffffffffffffffffffffffffffffffffff16815260200182815260200192505050604051602081830303815290604052907bffffffffffffffffffffffffffffffffffffffffffffffffffffffff19166020820180517bffffffffffffffffffffffffffffffffffffffffffffffffffffffff8381831617835250505050614ced565b505050565b600080600360008a815260200190815260200160002060009054906101000a900473ffffffffffffffffffffffffffffffffffffffff169050600073ffffffffffffffffffffffffffffffffffffffff168173ffffffffffffffffffffffffffffffffffffffff16146148da576319a05a7e60e01b7bffffffffffffffffffffffffffffffffffffffffffffffffffffffff19168173ffffffffffffffffffffffffffffffffffffffff166319a05a7e858c89896040518563ffffffff1660e01b8152600401808573ffffffffffffffffffffffffffffffffffffffff168152602001848152602001806020018281038252848482818152602001925080828437600081840152601f19601f8201169050808301925050509550505050505060206040518083038186803b15801561480c57600080fd5b505afa158015614820573d6000803e3d6000fd5b505050506040513d602081101561483657600080fd5b81019080805190602001909291905050507bffffffffffffffffffffffffffffffffffffffffffffffffffffffff1916146148d9576040517f08c379a000000000000000000000000000000000000000000000000000000000815260040180806020018281038252601f8152602001807f75736572206e6f7420616c6c6f77656420746f20706c616365206f726465720081525060200191505060405180910390fd5b5b506000806148fd600260008c815260200190815260200160002060040154613e6f565b925092505060005b89518110156149f55761495089828151811061491d57fe5b60200260200101516bffffffffffffffffffffffff16836bffffffffffffffffffffffff1661367990919063ffffffff16565b614992846bffffffffffffffffffffffff168c848151811061496e57fe5b60200260200101516bffffffffffffffffffffffff1661367990919063ffffffff16565b106149e8576040517f08c379a00000000000000000000000000000000000000000000000000000000081526004018080602001828103825260298152602001806159426029913960400191505060405180910390fd5b8080600101915050614905565b5050506000614a0383611978565b91506000600260008b815260200190815260200160002060050154905060005b8951811015614c7c5760008a8281518110614a3a57fe5b60200260200101516bffffffffffffffffffffffff1611614aa6576040517f08c379a000000000000000000000000000000000000000000000000000000000815260040180806020018281038252602581526020018061573c6025913960400191505060405180910390fd5b81898281518110614ab357fe5b60200260200101516bffffffffffffffffffffffff1611614b3c576040517f08c379a000000000000000000000000000000000000000000000000000000000815260040180806020018281038252600f8152602001807f6f7264657220746f6f20736d616c6c000000000000000000000000000000000081525060200191505060405180910390fd5b614ba6614b70858c8481518110614b4f57fe5b60200260200101518c8581518110614b6357fe5b60200260200101516138ce565b898381518110614b7c57fe5b6020026020010151600160008f8152602001908152602001600020614eaf9092919063ffffffff16565b15614c6f57614bdf898281518110614bba57fe5b60200260200101516bffffffffffffffffffffffff16846135f190919063ffffffff16565b92508367ffffffffffffffff168b7f9304f2fc7ed6d42c0400e678dbc7283e1e9054889c3afea5f965adff66ef9eac8c8481518110614c1a57fe5b60200260200101518c8581518110614c2e57fe5b602002602001015160405180836bffffffffffffffffffffffff168152602001826bffffffffffffffffffffffff1681526020019250505060405180910390a35b8080600101915050614a23565b50614ce0333084600260008f815260200190815260200160002060010160009054906101000a900473ffffffffffffffffffffffffffffffffffffffff1673ffffffffffffffffffffffffffffffffffffffff16613788909392919063ffffffff16565b5050979650505050505050565b6060614d4f826040518060400160405280602081526020017f5361666545524332303a206c6f772d6c6576656c2063616c6c206661696c65648152508573ffffffffffffffffffffffffffffffffffffffff1661515d9092919063ffffffff16565b9050600081511115614dd757808060200190516020811015614d7057600080fd5b8101908080519060200190929190505050614dd6576040517f08c379a000000000000000000000000000000000000000000000000000000000815260040180806020018281038252602a815260200180615994602a913960400191505060405180910390fd5b5b505050565b6000614de88383615175565b614e5a576040517f08c379a000000000000000000000000000000000000000000000000000000000815260040180806020018281038252601b8152602001807f4d757374206861766520494420746f206765742041646472657373000000000081525060200191505060405180910390fd5b8260000160006001840167ffffffffffffffff1667ffffffffffffffff16815260200190815260200160002060009054906101000a900473ffffffffffffffffffffffffffffffffffffffff16905092915050565b600080614ebb84613e6f565b9250505060006bffffffffffffffffffffffff16816bffffffffffffffffffffffff161415614f52576040517f08c379a000000000000000000000000000000000000000000000000000000000815260040180806020018281038252601f8152602001807f496e73657274696e67207a65726f206973206e6f7420737570706f727465640081525060200191505060405180910390fd5b600160001b8414158015614f8957507fffffffffffffffffffffffffffffffffffffffff00000000000000000000000160001b8414155b614ffb576040517f08c379a000000000000000000000000000000000000000000000000000000000815260040180806020018281038252601e8152602001807f496e73657274696e6720656c656d656e74206973206e6f742076616c6964000081525060200191505060405180910390fd5b61500585856141fc565b15615014576000915050615156565b600160001b831415801561503f57506000801b85600101600085815260200190815260200160002054145b1561504e576000915050615156565b615061848461427590919063ffffffff16565b61506f576000915050615156565b5b6000801b8560000160008581526020019081526020016000205414156150ad57846001016000848152602001908152602001600020549250615070565b6000808490505b8091508660000160008281526020019081526020016000205490506150e2868261427590919063ffffffff16565b6150b4578587600001600084815260200190815260200160002081905550858760010160008381526020019081526020016000208190555081876001016000888152602001908152602001600020819055508087600001600088815260200190815260200160002081905550600193505050505b9392505050565b606061516c84846000856151fb565b90509392505050565b60008073ffffffffffffffffffffffffffffffffffffffff168360000160006001850167ffffffffffffffff1667ffffffffffffffff16815260200190815260200160002060009054906101000a900473ffffffffffffffffffffffffffffffffffffffff1673ffffffffffffffffffffffffffffffffffffffff161415905092915050565b606082471015615256576040517f08c379a00000000000000000000000000000000000000000000000000000000081526004018080602001828103825260268152602001806157836026913960400191505060405180910390fd5b61525f856153a4565b6152d1576040517f08c379a000000000000000000000000000000000000000000000000000000000815260040180806020018281038252601d8152602001807f416464726573733a2063616c6c20746f206e6f6e2d636f6e747261637400000081525060200191505060405180910390fd5b600060608673ffffffffffffffffffffffffffffffffffffffff1685876040518082805190602001908083835b6020831061532157805182526020820191506020810190506020830392506152fe565b6001836020036101000a03801982511681845116808217855250505050505090500191505060006040518083038185875af1925050503d8060008114615383576040519150601f19603f3d011682016040523d82523d6000602084013e615388565b606091505b50915091506153988282866153b7565b92505050949350505050565b600080823b905060008111915050919050565b606083156153c75782905061547c565b6000835111156153da5782518084602001fd5b816040517f08c379a00000000000000000000000000000000000000000000000000000000081526004018080602001828103825283818151815260200191508051906020019080838360005b83811015615441578082015181840152602081019050615426565b50505050905090810190601f16801561546e5780820380516001836020036101000a031916815260200191505b509250505060405180910390fd5b9392505050565b828054600181600116156101000203166002900490600052602060002090601f016020900481019282601f106154c457805160ff19168380011785556154f2565b828001600101855582156154f2579182015b828111156154f15782518255916020019190600101906154d6565b5b5090506154ff9190615601565b5090565b50805460018160011615610100020316600290046000825580601f106155295750615548565b601f0160209004906000526020600020908101906155479190615601565b5b50565b604051806101c00160405280600073ffffffffffffffffffffffffffffffffffffffff168152602001600073ffffffffffffffffffffffffffffffffffffffff1681526020016000815260200160008152602001600080191681526020016000815260200160008152602001600080191681526020016000801916815260200160006bffffffffffffffffffffffff16815260200160001515815260200160001515815260200160008152602001600081525090565b5b8082111561561a576000816000905550600101615602565b509056fe53616665436173743a2076616c756520646f65736e27742066697420696e20393620626974736e6f7420616c6c6f77656420746f20736574746c652061756374696f6e2061746f6d6963616c6c7970726563616c63756c61746553656c6c416d6f756e7453756d20697320616c726561647920746f6f20616476616e6365644f6e6c792074686520757365722063616e2063616e63656c20686973206f72646572734f776e61626c653a206e6577206f776e657220697320746865207a65726f2061646472657373746f6b656e732063616e6e6f742062652061756374696f6e656420666f7220667265656e6f206c6f6e67657220696e206f7264657220706c6163656d656e7420616e642063616e63656c6174696f6e2070686173655f6d696e427579416d6f756e7473206d7573742062652067726561746572207468616e2030547279696e6720746f20676574206e657874206f66206c61737420656c656d656e74416464726573733a20696e73756666696369656e742062616c616e636520666f722063616c6c466565206973206e6f7420616c6c6f77656420746f2062652073657420686967686572207468616e20312e352561756374696f6e20656e642064617465206d75737420626520696e20746865206675747572654f6e6c79206f6e65206f726465722063616e20626520706c616365642061746f6d6963616c6c79547279696e6720746f20676574206e657874206f66206e6f6e2d6578697374656e7420656c656d656e746d696e696d756d42696464696e67416d6f756e745065724f72646572206973206e6f7420616c6c6f77656420746f206265207a65726f536166654d6174683a206d756c7469706c69636174696f6e206f766572666c6f7753616665436173743a2076616c756520646f65736e27742066697420696e20363420626974736f6e6c7920616c6c6f77656420746f20636c61696d20666f722073616d65207573657241756374696f6e206e6f7420696e20736f6c7574696f6e207375626d697373696f6e20706861736575736572206973206e6f7420616c6c6f77656420746f20706c6163652073616d65206f726465722074776963656c696d6974207072696365206e6f7420626574746572207468616e206d696d696d616c206f6666657274696d6520706572696f647320617265206e6f7420636f6e6669677572656420636f72726563746c795361666545524332303a204552433230206f7065726174696f6e20646964206e6f7420737563636565646e6f206c6f6e67657220696e206f7264657220706c6163656d656e74207068617365a2646970667358221220345c12f23979df4e10cd6d24235268867faac8e18c5bd5badf8280e4902794ce64736f6c634300060c0033",
  "devdoc": {
    "kind": "dev",
    "methods": {
      "owner()": {
        "details": "Returns the address of the current owner."
      },
      "renounceOwnership()": {
        "details": "Leaves the contract without owner. It will not be possible to call `onlyOwner` functions anymore. Can only be called by the current owner. NOTE: Renouncing ownership will leave the contract without an owner, thereby removing any functionality that is only available to the owner."
      },
      "transferOwnership(address)": {
        "details": "Transfers ownership of the contract to a new account (`newOwner`). Can only be called by the current owner."
      }
    },
    "version": 1
  },
  "userdoc": {
    "kind": "user",
    "methods": {},
    "version": 1
  },
  "storageLayout": {
    "storage": [
      {
        "astId": 7,
        "contract": "contracts/EasyAuction.sol:EasyAuction",
        "label": "_owner",
        "offset": 0,
        "slot": "0",
        "type": "t_address"
      },
      {
        "astId": 1887,
        "contract": "contracts/EasyAuction.sol:EasyAuction",
        "label": "sellOrders",
        "offset": 0,
        "slot": "1",
        "type": "t_mapping(t_uint256,t_struct(Data)3826_storage)"
      },
      {
        "astId": 1891,
        "contract": "contracts/EasyAuction.sol:EasyAuction",
        "label": "auctionData",
        "offset": 0,
        "slot": "2",
        "type": "t_mapping(t_uint256,t_struct(AuctionData)1883_storage)"
      },
      {
        "astId": 1895,
        "contract": "contracts/EasyAuction.sol:EasyAuction",
        "label": "auctionAccessManager",
        "offset": 0,
        "slot": "3",
        "type": "t_mapping(t_uint256,t_address)"
      },
      {
        "astId": 1899,
        "contract": "contracts/EasyAuction.sol:EasyAuction",
        "label": "auctionAccessData",
        "offset": 0,
        "slot": "4",
        "type": "t_mapping(t_uint256,t_bytes_storage)"
      },
      {
        "astId": 1901,
        "contract": "contracts/EasyAuction.sol:EasyAuction",
        "label": "registeredUsers",
        "offset": 0,
        "slot": "5",
        "type": "t_struct(Data)3635_storage"
      },
      {
        "astId": 1903,
        "contract": "contracts/EasyAuction.sol:EasyAuction",
        "label": "numUsers",
        "offset": 0,
        "slot": "7",
        "type": "t_uint64"
      },
      {
        "astId": 1905,
        "contract": "contracts/EasyAuction.sol:EasyAuction",
        "label": "auctionCounter",
        "offset": 0,
        "slot": "8",
        "type": "t_uint256"
      },
      {
        "astId": 1914,
        "contract": "contracts/EasyAuction.sol:EasyAuction",
        "label": "feeNumerator",
        "offset": 0,
        "slot": "9",
        "type": "t_uint256"
      },
      {
        "astId": 1920,
        "contract": "contracts/EasyAuction.sol:EasyAuction",
        "label": "feeReceiverUserId",
        "offset": 0,
        "slot": "10",
        "type": "t_uint64"
      }
    ],
    "types": {
      "t_address": {
        "encoding": "inplace",
        "label": "address",
        "numberOfBytes": "20"
      },
      "t_bool": {
        "encoding": "inplace",
        "label": "bool",
        "numberOfBytes": "1"
      },
      "t_bytes32": {
        "encoding": "inplace",
        "label": "bytes32",
        "numberOfBytes": "32"
      },
      "t_bytes_storage": {
        "encoding": "bytes",
        "label": "bytes",
        "numberOfBytes": "32"
      },
      "t_contract(IERC20)1118": {
        "encoding": "inplace",
        "label": "contract IERC20",
        "numberOfBytes": "20"
      },
      "t_mapping(t_address,t_uint64)": {
        "encoding": "mapping",
        "key": "t_address",
        "label": "mapping(address => uint64)",
        "numberOfBytes": "32",
        "value": "t_uint64"
      },
      "t_mapping(t_bytes32,t_bytes32)": {
        "encoding": "mapping",
        "key": "t_bytes32",
        "label": "mapping(bytes32 => bytes32)",
        "numberOfBytes": "32",
        "value": "t_bytes32"
      },
      "t_mapping(t_uint256,t_address)": {
        "encoding": "mapping",
        "key": "t_uint256",
        "label": "mapping(uint256 => address)",
        "numberOfBytes": "32",
        "value": "t_address"
      },
      "t_mapping(t_uint256,t_bytes_storage)": {
        "encoding": "mapping",
        "key": "t_uint256",
        "label": "mapping(uint256 => bytes)",
        "numberOfBytes": "32",
        "value": "t_bytes_storage"
      },
      "t_mapping(t_uint256,t_struct(AuctionData)1883_storage)": {
        "encoding": "mapping",
        "key": "t_uint256",
        "label": "mapping(uint256 => struct EasyAuction.AuctionData)",
        "numberOfBytes": "32",
        "value": "t_struct(AuctionData)1883_storage"
      },
      "t_mapping(t_uint256,t_struct(Data)3826_storage)": {
        "encoding": "mapping",
        "key": "t_uint256",
        "label": "mapping(uint256 => struct IterableOrderedOrderSet.Data)",
        "numberOfBytes": "32",
        "value": "t_struct(Data)3826_storage"
      },
      "t_mapping(t_uint64,t_address)": {
        "encoding": "mapping",
        "key": "t_uint64",
        "label": "mapping(uint64 => address)",
        "numberOfBytes": "32",
        "value": "t_address"
      },
      "t_struct(AuctionData)1883_storage": {
        "encoding": "inplace",
        "label": "struct EasyAuction.AuctionData",
        "members": [
          {
            "astId": 1856,
            "contract": "contracts/EasyAuction.sol:EasyAuction",
            "label": "auctioningToken",
            "offset": 0,
            "slot": "0",
            "type": "t_contract(IERC20)1118"
          },
          {
            "astId": 1858,
            "contract": "contracts/EasyAuction.sol:EasyAuction",
            "label": "biddingToken",
            "offset": 0,
            "slot": "1",
            "type": "t_contract(IERC20)1118"
          },
          {
            "astId": 1860,
            "contract": "contracts/EasyAuction.sol:EasyAuction",
            "label": "orderCancellationEndDate",
            "offset": 0,
            "slot": "2",
            "type": "t_uint256"
          },
          {
            "astId": 1862,
            "contract": "contracts/EasyAuction.sol:EasyAuction",
            "label": "auctionEndDate",
            "offset": 0,
            "slot": "3",
            "type": "t_uint256"
          },
          {
            "astId": 1864,
            "contract": "contracts/EasyAuction.sol:EasyAuction",
            "label": "initialAuctionOrder",
            "offset": 0,
            "slot": "4",
            "type": "t_bytes32"
          },
          {
            "astId": 1866,
            "contract": "contracts/EasyAuction.sol:EasyAuction",
            "label": "minimumBiddingAmountPerOrder",
            "offset": 0,
            "slot": "5",
            "type": "t_uint256"
          },
          {
            "astId": 1868,
            "contract": "contracts/EasyAuction.sol:EasyAuction",
            "label": "interimSumBidAmount",
            "offset": 0,
            "slot": "6",
            "type": "t_uint256"
          },
          {
            "astId": 1870,
            "contract": "contracts/EasyAuction.sol:EasyAuction",
            "label": "interimOrder",
            "offset": 0,
            "slot": "7",
            "type": "t_bytes32"
          },
          {
            "astId": 1872,
            "contract": "contracts/EasyAuction.sol:EasyAuction",
            "label": "clearingPriceOrder",
            "offset": 0,
            "slot": "8",
            "type": "t_bytes32"
          },
          {
            "astId": 1874,
            "contract": "contracts/EasyAuction.sol:EasyAuction",
            "label": "volumeClearingPriceOrder",
            "offset": 0,
            "slot": "9",
            "type": "t_uint96"
          },
          {
            "astId": 1876,
            "contract": "contracts/EasyAuction.sol:EasyAuction",
            "label": "minFundingThresholdNotReached",
            "offset": 12,
            "slot": "9",
            "type": "t_bool"
          },
          {
            "astId": 1878,
            "contract": "contracts/EasyAuction.sol:EasyAuction",
            "label": "isAtomicClosureAllowed",
            "offset": 13,
            "slot": "9",
            "type": "t_bool"
          },
          {
            "astId": 1880,
            "contract": "contracts/EasyAuction.sol:EasyAuction",
            "label": "feeNumerator",
            "offset": 0,
            "slot": "10",
            "type": "t_uint256"
          },
          {
            "astId": 1882,
            "contract": "contracts/EasyAuction.sol:EasyAuction",
            "label": "minFundingThreshold",
            "offset": 0,
            "slot": "11",
            "type": "t_uint256"
          }
        ],
        "numberOfBytes": "384"
      },
      "t_struct(Data)3635_storage": {
        "encoding": "inplace",
        "label": "struct IdToAddressBiMap.Data",
        "members": [
          {
            "astId": 3630,
            "contract": "contracts/EasyAuction.sol:EasyAuction",
            "label": "idToAddress",
            "offset": 0,
            "slot": "0",
            "type": "t_mapping(t_uint64,t_address)"
          },
          {
            "astId": 3634,
            "contract": "contracts/EasyAuction.sol:EasyAuction",
            "label": "addressToId",
            "offset": 0,
            "slot": "1",
            "type": "t_mapping(t_address,t_uint64)"
          }
        ],
        "numberOfBytes": "64"
      },
      "t_struct(Data)3826_storage": {
        "encoding": "inplace",
        "label": "struct IterableOrderedOrderSet.Data",
        "members": [
          {
            "astId": 3821,
            "contract": "contracts/EasyAuction.sol:EasyAuction",
            "label": "nextMap",
            "offset": 0,
            "slot": "0",
            "type": "t_mapping(t_bytes32,t_bytes32)"
          },
          {
            "astId": 3825,
            "contract": "contracts/EasyAuction.sol:EasyAuction",
            "label": "prevMap",
            "offset": 0,
            "slot": "1",
            "type": "t_mapping(t_bytes32,t_bytes32)"
          }
        ],
        "numberOfBytes": "64"
      },
      "t_uint256": {
        "encoding": "inplace",
        "label": "uint256",
        "numberOfBytes": "32"
      },
      "t_uint64": {
        "encoding": "inplace",
        "label": "uint64",
        "numberOfBytes": "8"
      },
      "t_uint96": {
        "encoding": "inplace",
        "label": "uint96",
        "numberOfBytes": "12"
      }
    }
  }
}