{
  "address": "0x1a4a5A9eF24538E16f37524524fA54f246310548",
  "abi": [
    {
      "inputs": [],
      "stateMutability": "nonpayable",
      "type": "constructor"
    },
    {
      "anonymous": false,
      "inputs": [
        {
          "indexed": true,
          "internalType": "address",
          "name": "previousOwner",
          "type": "address"
        },
        {
          "indexed": true,
          "internalType": "address",
          "name": "newOwner",
          "type": "address"
        }
      ],
      "name": "OwnershipTransferred",
      "type": "event"
    },
    {
      "inputs": [],
      "name": "domainSeparator",
      "outputs": [
        {
          "internalType": "bytes32",
          "name": "",
          "type": "bytes32"
        }
      ],
      "stateMutability": "view",
      "type": "function"
    },
    {
      "inputs": [
        {
          "internalType": "address",
          "name": "user",
          "type": "address"
        },
        {
          "internalType": "uint256",
          "name": "auctionId",
          "type": "uint256"
        },
        {
          "internalType": "bytes",
          "name": "callData",
          "type": "bytes"
        }
      ],
      "name": "isAllowed",
      "outputs": [
        {
          "internalType": "bytes4",
          "name": "",
          "type": "bytes4"
        }
      ],
      "stateMutability": "view",
      "type": "function"
    },
    {
      "inputs": [],
      "name": "owner",
      "outputs": [
        {
          "internalType": "address",
          "name": "",
          "type": "address"
        }
      ],
      "stateMutability": "view",
      "type": "function"
    },
    {
      "inputs": [],
      "name": "renounceOwnership",
      "outputs": [],
      "stateMutability": "nonpayable",
      "type": "function"
    },
    {
      "inputs": [
        {
          "internalType": "address",
          "name": "newOwner",
          "type": "address"
        }
      ],
      "name": "transferOwnership",
      "outputs": [],
      "stateMutability": "nonpayable",
      "type": "function"
    }
  ],
  "transactionHash": "0x76a04dd276b02ebfbcfce14b66f67449def761bd024f06395c1cbdbf08280cf8",
  "args": [],
  "solcInputHash": "5272bfb34b28591c452df1091d6a9db9",
  "bytecode": "0x60a060405234801561001057600080fd5b50600061001b610110565b600080546001600160a01b0319166001600160a01b0383169081178255604051929350917f8be0079c531659141344cd1fd0a4f28419497f9722a3daafe3b4186f6b6457e0908290a350604080517f8b73c3c69bb8fe3d512ecc4cf759cc79239f7b179b0ffacaa9a75d522b39400f6020808301919091527f64aea53a8993ca7da1a35d4bd452fdb6171945e1d5fa9b7b34165966167f81c2828401527f0984d5efd47d99151ae1be065a709e56c602102f24c1abc4008eb3f815a8d2176060830152466080808401919091523060a0808501919091528451808503909101815260c090930190935281519101209052610114565b3390565b6080516106c0610133600039806101d8528061063e52506106c06000f3fe608060405234801561001057600080fd5b50600436106100675760003560e01c80638da5cb5b116100505780638da5cb5b1461013d578063f2fde38b1461016e578063f698da25146101a157610067565b806319a05a7e1461006c578063715018a614610133575b600080fd5b6100fe6004803603606081101561008257600080fd5b73ffffffffffffffffffffffffffffffffffffffff823516916020810135918101906060810160408201356401000000008111156100bf57600080fd5b8201836020820111156100d157600080fd5b803590602001918460018302840111640100000000831117156100f357600080fd5b5090925090506101bb565b604080517fffffffff000000000000000000000000000000000000000000000000000000009092168252519081900360200190f35b61013b610396565b005b610145610496565b6040805173ffffffffffffffffffffffffffffffffffffffff9092168252519081900360200190f35b61013b6004803603602081101561018457600080fd5b503573ffffffffffffffffffffffffffffffffffffffff166104b2565b6101a961063c565b60408051918252519081900360200190f35b600080600080858560608110156101d157600080fd5b50604080517f000000000000000000000000000000000000000000000000000000000000000060208281019190915273ffffffffffffffffffffffffffffffffffffffff8c168284015260608281018c9052835180840390910181526080830184528051908201207f19457468657265756d205369676e6564204d6573736167653a0a33320000000060a084015260bc8084018290528451808503909101815260dc840180865281519184019190912060009182905260fc85018087525260ff86351661011c85018190528387013561013c86018190529686013561015c860181905295519099509597509395509360019261017c80820193927fffffffffffffffffffffffffffffffffffffffffffffffffffffffffffffffe081019281900390910190855afa15801561030a573d6000803e3d6000fd5b5050506020604051035190508073ffffffffffffffffffffffffffffffffffffffff16610335610496565b73ffffffffffffffffffffffffffffffffffffffff16141561037f57507f19a05a7e00000000000000000000000000000000000000000000000000000000945061038e9350505050565b506000945061038e9350505050565b949350505050565b61039e610660565b60005473ffffffffffffffffffffffffffffffffffffffff90811691161461042757604080517f08c379a000000000000000000000000000000000000000000000000000000000815260206004820181905260248201527f4f776e61626c653a2063616c6c6572206973206e6f7420746865206f776e6572604482015290519081900360640190fd5b6000805460405173ffffffffffffffffffffffffffffffffffffffff909116907f8be0079c531659141344cd1fd0a4f28419497f9722a3daafe3b4186f6b6457e0908390a3600080547fffffffffffffffffffffffff0000000000000000000000000000000000000000169055565b60005473ffffffffffffffffffffffffffffffffffffffff1690565b6104ba610660565b60005473ffffffffffffffffffffffffffffffffffffffff90811691161461054357604080517f08c379a000000000000000000000000000000000000000000000000000000000815260206004820181905260248201527f4f776e61626c653a2063616c6c6572206973206e6f7420746865206f776e6572604482015290519081900360640190fd5b73ffffffffffffffffffffffffffffffffffffffff81166105af576040517f08c379a00000000000000000000000000000000000000000000000000000000081526004018080602001828103825260268152602001806106656026913960400191505060405180910390fd5b6000805460405173ffffffffffffffffffffffffffffffffffffffff808516939216917f8be0079c531659141344cd1fd0a4f28419497f9722a3daafe3b4186f6b6457e091a3600080547fffffffffffffffffffffffff00000000000000000000000000000000000000001673ffffffffffffffffffffffffffffffffffffffff92909216919091179055565b7f000000000000000000000000000000000000000000000000000000000000000081565b339056fe4f776e61626c653a206e6577206f776e657220697320746865207a65726f2061646472657373a26469706673582212209a0766ab7be986a642fbea41e38ed5a202ceef0401138965278cf67d33c845a264736f6c634300060c0033",
  "devdoc": {
    "kind": "dev",
    "methods": {
      "owner()": {
        "details": "Returns the address of the current owner."
      },
      "renounceOwnership()": {
        "details": "Leaves the contract without owner. It will not be possible to call `onlyOwner` functions anymore. Can only be called by the current owner. NOTE: Renouncing ownership will leave the contract without an owner, thereby removing any functionality that is only available to the owner."
      },
      "transferOwnership(address)": {
        "details": "Transfers ownership of the contract to a new account (`newOwner`). Can only be called by the current owner."
      }
    },
    "stateVariables": {
      "DOMAIN_NAME": {
        "details": "The EIP-712 domain name used for computing the domain separator."
      },
      "DOMAIN_TYPE_HASH": {
        "details": "The EIP-712 domain type hash used for computing the domain separator."
      },
      "DOMAIN_VERSION": {
        "details": "The EIP-712 domain version used for computing the domain separator."
      },
      "domainSeparator": {
        "details": "The domain separator used for signing orders that gets mixed in making signatures for different domains incompatible. This domain separator is computed following the EIP-712 standard and has replay protection mixed in so that signed orders are only valid for specific GPv2 contracts."
      }
    },
    "version": 1
  },
  "userdoc": {
    "kind": "user",
    "methods": {},
    "version": 1
  },
  "storageLayout": {
    "storage": [
      {
        "astId": 30,
        "contract": "contracts/allowListExamples/AllowListOffChainManaged.sol:AllowListOffChainManaged",
        "label": "_owner",
        "offset": 0,
        "slot": "0",
        "type": "t_address"
      }
    ],
    "types": {
      "t_address": {
        "encoding": "inplace",
        "label": "address",
        "numberOfBytes": "20"
      }
    }
  }
}