{
  "address": "0xCbC4770563113cC126a06977367827532438Ad9f",
  "abi": [
    {
      "inputs": [],
      "stateMutability": "nonpayable",
      "type": "constructor"
    },
    {
      "anonymous": false,
      "inputs": [
        {
          "indexed": true,
          "internalType": "address",
          "name": "previousOwner",
          "type": "address"
        },
        {
          "indexed": true,
          "internalType": "address",
          "name": "newOwner",
          "type": "address"
        }
      ],
      "name": "OwnershipTransferred",
      "type": "event"
    },
    {
      "inputs": [],
      "name": "domainSeparator",
      "outputs": [
        {
          "internalType": "bytes32",
          "name": "",
          "type": "bytes32"
        }
      ],
      "stateMutability": "view",
      "type": "function"
    },
    {
      "inputs": [
        {
          "internalType": "address",
          "name": "user",
          "type": "address"
        },
        {
          "internalType": "uint256",
          "name": "auctionId",
          "type": "uint256"
        },
        {
          "internalType": "bytes",
          "name": "callData",
          "type": "bytes"
        }
      ],
      "name": "isAllowed",
      "outputs": [
        {
          "internalType": "bytes4",
          "name": "",
          "type": "bytes4"
        }
      ],
      "stateMutability": "view",
      "type": "function"
    },
    {
      "inputs": [],
      "name": "owner",
      "outputs": [
        {
          "internalType": "address",
          "name": "",
          "type": "address"
        }
      ],
      "stateMutability": "view",
      "type": "function"
    },
    {
      "inputs": [],
      "name": "renounceOwnership",
      "outputs": [],
      "stateMutability": "nonpayable",
      "type": "function"
    },
    {
      "inputs": [
        {
          "internalType": "bytes4",
          "name": "interfaceId",
          "type": "bytes4"
        }
      ],
      "name": "supportsInterface",
      "outputs": [
        {
          "internalType": "bool",
          "name": "",
          "type": "bool"
        }
      ],
      "stateMutability": "view",
      "type": "function"
    },
    {
      "inputs": [
        {
          "internalType": "address",
          "name": "newOwner",
          "type": "address"
        }
      ],
      "name": "transferOwnership",
      "outputs": [],
      "stateMutability": "nonpayable",
      "type": "function"
    }
  ],
  "transactionHash": "0xac25416fc4ffed258287c56d7d81b8330ee650d3dddd39b8389ba0e49ce93751",
  "args": [],
  "solcInputHash": "8cfeccc63eecd891961f7d2a49248375",
  "bytecode": "0x60a060405234801561001057600080fd5b50600061001b610136565b600080546001600160a01b0319166001600160a01b0383169081178255604051929350917f8be0079c531659141344cd1fd0a4f28419497f9722a3daafe3b4186f6b6457e0908290a3506100756301ffc9a760e01b61013a565b604080517f8b73c3c69bb8fe3d512ecc4cf759cc79239f7b179b0ffacaa9a75d522b39400f6020808301919091527f64aea53a8993ca7da1a35d4bd452fdb6171945e1d5fa9b7b34165966167f81c2828401527f0984d5efd47d99151ae1be065a709e56c602102f24c1abc4008eb3f815a8d21760608301524660808084018290523060a0808601919091528551808603909101815260c090940190945282519290910191909120909152610130630cd02d3f60e11b61013a565b506101c1565b3390565b6001600160e01b03198082161415610199576040805162461bcd60e51b815260206004820152601c60248201527f4552433136353a20696e76616c696420696e7465726661636520696400000000604482015290519081900360640190fd5b6001600160e01b0319166000908152600160208190526040909120805460ff19169091179055565b6080516107556101e06000398061026d52806106d352506107556000f3fe608060405234801561001057600080fd5b50600436106100725760003560e01c80638da5cb5b116100505780638da5cb5b1461019b578063f2fde38b146101cc578063f698da25146101ff57610072565b806301ffc9a71461007757806319a05a7e146100ca578063715018a614610191575b600080fd5b6100b66004803603602081101561008d57600080fd5b50357fffffffff0000000000000000000000000000000000000000000000000000000016610219565b604080519115158252519081900360200190f35b61015c600480360360608110156100e057600080fd5b73ffffffffffffffffffffffffffffffffffffffff8235169160208101359181019060608101604082013564010000000081111561011d57600080fd5b82018360208201111561012f57600080fd5b8035906020019184600183028401116401000000008311171561015157600080fd5b509092509050610250565b604080517fffffffff000000000000000000000000000000000000000000000000000000009092168252519081900360200190f35b61019961042b565b005b6101a361052b565b6040805173ffffffffffffffffffffffffffffffffffffffff9092168252519081900360200190f35b610199600480360360208110156101e257600080fd5b503573ffffffffffffffffffffffffffffffffffffffff16610547565b6102076106d1565b60408051918252519081900360200190f35b7fffffffff000000000000000000000000000000000000000000000000000000001660009081526001602052604090205460ff1690565b6000806000808585606081101561026657600080fd5b50604080517f000000000000000000000000000000000000000000000000000000000000000060208281019190915273ffffffffffffffffffffffffffffffffffffffff8c168284015260608281018c9052835180840390910181526080830184528051908201207f19457468657265756d205369676e6564204d6573736167653a0a33320000000060a084015260bc8084018290528451808503909101815260dc840180865281519184019190912060009182905260fc85018087525260ff86351661011c85018190528387013561013c86018190529686013561015c860181905295519099509597509395509360019261017c80820193927fffffffffffffffffffffffffffffffffffffffffffffffffffffffffffffffe081019281900390910190855afa15801561039f573d6000803e3d6000fd5b5050506020604051035190508073ffffffffffffffffffffffffffffffffffffffff166103ca61052b565b73ffffffffffffffffffffffffffffffffffffffff16141561041457507f19a05a7e0000000000000000000000000000000000000000000000000000000094506104239350505050565b50600094506104239350505050565b949350505050565b6104336106f5565b60005473ffffffffffffffffffffffffffffffffffffffff9081169116146104bc57604080517f08c379a000000000000000000000000000000000000000000000000000000000815260206004820181905260248201527f4f776e61626c653a2063616c6c6572206973206e6f7420746865206f776e6572604482015290519081900360640190fd5b6000805460405173ffffffffffffffffffffffffffffffffffffffff909116907f8be0079c531659141344cd1fd0a4f28419497f9722a3daafe3b4186f6b6457e0908390a3600080547fffffffffffffffffffffffff0000000000000000000000000000000000000000169055565b60005473ffffffffffffffffffffffffffffffffffffffff1690565b61054f6106f5565b60005473ffffffffffffffffffffffffffffffffffffffff9081169116146105d857604080517f08c379a000000000000000000000000000000000000000000000000000000000815260206004820181905260248201527f4f776e61626c653a2063616c6c6572206973206e6f7420746865206f776e6572604482015290519081900360640190fd5b73ffffffffffffffffffffffffffffffffffffffff8116610644576040517f08c379a00000000000000000000000000000000000000000000000000000000081526004018080602001828103825260268152602001806106fa6026913960400191505060405180910390fd5b6000805460405173ffffffffffffffffffffffffffffffffffffffff808516939216917f8be0079c531659141344cd1fd0a4f28419497f9722a3daafe3b4186f6b6457e091a3600080547fffffffffffffffffffffffff00000000000000000000000000000000000000001673ffffffffffffffffffffffffffffffffffffffff92909216919091179055565b7f000000000000000000000000000000000000000000000000000000000000000081565b339056fe4f776e61626c653a206e6577206f776e657220697320746865207a65726f2061646472657373a264697066735822122084d70127e39707108f39945dee57c4834b841d11c20fea2ddf9373c9fc48e26464736f6c634300060c0033",
  "devdoc": {
    "kind": "dev",
    "methods": {
      "owner()": {
        "details": "Returns the address of the current owner."
      },
      "renounceOwnership()": {
        "details": "Leaves the contract without owner. It will not be possible to call `onlyOwner` functions anymore. Can only be called by the current owner. NOTE: Renouncing ownership will leave the contract without an owner, thereby removing any functionality that is only available to the owner."
      },
      "supportsInterface(bytes4)": {
        "details": "See {IERC165-supportsInterface}. Time complexity O(1), guaranteed to always use less than 30 000 gas."
      },
      "transferOwnership(address)": {
        "details": "Transfers ownership of the contract to a new account (`newOwner`). Can only be called by the current owner."
      }
    },
    "stateVariables": {
      "DOMAIN_NAME": {
        "details": "The EIP-712 domain name used for computing the domain separator."
      },
      "DOMAIN_TYPE_HASH": {
        "details": "The EIP-712 domain type hash used for computing the domain separator."
      },
      "DOMAIN_VERSION": {
        "details": "The EIP-712 domain version used for computing the domain separator."
      },
      "INTERFACE_ID": {
        "details": "EIP-165 interface id"
      },
      "domainSeparator": {
        "details": "The domain separator used for signing orders that gets mixed in making signatures for different domains incompatible. This domain separator is computed following the EIP-712 standard and has replay protection mixed in so that signed orders are only valid for specific GPv2 contracts."
      }
    },
    "version": 1
  },
  "userdoc": {
    "kind": "user",
    "methods": {},
    "version": 1
  },
  "storageLayout": {
    "storage": [
      {
        "astId": 30,
        "contract": "contracts/allowListExamples/AllowListOffChainManaged.sol:AllowListOffChainManaged",
        "label": "_owner",
        "offset": 0,
        "slot": "0",
        "type": "t_address"
      },
      {
        "astId": 145,
        "contract": "contracts/allowListExamples/AllowListOffChainManaged.sol:AllowListOffChainManaged",
        "label": "_supportedInterfaces",
        "offset": 0,
        "slot": "1",
        "type": "t_mapping(t_bytes4,t_bool)"
      }
    ],
    "types": {
      "t_address": {
        "encoding": "inplace",
        "label": "address",
        "numberOfBytes": "20"
      },
      "t_bool": {
        "encoding": "inplace",
        "label": "bool",
        "numberOfBytes": "1"
      },
      "t_bytes4": {
        "encoding": "inplace",
        "label": "bytes4",
        "numberOfBytes": "4"
      },
      "t_mapping(t_bytes4,t_bool)": {
        "encoding": "mapping",
        "key": "t_bytes4",
        "label": "mapping(bytes4 => bool)",
        "numberOfBytes": "32",
        "value": "t_bool"
      }
    }
  }
}