{
  "address": "0xaA73BD4Ab068D735AdAeB04599Aac79647b21D49",
  "abi": [
    {
      "inputs": [],
      "stateMutability": "nonpayable",
      "type": "constructor"
    },
    {
      "anonymous": false,
      "inputs": [
        {
          "indexed": true,
          "internalType": "uint256",
          "name": "auctionId",
          "type": "uint256"
        },
        {
          "indexed": false,
          "internalType": "uint96",
          "name": "priceNumerator",
          "type": "uint96"
        },
        {
          "indexed": false,
          "internalType": "uint96",
          "name": "priceDenominator",
          "type": "uint96"
        }
      ],
      "name": "AuctionCleared",
      "type": "event"
    },
    {
      "anonymous": false,
      "inputs": [
        {
          "indexed": true,
          "internalType": "uint256",
          "name": "auctionId",
          "type": "uint256"
        },
        {
          "indexed": true,
          "internalType": "uint64",
          "name": "userId",
          "type": "uint64"
        },
        {
          "indexed": false,
          "internalType": "uint96",
          "name": "sellAmount",
          "type": "uint96"
        },
        {
          "indexed": false,
          "internalType": "uint96",
          "name": "buyAmount",
          "type": "uint96"
        }
      ],
      "name": "CancellationSellOrder",
      "type": "event"
    },
    {
      "anonymous": false,
      "inputs": [
        {
          "indexed": true,
          "internalType": "uint256",
          "name": "auctionId",
          "type": "uint256"
        },
        {
          "indexed": true,
          "internalType": "uint64",
          "name": "userId",
          "type": "uint64"
        },
        {
          "indexed": false,
          "internalType": "uint96",
          "name": "buyAmount",
          "type": "uint96"
        },
        {
          "indexed": false,
          "internalType": "uint96",
          "name": "sellAmount",
          "type": "uint96"
        }
      ],
      "name": "ClaimedFromOrder",
      "type": "event"
    },
    {
      "anonymous": false,
      "inputs": [
        {
          "indexed": true,
          "internalType": "uint256",
          "name": "auctionId",
          "type": "uint256"
        },
        {
          "indexed": true,
          "internalType": "contract IERC20",
          "name": "_sellToken",
          "type": "address"
        },
        {
          "indexed": true,
          "internalType": "contract IERC20",
          "name": "_buyToken",
          "type": "address"
        }
      ],
      "name": "NewAuction",
      "type": "event"
    },
    {
      "anonymous": false,
      "inputs": [
        {
          "indexed": true,
          "internalType": "uint256",
          "name": "auctionId",
          "type": "uint256"
        },
        {
          "indexed": true,
          "internalType": "uint64",
          "name": "userId",
          "type": "uint64"
        },
        {
          "indexed": false,
          "internalType": "uint96",
          "name": "buyAmount",
          "type": "uint96"
        },
        {
          "indexed": false,
          "internalType": "uint96",
          "name": "sellAmount",
          "type": "uint96"
        }
      ],
      "name": "NewSellOrder",
      "type": "event"
    },
    {
      "anonymous": false,
      "inputs": [
        {
          "indexed": true,
          "internalType": "address",
          "name": "previousOwner",
          "type": "address"
        },
        {
          "indexed": true,
          "internalType": "address",
          "name": "newOwner",
          "type": "address"
        }
      ],
      "name": "OwnershipTransferred",
      "type": "event"
    },
    {
      "anonymous": false,
      "inputs": [
        {
          "indexed": true,
          "internalType": "address",
          "name": "user",
          "type": "address"
        },
        {
          "indexed": false,
          "internalType": "uint64",
          "name": "userId",
          "type": "uint64"
        }
      ],
      "name": "UserRegistration",
      "type": "event"
    },
    {
      "inputs": [],
      "name": "FEE_DENOMINATOR",
      "outputs": [
        {
          "internalType": "uint256",
          "name": "",
          "type": "uint256"
        }
      ],
      "stateMutability": "view",
      "type": "function"
    },
    {
      "inputs": [],
      "name": "auctionCounter",
      "outputs": [
        {
          "internalType": "uint256",
          "name": "",
          "type": "uint256"
        }
      ],
      "stateMutability": "view",
      "type": "function"
    },
    {
      "inputs": [
        {
          "internalType": "uint256",
          "name": "",
          "type": "uint256"
        }
      ],
      "name": "auctionData",
      "outputs": [
        {
          "internalType": "contract IERC20",
          "name": "sellToken",
          "type": "address"
        },
        {
          "internalType": "contract IERC20",
          "name": "buyToken",
          "type": "address"
        },
        {
          "internalType": "uint256",
          "name": "auctionEndDate",
          "type": "uint256"
        },
        {
          "internalType": "bytes32",
          "name": "initialAuctionOrder",
          "type": "bytes32"
        },
        {
          "internalType": "uint256",
          "name": "minimumParticipationBuyAmount",
          "type": "uint256"
        },
        {
          "internalType": "uint256",
          "name": "interimSellAmountSum",
          "type": "uint256"
        },
        {
          "internalType": "bytes32",
          "name": "interimOrder",
          "type": "bytes32"
        },
        {
          "internalType": "bytes32",
          "name": "clearingPriceOrder",
          "type": "bytes32"
        },
        {
          "internalType": "uint96",
          "name": "volumeClearingPriceOrder",
          "type": "uint96"
        },
        {
          "internalType": "uint256",
          "name": "feeNumerator",
          "type": "uint256"
        }
      ],
      "stateMutability": "view",
      "type": "function"
    },
    {
      "inputs": [
        {
          "internalType": "uint256",
          "name": "auctionId",
          "type": "uint256"
        },
        {
          "internalType": "bytes32[]",
          "name": "_sellOrders",
          "type": "bytes32[]"
        },
        {
          "internalType": "bytes32[]",
          "name": "_prevSellOrders",
          "type": "bytes32[]"
        }
      ],
      "name": "cancelSellOrders",
      "outputs": [],
      "stateMutability": "nonpayable",
      "type": "function"
    },
    {
      "inputs": [
        {
          "internalType": "uint256",
          "name": "auctionId",
          "type": "uint256"
        },
        {
          "internalType": "bytes32[]",
          "name": "orders",
          "type": "bytes32[]"
        },
        {
          "internalType": "bytes32[]",
          "name": "previousOrders",
          "type": "bytes32[]"
        }
      ],
      "name": "claimFromParticipantOrder",
      "outputs": [
        {
          "internalType": "uint256",
          "name": "sumSellTokenAmount",
          "type": "uint256"
        },
        {
          "internalType": "uint256",
          "name": "sumBuyTokenAmount",
          "type": "uint256"
        }
      ],
      "stateMutability": "nonpayable",
      "type": "function"
    },
    {
      "inputs": [
        {
          "internalType": "uint256",
          "name": "auctionId",
          "type": "uint256"
        },
        {
          "internalType": "bytes32",
          "name": "order",
          "type": "bytes32"
        }
      ],
      "name": "containsOrder",
      "outputs": [
        {
          "internalType": "bool",
          "name": "",
          "type": "bool"
        }
      ],
      "stateMutability": "view",
      "type": "function"
    },
    {
      "inputs": [],
      "name": "feeNumerator",
      "outputs": [
        {
          "internalType": "uint256",
          "name": "",
          "type": "uint256"
        }
      ],
      "stateMutability": "view",
      "type": "function"
    },
    {
      "inputs": [],
      "name": "feeReceiverUserId",
      "outputs": [
        {
          "internalType": "uint64",
          "name": "",
          "type": "uint64"
        }
      ],
      "stateMutability": "view",
      "type": "function"
    },
    {
      "inputs": [
        {
          "internalType": "uint256",
          "name": "auctionId",
          "type": "uint256"
        }
      ],
      "name": "getSecondsRemainingInBatch",
      "outputs": [
        {
          "internalType": "uint256",
          "name": "",
          "type": "uint256"
        }
      ],
      "stateMutability": "view",
      "type": "function"
    },
    {
      "inputs": [
        {
          "internalType": "address",
          "name": "user",
          "type": "address"
        }
      ],
      "name": "getUserId",
      "outputs": [
        {
          "internalType": "uint64",
          "name": "userId",
          "type": "uint64"
        }
      ],
      "stateMutability": "nonpayable",
      "type": "function"
    },
    {
      "inputs": [
        {
          "internalType": "contract IERC20",
          "name": "_sellToken",
          "type": "address"
        },
        {
          "internalType": "contract IERC20",
          "name": "_buyToken",
          "type": "address"
        },
        {
          "internalType": "uint256",
          "name": "duration",
          "type": "uint256"
        },
        {
          "internalType": "uint96",
          "name": "_sellAmount",
          "type": "uint96"
        },
        {
          "internalType": "uint96",
          "name": "_minBuyAmount",
          "type": "uint96"
        },
        {
          "internalType": "uint256",
          "name": "minimumParticipationBuyAmount",
          "type": "uint256"
        }
      ],
      "name": "initiateAuction",
      "outputs": [
        {
          "internalType": "uint256",
          "name": "",
          "type": "uint256"
        }
      ],
      "stateMutability": "nonpayable",
      "type": "function"
    },
    {
      "inputs": [],
      "name": "numUsers",
      "outputs": [
        {
          "internalType": "uint64",
          "name": "",
          "type": "uint64"
        }
      ],
      "stateMutability": "view",
      "type": "function"
    },
    {
      "inputs": [],
      "name": "owner",
      "outputs": [
        {
          "internalType": "address",
          "name": "",
          "type": "address"
        }
      ],
      "stateMutability": "view",
      "type": "function"
    },
    {
      "inputs": [
        {
          "internalType": "uint256",
          "name": "auctionId",
          "type": "uint256"
        },
        {
          "internalType": "uint96[]",
          "name": "_minBuyAmounts",
          "type": "uint96[]"
        },
        {
          "internalType": "uint96[]",
          "name": "_sellAmounts",
          "type": "uint96[]"
        },
        {
          "internalType": "bytes32[]",
          "name": "_prevSellOrders",
          "type": "bytes32[]"
        }
      ],
      "name": "placeSellOrders",
      "outputs": [
        {
          "internalType": "uint64",
          "name": "userId",
          "type": "uint64"
        }
      ],
      "stateMutability": "nonpayable",
      "type": "function"
    },
    {
      "inputs": [
        {
          "internalType": "uint256",
          "name": "auctionId",
          "type": "uint256"
        },
        {
          "internalType": "uint256",
          "name": "iterationSteps",
          "type": "uint256"
        }
      ],
      "name": "precalculateSellAmountSum",
      "outputs": [],
      "stateMutability": "nonpayable",
      "type": "function"
    },
    {
      "inputs": [
        {
          "internalType": "address",
          "name": "user",
          "type": "address"
        }
      ],
      "name": "registerUser",
      "outputs": [
        {
          "internalType": "uint64",
          "name": "userId",
          "type": "uint64"
        }
      ],
      "stateMutability": "nonpayable",
      "type": "function"
    },
    {
      "inputs": [],
      "name": "renounceOwnership",
      "outputs": [],
      "stateMutability": "nonpayable",
      "type": "function"
    },
    {
      "inputs": [
        {
          "internalType": "uint256",
          "name": "",
          "type": "uint256"
        }
      ],
      "name": "sellOrders",
      "outputs": [
        {
          "internalType": "uint256",
          "name": "size",
          "type": "uint256"
        }
      ],
      "stateMutability": "view",
      "type": "function"
    },
    {
      "inputs": [
        {
          "internalType": "uint256",
          "name": "newFeeNumerator",
          "type": "uint256"
        },
        {
          "internalType": "address",
          "name": "newfeeReceiverAddress",
          "type": "address"
        }
      ],
      "name": "setFeeParameters",
      "outputs": [],
      "stateMutability": "nonpayable",
      "type": "function"
    },
    {
      "inputs": [
        {
          "internalType": "address",
          "name": "newOwner",
          "type": "address"
        }
      ],
      "name": "transferOwnership",
      "outputs": [],
      "stateMutability": "nonpayable",
      "type": "function"
    },
    {
      "inputs": [
        {
          "internalType": "uint256",
          "name": "auctionId",
          "type": "uint256"
        },
        {
          "internalType": "bytes32",
          "name": "price",
          "type": "bytes32"
        }
      ],
      "name": "verifyPrice",
      "outputs": [],
      "stateMutability": "nonpayable",
      "type": "function"
    }
  ],
  "transactionHash": "0x8b0d34a6c3481d13f886252e8a3ad6e5a22921b3bd2aa56aa99931345ee0eb73",
  "args": [],
  "solcInputHash": "0d6be83a50b43d886dbf033bcbac13a7",
  "bytecode": "0x608060405260006007556000600860006101000a81548167ffffffffffffffff021916908367ffffffffffffffff1602179055503480156200004057600080fd5b50600062000053620000f760201b60201c565b9050806000806101000a81548173ffffffffffffffffffffffffffffffffffffffff021916908373ffffffffffffffffffffffffffffffffffffffff1602179055508073ffffffffffffffffffffffffffffffffffffffff16600073ffffffffffffffffffffffffffffffffffffffff167f8be0079c531659141344cd1fd0a4f28419497f9722a3daafe3b4186f6b6457e060405160405180910390a350620000ff565b600033905090565b614bc0806200010f6000396000f3fe608060405234801561001057600080fd5b50600436106101375760003560e01c806363c699a4116100b8578063c1110dd61161007c578063c1110dd6146106d1578063cc76310914610842578063d73792a914610a4a578063e86dea4a14610a68578063f2fde38b14610a86578063f9f0751a14610aca57610137565b806363c699a41461056b578063715018a6146105b957806375d3c2d6146105c35780638da5cb5b1461067f578063a7e76644146106b357610137565b806340b20b09116100ff57806340b20b09146102a25780634a8393f3146102f057806355fc62d21461033257806356a23c5a146103ed5780635cefb2911461054357610137565b806315d37b4b1461013c57806319a50f491461017e5780632199d5cd146101a65780632b956ff7146102085780633e12905f1461026a575b600080fd5b6101686004803603602081101561015257600080fd5b8101908080359060200190929190505050610b02565b6040518082815260200191505060405180910390f35b610186610b5c565b604051808267ffffffffffffffff16815260200191505060405180910390f35b6101e8600480360360208110156101bc57600080fd5b81019080803573ffffffffffffffffffffffffffffffffffffffff169060200190929190505050610b76565b604051808267ffffffffffffffff16815260200191505060405180910390f35b61024a6004803603602081101561021e57600080fd5b81019080803573ffffffffffffffffffffffffffffffffffffffff169060200190929190505050610cf0565b604051808267ffffffffffffffff16815260200191505060405180910390f35b6102a06004803603604081101561028057600080fd5b810190808035906020019092919080359060200190929190505050610d37565b005b6102ee600480360360408110156102b857600080fd5b8101908080359060200190929190803573ffffffffffffffffffffffffffffffffffffffff169060200190929190505050610fbf565b005b61031c6004803603602081101561030657600080fd5b810190808035906020019092919050505061111d565b6040518082815260200191505060405180910390f35b61035e6004803603602081101561034857600080fd5b810190808035906020019092919050505061113b565b604051808b73ffffffffffffffffffffffffffffffffffffffff1681526020018a73ffffffffffffffffffffffffffffffffffffffff168152602001898152602001888152602001878152602001868152602001858152602001848152602001836bffffffffffffffffffffffff1681526020018281526020019a505050505050505050505060405180910390f35b6105416004803603606081101561040357600080fd5b81019080803590602001909291908035906020019064010000000081111561042a57600080fd5b82018360208201111561043c57600080fd5b8035906020019184602083028401116401000000008311171561045e57600080fd5b919080806020026020016040519081016040528093929190818152602001838360200280828437600081840152601f19601f820116905080830192505050505050509192919290803590602001906401000000008111156104be57600080fd5b8201836020820111156104d057600080fd5b803590602001918460208302840111640100000000831117156104f257600080fd5b919080806020026020016040519081016040528093929190818152602001838360200280828437600081840152601f19601f8201169050808301925050505050505091929192905050506111e7565b005b61054b61145a565b604051808267ffffffffffffffff16815260200191505060405180910390f35b6105a16004803603604081101561058157600080fd5b810190808035906020019092919080359060200190929190505050611474565b60405180821515815260200191505060405180910390f35b6105c16114a3565b005b610669600480360360c08110156105d957600080fd5b81019080803573ffffffffffffffffffffffffffffffffffffffff169060200190929190803573ffffffffffffffffffffffffffffffffffffffff1690602001909291908035906020019092919080356bffffffffffffffffffffffff16906020019092919080356bffffffffffffffffffffffff16906020019092919080359060200190929190505050611629565b6040518082815260200191505060405180910390f35b610687611941565b604051808273ffffffffffffffffffffffffffffffffffffffff16815260200191505060405180910390f35b6106bb61196a565b6040518082815260200191505060405180910390f35b610825600480360360608110156106e757600080fd5b81019080803590602001909291908035906020019064010000000081111561070e57600080fd5b82018360208201111561072057600080fd5b8035906020019184602083028401116401000000008311171561074257600080fd5b919080806020026020016040519081016040528093929190818152602001838360200280828437600081840152601f19601f820116905080830192505050505050509192919290803590602001906401000000008111156107a257600080fd5b8201836020820111156107b457600080fd5b803590602001918460208302840111640100000000831117156107d657600080fd5b919080806020026020016040519081016040528093929190818152602001838360200280828437600081840152601f19601f820116905080830192505050505050509192919290505050611970565b604051808381526020018281526020019250505060405180910390f35b610a2a6004803603608081101561085857600080fd5b81019080803590602001909291908035906020019064010000000081111561087f57600080fd5b82018360208201111561089157600080fd5b803590602001918460208302840111640100000000831117156108b357600080fd5b919080806020026020016040519081016040528093929190818152602001838360200280828437600081840152601f19601f8201169050808301925050505050505091929192908035906020019064010000000081111561091357600080fd5b82018360208201111561092557600080fd5b8035906020019184602083028401116401000000008311171561094757600080fd5b919080806020026020016040519081016040528093929190818152602001838360200280828437600081840152601f19601f820116905080830192505050505050509192919290803590602001906401000000008111156109a757600080fd5b8201836020820111156109b957600080fd5b803590602001918460208302840111640100000000831117156109db57600080fd5b919080806020026020016040519081016040528093929190818152602001838360200280828437600081840152601f19601f820116905080830192505050505050509192919290505050611f13565b604051808267ffffffffffffffff16815260200191505060405180910390f35b610a52612300565b6040518082815260200191505060405180910390f35b610a70612306565b6040518082815260200191505060405180910390f35b610ac860048036036020811015610a9c57600080fd5b81019080803573ffffffffffffffffffffffffffffffffffffffff16906020019092919050505061230c565b005b610b0060048036036040811015610ae057600080fd5b810190808035906020019092919080359060200190929190505050612517565b005b60004260026000848152602001908152602001600020600201541015610b2b5760009050610b57565b610b54426002600085815260200190815260200160002060020154612cb490919063ffffffff16565b90505b919050565b600560009054906101000a900467ffffffffffffffff1681565b6000610ba4600560009054906101000a900467ffffffffffffffff16836003612cfe9092919063ffffffff16565b610c16576040517f08c379a00000000000000000000000000000000000000000000000000000000081526004018080602001828103825260178152602001807f5573657220616c7265616479207265676973746572656400000000000000000081525060200191505060405180910390fd5b600560009054906101000a900467ffffffffffffffff169050610c6b610c666001600560009054906101000a900467ffffffffffffffff1667ffffffffffffffff1661302490919063ffffffff16565b6130ac565b600560006101000a81548167ffffffffffffffff021916908367ffffffffffffffff1602179055508173ffffffffffffffffffffffffffffffffffffffff167f6838f67cb358c332087b73dbe769a6c869a5f87225236c16dda5d0013a77074c82604051808267ffffffffffffffff16815260200191505060405180910390a2919050565b6000610d0682600361311790919063ffffffff16565b15610d2657610d1f82600361318490919063ffffffff16565b9050610d32565b610d2f82610b76565b90505b919050565b81600260008281526020019081526020016000206002015442118015610d7557506000801b6002600083815260200190815260200160002060070154145b610dca576040517f08c379a0000000000000000000000000000000000000000000000000000000008152600401808060200182810382526028815260200180614ac16028913960400191505060405180910390fd5b6000610deb6002600086815260200190815260200160002060030154613263565b925050506000600260008681526020019081526020016000206005015490506000600260008781526020019081526020016000206006015490506000801b811415610e3857600160001b90505b60005b85811015610eaa57610e6882600160008a81526020019081526020016000206132f190919063ffffffff16565b91506000610e7583613263565b92505050610e9a816bffffffffffffffffffffffff168561302490919063ffffffff16565b9350508080600101915050610e3b565b50600080610eb783613263565b9250925050610eeb816bffffffffffffffffffffffff16866bffffffffffffffffffffffff166133fe90919063ffffffff16565b610f0c836bffffffffffffffffffffffff16866133fe90919063ffffffff16565b10610f7f576040517f08c379a00000000000000000000000000000000000000000000000000000000081526004018080602001828103825260198152602001807f746f6f206d616e79206f72646572732073756d6d65642075700000000000000081525060200191505060405180910390fd5b83600260008a81526020019081526020016000206005018190555082600260008a8152602001908152602001600020600601819055505050505050505050565b610fc7613484565b73ffffffffffffffffffffffffffffffffffffffff1660008054906101000a900473ffffffffffffffffffffffffffffffffffffffff1673ffffffffffffffffffffffffffffffffffffffff1614611087576040517f08c379a00000000000000000000000000000000000000000000000000000000081526004018080602001828103825260208152602001807f4f776e61626c653a2063616c6c6572206973206e6f7420746865206f776e657281525060200191505060405180910390fd5b600f8211156110e1576040517f08c379a000000000000000000000000000000000000000000000000000000000815260040180806020018281038252602d815260200180614971602d913960400191505060405180910390fd5b6110ea81610cf0565b600860006101000a81548167ffffffffffffffff021916908367ffffffffffffffff160217905550816007819055505050565b60016020528060005260406000206000915090508060010154905081565b60026020528060005260406000206000915090508060000160009054906101000a900473ffffffffffffffffffffffffffffffffffffffff16908060010160009054906101000a900473ffffffffffffffffffffffffffffffffffffffff16908060020154908060030154908060040154908060050154908060060154908060070154908060080160009054906101000a90046bffffffffffffffffffffffff1690806009015490508a565b8260026000828152602001908152602001600020600201544210611256576040517f08c379a0000000000000000000000000000000000000000000000000000000008152600401808060200182810382526022815260200180614b696022913960400191505060405180910390fd5b600061126133610cf0565b90506000805b85518110156113f057600080600061129189858151811061128457fe5b6020026020010151613263565b9250925092508567ffffffffffffffff168367ffffffffffffffff1614611303576040517f08c379a00000000000000000000000000000000000000000000000000000000081526004018080602001828103825260238152602001806148b06023913960400191505060405180910390fd5b61135089858151811061131257fe5b602002602001015189868151811061132657fe5b6020026020010151600160008e815260200190815260200160002061348c9092919063ffffffff16565b156113e057611376816bffffffffffffffffffffffff168661302490919063ffffffff16565b94508567ffffffffffffffff168a7f7edae327fe79804b2f38bd490d874a0d188d3ae8911b303205abe47400086ac4848460405180836bffffffffffffffffffffffff168152602001826bffffffffffffffffffffffff1681526020019250505060405180910390a35b5050508080600101915050611267565b506114523382600260008a815260200190815260200160002060010160009054906101000a900473ffffffffffffffffffffffffffffffffffffffff1673ffffffffffffffffffffffffffffffffffffffff166135879092919063ffffffff16565b505050505050565b600860009054906101000a900467ffffffffffffffff1681565b600061149b826001600086815260200190815260200160002061362990919063ffffffff16565b905092915050565b6114ab613484565b73ffffffffffffffffffffffffffffffffffffffff1660008054906101000a900473ffffffffffffffffffffffffffffffffffffffff1673ffffffffffffffffffffffffffffffffffffffff161461156b576040517f08c379a00000000000000000000000000000000000000000000000000000000081526004018080602001828103825260208152602001807f4f776e61626c653a2063616c6c6572206973206e6f7420746865206f776e657281525060200191505060405180910390fd5b600073ffffffffffffffffffffffffffffffffffffffff1660008054906101000a900473ffffffffffffffffffffffffffffffffffffffff1673ffffffffffffffffffffffffffffffffffffffff167f8be0079c531659141344cd1fd0a4f28419497f9722a3daafe3b4186f6b6457e060405160405180910390a360008060006101000a81548173ffffffffffffffffffffffffffffffffffffffff021916908373ffffffffffffffffffffffffffffffffffffffff160217905550565b60008061163533610cf0565b90506116ae33306116876103e861167961165c6007546103e861302490919063ffffffff16565b8b6bffffffffffffffffffffffff166133fe90919063ffffffff16565b61369290919063ffffffff16565b8b73ffffffffffffffffffffffffffffffffffffffff166136dc909392919063ffffffff16565b60008311611707576040517f08c379a0000000000000000000000000000000000000000000000000000000008152600401808060200182810382526037815260200180614a206037913960400191505060405180910390fd5b6006600081548092919060010191905055506040518061014001604052808973ffffffffffffffffffffffffffffffffffffffff1681526020018873ffffffffffffffffffffffffffffffffffffffff168152602001874201815260200161177083878961379d565b8152602001848152602001600081526020016000801b81526020016000801b815260200160006bffffffffffffffffffffffff16815260200160075481525060026000600654815260200190815260200160002060008201518160000160006101000a81548173ffffffffffffffffffffffffffffffffffffffff021916908373ffffffffffffffffffffffffffffffffffffffff16021790555060208201518160010160006101000a81548173ffffffffffffffffffffffffffffffffffffffff021916908373ffffffffffffffffffffffffffffffffffffffff16021790555060408201518160020155606082015181600301556080820151816004015560a0820151816005015560c0820151816006015560e082015181600701556101008201518160080160006101000a8154816bffffffffffffffffffffffff02191690836bffffffffffffffffffffffff16021790555061012082015181600901559050508673ffffffffffffffffffffffffffffffffffffffff168873ffffffffffffffffffffffffffffffffffffffff166006547f15dd9639accd24fcb10b44fe33886ce03e228e4e6ba1f65791edf66fa4acfa0360405160405180910390a46006549150509695505050505050565b60008060009054906101000a900473ffffffffffffffffffffffffffffffffffffffff16905090565b60065481565b600080846000801b60026000838152602001908152602001600020600701541415611a03576040517f08c379a00000000000000000000000000000000000000000000000000000000081526004018080602001828103825260188152602001807f41756374696f6e206e6f74207965742066696e6973686564000000000000000081525060200191505060405180910390fd5b611a0b614819565b60026000888152602001908152602001600020604051806101400160405290816000820160009054906101000a900473ffffffffffffffffffffffffffffffffffffffff1673ffffffffffffffffffffffffffffffffffffffff1673ffffffffffffffffffffffffffffffffffffffff1681526020016001820160009054906101000a900473ffffffffffffffffffffffffffffffffffffffff1673ffffffffffffffffffffffffffffffffffffffff1673ffffffffffffffffffffffffffffffffffffffff1681526020016002820154815260200160038201548152602001600482015481526020016005820154815260200160068201548152602001600782015481526020016008820160009054906101000a90046bffffffffffffffffffffffff166bffffffffffffffffffffffff166bffffffffffffffffffffffff1681526020016009820154815250509050600080611b6c8360e00151613263565b92509250506000611b9089600081518110611b8357fe5b6020026020010151613263565b5050905060005b8951811015611ef957611bed8a8281518110611baf57fe5b60200260200101518a8381518110611bc357fe5b6020026020010151600160008f815260200190815260200160002061348c9092919063ffffffff16565b611c5f576040517f08c379a000000000000000000000000000000000000000000000000000000000815260040180806020018281038252601c8152602001807f6f72646572206973206e6f206c6f6e67657220636c61696d61626c650000000081525060200191505060405180910390fd5b6000806000611c808d8581518110611c7357fe5b6020026020010151613263565b9250925092508467ffffffffffffffff168367ffffffffffffffff1614611cf2576040517f08c379a0000000000000000000000000000000000000000000000000000000008152600401808060200182810382526023815260200180614a9e6023913960400191505060405180910390fd5b8760e001518d8581518110611d0357fe5b60200260200101511415611dc657611d77611d68876bffffffffffffffffffffffff16611d5a8a6bffffffffffffffffffffffff168c61010001516bffffffffffffffffffffffff166133fe90919063ffffffff16565b61369290919063ffffffff16565b8c61302490919063ffffffff16565b9a50611dbf611db08961010001516bffffffffffffffffffffffff16836bffffffffffffffffffffffff16612cb490919063ffffffff16565b8b61302490919063ffffffff16565b9950611e82565b611df08860e001518e8681518110611dda57fe5b602002602001015161380090919063ffffffff16565b15611e5d57611e56611e47876bffffffffffffffffffffffff16611e398a6bffffffffffffffffffffffff16856bffffffffffffffffffffffff166133fe90919063ffffffff16565b61369290919063ffffffff16565b8c61302490919063ffffffff16565b9a50611e81565b611e7e816bffffffffffffffffffffffff168b61302490919063ffffffff16565b99505b5b8467ffffffffffffffff168e7f3f2c83616e48a2f8b3c9cc26499e2e5c61643714dac49027d82cf6732f96a91a848460405180836bffffffffffffffffffffffff168152602001826bffffffffffffffffffffffff1681526020019250505060405180910390a35050508080600101915050611b97565b50611f068a8888846139b8565b5050505050935093915050565b60008460026000828152602001908152602001600020600201544210611f84576040517f08c379a0000000000000000000000000000000000000000000000000000000008152600401808060200182810382526022815260200180614b696022913960400191505060405180910390fd5b600080611fa6600260008a815260200190815260200160002060030154613263565b92509250506000611fb633610cf0565b945060005b885181101561229057612006888281518110611fd357fe5b60200260200101516bffffffffffffffffffffffff16846bffffffffffffffffffffffff166133fe90919063ffffffff16565b612048856bffffffffffffffffffffffff168b848151811061202457fe5b60200260200101516bffffffffffffffffffffffff166133fe90919063ffffffff16565b1061209e576040517f08c379a0000000000000000000000000000000000000000000000000000000008152600401808060200182810382526029815260200180614b166029913960400191505060405180910390fd5b600260008b8152602001908152602001600020600401548982815181106120c157fe5b60200260200101516bffffffffffffffffffffffff161161214a576040517f08c379a000000000000000000000000000000000000000000000000000000000815260040180806020018281038252600f8152602001807f6f7264657220746f6f20736d616c6c000000000000000000000000000000000081525060200191505060405180910390fd5b60006121b6612180888c858151811061215f57fe5b60200260200101518c868151811061217357fe5b602002602001015161379d565b89848151811061218c57fe5b6020026020010151600160008f8152602001908152602001600020613aad9092919063ffffffff16565b90508015612282576121f28983815181106121cd57fe5b60200260200101516bffffffffffffffffffffffff168461302490919063ffffffff16565b92508667ffffffffffffffff168b7f9304f2fc7ed6d42c0400e678dbc7283e1e9054889c3afea5f965adff66ef9eac8c858151811061222d57fe5b60200260200101518c868151811061224157fe5b602002602001015160405180836bffffffffffffffffffffffff168152602001826bffffffffffffffffffffffff1681526020019250505060405180910390a35b508080600101915050611fbb565b506122f4333083600260008e815260200190815260200160002060010160009054906101000a900473ffffffffffffffffffffffffffffffffffffffff1673ffffffffffffffffffffffffffffffffffffffff166136dc909392919063ffffffff16565b50505050949350505050565b6103e881565b60075481565b612314613484565b73ffffffffffffffffffffffffffffffffffffffff1660008054906101000a900473ffffffffffffffffffffffffffffffffffffffff1673ffffffffffffffffffffffffffffffffffffffff16146123d4576040517f08c379a00000000000000000000000000000000000000000000000000000000081526004018080602001828103825260208152602001807f4f776e61626c653a2063616c6c6572206973206e6f7420746865206f776e657281525060200191505060405180910390fd5b600073ffffffffffffffffffffffffffffffffffffffff168173ffffffffffffffffffffffffffffffffffffffff16141561245a576040517f08c379a00000000000000000000000000000000000000000000000000000000081526004018080602001828103825260268152602001806148d36026913960400191505060405180910390fd5b8073ffffffffffffffffffffffffffffffffffffffff1660008054906101000a900473ffffffffffffffffffffffffffffffffffffffff1673ffffffffffffffffffffffffffffffffffffffff167f8be0079c531659141344cd1fd0a4f28419497f9722a3daafe3b4186f6b6457e060405160405180910390a3806000806101000a81548173ffffffffffffffffffffffffffffffffffffffff021916908373ffffffffffffffffffffffffffffffffffffffff16021790555050565b8160026000828152602001908152602001600020600201544211801561255557506000801b6002600083815260200190815260200160002060070154145b6125aa576040517f08c379a0000000000000000000000000000000000000000000000000000000008152600401808060200182810382526028815260200180614ac16028913960400191505060405180910390fd5b6000806125b684613263565b925092505060008060006125df600260008a815260200190815260200160002060030154613263565b9250925092506000856bffffffffffffffffffffffff1611612669576040517f08c379a00000000000000000000000000000000000000000000000000000000081526004018080602001828103825260158152602001807f7072696365206d75737420626520706f7374697665000000000000000000000081525060200191505060405180910390fd5b6000600260008a81526020019081526020016000206005015490506000600260008b81526020019081526020016000206006015490506000801b8114156126b257600160001b90505b6000600160008c815260200190815260200160002060010154111561277d576126f681600160008d81526020019081526020016000206132f190919063ffffffff16565b90505b8881141580156127185750612717898261380090919063ffffffff16565b5b1561277c57600061272882613263565b9250505061274d816bffffffffffffffffffffffff168461302490919063ffffffff16565b925061277482600160008e81526020019081526020016000206132f190919063ffffffff16565b9150506126f9565b5b60006127c0876bffffffffffffffffffffffff166127b28a6bffffffffffffffffffffffff16866133fe90919063ffffffff16565b61369290919063ffffffff16565b9050818a14156129775760006127d583613263565b9250505060006127fc83876bffffffffffffffffffffffff16612cb490919063ffffffff16565b90506128476128428b6bffffffffffffffffffffffff166128348c6bffffffffffffffffffffffff16856133fe90919063ffffffff16565b61369290919063ffffffff16565b6130ac565b67ffffffffffffffff16600260008f815260200190815260200160002060080160006101000a8154816bffffffffffffffffffffffff02191690836bffffffffffffffffffffffff160217905550816bffffffffffffffffffffffff16600260008f815260200190815260200160002060080160009054906101000a90046bffffffffffffffffffffffff166bffffffffffffffffffffffff161115612955576040517f08c379a000000000000000000000000000000000000000000000000000000000815260040180806020018281038252601f8152602001807f6f726465722063616e206e6f7420626520636c656172696e67206f726465720081525060200191505060405180910390fd5b83600260008f8152602001908152602001600020600701819055505050612c17565b836bffffffffffffffffffffffff16811015612ac2576129bc876bffffffffffffffffffffffff16856bffffffffffffffffffffffff166133fe90919063ffffffff16565b6129eb866bffffffffffffffffffffffff168a6bffffffffffffffffffffffff166133fe90919063ffffffff16565b14612a41576040517f08c379a00000000000000000000000000000000000000000000000000000000081526004018080602001828103825260308152602001806148f96030913960400191505060405180910390fd5b612a4a816130ac565b67ffffffffffffffff16600260008d815260200190815260200160002060080160006101000a8154816bffffffffffffffffffffffff02191690836bffffffffffffffffffffffff160217905550612aa386898961379d565b600260008d815260200190815260200160002060070181905550612c16565b89600260008d815260200190815260200160002060070181905550836bffffffffffffffffffffffff168114612b60576040517f08c379a000000000000000000000000000000000000000000000000000000000815260040180806020018281038252601b8152602001807f7072696365206973206e6f7420636c656172696e67207072696365000000000081525060200191505060405180910390fd5b612b8f876bffffffffffffffffffffffff16856bffffffffffffffffffffffff166133fe90919063ffffffff16565b612bbe866bffffffffffffffffffffffff168a6bffffffffffffffffffffffff166133fe90919063ffffffff16565b1115612c15576040517f08c379a00000000000000000000000000000000000000000000000000000000081526004018080602001828103825260318152602001806149c56031913960400191505060405180910390fd5b5b5b8a7f8e633245b93c41d24c82377f869edd0ac49ea9084bb0fa0265125a7b1df7fc95898960405180836bffffffffffffffffffffffff168152602001826bffffffffffffffffffffffff1681526020019250505060405180910390a26000600260008d8152602001908152602001600020600901541115612c9c57612c9b8b613d3e565b5b612ca58b613f8a565b50505050505050505050505050565b6000612cf683836040518060400160405280601e81526020017f536166654d6174683a207375627472616374696f6e206f766572666c6f7700008152506141ab565b905092915050565b60008073ffffffffffffffffffffffffffffffffffffffff168273ffffffffffffffffffffffffffffffffffffffff161415612da2576040517f08c379a000000000000000000000000000000000000000000000000000000000815260040180806020018281038252601a8152602001807f43616e6e6f7420696e73657274207a65726f206164647265737300000000000081525060200191505060405180910390fd5b7fffffffffffffffffffffffffffffffffffffffffffffffffffffffffffffffff67ffffffffffffffff168367ffffffffffffffff161415612e4c576040517f08c379a00000000000000000000000000000000000000000000000000000000081526004018080602001828103825260188152602001807f43616e6e6f7420696e73657274206d61782075696e743634000000000000000081525060200191505060405180910390fd5b60008460010160008473ffffffffffffffffffffffffffffffffffffffff1673ffffffffffffffffffffffffffffffffffffffff16815260200190815260200160002060009054906101000a900467ffffffffffffffff1667ffffffffffffffff16141580612f345750600073ffffffffffffffffffffffffffffffffffffffff168460000160006001860167ffffffffffffffff1667ffffffffffffffff16815260200190815260200160002060009054906101000a900473ffffffffffffffffffffffffffffffffffffffff1673ffffffffffffffffffffffffffffffffffffffff1614155b15612f42576000905061301d565b818460000160006001860167ffffffffffffffff1667ffffffffffffffff16815260200190815260200160002060006101000a81548173ffffffffffffffffffffffffffffffffffffffff021916908373ffffffffffffffffffffffffffffffffffffffff160217905550600183018460010160008473ffffffffffffffffffffffffffffffffffffffff1673ffffffffffffffffffffffffffffffffffffffff16815260200190815260200160002060006101000a81548167ffffffffffffffff021916908367ffffffffffffffff160217905550600190505b9392505050565b6000808284019050838110156130a2576040517f08c379a000000000000000000000000000000000000000000000000000000000815260040180806020018281038252601b8152602001807f536166654d6174683a206164646974696f6e206f766572666c6f77000000000081525060200191505060405180910390fd5b8091505092915050565b600068010000000000000000821061310f576040517f08c379a0000000000000000000000000000000000000000000000000000000008152600401808060200182810382526026815260200180614a786026913960400191505060405180910390fd5b819050919050565b6000808360010160008473ffffffffffffffffffffffffffffffffffffffff1673ffffffffffffffffffffffffffffffffffffffff16815260200190815260200160002060009054906101000a900467ffffffffffffffff1667ffffffffffffffff161415905092915050565b60006131908383613117565b613202576040517f08c379a000000000000000000000000000000000000000000000000000000000815260040180806020018281038252601b8152602001807f4d7573742068617665204164647265737320746f20676574204944000000000081525060200191505060405180910390fd5b60018360010160008473ffffffffffffffffffffffffffffffffffffffff1673ffffffffffffffffffffffffffffffffffffffff16815260200190815260200160002060009054906101000a900467ffffffffffffffff1603905092915050565b600080600078010000000000000000000000000000000000000000000000008460001c8161328d57fe5b0492506c0100000000000000000000000078010000000000000000000000000000000000000000000000008560001c816132c357fe5b06816132cb57fe5b0491506c010000000000000000000000008460001c816132e757fe5b0690509193909250565b60007fffffffffffffffffffffffffffffffffffffffff00000000000000000000000160001b82141561336f576040517f08c379a000000000000000000000000000000000000000000000000000000000815260040180806020018281038252602a8152602001806149f6602a913960400191505060405180910390fd5b6000801b8360000160008481526020019081526020016000205414156133e0576040517f08c379a00000000000000000000000000000000000000000000000000000000081526004018080602001828103825260228152602001806149296022913960400191505060405180910390fd5b82600001600083815260200190815260200160002054905092915050565b600080831415613411576000905061347e565b600082840290508284828161342257fe5b0414613479576040517f08c379a0000000000000000000000000000000000000000000000000000000008152600401808060200182810382526021815260200180614a576021913960400191505060405180910390fd5b809150505b92915050565b600033905090565b60006134988484613629565b6134a55760009050613580565b60008290505b838560000160008381526020019081526020016000205414613519577fffffffffffffffffffffffffffffffffffffffff00000000000000000000000160001b8114156134fc576000915050613580565b8460000160008281526020019081526020016000205490506134ab565b84600001600085815260200190815260200160002054856000016000838152602001908152602001600020819055506000801b8560000160008681526020019081526020016000208190555084600101600081548092919060019003919050555060019150505b9392505050565b6136248363a9059cbb60e01b8484604051602401808373ffffffffffffffffffffffffffffffffffffffff16815260200182815260200192505050604051602081830303815290604052907bffffffffffffffffffffffffffffffffffffffffffffffffffffffff19166020820180517bffffffffffffffffffffffffffffffffffffffffffffffffffffffff838183161783525050505061426b565b505050565b6000600160001b82148061365f57507fffffffffffffffffffffffffffffffffffffffff00000000000000000000000160001b82145b1561366d576000905061368c565b6000801b83600001600084815260200190815260200160002054141590505b92915050565b60006136d483836040518060400160405280601a81526020017f536166654d6174683a206469766973696f6e206279207a65726f00000000000081525061435a565b905092915050565b613797846323b872dd60e01b858585604051602401808473ffffffffffffffffffffffffffffffffffffffff1681526020018373ffffffffffffffffffffffffffffffffffffffff1681526020018281526020019350505050604051602081830303815290604052907bffffffffffffffffffffffffffffffffffffffffffffffffffffffff19166020820180517bffffffffffffffffffffffffffffffffffffffffffffffffffffffff838183161783525050505061426b565b50505050565b6000816bffffffffffffffffffffffff166c01000000000000000000000000846bffffffffffffffffffffffff160278010000000000000000000000000000000000000000000000008667ffffffffffffffff1602010160001b90509392505050565b60008060008061380f86613263565b925092509250600080600061382388613263565b925092509250613858846bffffffffffffffffffffffff16836bffffffffffffffffffffffff166133fe90919063ffffffff16565b613887826bffffffffffffffffffffffff16876bffffffffffffffffffffffff166133fe90919063ffffffff16565b101561389c57600196505050505050506139b2565b6138cb846bffffffffffffffffffffffff16836bffffffffffffffffffffffff166133fe90919063ffffffff16565b6138fa826bffffffffffffffffffffffff16876bffffffffffffffffffffffff166133fe90919063ffffffff16565b111561390f57600096505050505050506139b2565b8267ffffffffffffffff168667ffffffffffffffff16141561397c576040517f08c379a000000000000000000000000000000000000000000000000000000000815260040180806020018281038252602d815260200180614ae9602d913960400191505060405180910390fd5b8267ffffffffffffffff168667ffffffffffffffff1610156139a757600196505050505050506139b2565b600096505050505050505b92915050565b60006139ce82600361442090919063ffffffff16565b90506000841115613a3b57613a3a81856002600089815260200190815260200160002060000160009054906101000a900473ffffffffffffffffffffffffffffffffffffffff1673ffffffffffffffffffffffffffffffffffffffff166135879092919063ffffffff16565b5b6000831115613aa657613aa581846002600089815260200190815260200160002060010160009054906101000a900473ffffffffffffffffffffffffffffffffffffffff1673ffffffffffffffffffffffffffffffffffffffff166135879092919063ffffffff16565b5b5050505050565b600080613ab984613263565b9250505060006bffffffffffffffffffffffff16816bffffffffffffffffffffffff161415613b50576040517f08c379a000000000000000000000000000000000000000000000000000000000815260040180806020018281038252601f8152602001807f496e73657274696e67207a65726f206973206e6f7420737570706f727465640081525060200191505060405180910390fd5b613b5a8585613629565b15613b69576000915050613d37565b60008086600101541415613bd75784866000016000600160001b8152602001908152602001600020819055507fffffffffffffffffffffffffffffffffffffffff00000000000000000000000160001b86600001600087815260200190815260200160002081905550613d1c565b600160001b841480613bef5750613bee8685613629565b5b613c44576040517f08c379a000000000000000000000000000000000000000000000000000000000815260040180806020018281038252602781526020018061499e6027913960400191505060405180910390fd5b60008490505b81613d1a57613c62868261380090919063ffffffff16565b15613d0957613c8f868860000160008481526020019081526020016000205461380090919063ffffffff16565b613ceb576000876000016000838152602001908152602001600020549050868860000160008481526020019081526020016000208190555080886000016000898152602001908152602001600020819055506001925050613d04565b8660000160008281526020019081526020016000205490505b613d15565b60009350505050613d37565b613c4a565b505b85600101600081548092919060010191905055506001925050505b9392505050565b6000806000613d626002600086815260200190815260200160002060030154613263565b925092509250600080613d8a6002600088815260200190815260200160002060070154613263565b92509250506000613ddc6103e8613dce600260008b815260200190815260200160002060090154876bffffffffffffffffffffffff166133fe90919063ffffffff16565b61369290919063ffffffff16565b9050613e0d846bffffffffffffffffffffffff16836bffffffffffffffffffffffff166133fe90919063ffffffff16565b613e3c866bffffffffffffffffffffffff16856bffffffffffffffffffffffff166133fe90919063ffffffff16565b1415613f5d576000613ea1600260008a815260200190815260200160002060080160009054906101000a90046bffffffffffffffffffffffff166bffffffffffffffffffffffff16866bffffffffffffffffffffffff16612cb490919063ffffffff16565b9050613ef888613eda876bffffffffffffffffffffffff16613ecc85876133fe90919063ffffffff16565b61369290919063ffffffff16565b6000600860009054906101000a900467ffffffffffffffff166139b8565b613f5788613f4f876bffffffffffffffffffffffff16613f41613f32868b6bffffffffffffffffffffffff16612cb490919063ffffffff16565b876133fe90919063ffffffff16565b61369290919063ffffffff16565b60008a6139b8565b50613f81565b613f8087826000600860009054906101000a900467ffffffffffffffff166139b8565b5b50505050505050565b6000806000806000613fb16002600088815260200190815260200160002060030154613263565b9250925092506000801b6002600088815260200190815260200160002060030181905550600080613ff7600260008a815260200190815260200160002060070154613263565b925092505061402b836bffffffffffffffffffffffff16826bffffffffffffffffffffffff166133fe90919063ffffffff16565b61405a856bffffffffffffffffffffffff16846bffffffffffffffffffffffff166133fe90919063ffffffff16565b1415614143576140bd600260008a815260200190815260200160002060080160009054906101000a90046bffffffffffffffffffffffff166bffffffffffffffffffffffff16846bffffffffffffffffffffffff16612cb490919063ffffffff16565b965061413c826bffffffffffffffffffffffff1661412e836bffffffffffffffffffffffff16600260008d815260200190815260200160002060080160009054906101000a90046bffffffffffffffffffffffff166bffffffffffffffffffffffff166133fe90919063ffffffff16565b61369290919063ffffffff16565b9550614195565b614192826bffffffffffffffffffffffff16614184836bffffffffffffffffffffffff16866bffffffffffffffffffffffff166133fe90919063ffffffff16565b61369290919063ffffffff16565b95505b6141a1888888886139b8565b5050505050915091565b6000838311158290614258576040517f08c379a00000000000000000000000000000000000000000000000000000000081526004018080602001828103825283818151815260200191508051906020019080838360005b8381101561421d578082015181840152602081019050614202565b50505050905090810190601f16801561424a5780820380516001836020036101000a031916815260200191505b509250505060405180910390fd5b5060008385039050809150509392505050565b60606142cd826040518060400160405280602081526020017f5361666545524332303a206c6f772d6c6576656c2063616c6c206661696c65648152508573ffffffffffffffffffffffffffffffffffffffff166144f39092919063ffffffff16565b9050600081511115614355578080602001905160208110156142ee57600080fd5b8101908080519060200190929190505050614354576040517f08c379a000000000000000000000000000000000000000000000000000000000815260040180806020018281038252602a815260200180614b3f602a913960400191505060405180910390fd5b5b505050565b60008083118290614406576040517f08c379a00000000000000000000000000000000000000000000000000000000081526004018080602001828103825283818151815260200191508051906020019080838360005b838110156143cb5780820151818401526020810190506143b0565b50505050905090810190601f1680156143f85780820380516001836020036101000a031916815260200191505b509250505060405180910390fd5b50600083858161441257fe5b049050809150509392505050565b600061442c838361450b565b61449e576040517f08c379a000000000000000000000000000000000000000000000000000000000815260040180806020018281038252601b8152602001807f4d757374206861766520494420746f206765742041646472657373000000000081525060200191505060405180910390fd5b8260000160006001840167ffffffffffffffff1667ffffffffffffffff16815260200190815260200160002060009054906101000a900473ffffffffffffffffffffffffffffffffffffffff16905092915050565b60606145028484600085614591565b90509392505050565b60008073ffffffffffffffffffffffffffffffffffffffff168360000160006001850167ffffffffffffffff1667ffffffffffffffff16815260200190815260200160002060009054906101000a900473ffffffffffffffffffffffffffffffffffffffff1673ffffffffffffffffffffffffffffffffffffffff161415905092915050565b6060824710156145ec576040517f08c379a000000000000000000000000000000000000000000000000000000000815260040180806020018281038252602681526020018061494b6026913960400191505060405180910390fd5b6145f58561473a565b614667576040517f08c379a000000000000000000000000000000000000000000000000000000000815260040180806020018281038252601d8152602001807f416464726573733a2063616c6c20746f206e6f6e2d636f6e747261637400000081525060200191505060405180910390fd5b600060608673ffffffffffffffffffffffffffffffffffffffff1685876040518082805190602001908083835b602083106146b75780518252602082019150602081019050602083039250614694565b6001836020036101000a03801982511681845116808217855250505050505090500191505060006040518083038185875af1925050503d8060008114614719576040519150601f19603f3d011682016040523d82523d6000602084013e61471e565b606091505b509150915061472e82828661474d565b92505050949350505050565b600080823b905060008111915050919050565b6060831561475d57829050614812565b6000835111156147705782518084602001fd5b816040517f08c379a00000000000000000000000000000000000000000000000000000000081526004018080602001828103825283818151815260200191508051906020019080838360005b838110156147d75780820151818401526020810190506147bc565b50505050905090810190601f1680156148045780820380516001836020036101000a031916815260200191505b509250505060405180910390fd5b9392505050565b604051806101400160405280600073ffffffffffffffffffffffffffffffffffffffff168152602001600073ffffffffffffffffffffffffffffffffffffffff16815260200160008152602001600080191681526020016000815260200160008152602001600080191681526020016000801916815260200160006bffffffffffffffffffffffff16815260200160008152509056fe4f6e6c792074686520757365722063616e2063616e63656c20686973206f72646572734f776e61626c653a206e6577206f776e657220697320746865207a65726f2061646472657373737570706c696564207072696365206d75737420626520696e766572736520696e697469616c4f726465724c696d6974547279696e6720746f20676574206e657874206f66206c61737420656c656d656e74416464726573733a20696e73756666696369656e742062616c616e636520666f722063616c6c466565206973206e6f7420616c6c6f77656420746f2062652073657420686967686572207468616e20312e3525656c656d656e744265666f72654e65774f6e65206d7573742062652076616c6964206f72646572636c656172696e6720707269636520697320626574746572207468616e20696e697469616c41756374696f6e4f72646572547279696e6720746f20676574206e657874206f66206e6f6e2d6578697374656e7420656c656d656e746d696e696d756d50617274696369706174696f6e427579416d6f756e74206973206e6f7420616c6c6f77656420746f206265207a65726f536166654d6174683a206d756c7469706c69636174696f6e206f766572666c6f7753616665436173743a2076616c756520646f65736e27742066697420696e20363420626974736f6e6c7920616c6c6f77656420746f20636c61696d20666f722073616d65207573657241756374696f6e206e6f7420696e20736f6c7574696f6e207375626d697373696f6e20706861736575736572206973206e6f7420616c6c6f77656420746f20706c6163652073616d65206f726465722074776963656c696d6974207072696365206e6f7420626574746572207468616e206d696d696d616c206f666665725361666545524332303a204552433230206f7065726174696f6e20646964206e6f7420737563636565646e6f206c6f6e67657220696e206f7264657220706c6163656d656e74207068617365a264697066735822122087648d3101dce68dec4f4429a181f251fd6de6f17bd45a5dd7cb4737d6bf1ba164736f6c634300060c0033",
  "devdoc": {
    "kind": "dev",
    "methods": {
      "owner()": {
        "details": "Returns the address of the current owner."
      },
      "renounceOwnership()": {
        "details": "Leaves the contract without owner. It will not be possible to call `onlyOwner` functions anymore. Can only be called by the current owner. NOTE: Renouncing ownership will leave the contract without an owner, thereby removing any functionality that is only available to the owner."
      },
      "transferOwnership(address)": {
        "details": "Transfers ownership of the contract to a new account (`newOwner`). Can only be called by the current owner."
      }
    },
    "version": 1
  },
  "userdoc": {
    "kind": "user",
    "methods": {},
    "version": 1
  },
  "storageLayout": {
    "storage": [
      {
        "astId": 30,
        "contract": "contracts/EasyAuction.sol:EasyAuction",
        "label": "_owner",
        "offset": 0,
        "slot": "0",
        "type": "t_address"
      },
      {
        "astId": 1424,
        "contract": "contracts/EasyAuction.sol:EasyAuction",
        "label": "sellOrders",
        "offset": 0,
        "slot": "1",
        "type": "t_mapping(t_uint256,t_struct(Data)2906_storage)"
      },
      {
        "astId": 1428,
        "contract": "contracts/EasyAuction.sol:EasyAuction",
        "label": "auctionData",
        "offset": 0,
        "slot": "2",
        "type": "t_mapping(t_uint256,t_struct(AuctionData)1420_storage)"
      },
      {
        "astId": 1430,
        "contract": "contracts/EasyAuction.sol:EasyAuction",
        "label": "registeredUsers",
        "offset": 0,
        "slot": "3",
        "type": "t_struct(Data)2717_storage"
      },
      {
        "astId": 1432,
        "contract": "contracts/EasyAuction.sol:EasyAuction",
        "label": "numUsers",
        "offset": 0,
        "slot": "5",
        "type": "t_uint64"
      },
      {
        "astId": 1434,
        "contract": "contracts/EasyAuction.sol:EasyAuction",
        "label": "auctionCounter",
        "offset": 0,
        "slot": "6",
        "type": "t_uint256"
      },
      {
        "astId": 1443,
        "contract": "contracts/EasyAuction.sol:EasyAuction",
        "label": "feeNumerator",
        "offset": 0,
        "slot": "7",
        "type": "t_uint256"
      },
      {
        "astId": 1449,
        "contract": "contracts/EasyAuction.sol:EasyAuction",
        "label": "feeReceiverUserId",
        "offset": 0,
        "slot": "8",
        "type": "t_uint64"
      }
    ],
    "types": {
      "t_address": {
        "encoding": "inplace",
        "label": "address",
        "numberOfBytes": "20"
      },
      "t_bytes32": {
        "encoding": "inplace",
        "label": "bytes32",
        "numberOfBytes": "32"
      },
      "t_contract(IERC20)478": {
        "encoding": "inplace",
        "label": "contract IERC20",
        "numberOfBytes": "20"
      },
      "t_mapping(t_address,t_uint64)": {
        "encoding": "mapping",
        "key": "t_address",
        "label": "mapping(address => uint64)",
        "numberOfBytes": "32",
        "value": "t_uint64"
      },
      "t_mapping(t_bytes32,t_bytes32)": {
        "encoding": "mapping",
        "key": "t_bytes32",
        "label": "mapping(bytes32 => bytes32)",
        "numberOfBytes": "32",
        "value": "t_bytes32"
      },
      "t_mapping(t_uint256,t_struct(AuctionData)1420_storage)": {
        "encoding": "mapping",
        "key": "t_uint256",
        "label": "mapping(uint256 => struct EasyAuction.AuctionData)",
        "numberOfBytes": "32",
        "value": "t_struct(AuctionData)1420_storage"
      },
      "t_mapping(t_uint256,t_struct(Data)2906_storage)": {
        "encoding": "mapping",
        "key": "t_uint256",
        "label": "mapping(uint256 => struct IterableOrderedOrderSet.Data)",
        "numberOfBytes": "32",
        "value": "t_struct(Data)2906_storage"
      },
      "t_mapping(t_uint64,t_address)": {
        "encoding": "mapping",
        "key": "t_uint64",
        "label": "mapping(uint64 => address)",
        "numberOfBytes": "32",
        "value": "t_address"
      },
      "t_struct(AuctionData)1420_storage": {
        "encoding": "inplace",
        "label": "struct EasyAuction.AuctionData",
        "members": [
          {
            "astId": 1401,
            "contract": "contracts/EasyAuction.sol:EasyAuction",
            "label": "sellToken",
            "offset": 0,
            "slot": "0",
            "type": "t_contract(IERC20)478"
          },
          {
            "astId": 1403,
            "contract": "contracts/EasyAuction.sol:EasyAuction",
            "label": "buyToken",
            "offset": 0,
            "slot": "1",
            "type": "t_contract(IERC20)478"
          },
          {
            "astId": 1405,
            "contract": "contracts/EasyAuction.sol:EasyAuction",
            "label": "auctionEndDate",
            "offset": 0,
            "slot": "2",
            "type": "t_uint256"
          },
          {
            "astId": 1407,
            "contract": "contracts/EasyAuction.sol:EasyAuction",
            "label": "initialAuctionOrder",
            "offset": 0,
            "slot": "3",
            "type": "t_bytes32"
          },
          {
            "astId": 1409,
            "contract": "contracts/EasyAuction.sol:EasyAuction",
            "label": "minimumParticipationBuyAmount",
            "offset": 0,
            "slot": "4",
            "type": "t_uint256"
          },
          {
            "astId": 1411,
            "contract": "contracts/EasyAuction.sol:EasyAuction",
            "label": "interimSellAmountSum",
            "offset": 0,
            "slot": "5",
            "type": "t_uint256"
          },
          {
            "astId": 1413,
            "contract": "contracts/EasyAuction.sol:EasyAuction",
            "label": "interimOrder",
            "offset": 0,
            "slot": "6",
            "type": "t_bytes32"
          },
          {
            "astId": 1415,
            "contract": "contracts/EasyAuction.sol:EasyAuction",
            "label": "clearingPriceOrder",
            "offset": 0,
            "slot": "7",
            "type": "t_bytes32"
          },
          {
            "astId": 1417,
            "contract": "contracts/EasyAuction.sol:EasyAuction",
            "label": "volumeClearingPriceOrder",
            "offset": 0,
            "slot": "8",
            "type": "t_uint96"
          },
          {
            "astId": 1419,
            "contract": "contracts/EasyAuction.sol:EasyAuction",
            "label": "feeNumerator",
            "offset": 0,
            "slot": "9",
            "type": "t_uint256"
          }
        ],
        "numberOfBytes": "320"
      },
      "t_struct(Data)2717_storage": {
        "encoding": "inplace",
        "label": "struct IdToAddressBiMap.Data",
        "members": [
          {
            "astId": 2712,
            "contract": "contracts/EasyAuction.sol:EasyAuction",
            "label": "idToAddress",
            "offset": 0,
            "slot": "0",
            "type": "t_mapping(t_uint64,t_address)"
          },
          {
            "astId": 2716,
            "contract": "contracts/EasyAuction.sol:EasyAuction",
            "label": "addressToId",
            "offset": 0,
            "slot": "1",
            "type": "t_mapping(t_address,t_uint64)"
          }
        ],
        "numberOfBytes": "64"
      },
      "t_struct(Data)2906_storage": {
        "encoding": "inplace",
        "label": "struct IterableOrderedOrderSet.Data",
        "members": [
          {
            "astId": 2903,
            "contract": "contracts/EasyAuction.sol:EasyAuction",
            "label": "nextMap",
            "offset": 0,
            "slot": "0",
            "type": "t_mapping(t_bytes32,t_bytes32)"
          },
          {
            "astId": 2905,
            "contract": "contracts/EasyAuction.sol:EasyAuction",
            "label": "size",
            "offset": 0,
            "slot": "1",
            "type": "t_uint256"
          }
        ],
        "numberOfBytes": "64"
      },
      "t_uint256": {
        "encoding": "inplace",
        "label": "uint256",
        "numberOfBytes": "32"
      },
      "t_uint64": {
        "encoding": "inplace",
        "label": "uint64",
        "numberOfBytes": "8"
      },
      "t_uint96": {
        "encoding": "inplace",
        "label": "uint96",
        "numberOfBytes": "12"
      }
    }
  }
}