{
  "address": "0xa75de195d7f6f48d773654058fB5A9492B23f842",
  "abi": [
    {
      "anonymous": false,
      "inputs": [
        {
          "indexed": false,
          "internalType": "uint256",
          "name": "auctionId",
          "type": "uint256"
        },
        {
          "indexed": false,
          "internalType": "uint96",
          "name": "priceNumerator",
          "type": "uint96"
        },
        {
          "indexed": false,
          "internalType": "uint96",
          "name": "priceDenominator",
          "type": "uint96"
        },
        {
          "indexed": false,
          "internalType": "uint256",
          "name": "rewardFactor",
          "type": "uint256"
        }
      ],
      "name": "AuctionCleared",
      "type": "event"
    },
    {
      "anonymous": false,
      "inputs": [
        {
          "indexed": true,
          "internalType": "uint256",
          "name": "auctionId",
          "type": "uint256"
        },
        {
          "indexed": true,
          "internalType": "uint64",
          "name": "userId",
          "type": "uint64"
        },
        {
          "indexed": false,
          "internalType": "uint96",
          "name": "sellAmount",
          "type": "uint96"
        },
        {
          "indexed": false,
          "internalType": "uint96",
          "name": "buyAmount",
          "type": "uint96"
        }
      ],
      "name": "CancellationSellOrders",
      "type": "event"
    },
    {
      "anonymous": false,
      "inputs": [
        {
          "indexed": true,
          "internalType": "uint256",
          "name": "auctionId",
          "type": "uint256"
        },
        {
          "indexed": true,
          "internalType": "uint64",
          "name": "userId",
          "type": "uint64"
        },
        {
          "indexed": false,
          "internalType": "uint96",
          "name": "buyAmount",
          "type": "uint96"
        },
        {
          "indexed": false,
          "internalType": "uint96",
          "name": "sellAmount",
          "type": "uint96"
        }
      ],
      "name": "ClaimedFromOrder",
      "type": "event"
    },
    {
      "anonymous": false,
      "inputs": [
        {
          "indexed": false,
          "internalType": "uint256",
          "name": "auctionId",
          "type": "uint256"
        },
        {
          "indexed": true,
          "internalType": "contract ERC20",
          "name": "_sellToken",
          "type": "address"
        },
        {
          "indexed": true,
          "internalType": "contract ERC20",
          "name": "_buyToken",
          "type": "address"
        }
      ],
      "name": "NewAuction",
      "type": "event"
    },
    {
      "anonymous": false,
      "inputs": [
        {
          "indexed": true,
          "internalType": "uint256",
          "name": "auctionId",
          "type": "uint256"
        },
        {
          "indexed": true,
          "internalType": "uint64",
          "name": "userId",
          "type": "uint64"
        },
        {
          "indexed": false,
          "internalType": "uint96",
          "name": "buyAmount",
          "type": "uint96"
        },
        {
          "indexed": false,
          "internalType": "uint96",
          "name": "sellAmount",
          "type": "uint96"
        }
      ],
      "name": "NewSellOrder",
      "type": "event"
    },
    {
      "anonymous": false,
      "inputs": [
        {
          "indexed": false,
          "internalType": "address",
          "name": "user",
          "type": "address"
        },
        {
          "indexed": false,
          "internalType": "uint64",
          "name": "userId",
          "type": "uint64"
        }
      ],
      "name": "UserRegistration",
      "type": "event"
    },
    {
      "inputs": [],
      "name": "auctionCounter",
      "outputs": [
        {
          "internalType": "uint256",
          "name": "",
          "type": "uint256"
        }
      ],
      "stateMutability": "view",
      "type": "function"
    },
    {
      "inputs": [
        {
          "internalType": "uint256",
          "name": "",
          "type": "uint256"
        }
      ],
      "name": "auctionData",
      "outputs": [
        {
          "internalType": "contract ERC20",
          "name": "sellToken",
          "type": "address"
        },
        {
          "internalType": "contract ERC20",
          "name": "buyToken",
          "type": "address"
        },
        {
          "internalType": "uint256",
          "name": "auctionEndDate",
          "type": "uint256"
        },
        {
          "internalType": "bytes32",
          "name": "initialAuctionOrder",
          "type": "bytes32"
        },
        {
          "internalType": "bytes32",
          "name": "clearingPriceOrder",
          "type": "bytes32"
        },
        {
          "internalType": "uint96",
          "name": "volumeClearingPriceOrder",
          "type": "uint96"
        }
      ],
      "stateMutability": "view",
      "type": "function"
    },
    {
      "inputs": [
        {
          "internalType": "uint256",
          "name": "auctionId",
          "type": "uint256"
        },
        {
          "internalType": "bytes32[]",
          "name": "_sellOrders",
          "type": "bytes32[]"
        },
        {
          "internalType": "bytes32[]",
          "name": "_prevSellOrders",
          "type": "bytes32[]"
        }
      ],
      "name": "cancelSellOrders",
      "outputs": [],
      "stateMutability": "nonpayable",
      "type": "function"
    },
    {
      "inputs": [
        {
          "internalType": "uint256",
          "name": "auctionId",
          "type": "uint256"
        },
        {
          "internalType": "bytes32[]",
          "name": "orders",
          "type": "bytes32[]"
        },
        {
          "internalType": "bytes32[]",
          "name": "previousOrders",
          "type": "bytes32[]"
        }
      ],
      "name": "claimFromParticipantOrder",
      "outputs": [
        {
          "internalType": "uint256",
          "name": "sumSellTokenAmount",
          "type": "uint256"
        },
        {
          "internalType": "uint256",
          "name": "sumBuyTokenAmount",
          "type": "uint256"
        }
      ],
      "stateMutability": "nonpayable",
      "type": "function"
    },
    {
      "inputs": [
        {
          "internalType": "uint256",
          "name": "auctionId",
          "type": "uint256"
        },
        {
          "internalType": "bytes32",
          "name": "order",
          "type": "bytes32"
        }
      ],
      "name": "containsOrder",
      "outputs": [
        {
          "internalType": "bool",
          "name": "",
          "type": "bool"
        }
      ],
      "stateMutability": "view",
      "type": "function"
    },
    {
      "inputs": [
        {
          "internalType": "uint256",
          "name": "auctionId",
          "type": "uint256"
        }
      ],
      "name": "getSecondsRemainingInBatch",
      "outputs": [
        {
          "internalType": "uint256",
          "name": "",
          "type": "uint256"
        }
      ],
      "stateMutability": "view",
      "type": "function"
    },
    {
      "inputs": [
        {
          "internalType": "address",
          "name": "user",
          "type": "address"
        }
      ],
      "name": "getUserId",
      "outputs": [
        {
          "internalType": "uint64",
          "name": "userId",
          "type": "uint64"
        }
      ],
      "stateMutability": "nonpayable",
      "type": "function"
    },
    {
      "inputs": [
        {
          "internalType": "contract ERC20",
          "name": "_sellToken",
          "type": "address"
        },
        {
          "internalType": "contract ERC20",
          "name": "_buyToken",
          "type": "address"
        },
        {
          "internalType": "uint256",
          "name": "duration",
          "type": "uint256"
        },
        {
          "internalType": "uint96",
          "name": "_sellAmount",
          "type": "uint96"
        },
        {
          "internalType": "uint96",
          "name": "_minBuyAmount",
          "type": "uint96"
        }
      ],
      "name": "initiateAuction",
      "outputs": [
        {
          "internalType": "uint256",
          "name": "",
          "type": "uint256"
        }
      ],
      "stateMutability": "nonpayable",
      "type": "function"
    },
    {
      "inputs": [],
      "name": "numUsers",
      "outputs": [
        {
          "internalType": "uint64",
          "name": "",
          "type": "uint64"
        }
      ],
      "stateMutability": "view",
      "type": "function"
    },
    {
      "inputs": [
        {
          "internalType": "uint256",
          "name": "auctionId",
          "type": "uint256"
        },
        {
          "internalType": "uint96[]",
          "name": "_minBuyAmounts",
          "type": "uint96[]"
        },
        {
          "internalType": "uint96[]",
          "name": "_sellAmounts",
          "type": "uint96[]"
        },
        {
          "internalType": "bytes32[]",
          "name": "_prevSellOrders",
          "type": "bytes32[]"
        }
      ],
      "name": "placeSellOrders",
      "outputs": [],
      "stateMutability": "nonpayable",
      "type": "function"
    },
    {
      "inputs": [
        {
          "internalType": "address",
          "name": "user",
          "type": "address"
        }
      ],
      "name": "registerUser",
      "outputs": [
        {
          "internalType": "uint64",
          "name": "userId",
          "type": "uint64"
        }
      ],
      "stateMutability": "nonpayable",
      "type": "function"
    },
    {
      "inputs": [
        {
          "internalType": "uint256",
          "name": "",
          "type": "uint256"
        }
      ],
      "name": "sellOrders",
      "outputs": [
        {
          "internalType": "uint256",
          "name": "size",
          "type": "uint256"
        }
      ],
      "stateMutability": "view",
      "type": "function"
    },
    {
      "inputs": [
        {
          "internalType": "uint256",
          "name": "auctionId",
          "type": "uint256"
        },
        {
          "internalType": "bytes32",
          "name": "price",
          "type": "bytes32"
        }
      ],
      "name": "verifyPrice",
      "outputs": [],
      "stateMutability": "nonpayable",
      "type": "function"
    }
  ],
  "transactionHash": "0xfab48b9716f82513dc736911ac8b2b3a04b74aa26c2d3b8d2024d9461cc563a3",
  "args": [],
  "solcInputHash": "4b06aa1a739e1fdec29b0f1e1e054104",
  "bytecode": "0x608060405234801561001057600080fd5b50613e36806100206000396000f3fe608060405234801561001057600080fd5b50600436106100cf5760003560e01c806355fc62d21161008c578063a7e7664411610066578063a7e7664414610539578063c1110dd614610557578063cc763109146106c8578063f9f0751a146108b2576100cf565b806355fc62d2146102f657806356a23c5a1461039557806363c699a4146104eb576100cf565b806315d37b4b146100d457806319a50f49146101165780632199d5cd1461013e5780632b956ff7146101a05780634087db46146102025780634a8393f3146102b4575b600080fd5b610100600480360360208110156100ea57600080fd5b81019080803590602001909291905050506108ea565b6040518082815260200191505060405180910390f35b61011e610944565b604051808267ffffffffffffffff16815260200191505060405180910390f35b6101806004803603602081101561015457600080fd5b81019080803573ffffffffffffffffffffffffffffffffffffffff16906020019092919050505061095e565b604051808267ffffffffffffffff16815260200191505060405180910390f35b6101e2600480360360208110156101b657600080fd5b81019080803573ffffffffffffffffffffffffffffffffffffffff169060200190929190505050610adf565b604051808267ffffffffffffffff16815260200191505060405180910390f35b61029e600480360360a081101561021857600080fd5b81019080803573ffffffffffffffffffffffffffffffffffffffff169060200190929190803573ffffffffffffffffffffffffffffffffffffffff1690602001909291908035906020019092919080356bffffffffffffffffffffffff16906020019092919080356bffffffffffffffffffffffff169060200190929190505050610b26565b6040518082815260200191505060405180910390f35b6102e0600480360360208110156102ca57600080fd5b8101908080359060200190929190505050610e78565b6040518082815260200191505060405180910390f35b6103226004803603602081101561030c57600080fd5b8101908080359060200190929190505050610e96565b604051808773ffffffffffffffffffffffffffffffffffffffff1681526020018673ffffffffffffffffffffffffffffffffffffffff168152602001858152602001848152602001838152602001826bffffffffffffffffffffffff168152602001965050505050505060405180910390f35b6104e9600480360360608110156103ab57600080fd5b8101908080359060200190929190803590602001906401000000008111156103d257600080fd5b8201836020820111156103e457600080fd5b8035906020019184602083028401116401000000008311171561040657600080fd5b919080806020026020016040519081016040528093929190818152602001838360200280828437600081840152601f19601f8201169050808301925050505050505091929192908035906020019064010000000081111561046657600080fd5b82018360208201111561047857600080fd5b8035906020019184602083028401116401000000008311171561049a57600080fd5b919080806020026020016040519081016040528093929190818152602001838360200280828437600081840152601f19601f820116905080830192505050505050509192919290505050610f2a565b005b6105216004803603604081101561050157600080fd5b81019080803590602001909291908035906020019092919050505061128f565b60405180821515815260200191505060405180910390f35b6105416112bd565b6040518082815260200191505060405180910390f35b6106ab6004803603606081101561056d57600080fd5b81019080803590602001909291908035906020019064010000000081111561059457600080fd5b8201836020820111156105a657600080fd5b803590602001918460208302840111640100000000831117156105c857600080fd5b919080806020026020016040519081016040528093929190818152602001838360200280828437600081840152601f19601f8201169050808301925050505050505091929192908035906020019064010000000081111561062857600080fd5b82018360208201111561063a57600080fd5b8035906020019184602083028401116401000000008311171561065c57600080fd5b919080806020026020016040519081016040528093929190818152602001838360200280828437600081840152601f19601f8201169050808301925050505050505091929192905050506112c3565b604051808381526020018281526020019250505060405180910390f35b6108b0600480360360808110156106de57600080fd5b81019080803590602001909291908035906020019064010000000081111561070557600080fd5b82018360208201111561071757600080fd5b8035906020019184602083028401116401000000008311171561073957600080fd5b919080806020026020016040519081016040528093929190818152602001838360200280828437600081840152601f19601f8201169050808301925050505050505091929192908035906020019064010000000081111561079957600080fd5b8201836020820111156107ab57600080fd5b803590602001918460208302840111640100000000831117156107cd57600080fd5b919080806020026020016040519081016040528093929190818152602001838360200280828437600081840152601f19601f8201169050808301925050505050505091929192908035906020019064010000000081111561082d57600080fd5b82018360208201111561083f57600080fd5b8035906020019184602083028401116401000000008311171561086157600080fd5b919080806020026020016040519081016040528093929190818152602001838360200280828437600081840152601f19601f82011690508083019250505050505050919291929050505061183a565b005b6108e8600480360360408110156108c857600080fd5b810190808035906020019092919080359060200190929190505050611d36565b005b60004260016000848152602001908152602001600020600201541015610913576000905061093f565b61093c4260016000858152602001908152602001600020600201546124cd90919063ffffffff16565b90505b919050565b600460009054906101000a900467ffffffffffffffff1681565b600061098c600460009054906101000a900467ffffffffffffffff168360026125179092919063ffffffff16565b6109fe576040517f08c379a00000000000000000000000000000000000000000000000000000000081526004018080602001828103825260178152602001807f5573657220616c7265616479207265676973746572656400000000000000000081525060200191505060405180910390fd5b600460009054906101000a900467ffffffffffffffff169050610a53610a4e6001600460009054906101000a900467ffffffffffffffff1667ffffffffffffffff1661283d90919063ffffffff16565b6128c5565b600460006101000a81548167ffffffffffffffff021916908367ffffffffffffffff1602179055507f6838f67cb358c332087b73dbe769a6c869a5f87225236c16dda5d0013a77074c8282604051808373ffffffffffffffffffffffffffffffffffffffff1681526020018267ffffffffffffffff1681526020019250505060405180910390a1919050565b6000610af582600261293090919063ffffffff16565b15610b1557610b0e82600261299d90919063ffffffff16565b9050610b21565b610b1e8261095e565b90505b919050565b600080610b3233610adf565b90508673ffffffffffffffffffffffffffffffffffffffff166323b872dd3330876040518463ffffffff1660e01b8152600401808473ffffffffffffffffffffffffffffffffffffffff1681526020018373ffffffffffffffffffffffffffffffffffffffff168152602001826bffffffffffffffffffffffff1681526020019350505050602060405180830381600087803b158015610bd157600080fd5b505af1158015610be5573d6000803e3d6000fd5b505050506040513d6020811015610bfb57600080fd5b8101908080519060200190929190505050610c7e576040517f08c379a000000000000000000000000000000000000000000000000000000000815260040180806020018281038252601b8152602001807f7472616e7366657220776173206e6f74207375636365737366756c000000000081525060200191505060405180910390fd5b6005600081548092919060010191905055506040518060c001604052808873ffffffffffffffffffffffffffffffffffffffff1681526020018773ffffffffffffffffffffffffffffffffffffffff1681526020018642018152602001610ce6838688612a7c565b81526020016000801b815260200160006bffffffffffffffffffffffff1681525060016000600554815260200190815260200160002060008201518160000160006101000a81548173ffffffffffffffffffffffffffffffffffffffff021916908373ffffffffffffffffffffffffffffffffffffffff16021790555060208201518160010160006101000a81548173ffffffffffffffffffffffffffffffffffffffff021916908373ffffffffffffffffffffffffffffffffffffffff16021790555060408201518160020155606082015181600301556080820151816004015560a08201518160050160006101000a8154816bffffffffffffffffffffffff02191690836bffffffffffffffffffffffff1602179055509050508573ffffffffffffffffffffffffffffffffffffffff168773ffffffffffffffffffffffffffffffffffffffff167f15dd9639accd24fcb10b44fe33886ce03e228e4e6ba1f65791edf66fa4acfa036005546040518082815260200191505060405180910390a360055491505095945050505050565b60006020528060005260406000206000915090508060010154905081565b60016020528060005260406000206000915090508060000160009054906101000a900473ffffffffffffffffffffffffffffffffffffffff16908060010160009054906101000a900473ffffffffffffffffffffffffffffffffffffffff16908060020154908060030154908060040154908060050160009054906101000a90046bffffffffffffffffffffffff16905086565b8260016000828152602001908152602001600020600201544210610f99576040517f08c379a0000000000000000000000000000000000000000000000000000000008152600401808060200182810382526022815260200180613dbd6022913960400191505060405180910390fd5b6000610fa433610adf565b90506000805b8551811015611132576000806000610fd4898581518110610fc757fe5b6020026020010151612adf565b9250925092508567ffffffffffffffff168367ffffffffffffffff1614611046576040517f08c379a0000000000000000000000000000000000000000000000000000000008152600401808060200182810382526023815260200180613bbc6023913960400191505060405180910390fd5b61109289858151811061105557fe5b602002602001015189868151811061106957fe5b60200260200101516000808e8152602001908152602001600020612b6d9092919063ffffffff16565b15611122576110b8826bffffffffffffffffffffffff168661283d90919063ffffffff16565b94508567ffffffffffffffff168a7fad1f0a9acc2f48ab1da69f409c30811bf157a52958535ee74977386574f5b62d848460405180836bffffffffffffffffffffffff168152602001826bffffffffffffffffffffffff1681526020019250505060405180910390a35b5050508080600101915050610faa565b506001600087815260200190815260200160002060010160009054906101000a900473ffffffffffffffffffffffffffffffffffffffff1673ffffffffffffffffffffffffffffffffffffffff1663a9059cbb33836040518363ffffffff1660e01b8152600401808373ffffffffffffffffffffffffffffffffffffffff16815260200182815260200192505050602060405180830381600087803b1580156111da57600080fd5b505af11580156111ee573d6000803e3d6000fd5b505050506040513d602081101561120457600080fd5b8101908080519060200190929190505050611287576040517f08c379a000000000000000000000000000000000000000000000000000000000815260040180806020018281038252601b8152602001807f7472616e7366657220776173206e6f74207375636365737366756c000000000081525060200191505060405180910390fd5b505050505050565b60006112b582600080868152602001908152602001600020612c6890919063ffffffff16565b905092915050565b60055481565b600080846000801b60016000838152602001908152602001600020600401541415611356576040517f08c379a00000000000000000000000000000000000000000000000000000000081526004018080602001828103825260188152602001807f41756374696f6e206e6f74207965742066696e6973686564000000000000000081525060200191505060405180910390fd5b61135e613b45565b600160008881526020019081526020016000206040518060c00160405290816000820160009054906101000a900473ffffffffffffffffffffffffffffffffffffffff1673ffffffffffffffffffffffffffffffffffffffff1673ffffffffffffffffffffffffffffffffffffffff1681526020016001820160009054906101000a900473ffffffffffffffffffffffffffffffffffffffff1673ffffffffffffffffffffffffffffffffffffffff1673ffffffffffffffffffffffffffffffffffffffff1681526020016002820154815260200160038201548152602001600482015481526020016005820160009054906101000a90046bffffffffffffffffffffffff166bffffffffffffffffffffffff166bffffffffffffffffffffffff168152505090506000806114968360800151612adf565b925092505060006114ba896000815181106114ad57fe5b6020026020010151612adf565b5050905060005b8951811015611820576115168a82815181106114d957fe5b60200260200101518a83815181106114ed57fe5b60200260200101516000808f8152602001908152602001600020612b6d9092919063ffffffff16565b611588576040517f08c379a000000000000000000000000000000000000000000000000000000000815260040180806020018281038252601c8152602001807f6f72646572206973206e6f206c6f6e67657220636c61696d61626c650000000081525060200191505060405180910390fd5b60008060006115a98d858151811061159c57fe5b6020026020010151612adf565b9250925092508467ffffffffffffffff168367ffffffffffffffff161461161b576040517f08c379a0000000000000000000000000000000000000000000000000000000008152600401808060200182810382526023815260200180613cd36023913960400191505060405180910390fd5b87608001518d858151811061162c57fe5b602002602001015114156116ed5761169f611690876bffffffffffffffffffffffff166116828a6bffffffffffffffffffffffff168c60a001516bffffffffffffffffffffffff16612cd190919063ffffffff16565b612d5790919063ffffffff16565b8c61283d90919063ffffffff16565b9a506116e66116d78960a001516bffffffffffffffffffffffff16836bffffffffffffffffffffffff166124cd90919063ffffffff16565b8b61283d90919063ffffffff16565b99506117a9565b61171788608001518e868151811061170157fe5b6020026020010151612da190919063ffffffff16565b156117845761177d61176e876bffffffffffffffffffffffff166117608a6bffffffffffffffffffffffff16856bffffffffffffffffffffffff16612cd190919063ffffffff16565b612d5790919063ffffffff16565b8c61283d90919063ffffffff16565b9a506117a8565b6117a5816bffffffffffffffffffffffff168b61283d90919063ffffffff16565b99505b5b8467ffffffffffffffff168e7f3f2c83616e48a2f8b3c9cc26499e2e5c61643714dac49027d82cf6732f96a91a848460405180836bffffffffffffffffffffffff168152602001826bffffffffffffffffffffffff1681526020019250505060405180910390a350505080806001019150506114c1565b5061182d8a888884612f59565b5050505050935093915050565b83600160008281526020019081526020016000206002015442106118a9576040517f08c379a0000000000000000000000000000000000000000000000000000000008152600401808060200182810382526022815260200180613dbd6022913960400191505060405180910390fd5b6000806118cb6001600089815260200190815260200160002060030154612adf565b92509250506000806118dc33610adf565b905060005b8851811015611bb85761192c8882815181106118f957fe5b60200260200101516bffffffffffffffffffffffff16856bffffffffffffffffffffffff16612cd190919063ffffffff16565b61196e866bffffffffffffffffffffffff168b848151811061194a57fe5b60200260200101516bffffffffffffffffffffffff16612cd190919063ffffffff16565b106119c4576040517f08c379a0000000000000000000000000000000000000000000000000000000008152600401808060200182810382526029815260200180613d946029913960400191505060405180910390fd5b611388846bffffffffffffffffffffffff16816119dd57fe5b048982815181106119ea57fe5b60200260200101516bffffffffffffffffffffffff1611611a73576040517f08c379a000000000000000000000000000000000000000000000000000000000815260040180806020018281038252600f8152602001807f6f7264657220746f6f20736d616c6c000000000000000000000000000000000081525060200191505060405180910390fd5b6000611ade611aa9848c8581518110611a8857fe5b60200260200101518c8681518110611a9c57fe5b6020026020010151612a7c565b898481518110611ab557fe5b60200260200101516000808f81526020019081526020016000206131e69092919063ffffffff16565b90508015611baa57611b1a898381518110611af557fe5b60200260200101516bffffffffffffffffffffffff168561283d90919063ffffffff16565b93508267ffffffffffffffff168b7f9304f2fc7ed6d42c0400e678dbc7283e1e9054889c3afea5f965adff66ef9eac8c8581518110611b5557fe5b60200260200101518c8681518110611b6957fe5b602002602001015160405180836bffffffffffffffffffffffff168152602001826bffffffffffffffffffffffff1681526020019250505060405180910390a35b5080806001019150506118e1565b50600160008a815260200190815260200160002060010160009054906101000a900473ffffffffffffffffffffffffffffffffffffffff1673ffffffffffffffffffffffffffffffffffffffff166323b872dd3330856040518463ffffffff1660e01b8152600401808473ffffffffffffffffffffffffffffffffffffffff1681526020018373ffffffffffffffffffffffffffffffffffffffff1681526020018281526020019350505050602060405180830381600087803b158015611c7e57600080fd5b505af1158015611c92573d6000803e3d6000fd5b505050506040513d6020811015611ca857600080fd5b8101908080519060200190929190505050611d2b576040517f08c379a000000000000000000000000000000000000000000000000000000000815260040180806020018281038252601b8152602001807f7472616e7366657220776173206e6f74207375636365737366756c000000000081525060200191505060405180910390fd5b505050505050505050565b81600160008281526020019081526020016000206002015442118015611d7457506000801b6001600083815260200190815260200160002060040154145b611dc9576040517f08c379a0000000000000000000000000000000000000000000000000000000008152600401808060200182810382526028815260200180613d1c6028913960400191505060405180910390fd5b600080611dd584612adf565b92509250506000806000611dfe600160008a815260200190815260200160002060030154612adf565b9250925092506000856bffffffffffffffffffffffff1611611e88576040517f08c379a00000000000000000000000000000000000000000000000000000000081526004018080602001828103825260158152602001807f7072696365206d75737420626520706f7374697665000000000000000000000081525060200191505060405180910390fd5b600080600160001b905060008060008c8152602001908152602001600020600101541115611f5a57611ed4816000808d815260200190815260200160002061347790919063ffffffff16565b90505b888114158015611ef65750611ef58982612da190919063ffffffff16565b5b15611f59576000611f0682612adf565b92505050611f2b816bffffffffffffffffffffffff168461283d90919063ffffffff16565b9250611f51826000808e815260200190815260200160002061347790919063ffffffff16565b915050611ed7565b5b6000611f9d876bffffffffffffffffffffffff16611f8f8a6bffffffffffffffffffffffff1686612cd190919063ffffffff16565b612d5790919063ffffffff16565b9050818a1415612142576000611fb283612adf565b925050506000611fd983876bffffffffffffffffffffffff166124cd90919063ffffffff16565b905061201c8a6bffffffffffffffffffffffff1661200e8b6bffffffffffffffffffffffff1684612cd190919063ffffffff16565b612d5790919063ffffffff16565b600160008f815260200190815260200160002060050160006101000a8154816bffffffffffffffffffffffff02191690836bffffffffffffffffffffffff160217905550816bffffffffffffffffffffffff16600160008f815260200190815260200160002060050160009054906101000a90046bffffffffffffffffffffffff166bffffffffffffffffffffffff161115612120576040517f08c379a000000000000000000000000000000000000000000000000000000000815260040180806020018281038252601f8152602001807f6f726465722063616e206e6f7420626520636c656172696e67206f726465720081525060200191505060405180910390fd5b83600160008f81526020019081526020016000206004018190555050506123d0565b836bffffffffffffffffffffffff1681101561227b57612187876bffffffffffffffffffffffff16856bffffffffffffffffffffffff16612cd190919063ffffffff16565b6121b6866bffffffffffffffffffffffff168a6bffffffffffffffffffffffff16612cd190919063ffffffff16565b1461220c576040517f08c379a0000000000000000000000000000000000000000000000000000000008152600401808060200182810382526030815260200180613bdf6030913960400191505060405180910390fd5b80600160008d815260200190815260200160002060050160006101000a8154816bffffffffffffffffffffffff02191690836bffffffffffffffffffffffff16021790555061225c868989612a7c565b600160008d8152602001908152602001600020600401819055506123cf565b89600160008d815260200190815260200160002060040181905550836bffffffffffffffffffffffff168114612319576040517f08c379a000000000000000000000000000000000000000000000000000000000815260040180806020018281038252601b8152602001807f7072696365206973206e6f7420636c656172696e67207072696365000000000081525060200191505060405180910390fd5b612348876bffffffffffffffffffffffff16856bffffffffffffffffffffffff16612cd190919063ffffffff16565b612377866bffffffffffffffffffffffff168a6bffffffffffffffffffffffff16612cd190919063ffffffff16565b11156123ce576040517f08c379a0000000000000000000000000000000000000000000000000000000008152600401808060200182810382526031815260200180613c316031913960400191505060405180910390fd5b5b5b60006123fb600160008e815260200190815260200160002060020154426124cd90919063ffffffff16565b9050600061244561243e61242b600161241d8687612cd190919063ffffffff16565b61283d90919063ffffffff16565b6305f5e100612d5790919063ffffffff16565b600a613584565b90507f5630ff72dd0a997d2783277090c48828946009a78b7a8d4cb290a31796474c368d8b8b8460405180858152602001846bffffffffffffffffffffffff168152602001836bffffffffffffffffffffffff16815260200182815260200194505050505060405180910390a16124bc8d8261359d565b505050505050505050505050505050565b600061250f83836040518060400160405280601e81526020017f536166654d6174683a207375627472616374696f6e206f766572666c6f770000815250613866565b905092915050565b60008073ffffffffffffffffffffffffffffffffffffffff168273ffffffffffffffffffffffffffffffffffffffff1614156125bb576040517f08c379a000000000000000000000000000000000000000000000000000000000815260040180806020018281038252601a8152602001807f43616e6e6f7420696e73657274207a65726f206164647265737300000000000081525060200191505060405180910390fd5b7fffffffffffffffffffffffffffffffffffffffffffffffffffffffffffffffff67ffffffffffffffff168367ffffffffffffffff161415612665576040517f08c379a00000000000000000000000000000000000000000000000000000000081526004018080602001828103825260188152602001807f43616e6e6f7420696e73657274206d61782075696e743634000000000000000081525060200191505060405180910390fd5b60008460010160008473ffffffffffffffffffffffffffffffffffffffff1673ffffffffffffffffffffffffffffffffffffffff16815260200190815260200160002060009054906101000a900467ffffffffffffffff1667ffffffffffffffff1614158061274d5750600073ffffffffffffffffffffffffffffffffffffffff168460000160006001860167ffffffffffffffff1667ffffffffffffffff16815260200190815260200160002060009054906101000a900473ffffffffffffffffffffffffffffffffffffffff1673ffffffffffffffffffffffffffffffffffffffff1614155b1561275b5760009050612836565b818460000160006001860167ffffffffffffffff1667ffffffffffffffff16815260200190815260200160002060006101000a81548173ffffffffffffffffffffffffffffffffffffffff021916908373ffffffffffffffffffffffffffffffffffffffff160217905550600183018460010160008473ffffffffffffffffffffffffffffffffffffffff1673ffffffffffffffffffffffffffffffffffffffff16815260200190815260200160002060006101000a81548167ffffffffffffffff021916908367ffffffffffffffff160217905550600190505b9392505050565b6000808284019050838110156128bb576040517f08c379a000000000000000000000000000000000000000000000000000000000815260040180806020018281038252601b8152602001807f536166654d6174683a206164646974696f6e206f766572666c6f77000000000081525060200191505060405180910390fd5b8091505092915050565b6000680100000000000000008210612928576040517f08c379a0000000000000000000000000000000000000000000000000000000008152600401808060200182810382526026815260200180613cad6026913960400191505060405180910390fd5b819050919050565b6000808360010160008473ffffffffffffffffffffffffffffffffffffffff1673ffffffffffffffffffffffffffffffffffffffff16815260200190815260200160002060009054906101000a900467ffffffffffffffff1667ffffffffffffffff161415905092915050565b60006129a98383612930565b612a1b576040517f08c379a000000000000000000000000000000000000000000000000000000000815260040180806020018281038252601b8152602001807f4d7573742068617665204164647265737320746f20676574204944000000000081525060200191505060405180910390fd5b60018360010160008473ffffffffffffffffffffffffffffffffffffffff1673ffffffffffffffffffffffffffffffffffffffff16815260200190815260200160002060009054906101000a900467ffffffffffffffff1603905092915050565b6000816bffffffffffffffffffffffff166c01000000000000000000000000846bffffffffffffffffffffffff160278010000000000000000000000000000000000000000000000008667ffffffffffffffff1602010160001b90509392505050565b600080600078010000000000000000000000000000000000000000000000008460001c81612b0957fe5b0492506c0100000000000000000000000078010000000000000000000000000000000000000000000000008560001c81612b3f57fe5b0681612b4757fe5b0491506c010000000000000000000000008460001c81612b6357fe5b0690509193909250565b6000612b798484612c68565b612b865760009050612c61565b60008290505b838560000160008381526020019081526020016000205414612bfa577fffffffffffffffffffffffffffffffffffffffff00000000000000000000000160001b811415612bdd576000915050612c61565b846000016000828152602001908152602001600020549050612b8c565b84600001600085815260200190815260200160002054856000016000838152602001908152602001600020819055506000801b8560000160008681526020019081526020016000208190555084600101600081548092919060019003919050555060019150505b9392505050565b6000600160001b821480612c9e57507fffffffffffffffffffffffffffffffffffffffff00000000000000000000000160001b82145b15612cac5760009050612ccb565b6000801b83600001600084815260200190815260200160002054141590505b92915050565b600080831415612ce45760009050612d51565b6000828402905082848281612cf557fe5b0414612d4c576040517f08c379a0000000000000000000000000000000000000000000000000000000008152600401808060200182810382526021815260200180613c8c6021913960400191505060405180910390fd5b809150505b92915050565b6000612d9983836040518060400160405280601a81526020017f536166654d6174683a206469766973696f6e206279207a65726f000000000000815250613926565b905092915050565b600080600080612db086612adf565b9250925092506000806000612dc488612adf565b925092509250612df9846bffffffffffffffffffffffff16836bffffffffffffffffffffffff16612cd190919063ffffffff16565b612e28826bffffffffffffffffffffffff16876bffffffffffffffffffffffff16612cd190919063ffffffff16565b1015612e3d5760019650505050505050612f53565b612e6c846bffffffffffffffffffffffff16836bffffffffffffffffffffffff16612cd190919063ffffffff16565b612e9b826bffffffffffffffffffffffff16876bffffffffffffffffffffffff16612cd190919063ffffffff16565b1115612eb05760009650505050505050612f53565b8267ffffffffffffffff168667ffffffffffffffff161415612f1d576040517f08c379a000000000000000000000000000000000000000000000000000000000815260040180806020018281038252602d815260200180613d44602d913960400191505060405180910390fd5b8267ffffffffffffffff168667ffffffffffffffff161015612f485760019650505050505050612f53565b600096505050505050505b92915050565b6000612f6f8260026139ec90919063ffffffff16565b90506001600086815260200190815260200160002060000160009054906101000a900473ffffffffffffffffffffffffffffffffffffffff1673ffffffffffffffffffffffffffffffffffffffff1663a9059cbb82866040518363ffffffff1660e01b8152600401808373ffffffffffffffffffffffffffffffffffffffff16815260200182815260200192505050602060405180830381600087803b15801561301857600080fd5b505af115801561302c573d6000803e3d6000fd5b505050506040513d602081101561304257600080fd5b81019080805190602001909291905050506130a8576040517f08c379a0000000000000000000000000000000000000000000000000000000008152600401808060200182810382526023815260200180613d716023913960400191505060405180910390fd5b6001600086815260200190815260200160002060010160009054906101000a900473ffffffffffffffffffffffffffffffffffffffff1673ffffffffffffffffffffffffffffffffffffffff1663a9059cbb82856040518363ffffffff1660e01b8152600401808373ffffffffffffffffffffffffffffffffffffffff16815260200182815260200192505050602060405180830381600087803b15801561314f57600080fd5b505af1158015613163573d6000803e3d6000fd5b505050506040513d602081101561317957600080fd5b81019080805190602001909291905050506131df576040517f08c379a0000000000000000000000000000000000000000000000000000000008152600401808060200182810382526022815260200180613ddf6022913960400191505060405180910390fd5b5050505050565b6000806131f284612adf565b9250505060006bffffffffffffffffffffffff16816bffffffffffffffffffffffff161415613289576040517f08c379a000000000000000000000000000000000000000000000000000000000815260040180806020018281038252601f8152602001807f496e73657274696e67207a65726f206973206e6f7420737570706f727465640081525060200191505060405180910390fd5b6132938585612c68565b156132a2576000915050613470565b600080866001015414156133105784866000016000600160001b8152602001908152602001600020819055507fffffffffffffffffffffffffffffffffffffffff00000000000000000000000160001b86600001600087815260200190815260200160002081905550613455565b600160001b84148061332857506133278685612c68565b5b61337d576040517f08c379a0000000000000000000000000000000000000000000000000000000008152600401808060200182810382526026815260200180613cf66026913960400191505060405180910390fd5b60008490505b816134535761339b8682612da190919063ffffffff16565b15613442576133c88688600001600084815260200190815260200160002054612da190919063ffffffff16565b61342457600087600001600083815260200190815260200160002054905086886000016000848152602001908152602001600020819055508088600001600089815260200190815260200160002081905550600192505061343d565b8660000160008281526020019081526020016000205490505b61344e565b60009350505050613470565b613383565b505b85600101600081548092919060010191905055506001925050505b9392505050565b60007fffffffffffffffffffffffffffffffffffffffff00000000000000000000000160001b8214156134f5576040517f08c379a000000000000000000000000000000000000000000000000000000000815260040180806020018281038252602a815260200180613c62602a913960400191505060405180910390fd5b6000801b836000016000848152602001908152602001600020541415613566576040517f08c379a0000000000000000000000000000000000000000000000000000000008152600401808060200182810382526022815260200180613c0f6022913960400191505060405180910390fd5b82600001600083815260200190815260200160002054905092915050565b60008183106135935781613595565b825b905092915050565b60008060008060006135c46001600089815260200190815260200160002060030154612adf565b9250925092506000801b600160008981526020019081526020016000206003018190555060008061360a600160008b815260200190815260200160002060040154612adf565b925092505061363e836bffffffffffffffffffffffff16826bffffffffffffffffffffffff16612cd190919063ffffffff16565b61366d856bffffffffffffffffffffffff16846bffffffffffffffffffffffff16612cd190919063ffffffff16565b1415613756576136d0600160008b815260200190815260200160002060050160009054906101000a90046bffffffffffffffffffffffff166bffffffffffffffffffffffff16846bffffffffffffffffffffffff166124cd90919063ffffffff16565b965061374f826bffffffffffffffffffffffff16613741836bffffffffffffffffffffffff16600160008e815260200190815260200160002060050160009054906101000a90046bffffffffffffffffffffffff166bffffffffffffffffffffffff16612cd190919063ffffffff16565b612d5790919063ffffffff16565b95506137a8565b6137a5826bffffffffffffffffffffffff16613797836bffffffffffffffffffffffff16866bffffffffffffffffffffffff16612cd190919063ffffffff16565b612d5790919063ffffffff16565b95505b613822896137e48a6137d66137c760018e6124cd90919063ffffffff16565b8c612cd190919063ffffffff16565b612d5790919063ffffffff16565b61381c8b61380e6137ff60018f6124cd90919063ffffffff16565b8c612cd190919063ffffffff16565b612d5790919063ffffffff16565b88612f59565b61385a896138398a8a612d5790919063ffffffff16565b61384c8b8a612d5790919063ffffffff16565b61385533610adf565b612f59565b50505050509250929050565b6000838311158290613913576040517f08c379a00000000000000000000000000000000000000000000000000000000081526004018080602001828103825283818151815260200191508051906020019080838360005b838110156138d85780820151818401526020810190506138bd565b50505050905090810190601f1680156139055780820380516001836020036101000a031916815260200191505b509250505060405180910390fd5b5060008385039050809150509392505050565b600080831182906139d2576040517f08c379a00000000000000000000000000000000000000000000000000000000081526004018080602001828103825283818151815260200191508051906020019080838360005b8381101561399757808201518184015260208101905061397c565b50505050905090810190601f1680156139c45780820380516001836020036101000a031916815260200191505b509250505060405180910390fd5b5060008385816139de57fe5b049050809150509392505050565b60006139f88383613abf565b613a6a576040517f08c379a000000000000000000000000000000000000000000000000000000000815260040180806020018281038252601b8152602001807f4d757374206861766520494420746f206765742041646472657373000000000081525060200191505060405180910390fd5b8260000160006001840167ffffffffffffffff1667ffffffffffffffff16815260200190815260200160002060009054906101000a900473ffffffffffffffffffffffffffffffffffffffff16905092915050565b60008073ffffffffffffffffffffffffffffffffffffffff168360000160006001850167ffffffffffffffff1667ffffffffffffffff16815260200190815260200160002060009054906101000a900473ffffffffffffffffffffffffffffffffffffffff1673ffffffffffffffffffffffffffffffffffffffff161415905092915050565b6040518060c00160405280600073ffffffffffffffffffffffffffffffffffffffff168152602001600073ffffffffffffffffffffffffffffffffffffffff16815260200160008152602001600080191681526020016000801916815260200160006bffffffffffffffffffffffff168152509056fe4f6e6c792074686520757365722063616e2063616e63656c20686973206f7264657273737570706c696564207072696365206d75737420626520696e766572736520696e697469616c4f726465724c696d6974547279696e6720746f20676574206e657874206f66206c61737420656c656d656e74636c656172696e6720707269636520697320626574746572207468616e20696e697469616c41756374696f6e4f72646572547279696e6720746f20676574206e657874206f66206e6f6e2d6578697374656e7420656c656d656e74536166654d6174683a206d756c7469706c69636174696f6e206f766572666c6f7753616665436173743a2076616c756520646f65736e27742066697420696e20363420626974736f6e6c7920616c6c6f77656420746f20636c61696d20666f722073616d652075736572656c6d656e744265666f72654e65774f6e65206d7573742062652076616c6964206f7264657241756374696f6e206e6f7420696e20736f6c7574696f6e207375626d697373696f6e20706861736575736572206973206e6f7420616c6c6f77656420746f20706c6163652073616d65206f72646572207477696365436c61696d207472616e7366657220666f722073656c6c546f6b656e206661696c65646c696d6974207072696365206e6f7420626574746572207468616e206d696d696d616c206f666665726e6f206c6f6e67657220696e206f7264657220706c6163656d656e74207068617365436c61696d207472616e7366657220666f7220627579546f6b656e206661696c6564a26469706673582212206db0e26afb215794f1107df5a0f358100efeab59159ae442094df8850581241064736f6c634300060c0033",
  "devdoc": {
    "kind": "dev",
    "methods": {},
    "version": 1
  },
  "userdoc": {
    "kind": "user",
    "methods": {},
    "version": 1
  },
  "storageLayout": {
    "storage": [
      {
        "astId": 1550,
        "contract": "contracts/EasyAuction.sol:EasyAuction",
        "label": "sellOrders",
        "offset": 0,
        "slot": "0",
        "type": "t_mapping(t_uint256,t_struct(Data)2802_storage)"
      },
      {
        "astId": 1554,
        "contract": "contracts/EasyAuction.sol:EasyAuction",
        "label": "auctionData",
        "offset": 0,
        "slot": "1",
        "type": "t_mapping(t_uint256,t_struct(AuctionData)1546_storage)"
      },
      {
        "astId": 1556,
        "contract": "contracts/EasyAuction.sol:EasyAuction",
        "label": "registeredUsers",
        "offset": 0,
        "slot": "2",
        "type": "t_struct(Data)2600_storage"
      },
      {
        "astId": 1558,
        "contract": "contracts/EasyAuction.sol:EasyAuction",
        "label": "numUsers",
        "offset": 0,
        "slot": "4",
        "type": "t_uint64"
      },
      {
        "astId": 1560,
        "contract": "contracts/EasyAuction.sol:EasyAuction",
        "label": "auctionCounter",
        "offset": 0,
        "slot": "5",
        "type": "t_uint256"
      }
    ],
    "types": {
      "t_address": {
        "encoding": "inplace",
        "label": "address",
        "numberOfBytes": "20"
      },
      "t_bytes32": {
        "encoding": "inplace",
        "label": "bytes32",
        "numberOfBytes": "32"
      },
      "t_contract(ERC20)798": {
        "encoding": "inplace",
        "label": "contract ERC20",
        "numberOfBytes": "20"
      },
      "t_mapping(t_address,t_uint64)": {
        "encoding": "mapping",
        "key": "t_address",
        "label": "mapping(address => uint64)",
        "numberOfBytes": "32",
        "value": "t_uint64"
      },
      "t_mapping(t_bytes32,t_bytes32)": {
        "encoding": "mapping",
        "key": "t_bytes32",
        "label": "mapping(bytes32 => bytes32)",
        "numberOfBytes": "32",
        "value": "t_bytes32"
      },
      "t_mapping(t_uint256,t_struct(AuctionData)1546_storage)": {
        "encoding": "mapping",
        "key": "t_uint256",
        "label": "mapping(uint256 => struct EasyAuction.AuctionData)",
        "numberOfBytes": "32",
        "value": "t_struct(AuctionData)1546_storage"
      },
      "t_mapping(t_uint256,t_struct(Data)2802_storage)": {
        "encoding": "mapping",
        "key": "t_uint256",
        "label": "mapping(uint256 => struct IterableOrderedOrderSet.Data)",
        "numberOfBytes": "32",
        "value": "t_struct(Data)2802_storage"
      },
      "t_mapping(t_uint64,t_address)": {
        "encoding": "mapping",
        "key": "t_uint64",
        "label": "mapping(uint64 => address)",
        "numberOfBytes": "32",
        "value": "t_address"
      },
      "t_struct(AuctionData)1546_storage": {
        "encoding": "inplace",
        "label": "struct EasyAuction.AuctionData",
        "members": [
          {
            "astId": 1535,
            "contract": "contracts/EasyAuction.sol:EasyAuction",
            "label": "sellToken",
            "offset": 0,
            "slot": "0",
            "type": "t_contract(ERC20)798"
          },
          {
            "astId": 1537,
            "contract": "contracts/EasyAuction.sol:EasyAuction",
            "label": "buyToken",
            "offset": 0,
            "slot": "1",
            "type": "t_contract(ERC20)798"
          },
          {
            "astId": 1539,
            "contract": "contracts/EasyAuction.sol:EasyAuction",
            "label": "auctionEndDate",
            "offset": 0,
            "slot": "2",
            "type": "t_uint256"
          },
          {
            "astId": 1541,
            "contract": "contracts/EasyAuction.sol:EasyAuction",
            "label": "initialAuctionOrder",
            "offset": 0,
            "slot": "3",
            "type": "t_bytes32"
          },
          {
            "astId": 1543,
            "contract": "contracts/EasyAuction.sol:EasyAuction",
            "label": "clearingPriceOrder",
            "offset": 0,
            "slot": "4",
            "type": "t_bytes32"
          },
          {
            "astId": 1545,
            "contract": "contracts/EasyAuction.sol:EasyAuction",
            "label": "volumeClearingPriceOrder",
            "offset": 0,
            "slot": "5",
            "type": "t_uint96"
          }
        ],
        "numberOfBytes": "192"
      },
      "t_struct(Data)2600_storage": {
        "encoding": "inplace",
        "label": "struct IdToAddressBiMap.Data",
        "members": [
          {
            "astId": 2595,
            "contract": "contracts/EasyAuction.sol:EasyAuction",
            "label": "idToAddress",
            "offset": 0,
            "slot": "0",
            "type": "t_mapping(t_uint64,t_address)"
          },
          {
            "astId": 2599,
            "contract": "contracts/EasyAuction.sol:EasyAuction",
            "label": "addressToId",
            "offset": 0,
            "slot": "1",
            "type": "t_mapping(t_address,t_uint64)"
          }
        ],
        "numberOfBytes": "64"
      },
      "t_struct(Data)2802_storage": {
        "encoding": "inplace",
        "label": "struct IterableOrderedOrderSet.Data",
        "members": [
          {
            "astId": 2799,
            "contract": "contracts/EasyAuction.sol:EasyAuction",
            "label": "nextMap",
            "offset": 0,
            "slot": "0",
            "type": "t_mapping(t_bytes32,t_bytes32)"
          },
          {
            "astId": 2801,
            "contract": "contracts/EasyAuction.sol:EasyAuction",
            "label": "size",
            "offset": 0,
            "slot": "1",
            "type": "t_uint256"
          }
        ],
        "numberOfBytes": "64"
      },
      "t_uint256": {
        "encoding": "inplace",
        "label": "uint256",
        "numberOfBytes": "32"
      },
      "t_uint64": {
        "encoding": "inplace",
        "label": "uint64",
        "numberOfBytes": "8"
      },
      "t_uint96": {
        "encoding": "inplace",
        "label": "uint96",
        "numberOfBytes": "12"
      }
    }
  }
}