{
  "address": "0x3447fA0E96b4506B66990641134a1c66723D60eD",
  "abi": [
    {
      "inputs": [],
      "stateMutability": "nonpayable",
      "type": "constructor"
    },
    {
      "anonymous": false,
      "inputs": [
        {
          "indexed": true,
          "internalType": "uint256",
          "name": "auctionId",
          "type": "uint256"
        },
        {
          "indexed": false,
          "internalType": "uint96",
          "name": "priceNumerator",
          "type": "uint96"
        },
        {
          "indexed": false,
          "internalType": "uint96",
          "name": "priceDenominator",
          "type": "uint96"
        }
      ],
      "name": "AuctionCleared",
      "type": "event"
    },
    {
      "anonymous": false,
      "inputs": [
        {
          "indexed": true,
          "internalType": "uint256",
          "name": "auctionId",
          "type": "uint256"
        },
        {
          "indexed": true,
          "internalType": "uint64",
          "name": "userId",
          "type": "uint64"
        },
        {
          "indexed": false,
          "internalType": "uint96",
          "name": "buyAmount",
          "type": "uint96"
        },
        {
          "indexed": false,
          "internalType": "uint96",
          "name": "sellAmount",
          "type": "uint96"
        }
      ],
      "name": "CancellationSellOrder",
      "type": "event"
    },
    {
      "anonymous": false,
      "inputs": [
        {
          "indexed": true,
          "internalType": "uint256",
          "name": "auctionId",
          "type": "uint256"
        },
        {
          "indexed": true,
          "internalType": "uint64",
          "name": "userId",
          "type": "uint64"
        },
        {
          "indexed": false,
          "internalType": "uint96",
          "name": "buyAmount",
          "type": "uint96"
        },
        {
          "indexed": false,
          "internalType": "uint96",
          "name": "sellAmount",
          "type": "uint96"
        }
      ],
      "name": "ClaimedFromOrder",
      "type": "event"
    },
    {
      "anonymous": false,
      "inputs": [
        {
          "indexed": true,
          "internalType": "uint256",
          "name": "auctionId",
          "type": "uint256"
        },
        {
          "indexed": true,
          "internalType": "contract IERC20",
          "name": "_auctioningToken",
          "type": "address"
        },
        {
          "indexed": true,
          "internalType": "contract IERC20",
          "name": "_biddingToken",
          "type": "address"
        },
        {
          "indexed": false,
          "internalType": "uint256",
          "name": "orderCancellationEndDate",
          "type": "uint256"
        },
        {
          "indexed": false,
          "internalType": "uint256",
          "name": "auctionEndDate",
          "type": "uint256"
        },
        {
          "indexed": false,
          "internalType": "uint96",
          "name": "_auctionedSellAmount",
          "type": "uint96"
        },
        {
          "indexed": false,
          "internalType": "uint96",
          "name": "_minBuyAmount",
          "type": "uint96"
        },
        {
          "indexed": false,
          "internalType": "uint256",
          "name": "minimumBiddingAmountPerOrder",
          "type": "uint256"
        },
        {
          "indexed": false,
          "internalType": "uint256",
          "name": "minFundingThreshold",
          "type": "uint256"
        }
      ],
      "name": "NewAuction",
      "type": "event"
    },
    {
      "anonymous": false,
      "inputs": [
        {
          "indexed": true,
          "internalType": "uint256",
          "name": "auctionId",
          "type": "uint256"
        },
        {
          "indexed": true,
          "internalType": "uint64",
          "name": "userId",
          "type": "uint64"
        },
        {
          "indexed": false,
          "internalType": "uint96",
          "name": "buyAmount",
          "type": "uint96"
        },
        {
          "indexed": false,
          "internalType": "uint96",
          "name": "sellAmount",
          "type": "uint96"
        }
      ],
      "name": "NewSellOrder",
      "type": "event"
    },
    {
      "anonymous": false,
      "inputs": [
        {
          "indexed": true,
          "internalType": "uint64",
          "name": "userId",
          "type": "uint64"
        },
        {
          "indexed": true,
          "internalType": "address",
          "name": "userAddress",
          "type": "address"
        }
      ],
      "name": "NewUser",
      "type": "event"
    },
    {
      "anonymous": false,
      "inputs": [
        {
          "indexed": true,
          "internalType": "address",
          "name": "previousOwner",
          "type": "address"
        },
        {
          "indexed": true,
          "internalType": "address",
          "name": "newOwner",
          "type": "address"
        }
      ],
      "name": "OwnershipTransferred",
      "type": "event"
    },
    {
      "anonymous": false,
      "inputs": [
        {
          "indexed": true,
          "internalType": "address",
          "name": "user",
          "type": "address"
        },
        {
          "indexed": false,
          "internalType": "uint64",
          "name": "userId",
          "type": "uint64"
        }
      ],
      "name": "UserRegistration",
      "type": "event"
    },
    {
      "inputs": [],
      "name": "FEE_DENOMINATOR",
      "outputs": [
        {
          "internalType": "uint256",
          "name": "",
          "type": "uint256"
        }
      ],
      "stateMutability": "view",
      "type": "function"
    },
    {
      "inputs": [],
      "name": "auctionCounter",
      "outputs": [
        {
          "internalType": "uint256",
          "name": "",
          "type": "uint256"
        }
      ],
      "stateMutability": "view",
      "type": "function"
    },
    {
      "inputs": [
        {
          "internalType": "uint256",
          "name": "",
          "type": "uint256"
        }
      ],
      "name": "auctionData",
      "outputs": [
        {
          "internalType": "contract IERC20",
          "name": "auctioningToken",
          "type": "address"
        },
        {
          "internalType": "contract IERC20",
          "name": "biddingToken",
          "type": "address"
        },
        {
          "internalType": "uint256",
          "name": "orderCancellationEndDate",
          "type": "uint256"
        },
        {
          "internalType": "uint256",
          "name": "auctionEndDate",
          "type": "uint256"
        },
        {
          "internalType": "bytes32",
          "name": "initialAuctionOrder",
          "type": "bytes32"
        },
        {
          "internalType": "uint256",
          "name": "minimumBiddingAmountPerOrder",
          "type": "uint256"
        },
        {
          "internalType": "uint256",
          "name": "interimSumBidAmount",
          "type": "uint256"
        },
        {
          "internalType": "bytes32",
          "name": "interimOrder",
          "type": "bytes32"
        },
        {
          "internalType": "bytes32",
          "name": "clearingPriceOrder",
          "type": "bytes32"
        },
        {
          "internalType": "uint96",
          "name": "volumeClearingPriceOrder",
          "type": "uint96"
        },
        {
          "internalType": "bool",
          "name": "minFundingThresholdNotReached",
          "type": "bool"
        },
        {
          "internalType": "bool",
          "name": "isAtomicClosureAllowed",
          "type": "bool"
        },
        {
          "internalType": "uint256",
          "name": "feeNumerator",
          "type": "uint256"
        },
        {
          "internalType": "uint256",
          "name": "minFundingThreshold",
          "type": "uint256"
        }
      ],
      "stateMutability": "view",
      "type": "function"
    },
    {
      "inputs": [
        {
          "internalType": "uint256",
          "name": "auctionId",
          "type": "uint256"
        },
        {
          "internalType": "bytes32[]",
          "name": "_sellOrders",
          "type": "bytes32[]"
        }
      ],
      "name": "cancelSellOrders",
      "outputs": [],
      "stateMutability": "nonpayable",
      "type": "function"
    },
    {
      "inputs": [
        {
          "internalType": "uint256",
          "name": "auctionId",
          "type": "uint256"
        },
        {
          "internalType": "bytes32[]",
          "name": "orders",
          "type": "bytes32[]"
        }
      ],
      "name": "claimFromParticipantOrder",
      "outputs": [
        {
          "internalType": "uint256",
          "name": "sumAuctioningTokenAmount",
          "type": "uint256"
        },
        {
          "internalType": "uint256",
          "name": "sumBiddingTokenAmount",
          "type": "uint256"
        }
      ],
      "stateMutability": "nonpayable",
      "type": "function"
    },
    {
      "inputs": [
        {
          "internalType": "uint256",
          "name": "auctionId",
          "type": "uint256"
        },
        {
          "internalType": "bytes32",
          "name": "order",
          "type": "bytes32"
        }
      ],
      "name": "containsOrder",
      "outputs": [
        {
          "internalType": "bool",
          "name": "",
          "type": "bool"
        }
      ],
      "stateMutability": "view",
      "type": "function"
    },
    {
      "inputs": [],
      "name": "feeNumerator",
      "outputs": [
        {
          "internalType": "uint256",
          "name": "",
          "type": "uint256"
        }
      ],
      "stateMutability": "view",
      "type": "function"
    },
    {
      "inputs": [],
      "name": "feeReceiverUserId",
      "outputs": [
        {
          "internalType": "uint64",
          "name": "",
          "type": "uint64"
        }
      ],
      "stateMutability": "view",
      "type": "function"
    },
    {
      "inputs": [
        {
          "internalType": "uint256",
          "name": "auctionId",
          "type": "uint256"
        }
      ],
      "name": "getSecondsRemainingInBatch",
      "outputs": [
        {
          "internalType": "uint256",
          "name": "",
          "type": "uint256"
        }
      ],
      "stateMutability": "view",
      "type": "function"
    },
    {
      "inputs": [
        {
          "internalType": "address",
          "name": "user",
          "type": "address"
        }
      ],
      "name": "getUserId",
      "outputs": [
        {
          "internalType": "uint64",
          "name": "userId",
          "type": "uint64"
        }
      ],
      "stateMutability": "nonpayable",
      "type": "function"
    },
    {
      "inputs": [
        {
          "internalType": "contract IERC20",
          "name": "_auctioningToken",
          "type": "address"
        },
        {
          "internalType": "contract IERC20",
          "name": "_biddingToken",
          "type": "address"
        },
        {
          "internalType": "uint256",
          "name": "orderCancelationPeriodDuration",
          "type": "uint256"
        },
        {
          "internalType": "uint256",
          "name": "duration",
          "type": "uint256"
        },
        {
          "internalType": "uint96",
          "name": "_auctionedSellAmount",
          "type": "uint96"
        },
        {
          "internalType": "uint96",
          "name": "_minBuyAmount",
          "type": "uint96"
        },
        {
          "internalType": "uint256",
          "name": "minimumBiddingAmountPerOrder",
          "type": "uint256"
        },
        {
          "internalType": "uint256",
          "name": "minFundingThreshold",
          "type": "uint256"
        },
        {
          "internalType": "bool",
          "name": "isAtomicClosureAllowed",
          "type": "bool"
        }
      ],
      "name": "initiateAuction",
      "outputs": [
        {
          "internalType": "uint256",
          "name": "",
          "type": "uint256"
        }
      ],
      "stateMutability": "nonpayable",
      "type": "function"
    },
    {
      "inputs": [],
      "name": "numUsers",
      "outputs": [
        {
          "internalType": "uint64",
          "name": "",
          "type": "uint64"
        }
      ],
      "stateMutability": "view",
      "type": "function"
    },
    {
      "inputs": [],
      "name": "owner",
      "outputs": [
        {
          "internalType": "address",
          "name": "",
          "type": "address"
        }
      ],
      "stateMutability": "view",
      "type": "function"
    },
    {
      "inputs": [
        {
          "internalType": "uint256",
          "name": "auctionId",
          "type": "uint256"
        },
        {
          "internalType": "uint96[]",
          "name": "_minBuyAmounts",
          "type": "uint96[]"
        },
        {
          "internalType": "uint96[]",
          "name": "_sellAmounts",
          "type": "uint96[]"
        },
        {
          "internalType": "bytes32[]",
          "name": "_prevSellOrders",
          "type": "bytes32[]"
        }
      ],
      "name": "placeSellOrders",
      "outputs": [
        {
          "internalType": "uint64",
          "name": "userId",
          "type": "uint64"
        }
      ],
      "stateMutability": "nonpayable",
      "type": "function"
    },
    {
      "inputs": [
        {
          "internalType": "uint256",
          "name": "auctionId",
          "type": "uint256"
        },
        {
          "internalType": "uint256",
          "name": "iterationSteps",
          "type": "uint256"
        }
      ],
      "name": "precalculateSellAmountSum",
      "outputs": [],
      "stateMutability": "nonpayable",
      "type": "function"
    },
    {
      "inputs": [
        {
          "internalType": "address",
          "name": "user",
          "type": "address"
        }
      ],
      "name": "registerUser",
      "outputs": [
        {
          "internalType": "uint64",
          "name": "userId",
          "type": "uint64"
        }
      ],
      "stateMutability": "nonpayable",
      "type": "function"
    },
    {
      "inputs": [],
      "name": "renounceOwnership",
      "outputs": [],
      "stateMutability": "nonpayable",
      "type": "function"
    },
    {
      "inputs": [
        {
          "internalType": "uint256",
          "name": "newFeeNumerator",
          "type": "uint256"
        },
        {
          "internalType": "address",
          "name": "newfeeReceiverAddress",
          "type": "address"
        }
      ],
      "name": "setFeeParameters",
      "outputs": [],
      "stateMutability": "nonpayable",
      "type": "function"
    },
    {
      "inputs": [
        {
          "internalType": "uint256",
          "name": "auctionId",
          "type": "uint256"
        }
      ],
      "name": "settleAuction",
      "outputs": [
        {
          "internalType": "bytes32",
          "name": "clearingOrder",
          "type": "bytes32"
        }
      ],
      "stateMutability": "nonpayable",
      "type": "function"
    },
    {
      "inputs": [
        {
          "internalType": "uint256",
          "name": "auctionId",
          "type": "uint256"
        },
        {
          "internalType": "uint96[]",
          "name": "_minBuyAmount",
          "type": "uint96[]"
        },
        {
          "internalType": "uint96[]",
          "name": "_sellAmount",
          "type": "uint96[]"
        },
        {
          "internalType": "bytes32[]",
          "name": "_prevSellOrder",
          "type": "bytes32[]"
        }
      ],
      "name": "settleAuctionAtomically",
      "outputs": [],
      "stateMutability": "nonpayable",
      "type": "function"
    },
    {
      "inputs": [
        {
          "internalType": "address",
          "name": "newOwner",
          "type": "address"
        }
      ],
      "name": "transferOwnership",
      "outputs": [],
      "stateMutability": "nonpayable",
      "type": "function"
    }
  ],
  "transactionHash": "0x822088d8cbe5c87827fbe2ca55d02551d41e610b0fee27d5987f44879e2a50ff",
  "args": [],
  "solcInputHash": "1a147ff862205d89d039c8dbbb966734",
  "bytecode": "0x608060405260006007556000600860006101000a81548167ffffffffffffffff021916908367ffffffffffffffff1602179055503480156200004057600080fd5b50600062000053620000f760201b60201c565b9050806000806101000a81548173ffffffffffffffffffffffffffffffffffffffff021916908373ffffffffffffffffffffffffffffffffffffffff1602179055508073ffffffffffffffffffffffffffffffffffffffff16600073ffffffffffffffffffffffffffffffffffffffff167f8be0079c531659141344cd1fd0a4f28419497f9722a3daafe3b4186f6b6457e060405160405180910390a350620000ff565b600033905090565b615088806200010f6000396000f3fe608060405234801561001057600080fd5b50600436106101375760003560e01c806363c699a4116100b8578063a2d1338b1161007c578063a2d1338b1461073d578063a7e7664414610927578063cc76310914610945578063d73792a914610b4d578063e86dea4a14610b6b578063f2fde38b14610b8957610137565b806363c699a414610512578063715018a6146105605780637882deaf1461056a5780637ed18b70146106475780638da5cb5b1461070957610137565b80632e993611116100ff5780632e993611146103475780633e12905f1461038957806340b20b09146103c157806355fc62d21461040f5780635cefb291146104ea57610137565b8063078dc5f81461013c57806315d37b4b1461021957806319a50f491461025b5780632199d5cd146102835780632b956ff7146102e5575b600080fd5b610203600480360361012081101561015357600080fd5b81019080803573ffffffffffffffffffffffffffffffffffffffff169060200190929190803573ffffffffffffffffffffffffffffffffffffffff169060200190929190803590602001909291908035906020019092919080356bffffffffffffffffffffffff16906020019092919080356bffffffffffffffffffffffff1690602001909291908035906020019092919080359060200190929190803515159060200190929190505050610bcd565b6040518082815260200191505060405180910390f35b6102456004803603602081101561022f57600080fd5b810190808035906020019092919050505061111c565b6040518082815260200191505060405180910390f35b610263611176565b604051808267ffffffffffffffff16815260200191505060405180910390f35b6102c56004803603602081101561029957600080fd5b81019080803573ffffffffffffffffffffffffffffffffffffffff169060200190929190505050611190565b604051808267ffffffffffffffff16815260200191505060405180910390f35b610327600480360360208110156102fb57600080fd5b81019080803573ffffffffffffffffffffffffffffffffffffffff16906020019092919050505061130a565b604051808267ffffffffffffffff16815260200191505060405180910390f35b6103736004803603602081101561035d57600080fd5b810190808035906020019092919050505061139f565b6040518082815260200191505060405180910390f35b6103bf6004803603604081101561039f57600080fd5b8101908080359060200190929190803590602001909291905050506118bd565b005b61040d600480360360408110156103d757600080fd5b8101908080359060200190929190803573ffffffffffffffffffffffffffffffffffffffff169060200190929190505050611bde565b005b61043b6004803603602081101561042557600080fd5b8101908080359060200190929190505050611d3c565b604051808f73ffffffffffffffffffffffffffffffffffffffff1681526020018e73ffffffffffffffffffffffffffffffffffffffff1681526020018d81526020018c81526020018b81526020018a8152602001898152602001888152602001878152602001866bffffffffffffffffffffffff168152602001851515815260200184151581526020018381526020018281526020019e50505050505050505050505050505060405180910390f35b6104f2611e1a565b604051808267ffffffffffffffff16815260200191505060405180910390f35b6105486004803603604081101561052857600080fd5b810190808035906020019092919080359060200190929190505050611e34565b60405180821515815260200191505060405180910390f35b610568611e63565b005b61062a6004803603604081101561058057600080fd5b8101908080359060200190929190803590602001906401000000008111156105a757600080fd5b8201836020820111156105b957600080fd5b803590602001918460208302840111640100000000831117156105db57600080fd5b919080806020026020016040519081016040528093929190818152602001838360200280828437600081840152601f19601f820116905080830192505050505050509192919290505050611fe9565b604051808381526020018281526020019250505060405180910390f35b6107076004803603604081101561065d57600080fd5b81019080803590602001909291908035906020019064010000000081111561068457600080fd5b82018360208201111561069657600080fd5b803590602001918460208302840111640100000000831117156106b857600080fd5b919080806020026020016040519081016040528093929190818152602001838360200280828437600081840152601f19601f820116905080830192505050505050509192919290505050612635565b005b6107116128b9565b604051808273ffffffffffffffffffffffffffffffffffffffff16815260200191505060405180910390f35b6109256004803603608081101561075357600080fd5b81019080803590602001909291908035906020019064010000000081111561077a57600080fd5b82018360208201111561078c57600080fd5b803590602001918460208302840111640100000000831117156107ae57600080fd5b919080806020026020016040519081016040528093929190818152602001838360200280828437600081840152601f19601f8201169050808301925050505050505091929192908035906020019064010000000081111561080e57600080fd5b82018360208201111561082057600080fd5b8035906020019184602083028401116401000000008311171561084257600080fd5b919080806020026020016040519081016040528093929190818152602001838360200280828437600081840152601f19601f820116905080830192505050505050509192919290803590602001906401000000008111156108a257600080fd5b8201836020820111156108b457600080fd5b803590602001918460208302840111640100000000831117156108d657600080fd5b919080806020026020016040519081016040528093929190818152602001838360200280828437600081840152601f19601f8201169050808301925050505050505091929192905050506128e2565b005b61092f612a1f565b6040518082815260200191505060405180910390f35b610b2d6004803603608081101561095b57600080fd5b81019080803590602001909291908035906020019064010000000081111561098257600080fd5b82018360208201111561099457600080fd5b803590602001918460208302840111640100000000831117156109b657600080fd5b919080806020026020016040519081016040528093929190818152602001838360200280828437600081840152601f19601f82011690508083019250505050505050919291929080359060200190640100000000811115610a1657600080fd5b820183602082011115610a2857600080fd5b80359060200191846020830284011164010000000083111715610a4a57600080fd5b919080806020026020016040519081016040528093929190818152602001838360200280828437600081840152601f19601f82011690508083019250505050505050919291929080359060200190640100000000811115610aaa57600080fd5b820183602082011115610abc57600080fd5b80359060200191846020830284011164010000000083111715610ade57600080fd5b919080806020026020016040519081016040528093929190818152602001838360200280828437600081840152601f19601f820116905080830192505050505050509192919290505050612a25565b604051808267ffffffffffffffff16815260200191505060405180910390f35b610b55612aad565b6040518082815260200191505060405180910390f35b610b73612ab3565b6040518082815260200191505060405180910390f35b610bcb60048036036020811015610b9f57600080fd5b81019080803573ffffffffffffffffffffffffffffffffffffffff169060200190929190505050612ab9565b005b600080610bd93361130a565b9050610c523330610c2b6103e8610c1d610c006007546103e8612cc490919063ffffffff16565b8d6bffffffffffffffffffffffff16612d4c90919063ffffffff16565b612dd290919063ffffffff16565b8e73ffffffffffffffffffffffffffffffffffffffff16612e1c909392919063ffffffff16565b6000876bffffffffffffffffffffffff1611610cd6576040517f08c379a000000000000000000000000000000000000000000000000000000000815260040180806020018281038252601a8152602001807f63616e6e6f742061756374696f6e207a65726f20746f6b656e7300000000000081525060200191505060405180910390fd5b6000866bffffffffffffffffffffffff1611610d3d576040517f08c379a0000000000000000000000000000000000000000000000000000000008152600401808060200182810382526023815260200180614dcc6023913960400191505060405180910390fd5b60008511610d96576040517f08c379a0000000000000000000000000000000000000000000000000000000008152600401808060200182810382526036815260200180614ec06036913960400191505060405180910390fd5b87891115610def576040517f08c379a0000000000000000000000000000000000000000000000000000000008152600401808060200182810382526029815260200180614fde6029913960400191505060405180910390fd5b600660008154809291906001019190505550610e1e600160006006548152602001908152602001600020612edd565b6000894201905060008942019050604051806101c001604052808e73ffffffffffffffffffffffffffffffffffffffff1681526020018d73ffffffffffffffffffffffffffffffffffffffff168152602001838152602001828152602001610e87858b8d612f62565b815260200188815260200160008152602001600160001b81526020016000801b815260200160006bffffffffffffffffffffffff168152602001600015158152602001861515815260200160075481526020018781525060026000600654815260200190815260200160002060008201518160000160006101000a81548173ffffffffffffffffffffffffffffffffffffffff021916908373ffffffffffffffffffffffffffffffffffffffff16021790555060208201518160010160006101000a81548173ffffffffffffffffffffffffffffffffffffffff021916908373ffffffffffffffffffffffffffffffffffffffff16021790555060408201518160020155606082015181600301556080820151816004015560a0820151816005015560c0820151816006015560e0820151816007015561010082015181600801556101208201518160090160006101000a8154816bffffffffffffffffffffffff02191690836bffffffffffffffffffffffff16021790555061014082015181600901600c6101000a81548160ff02191690831515021790555061016082015181600901600d6101000a81548160ff02191690831515021790555061018082015181600a01556101a082015181600b01559050508b73ffffffffffffffffffffffffffffffffffffffff168d73ffffffffffffffffffffffffffffffffffffffff166006547fa92661149edb0f48f9ae55773e4d477ab8a61006bd5204ff2596fd0f85546d1885858e8e8e8e60405180878152602001868152602001856bffffffffffffffffffffffff168152602001846bffffffffffffffffffffffff168152602001838152602001828152602001965050505050505060405180910390a460065493505050509998505050505050505050565b600042600260008481526020019081526020016000206003015410156111455760009050611171565b61116e426002600085815260200190815260200160002060030154612fa390919063ffffffff16565b90505b919050565b600560009054906101000a900467ffffffffffffffff1681565b60006111be600560009054906101000a900467ffffffffffffffff16836003612fed9092919063ffffffff16565b611230576040517f08c379a00000000000000000000000000000000000000000000000000000000081526004018080602001828103825260178152602001807f5573657220616c7265616479207265676973746572656400000000000000000081525060200191505060405180910390fd5b600560009054906101000a900467ffffffffffffffff1690506112856112806001600560009054906101000a900467ffffffffffffffff1667ffffffffffffffff16612cc490919063ffffffff16565b613313565b600560006101000a81548167ffffffffffffffff021916908367ffffffffffffffff1602179055508173ffffffffffffffffffffffffffffffffffffffff167f6838f67cb358c332087b73dbe769a6c869a5f87225236c16dda5d0013a77074c82604051808267ffffffffffffffff16815260200191505060405180910390a2919050565b600061132082600361337e90919063ffffffff16565b15611340576113398260036133eb90919063ffffffff16565b905061139a565b61134982611190565b90508173ffffffffffffffffffffffffffffffffffffffff168167ffffffffffffffff167f969d438b19b6b5fb3c0d3c6f16867e519fcec4233799d6be29d1c00f2045ba2660405160405180910390a35b919050565b600081600060026000838152602001908152602001600020600301549050600081141580156113cd57508042115b80156113f157506000801b6002600084815260200190815260200160002060080154145b611446576040517f08c379a0000000000000000000000000000000000000000000000000000000008152600401808060200182810382526028815260200180614f606028913960400191505060405180910390fd5b5060008061146960026000878152602001908152602001600020600401546134ca565b92509250506000600260008781526020019081526020016000206006015490506000600260008881526020019081526020016000206007015490506000805b60006114cf84600160008d81526020019081526020016000206134f090919063ffffffff16565b90507fffffffffffffffffffffffffffffffffffffffff00000000000000000000000160001b811415611502575061158b565b80935061150e846134ca565b909150816bffffffffffffffffffffffff169150806bffffffffffffffffffffffff169050809350819450505061154e8286612cc490919063ffffffff16565b94505061157281866bffffffffffffffffffffffff16612d4c90919063ffffffff16565b6115858386612d4c90919063ffffffff16565b106114a8575b6000841180156115cd57506115b781866bffffffffffffffffffffffff16612d4c90919063ffffffff16565b6115ca8386612d4c90919063ffffffff16565b10155b156116d757600061161961160a846115fc858a6bffffffffffffffffffffffff16612d4c90919063ffffffff16565b612dd290919063ffffffff16565b86612fa390919063ffffffff16565b9050808211156116a55760006116388284612fa390919063ffffffff16565b9050611643816135ee565b600260008d815260200190815260200160002060090160006101000a8154816bffffffffffffffffffffffff02191690836bffffffffffffffffffffffff16021790555061169a8287612fa390919063ffffffff16565b9550849950506116d1565b6116b88286612fa390919063ffffffff16565b94506116ce6000876116c9886135ee565b612f62565b98505b506117a5565b856bffffffffffffffffffffffff16841115611708576117016000866116fc876135ee565b612f62565b97506117a4565b61171460008688612f62565b975061175f61175a876bffffffffffffffffffffffff1661174c886bffffffffffffffffffffffff1688612d4c90919063ffffffff16565b612dd290919063ffffffff16565b6135ee565b600260008b815260200190815260200160002060090160006101000a8154816bffffffffffffffffffffffff02191690836bffffffffffffffffffffffff1602179055505b5b87600260008b81526020019081526020016000206008018190555083600260008b8152602001908152602001600020600b0154111561180e576001600260008b8152602001908152602001600020600901600c6101000a81548160ff0219169083151502179055505b6000600260008b8152602001908152602001600020600a01541115611837576118368961365d565b5b611840896138e5565b505060008061184e8a6134ca565b92509250508a7f8e633245b93c41d24c82377f869edd0ac49ea9084bb0fa0265125a7b1df7fc95838360405180836bffffffffffffffffffffffff168152602001826bffffffffffffffffffffffff1681526020019250505060405180910390a2505050505050505050919050565b81600060026000838152602001908152602001600020600301549050600081141580156118e957508042115b801561190d57506000801b6002600084815260200190815260200160002060080154145b611962576040517f08c379a0000000000000000000000000000000000000000000000000000000008152600401808060200182810382526028815260200180614f606028913960400191505060405180910390fd5b50600061198460026000868152602001908152602001600020600401546134ca565b9250505060006002600086815260200190815260200160002060060154905060006002600087815260200190815260200160002060070154905060005b85811015611a30576119ee82600160008a81526020019081526020016000206134f090919063ffffffff16565b915060006119fb836134ca565b92505050611a20816bffffffffffffffffffffffff1685612cc490919063ffffffff16565b93505080806001019150506119c1565b507fffffffffffffffffffffffffffffffffffffffff00000000000000000000000160001b811415611aca576040517f08c379a00000000000000000000000000000000000000000000000000000000081526004018080602001828103825260198152602001807f7265616368656420656e64206f66206f72646572206c6973740000000000000081525060200191505060405180910390fd5b600080611ad6836134ca565b9250925050611b0a816bffffffffffffffffffffffff16866bffffffffffffffffffffffff16612d4c90919063ffffffff16565b611b2b836bffffffffffffffffffffffff1686612d4c90919063ffffffff16565b10611b9e576040517f08c379a00000000000000000000000000000000000000000000000000000000081526004018080602001828103825260198152602001807f746f6f206d616e79206f72646572732073756d6d65642075700000000000000081525060200191505060405180910390fd5b83600260008a81526020019081526020016000206006018190555082600260008a8152602001908152602001600020600701819055505050505050505050565b611be6613b50565b73ffffffffffffffffffffffffffffffffffffffff1660008054906101000a900473ffffffffffffffffffffffffffffffffffffffff1673ffffffffffffffffffffffffffffffffffffffff1614611ca6576040517f08c379a00000000000000000000000000000000000000000000000000000000081526004018080602001828103825260208152602001807f4f776e61626c653a2063616c6c6572206973206e6f7420746865206f776e657281525060200191505060405180910390fd5b600f821115611d00576040517f08c379a000000000000000000000000000000000000000000000000000000000815260040180806020018281038252602d815260200180614e69602d913960400191505060405180910390fd5b611d098161130a565b600860006101000a81548167ffffffffffffffff021916908367ffffffffffffffff160217905550816007819055505050565b60026020528060005260406000206000915090508060000160009054906101000a900473ffffffffffffffffffffffffffffffffffffffff16908060010160009054906101000a900473ffffffffffffffffffffffffffffffffffffffff16908060020154908060030154908060040154908060050154908060060154908060070154908060080154908060090160009054906101000a90046bffffffffffffffffffffffff169080600901600c9054906101000a900460ff169080600901600d9054906101000a900460ff169080600a01549080600b015490508e565b600860009054906101000a900467ffffffffffffffff1681565b6000611e5b8260016000868152602001908152602001600020613b5890919063ffffffff16565b905092915050565b611e6b613b50565b73ffffffffffffffffffffffffffffffffffffffff1660008054906101000a900473ffffffffffffffffffffffffffffffffffffffff1673ffffffffffffffffffffffffffffffffffffffff1614611f2b576040517f08c379a00000000000000000000000000000000000000000000000000000000081526004018080602001828103825260208152602001807f4f776e61626c653a2063616c6c6572206973206e6f7420746865206f776e657281525060200191505060405180910390fd5b600073ffffffffffffffffffffffffffffffffffffffff1660008054906101000a900473ffffffffffffffffffffffffffffffffffffffff1673ffffffffffffffffffffffffffffffffffffffff167f8be0079c531659141344cd1fd0a4f28419497f9722a3daafe3b4186f6b6457e060405160405180910390a360008060006101000a81548173ffffffffffffffffffffffffffffffffffffffff021916908373ffffffffffffffffffffffffffffffffffffffff160217905550565b600080836000801b6002600083815260200190815260200160002060080154141561207c576040517f08c379a00000000000000000000000000000000000000000000000000000000081526004018080602001828103825260188152602001807f41756374696f6e206e6f74207965742066696e6973686564000000000000000081525060200191505060405180910390fd5b60005b845181101561213f576120c085828151811061209757fe5b602002602001015160016000898152602001908152602001600020613b9490919063ffffffff16565b612132576040517f08c379a000000000000000000000000000000000000000000000000000000000815260040180806020018281038252601c8152602001807f6f72646572206973206e6f206c6f6e67657220636c61696d61626c650000000081525060200191505060405180910390fd5b808060010191505061207f565b50612148614c7e565b60026000878152602001908152602001600020604051806101c00160405290816000820160009054906101000a900473ffffffffffffffffffffffffffffffffffffffff1673ffffffffffffffffffffffffffffffffffffffff1673ffffffffffffffffffffffffffffffffffffffff1681526020016001820160009054906101000a900473ffffffffffffffffffffffffffffffffffffffff1673ffffffffffffffffffffffffffffffffffffffff1673ffffffffffffffffffffffffffffffffffffffff168152602001600282015481526020016003820154815260200160048201548152602001600582015481526020016006820154815260200160078201548152602001600882015481526020016009820160009054906101000a90046bffffffffffffffffffffffff166bffffffffffffffffffffffff166bffffffffffffffffffffffff16815260200160098201600c9054906101000a900460ff1615151515815260200160098201600d9054906101000a900460ff16151515158152602001600a8201548152602001600b8201548152505090506000806122f48361010001516134ca565b925092505060006123188860008151811061230b57fe5b60200260200101516134ca565b505090506000600260008b8152602001908152602001600020600901600c9054906101000a900460ff16905060005b895181101561261b5760008060006123718d858151811061236457fe5b60200260200101516134ca565b9250925092508567ffffffffffffffff168367ffffffffffffffff16146123e3576040517f08c379a0000000000000000000000000000000000000000000000000000000008152600401808060200182810382526023815260200180614f3d6023913960400191505060405180910390fd5b84156124115761240a816bffffffffffffffffffffffff168c612cc490919063ffffffff16565b9a506125a4565b8861010001518d858151811061242357fe5b602002602001015114156124e657612497612488886bffffffffffffffffffffffff1661247a8b6bffffffffffffffffffffffff168d61012001516bffffffffffffffffffffffff16612d4c90919063ffffffff16565b612dd290919063ffffffff16565b8d612cc490919063ffffffff16565b9b506124df6124d08a61012001516bffffffffffffffffffffffff16836bffffffffffffffffffffffff16612fa390919063ffffffff16565b8c612cc490919063ffffffff16565b9a506125a3565b6125118961010001518e86815181106124fb57fe5b6020026020010151613bd190919063ffffffff16565b1561257e57612577612568886bffffffffffffffffffffffff1661255a8b6bffffffffffffffffffffffff16856bffffffffffffffffffffffff16612d4c90919063ffffffff16565b612dd290919063ffffffff16565b8d612cc490919063ffffffff16565b9b506125a2565b61259f816bffffffffffffffffffffffff168c612cc490919063ffffffff16565b9a505b5b5b8567ffffffffffffffff168e7f3f2c83616e48a2f8b3c9cc26499e2e5c61643714dac49027d82cf6732f96a91a848460405180836bffffffffffffffffffffffff168152602001826bffffffffffffffffffffffff1681526020019250505060405180910390a35050508080600101915050612347565b506126288a898985613d89565b5050505050509250929050565b816002600082815260200190815260200160002060030154421080156126705750600260008281526020019081526020016000206002015442105b6126c5576040517f08c379a0000000000000000000000000000000000000000000000000000000008152600401808060200182810382526032815260200180614def6032913960400191505060405180910390fd5b60006126d03361130a565b90506000805b84518110156128505760006127198683815181106126f057fe5b6020026020010151600160008a8152602001908152602001600020613e7e90919063ffffffff16565b9050801561284257600080600061274289868151811061273557fe5b60200260200101516134ca565b9250925092508667ffffffffffffffff168367ffffffffffffffff16146127b4576040517f08c379a0000000000000000000000000000000000000000000000000000000008152600401808060200182810382526023815260200180614d836023913960400191505060405180910390fd5b6127d5816bffffffffffffffffffffffff1687612cc490919063ffffffff16565b95508667ffffffffffffffff168a7f7edae327fe79804b2f38bd490d874a0d188d3ae8911b303205abe47400086ac4848460405180836bffffffffffffffffffffffff168152602001826bffffffffffffffffffffffff1681526020019250505060405180910390a35050505b5080806001019150506126d6565b506128b233826002600089815260200190815260200160002060010160009054906101000a900473ffffffffffffffffffffffffffffffffffffffff1673ffffffffffffffffffffffffffffffffffffffff16613f299092919063ffffffff16565b5050505050565b60008060009054906101000a900473ffffffffffffffffffffffffffffffffffffffff16905090565b836000600260008381526020019081526020016000206003015490506000811415801561290e57508042115b801561293257506000801b6002600084815260200190815260200160002060080154145b612987576040517f08c379a0000000000000000000000000000000000000000000000000000000008152600401808060200182810382526028815260200180614f606028913960400191505060405180910390fd5b5060026000868152602001908152602001600020600901600d9054906101000a900460ff16612a01576040517f08c379a0000000000000000000000000000000000000000000000000000000008152600401808060200182810382526028815260200180614d5b6028913960400191505060405180910390fd5b612a0d85858585613fcb565b50612a178561139f565b505050505050565b60065481565b60008460026000828152602001908152602001600020600301544210612a96576040517f08c379a00000000000000000000000000000000000000000000000000000000081526004018080602001828103825260228152602001806150316022913960400191505060405180910390fd5b612aa286868686613fcb565b915050949350505050565b6103e881565b60075481565b612ac1613b50565b73ffffffffffffffffffffffffffffffffffffffff1660008054906101000a900473ffffffffffffffffffffffffffffffffffffffff1673ffffffffffffffffffffffffffffffffffffffff1614612b81576040517f08c379a00000000000000000000000000000000000000000000000000000000081526004018080602001828103825260208152602001807f4f776e61626c653a2063616c6c6572206973206e6f7420746865206f776e657281525060200191505060405180910390fd5b600073ffffffffffffffffffffffffffffffffffffffff168173ffffffffffffffffffffffffffffffffffffffff161415612c07576040517f08c379a0000000000000000000000000000000000000000000000000000000008152600401808060200182810382526026815260200180614da66026913960400191505060405180910390fd5b8073ffffffffffffffffffffffffffffffffffffffff1660008054906101000a900473ffffffffffffffffffffffffffffffffffffffff1673ffffffffffffffffffffffffffffffffffffffff167f8be0079c531659141344cd1fd0a4f28419497f9722a3daafe3b4186f6b6457e060405160405180910390a3806000806101000a81548173ffffffffffffffffffffffffffffffffffffffff021916908373ffffffffffffffffffffffffffffffffffffffff16021790555050565b600080828401905083811015612d42576040517f08c379a000000000000000000000000000000000000000000000000000000000815260040180806020018281038252601b8152602001807f536166654d6174683a206164646974696f6e206f766572666c6f77000000000081525060200191505060405180910390fd5b8091505092915050565b600080831415612d5f5760009050612dcc565b6000828402905082848281612d7057fe5b0414612dc7576040517f08c379a0000000000000000000000000000000000000000000000000000000008152600401808060200182810382526021815260200180614ef66021913960400191505060405180910390fd5b809150505b92915050565b6000612e1483836040518060400160405280601a81526020017f536166654d6174683a206469766973696f6e206279207a65726f000000000000815250614362565b905092915050565b612ed7846323b872dd60e01b858585604051602401808473ffffffffffffffffffffffffffffffffffffffff1681526020018373ffffffffffffffffffffffffffffffffffffffff1681526020018281526020019350505050604051602081830303815290604052907bffffffffffffffffffffffffffffffffffffffffffffffffffffffff19166020820180517bffffffffffffffffffffffffffffffffffffffffffffffffffffffff8381831617835250505050614428565b50505050565b7fffffffffffffffffffffffffffffffffffffffff00000000000000000000000160001b816000016000600160001b815260200190815260200160002081905550600160001b8160010160007fffffffffffffffffffffffffffffffffffffffff00000000000000000000000160001b81526020019081526020016000208190555050565b6000816bffffffffffffffffffffffff166060846bffffffffffffffffffffffff16901b60c08667ffffffffffffffff16901b010160001b90509392505050565b6000612fe583836040518060400160405280601e81526020017f536166654d6174683a207375627472616374696f6e206f766572666c6f770000815250614517565b905092915050565b60008073ffffffffffffffffffffffffffffffffffffffff168273ffffffffffffffffffffffffffffffffffffffff161415613091576040517f08c379a000000000000000000000000000000000000000000000000000000000815260040180806020018281038252601a8152602001807f43616e6e6f7420696e73657274207a65726f206164647265737300000000000081525060200191505060405180910390fd5b7fffffffffffffffffffffffffffffffffffffffffffffffffffffffffffffffff67ffffffffffffffff168367ffffffffffffffff16141561313b576040517f08c379a00000000000000000000000000000000000000000000000000000000081526004018080602001828103825260188152602001807f43616e6e6f7420696e73657274206d61782075696e743634000000000000000081525060200191505060405180910390fd5b60008460010160008473ffffffffffffffffffffffffffffffffffffffff1673ffffffffffffffffffffffffffffffffffffffff16815260200190815260200160002060009054906101000a900467ffffffffffffffff1667ffffffffffffffff161415806132235750600073ffffffffffffffffffffffffffffffffffffffff168460000160006001860167ffffffffffffffff1667ffffffffffffffff16815260200190815260200160002060009054906101000a900473ffffffffffffffffffffffffffffffffffffffff1673ffffffffffffffffffffffffffffffffffffffff1614155b15613231576000905061330c565b818460000160006001860167ffffffffffffffff1667ffffffffffffffff16815260200190815260200160002060006101000a81548173ffffffffffffffffffffffffffffffffffffffff021916908373ffffffffffffffffffffffffffffffffffffffff160217905550600183018460010160008473ffffffffffffffffffffffffffffffffffffffff1673ffffffffffffffffffffffffffffffffffffffff16815260200190815260200160002060006101000a81548167ffffffffffffffff021916908367ffffffffffffffff160217905550600190505b9392505050565b6000680100000000000000008210613376576040517f08c379a0000000000000000000000000000000000000000000000000000000008152600401808060200182810382526026815260200180614f176026913960400191505060405180910390fd5b819050919050565b6000808360010160008473ffffffffffffffffffffffffffffffffffffffff1673ffffffffffffffffffffffffffffffffffffffff16815260200190815260200160002060009054906101000a900467ffffffffffffffff1667ffffffffffffffff161415905092915050565b60006133f7838361337e565b613469576040517f08c379a000000000000000000000000000000000000000000000000000000000815260040180806020018281038252601b8152602001807f4d7573742068617665204164647265737320746f20676574204944000000000081525060200191505060405180910390fd5b60018360010160008473ffffffffffffffffffffffffffffffffffffffff1673ffffffffffffffffffffffffffffffffffffffff16815260200190815260200160002060009054906101000a900467ffffffffffffffff1603905092915050565b600080600060c08460001c901c925060608460001c901c91508360001c90509193909250565b60007fffffffffffffffffffffffffffffffffffffffff00000000000000000000000160001b82141561356e576040517f08c379a0000000000000000000000000000000000000000000000000000000008152600401808060200182810382526022815260200180614e216022913960400191505060405180910390fd5b60008360000160008481526020019081526020016000205490506000801b8114156135e4576040517f08c379a000000000000000000000000000000000000000000000000000000000815260040180806020018281038252602a815260200180614e96602a913960400191505060405180910390fd5b8091505092915050565b60006c010000000000000000000000008210613655576040517f08c379a0000000000000000000000000000000000000000000000000000000008152600401808060200182810382526026815260200180614d356026913960400191505060405180910390fd5b819050919050565b600080600061368160026000868152602001908152602001600020600401546134ca565b9250925092506000806136a960026000888152602001908152602001600020600801546134ca565b925092505060006136fb6103e86136ed600260008b8152602001908152602001600020600a0154876bffffffffffffffffffffffff16612d4c90919063ffffffff16565b612dd290919063ffffffff16565b905060026000888152602001908152602001600020600901600c9054906101000a900460ff1615613738576137338782600089613d89565b6138dc565b613767846bffffffffffffffffffffffff16836bffffffffffffffffffffffff16612d4c90919063ffffffff16565b613796866bffffffffffffffffffffffff16856bffffffffffffffffffffffff16612d4c90919063ffffffff16565b14156138b75760006137fb600260008a815260200190815260200160002060090160009054906101000a90046bffffffffffffffffffffffff166bffffffffffffffffffffffff16866bffffffffffffffffffffffff16612fa390919063ffffffff16565b905061385288613834876bffffffffffffffffffffffff166138268587612d4c90919063ffffffff16565b612dd290919063ffffffff16565b6000600860009054906101000a900467ffffffffffffffff16613d89565b6138b1886138a9876bffffffffffffffffffffffff1661389b61388c868b6bffffffffffffffffffffffff16612fa390919063ffffffff16565b87612d4c90919063ffffffff16565b612dd290919063ffffffff16565b60008a613d89565b506138db565b6138da87826000600860009054906101000a900467ffffffffffffffff16613d89565b5b5b50505050505050565b600080600080600061390c60026000888152602001908152602001600020600401546134ca565b92509250925060026000878152602001908152602001600020600901600c9054906101000a900460ff161561395b5761395686826bffffffffffffffffffffffff16600086613d89565b613b48565b6000801b600260008881526020019081526020016000206004018190555060008061399b600260008a8152602001908152602001600020600801546134ca565b92509250506139cf836bffffffffffffffffffffffff16826bffffffffffffffffffffffff16612d4c90919063ffffffff16565b6139fe856bffffffffffffffffffffffff16846bffffffffffffffffffffffff16612d4c90919063ffffffff16565b1415613ae757613a61600260008a815260200190815260200160002060090160009054906101000a90046bffffffffffffffffffffffff166bffffffffffffffffffffffff16846bffffffffffffffffffffffff16612fa390919063ffffffff16565b9650613ae0826bffffffffffffffffffffffff16613ad2836bffffffffffffffffffffffff16600260008d815260200190815260200160002060090160009054906101000a90046bffffffffffffffffffffffff166bffffffffffffffffffffffff16612d4c90919063ffffffff16565b612dd290919063ffffffff16565b9550613b39565b613b36826bffffffffffffffffffffffff16613b28836bffffffffffffffffffffffff16866bffffffffffffffffffffffff16612d4c90919063ffffffff16565b612dd290919063ffffffff16565b95505b613b4588888888613d89565b50505b505050915091565b600033905090565b6000600160001b821415613b6f5760009050613b8e565b6000801b83600001600084815260200190815260200160002054141590505b92915050565b600080613ba18484613e7e565b90508015613bc7576000801b846001016000858152602001908152602001600020819055505b8091505092915050565b600080600080613be0866134ca565b9250925092506000806000613bf4886134ca565b925092509250613c29846bffffffffffffffffffffffff16836bffffffffffffffffffffffff16612d4c90919063ffffffff16565b613c58826bffffffffffffffffffffffff16876bffffffffffffffffffffffff16612d4c90919063ffffffff16565b1015613c6d5760019650505050505050613d83565b613c9c846bffffffffffffffffffffffff16836bffffffffffffffffffffffff16612d4c90919063ffffffff16565b613ccb826bffffffffffffffffffffffff16876bffffffffffffffffffffffff16612d4c90919063ffffffff16565b1115613ce05760009650505050505050613d83565b8267ffffffffffffffff168667ffffffffffffffff161415613d4d576040517f08c379a000000000000000000000000000000000000000000000000000000000815260040180806020018281038252602d815260200180614f88602d913960400191505060405180910390fd5b8267ffffffffffffffff168667ffffffffffffffff161015613d785760019650505050505050613d83565b600096505050505050505b92915050565b6000613d9f8260036145d790919063ffffffff16565b90506000841115613e0c57613e0b81856002600089815260200190815260200160002060000160009054906101000a900473ffffffffffffffffffffffffffffffffffffffff1673ffffffffffffffffffffffffffffffffffffffff16613f299092919063ffffffff16565b5b6000831115613e7757613e7681846002600089815260200190815260200160002060010160009054906101000a900473ffffffffffffffffffffffffffffffffffffffff1673ffffffffffffffffffffffffffffffffffffffff16613f299092919063ffffffff16565b5b5050505050565b6000613e8a8383613b58565b613e975760009050613f23565b60008360010160008481526020019081526020016000205490506000846000016000858152602001908152602001600020549050808560000160008481526020019081526020016000208190555081856001016000838152602001908152602001600020819055506000801b856000016000868152602001908152602001600020819055506001925050505b92915050565b613fc68363a9059cbb60e01b8484604051602401808373ffffffffffffffffffffffffffffffffffffffff16815260200182815260200192505050604051602081830303815290604052907bffffffffffffffffffffffffffffffffffffffffffffffffffffffff19166020820180517bffffffffffffffffffffffffffffffffffffffffffffffffffffffff8381831617835250505050614428565b505050565b6000806000613fef60026000898152602001908152602001600020600401546134ca565b925092505060005b86518110156141935761404286828151811061400f57fe5b60200260200101516bffffffffffffffffffffffff16836bffffffffffffffffffffffff16612d4c90919063ffffffff16565b614084846bffffffffffffffffffffffff1689848151811061406057fe5b60200260200101516bffffffffffffffffffffffff16612d4c90919063ffffffff16565b106140da576040517f08c379a0000000000000000000000000000000000000000000000000000000008152600401808060200182810382526029815260200180614fb56029913960400191505060405180910390fd5b60026000898152602001908152602001600020600501548682815181106140fd57fe5b60200260200101516bffffffffffffffffffffffff1611614186576040517f08c379a000000000000000000000000000000000000000000000000000000000815260040180806020018281038252600f8152602001807f6f7264657220746f6f20736d616c6c000000000000000000000000000000000081525060200191505060405180910390fd5b8080600101915050613ff7565b50505060006141a13361130a565b915060005b85518110156142f557600061421b6141e5858985815181106141c457fe5b60200260200101518986815181106141d857fe5b6020026020010151612f62565b8684815181106141f157fe5b6020026020010151600160008c81526020019081526020016000206146aa9092919063ffffffff16565b905080156142e75761425786838151811061423257fe5b60200260200101516bffffffffffffffffffffffff1684612cc490919063ffffffff16565b92508367ffffffffffffffff16887f9304f2fc7ed6d42c0400e678dbc7283e1e9054889c3afea5f965adff66ef9eac89858151811061429257fe5b60200260200101518986815181106142a657fe5b602002602001015160405180836bffffffffffffffffffffffff168152602001826bffffffffffffffffffffffff1681526020019250505060405180910390a35b5080806001019150506141a6565b50614359333083600260008b815260200190815260200160002060010160009054906101000a900473ffffffffffffffffffffffffffffffffffffffff1673ffffffffffffffffffffffffffffffffffffffff16612e1c909392919063ffffffff16565b50949350505050565b6000808311829061440e576040517f08c379a00000000000000000000000000000000000000000000000000000000081526004018080602001828103825283818151815260200191508051906020019080838360005b838110156143d35780820151818401526020810190506143b8565b50505050905090810190601f1680156144005780820380516001836020036101000a031916815260200191505b509250505060405180910390fd5b50600083858161441a57fe5b049050809150509392505050565b606061448a826040518060400160405280602081526020017f5361666545524332303a206c6f772d6c6576656c2063616c6c206661696c65648152508573ffffffffffffffffffffffffffffffffffffffff166149589092919063ffffffff16565b9050600081511115614512578080602001905160208110156144ab57600080fd5b8101908080519060200190929190505050614511576040517f08c379a000000000000000000000000000000000000000000000000000000000815260040180806020018281038252602a815260200180615007602a913960400191505060405180910390fd5b5b505050565b60008383111582906145c4576040517f08c379a00000000000000000000000000000000000000000000000000000000081526004018080602001828103825283818151815260200191508051906020019080838360005b8381101561458957808201518184015260208101905061456e565b50505050905090810190601f1680156145b65780820380516001836020036101000a031916815260200191505b509250505060405180910390fd5b5060008385039050809150509392505050565b60006145e38383614970565b614655576040517f08c379a000000000000000000000000000000000000000000000000000000000815260040180806020018281038252601b8152602001807f4d757374206861766520494420746f206765742041646472657373000000000081525060200191505060405180910390fd5b8260000160006001840167ffffffffffffffff1667ffffffffffffffff16815260200190815260200160002060009054906101000a900473ffffffffffffffffffffffffffffffffffffffff16905092915050565b6000806146b6846134ca565b9250505060006bffffffffffffffffffffffff16816bffffffffffffffffffffffff16141561474d576040517f08c379a000000000000000000000000000000000000000000000000000000000815260040180806020018281038252601f8152602001807f496e73657274696e67207a65726f206973206e6f7420737570706f727465640081525060200191505060405180910390fd5b600160001b841415801561478457507fffffffffffffffffffffffffffffffffffffffff00000000000000000000000160001b8414155b6147f6576040517f08c379a000000000000000000000000000000000000000000000000000000000815260040180806020018281038252601e8152602001807f496e73657274696e6720656c656d656e74206973206e6f742076616c6964000081525060200191505060405180910390fd5b6148008585613b58565b1561480f576000915050614951565b600160001b831415801561483a57506000801b85600101600085815260200190815260200160002054145b15614849576000915050614951565b61485c8484613bd190919063ffffffff16565b61486a576000915050614951565b5b6000801b8560000160008581526020019081526020016000205414156148a85784600101600084815260200190815260200160002054925061486b565b6000808490505b8091508660000160008281526020019081526020016000205490506148dd8682613bd190919063ffffffff16565b6148af578587600001600084815260200190815260200160002081905550858760010160008381526020019081526020016000208190555081876001016000888152602001908152602001600020819055508087600001600088815260200190815260200160002081905550600193505050505b9392505050565b606061496784846000856149f6565b90509392505050565b60008073ffffffffffffffffffffffffffffffffffffffff168360000160006001850167ffffffffffffffff1667ffffffffffffffff16815260200190815260200160002060009054906101000a900473ffffffffffffffffffffffffffffffffffffffff1673ffffffffffffffffffffffffffffffffffffffff161415905092915050565b606082471015614a51576040517f08c379a0000000000000000000000000000000000000000000000000000000008152600401808060200182810382526026815260200180614e436026913960400191505060405180910390fd5b614a5a85614b9f565b614acc576040517f08c379a000000000000000000000000000000000000000000000000000000000815260040180806020018281038252601d8152602001807f416464726573733a2063616c6c20746f206e6f6e2d636f6e747261637400000081525060200191505060405180910390fd5b600060608673ffffffffffffffffffffffffffffffffffffffff1685876040518082805190602001908083835b60208310614b1c5780518252602082019150602081019050602083039250614af9565b6001836020036101000a03801982511681845116808217855250505050505090500191505060006040518083038185875af1925050503d8060008114614b7e576040519150601f19603f3d011682016040523d82523d6000602084013e614b83565b606091505b5091509150614b93828286614bb2565b92505050949350505050565b600080823b905060008111915050919050565b60608315614bc257829050614c77565b600083511115614bd55782518084602001fd5b816040517f08c379a00000000000000000000000000000000000000000000000000000000081526004018080602001828103825283818151815260200191508051906020019080838360005b83811015614c3c578082015181840152602081019050614c21565b50505050905090810190601f168015614c695780820380516001836020036101000a031916815260200191505b509250505060405180910390fd5b9392505050565b604051806101c00160405280600073ffffffffffffffffffffffffffffffffffffffff168152602001600073ffffffffffffffffffffffffffffffffffffffff1681526020016000815260200160008152602001600080191681526020016000815260200160008152602001600080191681526020016000801916815260200160006bffffffffffffffffffffffff1681526020016000151581526020016000151581526020016000815260200160008152509056fe53616665436173743a2076616c756520646f65736e27742066697420696e20393620626974736e6f7420616c6c6f77656420746f20736574746c652061756374696f6e2061746f6d6963616c6c794f6e6c792074686520757365722063616e2063616e63656c20686973206f72646572734f776e61626c653a206e6577206f776e657220697320746865207a65726f2061646472657373746f6b656e732063616e6e6f742062652061756374696f6e656420666f7220667265656e6f206c6f6e67657220696e206f7264657220706c6163656d656e7420616e642063616e63656c6174696f6e207068617365547279696e6720746f20676574206e657874206f66206c61737420656c656d656e74416464726573733a20696e73756666696369656e742062616c616e636520666f722063616c6c466565206973206e6f7420616c6c6f77656420746f2062652073657420686967686572207468616e20312e3525547279696e6720746f20676574206e657874206f66206e6f6e2d6578697374656e7420656c656d656e746d696e696d756d42696464696e67416d6f756e745065724f72646572206973206e6f7420616c6c6f77656420746f206265207a65726f536166654d6174683a206d756c7469706c69636174696f6e206f766572666c6f7753616665436173743a2076616c756520646f65736e27742066697420696e20363420626974736f6e6c7920616c6c6f77656420746f20636c61696d20666f722073616d65207573657241756374696f6e206e6f7420696e20736f6c7574696f6e207375626d697373696f6e20706861736575736572206973206e6f7420616c6c6f77656420746f20706c6163652073616d65206f726465722074776963656c696d6974207072696365206e6f7420626574746572207468616e206d696d696d616c206f6666657274696d6520706572696f647320617265206e6f7420636f6e6669677572656420636f72726563746c795361666545524332303a204552433230206f7065726174696f6e20646964206e6f7420737563636565646e6f206c6f6e67657220696e206f7264657220706c6163656d656e74207068617365a264697066735822122015d7861966ca393913efec0b7047d90b323569801b6242db6dcb572583d1a78f64736f6c634300060c0033",
  "devdoc": {
    "kind": "dev",
    "methods": {
      "owner()": {
        "details": "Returns the address of the current owner."
      },
      "renounceOwnership()": {
        "details": "Leaves the contract without owner. It will not be possible to call `onlyOwner` functions anymore. Can only be called by the current owner. NOTE: Renouncing ownership will leave the contract without an owner, thereby removing any functionality that is only available to the owner."
      },
      "transferOwnership(address)": {
        "details": "Transfers ownership of the contract to a new account (`newOwner`). Can only be called by the current owner."
      }
    },
    "version": 1
  },
  "userdoc": {
    "kind": "user",
    "methods": {},
    "version": 1
  },
  "storageLayout": {
    "storage": [
      {
        "astId": 30,
        "contract": "contracts/EasyAuction.sol:EasyAuction",
        "label": "_owner",
        "offset": 0,
        "slot": "0",
        "type": "t_address"
      },
      {
        "astId": 1171,
        "contract": "contracts/EasyAuction.sol:EasyAuction",
        "label": "sellOrders",
        "offset": 0,
        "slot": "1",
        "type": "t_mapping(t_uint256,t_struct(Data)2831_storage)"
      },
      {
        "astId": 1175,
        "contract": "contracts/EasyAuction.sol:EasyAuction",
        "label": "auctionData",
        "offset": 0,
        "slot": "2",
        "type": "t_mapping(t_uint256,t_struct(AuctionData)1167_storage)"
      },
      {
        "astId": 1177,
        "contract": "contracts/EasyAuction.sol:EasyAuction",
        "label": "registeredUsers",
        "offset": 0,
        "slot": "3",
        "type": "t_struct(Data)2640_storage"
      },
      {
        "astId": 1179,
        "contract": "contracts/EasyAuction.sol:EasyAuction",
        "label": "numUsers",
        "offset": 0,
        "slot": "5",
        "type": "t_uint64"
      },
      {
        "astId": 1181,
        "contract": "contracts/EasyAuction.sol:EasyAuction",
        "label": "auctionCounter",
        "offset": 0,
        "slot": "6",
        "type": "t_uint256"
      },
      {
        "astId": 1190,
        "contract": "contracts/EasyAuction.sol:EasyAuction",
        "label": "feeNumerator",
        "offset": 0,
        "slot": "7",
        "type": "t_uint256"
      },
      {
        "astId": 1196,
        "contract": "contracts/EasyAuction.sol:EasyAuction",
        "label": "feeReceiverUserId",
        "offset": 0,
        "slot": "8",
        "type": "t_uint64"
      }
    ],
    "types": {
      "t_address": {
        "encoding": "inplace",
        "label": "address",
        "numberOfBytes": "20"
      },
      "t_bool": {
        "encoding": "inplace",
        "label": "bool",
        "numberOfBytes": "1"
      },
      "t_bytes32": {
        "encoding": "inplace",
        "label": "bytes32",
        "numberOfBytes": "32"
      },
      "t_contract(IERC20)478": {
        "encoding": "inplace",
        "label": "contract IERC20",
        "numberOfBytes": "20"
      },
      "t_mapping(t_address,t_uint64)": {
        "encoding": "mapping",
        "key": "t_address",
        "label": "mapping(address => uint64)",
        "numberOfBytes": "32",
        "value": "t_uint64"
      },
      "t_mapping(t_bytes32,t_bytes32)": {
        "encoding": "mapping",
        "key": "t_bytes32",
        "label": "mapping(bytes32 => bytes32)",
        "numberOfBytes": "32",
        "value": "t_bytes32"
      },
      "t_mapping(t_uint256,t_struct(AuctionData)1167_storage)": {
        "encoding": "mapping",
        "key": "t_uint256",
        "label": "mapping(uint256 => struct EasyAuction.AuctionData)",
        "numberOfBytes": "32",
        "value": "t_struct(AuctionData)1167_storage"
      },
      "t_mapping(t_uint256,t_struct(Data)2831_storage)": {
        "encoding": "mapping",
        "key": "t_uint256",
        "label": "mapping(uint256 => struct IterableOrderedOrderSet.Data)",
        "numberOfBytes": "32",
        "value": "t_struct(Data)2831_storage"
      },
      "t_mapping(t_uint64,t_address)": {
        "encoding": "mapping",
        "key": "t_uint64",
        "label": "mapping(uint64 => address)",
        "numberOfBytes": "32",
        "value": "t_address"
      },
      "t_struct(AuctionData)1167_storage": {
        "encoding": "inplace",
        "label": "struct EasyAuction.AuctionData",
        "members": [
          {
            "astId": 1140,
            "contract": "contracts/EasyAuction.sol:EasyAuction",
            "label": "auctioningToken",
            "offset": 0,
            "slot": "0",
            "type": "t_contract(IERC20)478"
          },
          {
            "astId": 1142,
            "contract": "contracts/EasyAuction.sol:EasyAuction",
            "label": "biddingToken",
            "offset": 0,
            "slot": "1",
            "type": "t_contract(IERC20)478"
          },
          {
            "astId": 1144,
            "contract": "contracts/EasyAuction.sol:EasyAuction",
            "label": "orderCancellationEndDate",
            "offset": 0,
            "slot": "2",
            "type": "t_uint256"
          },
          {
            "astId": 1146,
            "contract": "contracts/EasyAuction.sol:EasyAuction",
            "label": "auctionEndDate",
            "offset": 0,
            "slot": "3",
            "type": "t_uint256"
          },
          {
            "astId": 1148,
            "contract": "contracts/EasyAuction.sol:EasyAuction",
            "label": "initialAuctionOrder",
            "offset": 0,
            "slot": "4",
            "type": "t_bytes32"
          },
          {
            "astId": 1150,
            "contract": "contracts/EasyAuction.sol:EasyAuction",
            "label": "minimumBiddingAmountPerOrder",
            "offset": 0,
            "slot": "5",
            "type": "t_uint256"
          },
          {
            "astId": 1152,
            "contract": "contracts/EasyAuction.sol:EasyAuction",
            "label": "interimSumBidAmount",
            "offset": 0,
            "slot": "6",
            "type": "t_uint256"
          },
          {
            "astId": 1154,
            "contract": "contracts/EasyAuction.sol:EasyAuction",
            "label": "interimOrder",
            "offset": 0,
            "slot": "7",
            "type": "t_bytes32"
          },
          {
            "astId": 1156,
            "contract": "contracts/EasyAuction.sol:EasyAuction",
            "label": "clearingPriceOrder",
            "offset": 0,
            "slot": "8",
            "type": "t_bytes32"
          },
          {
            "astId": 1158,
            "contract": "contracts/EasyAuction.sol:EasyAuction",
            "label": "volumeClearingPriceOrder",
            "offset": 0,
            "slot": "9",
            "type": "t_uint96"
          },
          {
            "astId": 1160,
            "contract": "contracts/EasyAuction.sol:EasyAuction",
            "label": "minFundingThresholdNotReached",
            "offset": 12,
            "slot": "9",
            "type": "t_bool"
          },
          {
            "astId": 1162,
            "contract": "contracts/EasyAuction.sol:EasyAuction",
            "label": "isAtomicClosureAllowed",
            "offset": 13,
            "slot": "9",
            "type": "t_bool"
          },
          {
            "astId": 1164,
            "contract": "contracts/EasyAuction.sol:EasyAuction",
            "label": "feeNumerator",
            "offset": 0,
            "slot": "10",
            "type": "t_uint256"
          },
          {
            "astId": 1166,
            "contract": "contracts/EasyAuction.sol:EasyAuction",
            "label": "minFundingThreshold",
            "offset": 0,
            "slot": "11",
            "type": "t_uint256"
          }
        ],
        "numberOfBytes": "384"
      },
      "t_struct(Data)2640_storage": {
        "encoding": "inplace",
        "label": "struct IdToAddressBiMap.Data",
        "members": [
          {
            "astId": 2635,
            "contract": "contracts/EasyAuction.sol:EasyAuction",
            "label": "idToAddress",
            "offset": 0,
            "slot": "0",
            "type": "t_mapping(t_uint64,t_address)"
          },
          {
            "astId": 2639,
            "contract": "contracts/EasyAuction.sol:EasyAuction",
            "label": "addressToId",
            "offset": 0,
            "slot": "1",
            "type": "t_mapping(t_address,t_uint64)"
          }
        ],
        "numberOfBytes": "64"
      },
      "t_struct(Data)2831_storage": {
        "encoding": "inplace",
        "label": "struct IterableOrderedOrderSet.Data",
        "members": [
          {
            "astId": 2826,
            "contract": "contracts/EasyAuction.sol:EasyAuction",
            "label": "nextMap",
            "offset": 0,
            "slot": "0",
            "type": "t_mapping(t_bytes32,t_bytes32)"
          },
          {
            "astId": 2830,
            "contract": "contracts/EasyAuction.sol:EasyAuction",
            "label": "prevMap",
            "offset": 0,
            "slot": "1",
            "type": "t_mapping(t_bytes32,t_bytes32)"
          }
        ],
        "numberOfBytes": "64"
      },
      "t_uint256": {
        "encoding": "inplace",
        "label": "uint256",
        "numberOfBytes": "32"
      },
      "t_uint64": {
        "encoding": "inplace",
        "label": "uint64",
        "numberOfBytes": "8"
      },
      "t_uint96": {
        "encoding": "inplace",
        "label": "uint96",
        "numberOfBytes": "12"
      }
    }
  }
}