{
  "address": "0x99e63218201e44549AB8a6Fa220e1018FDB48f79",
  "abi": [
    {
      "inputs": [],
      "stateMutability": "nonpayable",
      "type": "constructor"
    },
    {
      "anonymous": false,
      "inputs": [
        {
          "indexed": true,
          "internalType": "uint256",
          "name": "auctionId",
          "type": "uint256"
        },
        {
          "indexed": false,
          "internalType": "uint96",
          "name": "soldAuctioningTokens",
          "type": "uint96"
        },
        {
          "indexed": false,
          "internalType": "uint96",
          "name": "soldBiddingTokens",
          "type": "uint96"
        },
        {
          "indexed": false,
          "internalType": "bytes32",
          "name": "clearingPriceOrder",
          "type": "bytes32"
        }
      ],
      "name": "AuctionCleared",
      "type": "event"
    },
    {
      "anonymous": false,
      "inputs": [
        {
          "indexed": true,
          "internalType": "uint256",
          "name": "auctionId",
          "type": "uint256"
        },
        {
          "indexed": true,
          "internalType": "uint64",
          "name": "userId",
          "type": "uint64"
        },
        {
          "indexed": false,
          "internalType": "uint96",
          "name": "buyAmount",
          "type": "uint96"
        },
        {
          "indexed": false,
          "internalType": "uint96",
          "name": "sellAmount",
          "type": "uint96"
        }
      ],
      "name": "CancellationSellOrder",
      "type": "event"
    },
    {
      "anonymous": false,
      "inputs": [
        {
          "indexed": true,
          "internalType": "uint256",
          "name": "auctionId",
          "type": "uint256"
        },
        {
          "indexed": true,
          "internalType": "uint64",
          "name": "userId",
          "type": "uint64"
        },
        {
          "indexed": false,
          "internalType": "uint96",
          "name": "buyAmount",
          "type": "uint96"
        },
        {
          "indexed": false,
          "internalType": "uint96",
          "name": "sellAmount",
          "type": "uint96"
        }
      ],
      "name": "ClaimedFromOrder",
      "type": "event"
    },
    {
      "anonymous": false,
      "inputs": [
        {
          "indexed": true,
          "internalType": "uint256",
          "name": "auctionId",
          "type": "uint256"
        },
        {
          "indexed": true,
          "internalType": "contract IERC20",
          "name": "_auctioningToken",
          "type": "address"
        },
        {
          "indexed": true,
          "internalType": "contract IERC20",
          "name": "_biddingToken",
          "type": "address"
        },
        {
          "indexed": false,
          "internalType": "uint256",
          "name": "orderCancellationEndDate",
          "type": "uint256"
        },
        {
          "indexed": false,
          "internalType": "uint256",
          "name": "auctionEndDate",
          "type": "uint256"
        },
        {
          "indexed": false,
          "internalType": "uint96",
          "name": "_auctionedSellAmount",
          "type": "uint96"
        },
        {
          "indexed": false,
          "internalType": "uint96",
          "name": "_minBuyAmount",
          "type": "uint96"
        },
        {
          "indexed": false,
          "internalType": "uint256",
          "name": "minimumBiddingAmountPerOrder",
          "type": "uint256"
        },
        {
          "indexed": false,
          "internalType": "uint256",
          "name": "minFundingThreshold",
          "type": "uint256"
        },
        {
          "indexed": false,
          "internalType": "address",
          "name": "allowListManager",
          "type": "address"
        }
      ],
      "name": "NewAuction",
      "type": "event"
    },
    {
      "anonymous": false,
      "inputs": [
        {
          "indexed": true,
          "internalType": "uint256",
          "name": "auctionId",
          "type": "uint256"
        },
        {
          "indexed": true,
          "internalType": "uint64",
          "name": "userId",
          "type": "uint64"
        },
        {
          "indexed": false,
          "internalType": "uint96",
          "name": "buyAmount",
          "type": "uint96"
        },
        {
          "indexed": false,
          "internalType": "uint96",
          "name": "sellAmount",
          "type": "uint96"
        }
      ],
      "name": "NewSellOrder",
      "type": "event"
    },
    {
      "anonymous": false,
      "inputs": [
        {
          "indexed": true,
          "internalType": "uint64",
          "name": "userId",
          "type": "uint64"
        },
        {
          "indexed": true,
          "internalType": "address",
          "name": "userAddress",
          "type": "address"
        }
      ],
      "name": "NewUser",
      "type": "event"
    },
    {
      "anonymous": false,
      "inputs": [
        {
          "indexed": true,
          "internalType": "address",
          "name": "previousOwner",
          "type": "address"
        },
        {
          "indexed": true,
          "internalType": "address",
          "name": "newOwner",
          "type": "address"
        }
      ],
      "name": "OwnershipTransferred",
      "type": "event"
    },
    {
      "anonymous": false,
      "inputs": [
        {
          "indexed": true,
          "internalType": "address",
          "name": "user",
          "type": "address"
        },
        {
          "indexed": false,
          "internalType": "uint64",
          "name": "userId",
          "type": "uint64"
        }
      ],
      "name": "UserRegistration",
      "type": "event"
    },
    {
      "inputs": [],
      "name": "FEE_DENOMINATOR",
      "outputs": [
        {
          "internalType": "uint256",
          "name": "",
          "type": "uint256"
        }
      ],
      "stateMutability": "view",
      "type": "function"
    },
    {
      "inputs": [
        {
          "internalType": "uint256",
          "name": "",
          "type": "uint256"
        }
      ],
      "name": "auctionAccessManager",
      "outputs": [
        {
          "internalType": "address",
          "name": "",
          "type": "address"
        }
      ],
      "stateMutability": "view",
      "type": "function"
    },
    {
      "inputs": [],
      "name": "auctionCounter",
      "outputs": [
        {
          "internalType": "uint256",
          "name": "",
          "type": "uint256"
        }
      ],
      "stateMutability": "view",
      "type": "function"
    },
    {
      "inputs": [
        {
          "internalType": "uint256",
          "name": "",
          "type": "uint256"
        }
      ],
      "name": "auctionData",
      "outputs": [
        {
          "internalType": "contract IERC20",
          "name": "auctioningToken",
          "type": "address"
        },
        {
          "internalType": "contract IERC20",
          "name": "biddingToken",
          "type": "address"
        },
        {
          "internalType": "uint256",
          "name": "orderCancellationEndDate",
          "type": "uint256"
        },
        {
          "internalType": "uint256",
          "name": "auctionEndDate",
          "type": "uint256"
        },
        {
          "internalType": "bytes32",
          "name": "initialAuctionOrder",
          "type": "bytes32"
        },
        {
          "internalType": "uint256",
          "name": "minimumBiddingAmountPerOrder",
          "type": "uint256"
        },
        {
          "internalType": "uint256",
          "name": "interimSumBidAmount",
          "type": "uint256"
        },
        {
          "internalType": "bytes32",
          "name": "interimOrder",
          "type": "bytes32"
        },
        {
          "internalType": "bytes32",
          "name": "clearingPriceOrder",
          "type": "bytes32"
        },
        {
          "internalType": "uint96",
          "name": "volumeClearingPriceOrder",
          "type": "uint96"
        },
        {
          "internalType": "bool",
          "name": "minFundingThresholdNotReached",
          "type": "bool"
        },
        {
          "internalType": "bool",
          "name": "isAtomicClosureAllowed",
          "type": "bool"
        },
        {
          "internalType": "uint256",
          "name": "feeNumerator",
          "type": "uint256"
        },
        {
          "internalType": "uint256",
          "name": "minFundingThreshold",
          "type": "uint256"
        }
      ],
      "stateMutability": "view",
      "type": "function"
    },
    {
      "inputs": [
        {
          "internalType": "uint256",
          "name": "auctionId",
          "type": "uint256"
        },
        {
          "internalType": "bytes32[]",
          "name": "_sellOrders",
          "type": "bytes32[]"
        }
      ],
      "name": "cancelSellOrders",
      "outputs": [],
      "stateMutability": "nonpayable",
      "type": "function"
    },
    {
      "inputs": [
        {
          "internalType": "uint256",
          "name": "auctionId",
          "type": "uint256"
        },
        {
          "internalType": "bytes32[]",
          "name": "orders",
          "type": "bytes32[]"
        }
      ],
      "name": "claimFromParticipantOrder",
      "outputs": [
        {
          "internalType": "uint256",
          "name": "sumAuctioningTokenAmount",
          "type": "uint256"
        },
        {
          "internalType": "uint256",
          "name": "sumBiddingTokenAmount",
          "type": "uint256"
        }
      ],
      "stateMutability": "nonpayable",
      "type": "function"
    },
    {
      "inputs": [
        {
          "internalType": "uint256",
          "name": "auctionId",
          "type": "uint256"
        },
        {
          "internalType": "bytes32",
          "name": "order",
          "type": "bytes32"
        }
      ],
      "name": "containsOrder",
      "outputs": [
        {
          "internalType": "bool",
          "name": "",
          "type": "bool"
        }
      ],
      "stateMutability": "view",
      "type": "function"
    },
    {
      "inputs": [],
      "name": "feeNumerator",
      "outputs": [
        {
          "internalType": "uint256",
          "name": "",
          "type": "uint256"
        }
      ],
      "stateMutability": "view",
      "type": "function"
    },
    {
      "inputs": [],
      "name": "feeReceiverUserId",
      "outputs": [
        {
          "internalType": "uint64",
          "name": "",
          "type": "uint64"
        }
      ],
      "stateMutability": "view",
      "type": "function"
    },
    {
      "inputs": [
        {
          "internalType": "uint256",
          "name": "auctionId",
          "type": "uint256"
        }
      ],
      "name": "getSecondsRemainingInBatch",
      "outputs": [
        {
          "internalType": "uint256",
          "name": "",
          "type": "uint256"
        }
      ],
      "stateMutability": "view",
      "type": "function"
    },
    {
      "inputs": [
        {
          "internalType": "address",
          "name": "user",
          "type": "address"
        }
      ],
      "name": "getUserId",
      "outputs": [
        {
          "internalType": "uint64",
          "name": "userId",
          "type": "uint64"
        }
      ],
      "stateMutability": "nonpayable",
      "type": "function"
    },
    {
      "inputs": [
        {
          "internalType": "contract IERC20",
          "name": "_auctioningToken",
          "type": "address"
        },
        {
          "internalType": "contract IERC20",
          "name": "_biddingToken",
          "type": "address"
        },
        {
          "internalType": "uint256",
          "name": "orderCancelationPeriodDuration",
          "type": "uint256"
        },
        {
          "internalType": "uint256",
          "name": "duration",
          "type": "uint256"
        },
        {
          "internalType": "uint96",
          "name": "_auctionedSellAmount",
          "type": "uint96"
        },
        {
          "internalType": "uint96",
          "name": "_minBuyAmount",
          "type": "uint96"
        },
        {
          "internalType": "uint256",
          "name": "minimumBiddingAmountPerOrder",
          "type": "uint256"
        },
        {
          "internalType": "uint256",
          "name": "minFundingThreshold",
          "type": "uint256"
        },
        {
          "internalType": "bool",
          "name": "isAtomicClosureAllowed",
          "type": "bool"
        },
        {
          "internalType": "address",
          "name": "allowListManager",
          "type": "address"
        }
      ],
      "name": "initiateAuction",
      "outputs": [
        {
          "internalType": "uint256",
          "name": "",
          "type": "uint256"
        }
      ],
      "stateMutability": "nonpayable",
      "type": "function"
    },
    {
      "inputs": [],
      "name": "numUsers",
      "outputs": [
        {
          "internalType": "uint64",
          "name": "",
          "type": "uint64"
        }
      ],
      "stateMutability": "view",
      "type": "function"
    },
    {
      "inputs": [],
      "name": "owner",
      "outputs": [
        {
          "internalType": "address",
          "name": "",
          "type": "address"
        }
      ],
      "stateMutability": "view",
      "type": "function"
    },
    {
      "inputs": [
        {
          "internalType": "uint256",
          "name": "auctionId",
          "type": "uint256"
        },
        {
          "internalType": "uint96[]",
          "name": "_minBuyAmounts",
          "type": "uint96[]"
        },
        {
          "internalType": "uint96[]",
          "name": "_sellAmounts",
          "type": "uint96[]"
        },
        {
          "internalType": "bytes32[]",
          "name": "_prevSellOrders",
          "type": "bytes32[]"
        },
        {
          "internalType": "bytes",
          "name": "allowListCallData",
          "type": "bytes"
        }
      ],
      "name": "placeSellOrders",
      "outputs": [
        {
          "internalType": "uint64",
          "name": "userId",
          "type": "uint64"
        }
      ],
      "stateMutability": "nonpayable",
      "type": "function"
    },
    {
      "inputs": [
        {
          "internalType": "uint256",
          "name": "auctionId",
          "type": "uint256"
        },
        {
          "internalType": "uint256",
          "name": "iterationSteps",
          "type": "uint256"
        }
      ],
      "name": "precalculateSellAmountSum",
      "outputs": [],
      "stateMutability": "nonpayable",
      "type": "function"
    },
    {
      "inputs": [
        {
          "internalType": "address",
          "name": "user",
          "type": "address"
        }
      ],
      "name": "registerUser",
      "outputs": [
        {
          "internalType": "uint64",
          "name": "userId",
          "type": "uint64"
        }
      ],
      "stateMutability": "nonpayable",
      "type": "function"
    },
    {
      "inputs": [],
      "name": "renounceOwnership",
      "outputs": [],
      "stateMutability": "nonpayable",
      "type": "function"
    },
    {
      "inputs": [
        {
          "internalType": "uint256",
          "name": "newFeeNumerator",
          "type": "uint256"
        },
        {
          "internalType": "address",
          "name": "newfeeReceiverAddress",
          "type": "address"
        }
      ],
      "name": "setFeeParameters",
      "outputs": [],
      "stateMutability": "nonpayable",
      "type": "function"
    },
    {
      "inputs": [
        {
          "internalType": "uint256",
          "name": "auctionId",
          "type": "uint256"
        }
      ],
      "name": "settleAuction",
      "outputs": [
        {
          "internalType": "bytes32",
          "name": "clearingOrder",
          "type": "bytes32"
        }
      ],
      "stateMutability": "nonpayable",
      "type": "function"
    },
    {
      "inputs": [
        {
          "internalType": "uint256",
          "name": "auctionId",
          "type": "uint256"
        },
        {
          "internalType": "uint96[]",
          "name": "_minBuyAmount",
          "type": "uint96[]"
        },
        {
          "internalType": "uint96[]",
          "name": "_sellAmount",
          "type": "uint96[]"
        },
        {
          "internalType": "bytes32[]",
          "name": "_prevSellOrder",
          "type": "bytes32[]"
        },
        {
          "internalType": "bytes",
          "name": "allowListCallData",
          "type": "bytes"
        }
      ],
      "name": "settleAuctionAtomically",
      "outputs": [],
      "stateMutability": "nonpayable",
      "type": "function"
    },
    {
      "inputs": [
        {
          "internalType": "address",
          "name": "newOwner",
          "type": "address"
        }
      ],
      "name": "transferOwnership",
      "outputs": [],
      "stateMutability": "nonpayable",
      "type": "function"
    }
  ],
  "transactionHash": "0x1719a22ec302cc15f2130731c88580dbd19be8292573b0b7a2d1455c41ab6867",
  "args": [],
  "solcInputHash": "5272bfb34b28591c452df1091d6a9db9",
  "bytecode": "0x60806040526000600855600980546001600160401b03191660011790553480156200002957600080fd5b5060006200003662000086565b600080546001600160a01b0319166001600160a01b0383169081178255604051929350917f8be0079c531659141344cd1fd0a4f28419497f9722a3daafe3b4186f6b6457e0908290a3506200008a565b3390565b613d44806200009a6000396000f3fe608060405234801561001057600080fd5b50600436106101825760003560e01c8063749a6378116100d8578063a7e766441161008c578063e4a59ef411610066578063e4a59ef414610a18578063e86dea4a14610a35578063f2fde38b14610a3d57610182565b8063a7e76644146107cf578063d225269c146107d7578063d73792a914610a1057610182565b80637ed18b70116100bd5780637ed18b70146104c85780638da5cb5b1461057257806391cfc1d41461059657610182565b8063749a63781461038e5780637882deaf1461040557610182565b80633e12905f1161013a5780635cefb291116101145780635cefb2911461034757806363c699a41461034f578063715018a61461038657610182565b80633e12905f1461024457806340b20b091461026957806355fc62d21461029557610182565b80632199d5cd1161016b5780632199d5cd146101db5780632b956ff7146102015780632e9936111461022757610182565b806315d37b4b1461018757806319a50f49146101b6575b600080fd5b6101a46004803603602081101561019d57600080fd5b5035610a63565b60408051918252519081900360200190f35b6101be610aa8565b6040805167ffffffffffffffff9092168252519081900360200190f35b6101be600480360360208110156101f157600080fd5b50356001600160a01b0316610ab8565b6101be6004803603602081101561021757600080fd5b50356001600160a01b0316610bc7565b6101a46004803603602081101561023d57600080fd5b5035610c3c565b6102676004803603604081101561025a57600080fd5b508035906020013561105e565b005b6102676004803603604081101561027f57600080fd5b50803590602001356001600160a01b03166112b0565b6102b2600480360360208110156102ab57600080fd5b50356113a2565b604051808f6001600160a01b031681526020018e6001600160a01b031681526020018d81526020018c81526020018b81526020018a8152602001898152602001888152602001878152602001866bffffffffffffffffffffffff168152602001851515815260200184151581526020018381526020018281526020019e50505050505050505050505050505060405180910390f35b6101be611445565b6103726004803603604081101561036557600080fd5b5080359060200135611455565b604080519115158252519081900360200190f35b610267611476565b6101a460048036036101408110156103a557600080fd5b506001600160a01b03813581169160208101358216916040820135916060810135916bffffffffffffffffffffffff608083013581169260a08101359091169160c08201359160e081013591610100820135151591610120013516611542565b6104af6004803603604081101561041b57600080fd5b8135919081019060408101602082013564010000000081111561043d57600080fd5b82018360208201111561044f57600080fd5b8035906020019184602083028401116401000000008311171561047157600080fd5b9190808060200260200160405190810160405280939291908181526020018383602002808284376000920191909152509295506119bb945050505050565b6040805192835260208301919091528051918290030190f35b610267600480360360408110156104de57600080fd5b8135919081019060408101602082013564010000000081111561050057600080fd5b82018360208201111561051257600080fd5b8035906020019184602083028401116401000000008311171561053457600080fd5b919080806020026020016040519081016040528093929190818152602001838360200280828437600092019190915250929550611e78945050505050565b61057a61203d565b604080516001600160a01b039092168252519081900360200190f35b610267600480360360a08110156105ac57600080fd5b813591908101906040810160208201356401000000008111156105ce57600080fd5b8201836020820111156105e057600080fd5b8035906020019184602083028401116401000000008311171561060257600080fd5b919080806020026020016040519081016040528093929190818152602001838360200280828437600092019190915250929594936020810193503591505064010000000081111561065257600080fd5b82018360208201111561066457600080fd5b8035906020019184602083028401116401000000008311171561068657600080fd5b91908080602002602001604051908101604052809392919081815260200183836020028082843760009201919091525092959493602081019350359150506401000000008111156106d657600080fd5b8201836020820111156106e857600080fd5b8035906020019184602083028401116401000000008311171561070a57600080fd5b919080806020026020016040519081016040528093929190818152602001838360200280828437600092019190915250929594936020810193503591505064010000000081111561075a57600080fd5b82018360208201111561076c57600080fd5b8035906020019184600183028401116401000000008311171561078e57600080fd5b91908080601f01602080910402602001604051908101604052809392919081815260200183838082843760009201919091525092955061204c945050505050565b6101a461222b565b6101be600480360360a08110156107ed57600080fd5b8135919081019060408101602082013564010000000081111561080f57600080fd5b82018360208201111561082157600080fd5b8035906020019184602083028401116401000000008311171561084357600080fd5b919080806020026020016040519081016040528093929190818152602001838360200280828437600092019190915250929594936020810193503591505064010000000081111561089357600080fd5b8201836020820111156108a557600080fd5b803590602001918460208302840111640100000000831117156108c757600080fd5b919080806020026020016040519081016040528093929190818152602001838360200280828437600092019190915250929594936020810193503591505064010000000081111561091757600080fd5b82018360208201111561092957600080fd5b8035906020019184602083028401116401000000008311171561094b57600080fd5b919080806020026020016040519081016040528093929190818152602001838360200280828437600092019190915250929594936020810193503591505064010000000081111561099b57600080fd5b8201836020820111156109ad57600080fd5b803590602001918460018302840111640100000000831117156109cf57600080fd5b91908080601f016020809104026020016040519081016040528093929190818152602001838380828437600092019190915250929550612231945050505050565b6101a461229a565b61057a60048036036020811015610a2e57600080fd5b50356122a0565b6101a46122bb565b61026760048036036020811015610a5357600080fd5b50356001600160a01b03166122c1565b600081815260026020526040812060030154421115610a8457506000610aa3565b600082815260026020526040902060030154610aa090426123e3565b90505b919050565b60065467ffffffffffffffff1681565b600654600090610adc90610ad79067ffffffffffffffff166001612425565b61247f565b600680547fffffffffffffffffffffffffffffffffffffffffffffffff00000000000000001667ffffffffffffffff9283161790819055610b219160049116846124cc565b610b72576040805162461bcd60e51b815260206004820152601760248201527f5573657220616c72656164792072656769737465726564000000000000000000604482015290519081900360640190fd5b506006546040805167ffffffffffffffff909216808352905190916001600160a01b038416917f6838f67cb358c332087b73dbe769a6c869a5f87225236c16dda5d0013a77074c9181900360200190a2919050565b6000610bd4600483612679565b15610beb57610be46004836126a4565b9050610aa3565b610bf482610ab8565b9050816001600160a01b03168167ffffffffffffffff167f969d438b19b6b5fb3c0d3c6f16867e519fcec4233799d6be29d1c00f2045ba2660405160405180910390a3919050565b60008181526002602052604081206003015482908015801590610c5f5750804210155b8015610c7a5750600082815260026020526040902060080154155b610cb55760405162461bcd60e51b8152600401808060200182810382526028815260200180613c1c6028913960400191505060405180910390fd5b5060008381526002602052604081206004015481908190610cd59061274d565b6000898152600260205260408120600681015460079091015494975092955090935090919080845b60008b8152600160205260408120610d15908661275c565b90507fffffffffffffffffffffffffffffffffffffffff000000000000000000000001811415610d455750610d9e565b809450610d518561274d565b6bffffffffffffffffffffffff9182169650169350610d7290508684612425565b9550610d8e90506bffffffffffffffffffffffff871683612808565b610d988685612808565b10610cfd575b600085118015610dce5750610dc16bffffffffffffffffffffffff871683612808565b610dcb8685612808565b10155b15610eab576000610e01610dfa85610df46bffffffffffffffffffffffff8b1687612808565b90612861565b87906123e3565b9050808310610e82576000610e1684836123e3565b9050610e21816128a3565b60008e815260026020526040902060090180547fffffffffffffffffffffffffffffffffffffffff000000000000000000000000166bffffffffffffffffffffffff92909216919091179055610e7787836123e3565b9650859b5050610ea5565b610e8c86846123e3565b9550610ea2600088610e9d896128a3565b6128f0565b9a505b50610f23565b866bffffffffffffffffffffffff16851115610ed757610ed0600087610e9d886128a3565b9950610f23565b610ee3600087896128f0565b9950610f20610f1b886bffffffffffffffffffffffff16610df4896bffffffffffffffffffffffff168961280890919063ffffffff16565b6128a3565b90505b60008b8152600260205260409020600881018b9055600b0154851015610f8a5760008b815260026020526040902060090180547fffffffffffffffffffffffffffffffffffffff00ffffffffffffffffffffffff166c010000000000000000000000001790555b610fa48b826bffffffffffffffffffffffff168a8961294e565b604080516bffffffffffffffffffffffff8084168252871660208201528082018c905290518c917f4d160a2a345f2faeb9ac2e65272820b8ca5473b80aabef416bdf7e07ee7f5910919081900360600190a25050506000978852505060036020908152604080882080547fffffffffffffffffffffffff0000000000000000000000000000000000000000169055600290915286206004810187905560078101879055600681018790556005019590955550919392505050565b600082815260026020526040902060030154829080158015906110815750804210155b801561109c5750600082815260026020526040902060080154155b6110d75760405162461bcd60e51b8152600401808060200182810382526028815260200180613c1c6028913960400191505060405180910390fd5b506000838152600260205260408120600401546110f39061274d565b6000878152600260205260408120600681015460079091015492955093509091505b8581101561116b576000878152600160205260409020611135908361275c565b915060006111428361274d565b925061116091508590506bffffffffffffffffffffffff8316612425565b935050600101611115565b507fffffffffffffffffffffffffffffffffffffffff0000000000000000000000018114156111e1576040805162461bcd60e51b815260206004820152601960248201527f7265616368656420656e64206f66206f72646572206c69737400000000000000604482015290519081900360640190fd5b6000806111ed8361274d565b9250925050611221816bffffffffffffffffffffffff16866bffffffffffffffffffffffff1661280890919063ffffffff16565b611239856bffffffffffffffffffffffff8516612808565b1061128b576040805162461bcd60e51b815260206004820152601960248201527f746f6f206d616e79206f72646572732073756d6d656420757000000000000000604482015290519081900360640190fd5b5050600095865260026020526040909520600681019190915560070193909355505050565b6112b8612ac5565b6000546001600160a01b0390811691161461131a576040805162461bcd60e51b815260206004820181905260248201527f4f776e61626c653a2063616c6c6572206973206e6f7420746865206f776e6572604482015290519081900360640190fd5b600f82111561135a5760405162461bcd60e51b815260040180806020018281038252602d815260200180613afe602d913960400191505060405180910390fd5b61136381610bc7565b600980547fffffffffffffffffffffffffffffffffffffffffffffffff00000000000000001667ffffffffffffffff9290921691909117905550600855565b600260208190526000918252604090912080546001820154928201546003830154600484015460058501546006860154600787015460088801546009890154600a8a0154600b909a01546001600160a01b03998a169b9099169997989697959694959394929391926bffffffffffffffffffffffff82169260ff6c0100000000000000000000000084048116936d0100000000000000000000000000900416918e565b60095467ffffffffffffffff1681565b600082815260016020526040812061146d9083612ac9565b90505b92915050565b61147e612ac5565b6000546001600160a01b039081169116146114e0576040805162461bcd60e51b815260206004820181905260248201527f4f776e61626c653a2063616c6c6572206973206e6f7420746865206f776e6572604482015290519081900360640190fd5b600080546040516001600160a01b03909116907f8be0079c531659141344cd1fd0a4f28419497f9722a3daafe3b4186f6b6457e0908390a3600080547fffffffffffffffffffffffff0000000000000000000000000000000000000000169055565b6000611590333061157e6103e8610df46115696008546103e861242590919063ffffffff16565b6bffffffffffffffffffffffff8e1690612808565b6001600160a01b038f16929190612af2565b6000876bffffffffffffffffffffffff16116115f3576040805162461bcd60e51b815260206004820152601a60248201527f63616e6e6f742061756374696f6e207a65726f20746f6b656e73000000000000604482015290519081900360640190fd5b6000866bffffffffffffffffffffffff16116116405760405162461bcd60e51b8152600401808060200182810382526023815260200180613a616023913960400191505060405180910390fd5b6000851161167f5760405162461bcd60e51b8152600401808060200182810382526036815260200180613b7c6036913960400191505060405180910390fd5b878911156116be5760405162461bcd60e51b8152600401808060200182810382526029815260200180613c9a6029913960400191505060405180910390fd5b600780546001908101918290556000918252602052604090206116e090612b80565b604080516101c0810182526001600160a01b03808e1682528c16602082015242808c019282018390528a0160608201819052906080810161172a61172333610bc7565b8b8d6128f0565b815260200188815260200160008152602001600160001b81526020016000801b815260200160006bffffffffffffffffffffffff168152602001600015158152602001861515815260200160085481526020018781525060026000600754815260200190815260200160002060008201518160000160006101000a8154816001600160a01b0302191690836001600160a01b0316021790555060208201518160010160006101000a8154816001600160a01b0302191690836001600160a01b0316021790555060408201518160020155606082015181600301556080820151816004015560a0820151816005015560c0820151816006015560e0820151816007015561010082015181600801556101208201518160090160006101000a8154816bffffffffffffffffffffffff02191690836bffffffffffffffffffffffff16021790555061014082015181600901600c6101000a81548160ff02191690831515021790555061016082015181600901600d6101000a81548160ff02191690831515021790555061018082015181600a01556101a082015181600b01559050508360036000600754815260200190815260200160002060006101000a8154816001600160a01b0302191690836001600160a01b031602179055508b6001600160a01b03168d6001600160a01b03166007547f27575db4adce66404fc817060f8ac36dce67730910752fae7157412758cc8e7685858e8e8e8e8d60405180888152602001878152602001866bffffffffffffffffffffffff168152602001856bffffffffffffffffffffffff168152602001848152602001838152602001826001600160a01b0316815260200197505050505050505060405180910390a450506007549b9a5050505050505050505050565b60008281526002602052604081206008015481908490611a22576040805162461bcd60e51b815260206004820152601860248201527f41756374696f6e206e6f74207965742066696e69736865640000000000000000604482015290519081900360640190fd5b60005b8451811015611abf57611a66858281518110611a3d57fe5b602002602001015160016000898152602001908152602001600020612bc490919063ffffffff16565b611ab7576040805162461bcd60e51b815260206004820152601c60248201527f6f72646572206973206e6f206c6f6e67657220636c61696d61626c6500000000604482015290519081900360640190fd5b600101611a25565b50611ac8613924565b50600085815260026020818152604080842081516101c08101835281546001600160a01b0390811682526001830154169381019390935292830154908201526003820154606082015260048201546080820152600582015460a0820152600682015460c0820152600782015460e08201526008820154610100820181905260098301546bffffffffffffffffffffffff811661012084015260ff6c010000000000000000000000008204811615156101408501526d0100000000000000000000000000909104161515610160830152600a830154610180830152600b909201546101a082015291908190611bbb9061274d565b92509250506000611bdf88600081518110611bd257fe5b602002602001015161274d565b505060008a8152600260205260408120600901549192506c0100000000000000000000000090910460ff16905b8951811015611e5e576000806000611c298d8581518110611bd257fe5b9250925092508567ffffffffffffffff168367ffffffffffffffff1614611c815760405162461bcd60e51b8152600401808060200182810382526023815260200180613bf96023913960400191505060405180910390fd5b8415611ca657611c9f8b6bffffffffffffffffffffffff8316612425565b9a50611dec565b8861010001518d8581518110611cb857fe5b60200260200101511415611d5657611d16611d0f886bffffffffffffffffffffffff16610df48b6bffffffffffffffffffffffff168d61012001516bffffffffffffffffffffffff1661280890919063ffffffff16565b8d90612425565b9b50611c9f611d4f8a61012001516bffffffffffffffffffffffff16836bffffffffffffffffffffffff166123e390919063ffffffff16565b8c90612425565b611d818961010001518e8681518110611d6b57fe5b6020026020010151612bf090919063ffffffff16565b15611dd157611dca611d0f886bffffffffffffffffffffffff16610df48b6bffffffffffffffffffffffff16856bffffffffffffffffffffffff1661280890919063ffffffff16565b9b50611dec565b611de98b6bffffffffffffffffffffffff8316612425565b9a505b8567ffffffffffffffff168e7f3f2c83616e48a2f8b3c9cc26499e2e5c61643714dac49027d82cf6732f96a91a848460405180836bffffffffffffffffffffffff168152602001826bffffffffffffffffffffffff1681526020019250505060405180910390a3505050600101611c0c565b50611e6b8a898985612d3d565b5050505050509250929050565b6000828152600260208190526040909120015482904210611eca5760405162461bcd60e51b8152600401808060200182810382526032815260200180613a846032913960400191505060405180910390fd5b6000611ed533610bc7565b90506000805b845181101561200f576000611f1e868381518110611ef557fe5b6020026020010151600160008a8152602001908152602001600020612da190919063ffffffff16565b90508015612006576000806000611f3a898681518110611bd257fe5b9250925092508667ffffffffffffffff168367ffffffffffffffff1614611f925760405162461bcd60e51b8152600401808060200182810382526023815260200180613a186023913960400191505060405180910390fd5b611faa866bffffffffffffffffffffffff8316612425565b604080516bffffffffffffffffffffffff808616825284166020820152815192985067ffffffffffffffff8a16928d927f7edae327fe79804b2f38bd490d874a0d188d3ae8911b303205abe47400086ac4928290030190a35050505b50600101611edb565b50600085815260026020526040902060010154612036906001600160a01b03163383612df6565b5050505050565b6000546001600160a01b031690565b6000858152600260205260409020600301548590801580159061206f5750804210155b801561208a5750600082815260026020526040902060080154155b6120c55760405162461bcd60e51b8152600401808060200182810382526028815260200180613c1c6028913960400191505060405180910390fd5b506000868152600260205260409020600901546d0100000000000000000000000000900460ff166121275760405162461bcd60e51b81526004018080602001828103825260288152602001806139bf6028913960400191505060405180910390fd5b84516001148015612139575083516001145b6121745760405162461bcd60e51b8152600401808060200182810382526027815260200180613b2b6027913960400191505060405180910390fd5b600061217f33610bc7565b90506121cf6121b7828860008151811061219557fe5b6020026020010151886000815181106121aa57fe5b60200260200101516128f0565b60008981526002602052604090206007015490612bf0565b61220a5760405162461bcd60e51b81526004018080602001828103825260318152602001806139e76031913960400191505060405180910390fd5b6122178787878787612e7b565b5061222187610c3c565b5050505050505050565b60075481565b600085815260026020526040812060030154869042106122825760405162461bcd60e51b8152600401808060200182810382526022815260200180613ced6022913960400191505060405180910390fd5b61228f8787878787612e7b565b979650505050505050565b6103e881565b6003602052600090815260409020546001600160a01b031681565b60085481565b6122c9612ac5565b6000546001600160a01b0390811691161461232b576040805162461bcd60e51b815260206004820181905260248201527f4f776e61626c653a2063616c6c6572206973206e6f7420746865206f776e6572604482015290519081900360640190fd5b6001600160a01b0381166123705760405162461bcd60e51b8152600401808060200182810382526026815260200180613a3b6026913960400191505060405180910390fd5b600080546040516001600160a01b03808516939216917f8be0079c531659141344cd1fd0a4f28419497f9722a3daafe3b4186f6b6457e091a3600080547fffffffffffffffffffffffff0000000000000000000000000000000000000000166001600160a01b0392909216919091179055565b600061146d83836040518060400160405280601e81526020017f536166654d6174683a207375627472616374696f6e206f766572666c6f7700008152506132f5565b60008282018381101561146d576040805162461bcd60e51b815260206004820152601b60248201527f536166654d6174683a206164646974696f6e206f766572666c6f770000000000604482015290519081900360640190fd5b60006801000000000000000082106124c85760405162461bcd60e51b8152600401808060200182810382526026815260200180613bd36026913960400191505060405180910390fd5b5090565b60006001600160a01b038216612529576040805162461bcd60e51b815260206004820152601a60248201527f43616e6e6f7420696e73657274207a65726f2061646472657373000000000000604482015290519081900360640190fd5b67ffffffffffffffff8381161415612588576040805162461bcd60e51b815260206004820152601860248201527f43616e6e6f7420696e73657274206d61782075696e7436340000000000000000604482015290519081900360640190fd5b6001600160a01b038216600090815260018501602052604090205467ffffffffffffffff161515806125de575067ffffffffffffffff60018401166000908152602085905260409020546001600160a01b031615155b156125eb57506000612672565b50600182810167ffffffffffffffff1660008181526020868152604080832080547fffffffffffffffffffffffff0000000000000000000000000000000000000000166001600160a01b0388169081179091558352878501909152902080547fffffffffffffffffffffffffffffffffffffffffffffffff00000000000000001690911790555b9392505050565b6001600160a01b03166000908152600191909101602052604090205467ffffffffffffffff16151590565b60006126b08383612679565b612701576040805162461bcd60e51b815260206004820152601b60248201527f4d7573742068617665204164647265737320746f206765742049440000000000604482015290519081900360640190fd5b506001600160a01b03166000908152600191909101602052604090205467ffffffffffffffff167fffffffffffffffffffffffffffffffffffffffffffffffffffffffffffffffff0190565b60c081901c91606082901c9190565b60007fffffffffffffffffffffffffffffffffffffffff0000000000000000000000018214156127bd5760405162461bcd60e51b8152600401808060200182810382526022815260200180613ab66022913960400191505060405180910390fd5b6000828152602084905260409020548061146d5760405162461bcd60e51b815260040180806020018281038252602a815260200180613b52602a913960400191505060405180910390fd5b60008261281757506000611470565b8282028284828161282457fe5b041461146d5760405162461bcd60e51b8152600401808060200182810382526021815260200180613bb26021913960400191505060405180910390fd5b600061146d83836040518060400160405280601a81526020017f536166654d6174683a206469766973696f6e206279207a65726f00000000000081525061338c565b60006c0100000000000000000000000082106124c85760405162461bcd60e51b81526004018080602001828103825260268152602001806139996026913960400191505060405180910390fd5b7fffffffffffffffff00000000000000000000000000000000000000000000000060c084901b1677ffffffffffffffffffffffff000000000000000000000000606084901b16016bffffffffffffffffffffffff8216019392505050565b6000848152600260205260408120600a0154612981906103e890610df4906bffffffffffffffffffffffff861690612808565b6000868152600260205260409020600901549091506c01000000000000000000000000900460ff16156129d7576129d2856129ca6bffffffffffffffffffffffff851684612425565b600086612d3d565b612036565b60008581526002602052604081206008015481906129f49061274d565b909350915060009050612a156bffffffffffffffffffffffff8616886123e3565b90506000612a3f612a386bffffffffffffffffffffffff8816610df48886612808565b8390612425565b90506000612a76856bffffffffffffffffffffffff16610df4866bffffffffffffffffffffffff168c61280890919063ffffffff16565b9050612a848a83838b612d3d565b612ab98a612aa46bffffffffffffffffffffffff8a16610df48a8e612808565b60095460009067ffffffffffffffff16612d3d565b50505050505050505050565b3390565b60006001821415612adc57506000611470565b5060009081526020919091526040902054151590565b604080516001600160a01b0380861660248301528416604482015260648082018490528251808303909101815260849091019091526020810180517bffffffffffffffffffffffffffffffffffffffffffffffffffffffff167f23b872dd00000000000000000000000000000000000000000000000000000000179052612b7a9085906133f1565b50505050565b60016000818152602083815260408083207fffffffffffffffffffffffffffffffffffffffff00000000000000000000000190819055835293830190529190912055565b600080612bd18484612da1565b9050801561146d57600092835260019390930160205250604081205590565b600080600080612bff8661274d565b9250925092506000806000612c138861274d565b91945092509050612c356bffffffffffffffffffffffff808416908616612808565b612c506bffffffffffffffffffffffff878116908416612808565b1015612c655760019650505050505050611470565b612c806bffffffffffffffffffffffff838116908616612808565b612c9b6bffffffffffffffffffffffff878116908416612808565b1115612cb05760009650505050505050611470565b8267ffffffffffffffff168667ffffffffffffffff161415612d035760405162461bcd60e51b815260040180806020018281038252602d815260200180613c44602d913960400191505060405180910390fd5b8267ffffffffffffffff168667ffffffffffffffff161015612d2e5760019650505050505050611470565b50600098975050505050505050565b6000612d4a6004836134a2565b90508315612d7557600085815260026020526040902054612d75906001600160a01b03168286612df6565b821561203657600085815260026020526040902060010154612036906001600160a01b03168285612df6565b6000612dad8383612ac9565b612db957506000611470565b5060008181526001838101602081815260408085205487835281862080548288528388208190558752938352908520559383529390925290915590565b604080516001600160a01b038416602482015260448082018490528251808303909101815260649091019091526020810180517bffffffffffffffffffffffffffffffffffffffffffffffffffffffff167fa9059cbb00000000000000000000000000000000000000000000000000000000179052612e769084906133f1565b505050565b6000858152600360205260408120546001600160a01b03168015613010576040517f19a05a7e000000000000000000000000000000000000000000000000000000008082523360048301818152602484018b905260606044850190815287516064860152875193946001600160a01b038716946319a05a7e94938e938b939192909160840190602085019080838360005b83811015612f24578181015183820152602001612f0c565b50505050905090810190601f168015612f515780820380516001836020036101000a031916815260200191505b5094505050505060206040518083038186803b158015612f7057600080fd5b505afa158015612f84573d6000803e3d6000fd5b505050506040513d6020811015612f9a57600080fd5b50517fffffffff000000000000000000000000000000000000000000000000000000001614613010576040805162461bcd60e51b815260206004820152601f60248201527f75736572206e6f7420616c6c6f77656420746f20706c616365206f7264657200604482015290519081900360640190fd5b50600086815260026020526040812060040154819061302e9061274d565b9250925050600061303e33610bc7565b60008a8152600260205260408120600501549195505b89518110156132c05761309f89828151811061306c57fe5b60200260200101516bffffffffffffffffffffffff16856bffffffffffffffffffffffff1661280890919063ffffffff16565b6130e1866bffffffffffffffffffffffff168c84815181106130bd57fe5b60200260200101516bffffffffffffffffffffffff1661280890919063ffffffff16565b1061311d5760405162461bcd60e51b8152600401808060200182810382526029815260200180613c716029913960400191505060405180910390fd5b8189828151811061312a57fe5b60200260200101516bffffffffffffffffffffffff1611613192576040805162461bcd60e51b815260206004820152600f60248201527f6f7264657220746f6f20736d616c6c0000000000000000000000000000000000604482015290519081900360640190fd5b6131ef6131b9878c84815181106131a557fe5b60200260200101518c85815181106121aa57fe5b8983815181106131c557fe5b6020026020010151600160008f81526020019081526020016000206135299092919063ffffffff16565b156132b85761322889828151811061320357fe5b60200260200101516bffffffffffffffffffffffff168461242590919063ffffffff16565b92508567ffffffffffffffff168b7f9304f2fc7ed6d42c0400e678dbc7283e1e9054889c3afea5f965adff66ef9eac8c848151811061326357fe5b60200260200101518c858151811061327757fe5b602002602001015160405180836bffffffffffffffffffffffff168152602001826bffffffffffffffffffffffff1681526020019250505060405180910390a35b600101613054565b5060008a8152600260205260409020600101546132e8906001600160a01b0316333085612af2565b5050505095945050505050565b600081848411156133845760405162461bcd60e51b81526004018080602001828103825283818151815260200191508051906020019080838360005b83811015613349578181015183820152602001613331565b50505050905090810190601f1680156133765780820380516001836020036101000a031916815260200191505b509250505060405180910390fd5b505050900390565b600081836133db5760405162461bcd60e51b8152602060048201818152835160248401528351909283926044909101919085019080838360008315613349578181015183820152602001613331565b5060008385816133e757fe5b0495945050505050565b6060613446826040518060400160405280602081526020017f5361666545524332303a206c6f772d6c6576656c2063616c6c206661696c6564815250856001600160a01b03166137079092919063ffffffff16565b805190915015612e765780806020019051602081101561346557600080fd5b5051612e765760405162461bcd60e51b815260040180806020018281038252602a815260200180613cc3602a913960400191505060405180910390fd5b60006134ae838361371e565b6134ff576040805162461bcd60e51b815260206004820152601b60248201527f4d757374206861766520494420746f2067657420416464726573730000000000604482015290519081900360640190fd5b5060010167ffffffffffffffff16600090815260209190915260409020546001600160a01b031690565b6000806135358461274d565b925050506bffffffffffffffffffffffff8116613599576040805162461bcd60e51b815260206004820152601f60248201527f496e73657274696e67207a65726f206973206e6f7420737570706f7274656400604482015290519081900360640190fd5b600184148015906135ca57507fffffffffffffffffffffffffffffffffffffffff0000000000000000000000018414155b61361b576040805162461bcd60e51b815260206004820152601e60248201527f496e73657274696e6720656c656d656e74206973206e6f742076616c69640000604482015290519081900360640190fd5b6136258585612ac9565b15613634576000915050612672565b6001831480159061365357506000838152600186016020526040902054155b15613662576000915050612672565b61366c8385612bf0565b61367a576000915050612672565b5b6000838152602086905260409020546136a6576000928352600185016020526040909220549161367b565b6000835b6000818152602088905260409020549091506136c68187612bf0565b6136aa576000828152602088815260408083208990558383526001808b0183528184208a905589845281842095909555908990529020559150509392505050565b60606137168484600085613749565b949350505050565b60010167ffffffffffffffff16600090815260209190915260409020546001600160a01b0316151590565b60608247101561378a5760405162461bcd60e51b8152600401808060200182810382526026815260200180613ad86026913960400191505060405180910390fd5b613793856138b8565b6137e4576040805162461bcd60e51b815260206004820152601d60248201527f416464726573733a2063616c6c20746f206e6f6e2d636f6e7472616374000000604482015290519081900360640190fd5b60006060866001600160a01b031685876040518082805190602001908083835b6020831061384157805182527fffffffffffffffffffffffffffffffffffffffffffffffffffffffffffffffe09092019160209182019101613804565b6001836020036101000a03801982511681845116808217855250505050505090500191505060006040518083038185875af1925050503d80600081146138a3576040519150601f19603f3d011682016040523d82523d6000602084013e6138a8565b606091505b509150915061228f8282866138be565b3b151590565b606083156138cd575081612672565b8251156138dd5782518084602001fd5b60405162461bcd60e51b8152602060048201818152845160248401528451859391928392604401919085019080838360008315613349578181015183820152602001613331565b604080516101c081018252600080825260208201819052918101829052606081018290526080810182905260a0810182905260c0810182905260e08101829052610100810182905261012081018290526101408101829052610160810182905261018081018290526101a08101919091529056fe53616665436173743a2076616c756520646f65736e27742066697420696e20393620626974736e6f7420616c6c6f77656420746f20736574746c652061756374696f6e2061746f6d6963616c6c7970726563616c63756c61746553656c6c416d6f756e7453756d20697320616c726561647920746f6f20616476616e6365644f6e6c792074686520757365722063616e2063616e63656c20686973206f72646572734f776e61626c653a206e6577206f776e657220697320746865207a65726f2061646472657373746f6b656e732063616e6e6f742062652061756374696f6e656420666f7220667265656e6f206c6f6e67657220696e206f7264657220706c6163656d656e7420616e642063616e63656c6174696f6e207068617365547279696e6720746f20676574206e657874206f66206c61737420656c656d656e74416464726573733a20696e73756666696369656e742062616c616e636520666f722063616c6c466565206973206e6f7420616c6c6f77656420746f2062652073657420686967686572207468616e20312e35254f6e6c79206f6e65206f726465722063616e20626520706c616365642061746f6d6963616c6c79547279696e6720746f20676574206e657874206f66206e6f6e2d6578697374656e7420656c656d656e746d696e696d756d42696464696e67416d6f756e745065724f72646572206973206e6f7420616c6c6f77656420746f206265207a65726f536166654d6174683a206d756c7469706c69636174696f6e206f766572666c6f7753616665436173743a2076616c756520646f65736e27742066697420696e20363420626974736f6e6c7920616c6c6f77656420746f20636c61696d20666f722073616d65207573657241756374696f6e206e6f7420696e20736f6c7574696f6e207375626d697373696f6e20706861736575736572206973206e6f7420616c6c6f77656420746f20706c6163652073616d65206f726465722074776963656c696d6974207072696365206e6f7420626574746572207468616e206d696d696d616c206f6666657274696d6520706572696f647320617265206e6f7420636f6e6669677572656420636f72726563746c795361666545524332303a204552433230206f7065726174696f6e20646964206e6f7420737563636565646e6f206c6f6e67657220696e206f7264657220706c6163656d656e74207068617365a2646970667358221220f0240696c5b92fb03cf920d652ff28bb16aa3fe3e516170c2bfcffdf92e5bcbc64736f6c634300060c0033",
  "devdoc": {
    "kind": "dev",
    "methods": {
      "owner()": {
        "details": "Returns the address of the current owner."
      },
      "renounceOwnership()": {
        "details": "Leaves the contract without owner. It will not be possible to call `onlyOwner` functions anymore. Can only be called by the current owner. NOTE: Renouncing ownership will leave the contract without an owner, thereby removing any functionality that is only available to the owner."
      },
      "transferOwnership(address)": {
        "details": "Transfers ownership of the contract to a new account (`newOwner`). Can only be called by the current owner."
      }
    },
    "version": 1
  },
  "userdoc": {
    "kind": "user",
    "methods": {},
    "version": 1
  },
  "storageLayout": {
    "storage": [
      {
        "astId": 30,
        "contract": "contracts/EasyAuction.sol:EasyAuction",
        "label": "_owner",
        "offset": 0,
        "slot": "0",
        "type": "t_address"
      },
      {
        "astId": 1671,
        "contract": "contracts/EasyAuction.sol:EasyAuction",
        "label": "sellOrders",
        "offset": 0,
        "slot": "1",
        "type": "t_mapping(t_uint256,t_struct(Data)3477_storage)"
      },
      {
        "astId": 1675,
        "contract": "contracts/EasyAuction.sol:EasyAuction",
        "label": "auctionData",
        "offset": 0,
        "slot": "2",
        "type": "t_mapping(t_uint256,t_struct(AuctionData)1667_storage)"
      },
      {
        "astId": 1679,
        "contract": "contracts/EasyAuction.sol:EasyAuction",
        "label": "auctionAccessManager",
        "offset": 0,
        "slot": "3",
        "type": "t_mapping(t_uint256,t_address)"
      },
      {
        "astId": 1681,
        "contract": "contracts/EasyAuction.sol:EasyAuction",
        "label": "registeredUsers",
        "offset": 0,
        "slot": "4",
        "type": "t_struct(Data)3286_storage"
      },
      {
        "astId": 1683,
        "contract": "contracts/EasyAuction.sol:EasyAuction",
        "label": "numUsers",
        "offset": 0,
        "slot": "6",
        "type": "t_uint64"
      },
      {
        "astId": 1685,
        "contract": "contracts/EasyAuction.sol:EasyAuction",
        "label": "auctionCounter",
        "offset": 0,
        "slot": "7",
        "type": "t_uint256"
      },
      {
        "astId": 1694,
        "contract": "contracts/EasyAuction.sol:EasyAuction",
        "label": "feeNumerator",
        "offset": 0,
        "slot": "8",
        "type": "t_uint256"
      },
      {
        "astId": 1700,
        "contract": "contracts/EasyAuction.sol:EasyAuction",
        "label": "feeReceiverUserId",
        "offset": 0,
        "slot": "9",
        "type": "t_uint64"
      }
    ],
    "types": {
      "t_address": {
        "encoding": "inplace",
        "label": "address",
        "numberOfBytes": "20"
      },
      "t_bool": {
        "encoding": "inplace",
        "label": "bool",
        "numberOfBytes": "1"
      },
      "t_bytes32": {
        "encoding": "inplace",
        "label": "bytes32",
        "numberOfBytes": "32"
      },
      "t_contract(IERC20)981": {
        "encoding": "inplace",
        "label": "contract IERC20",
        "numberOfBytes": "20"
      },
      "t_mapping(t_address,t_uint64)": {
        "encoding": "mapping",
        "key": "t_address",
        "label": "mapping(address => uint64)",
        "numberOfBytes": "32",
        "value": "t_uint64"
      },
      "t_mapping(t_bytes32,t_bytes32)": {
        "encoding": "mapping",
        "key": "t_bytes32",
        "label": "mapping(bytes32 => bytes32)",
        "numberOfBytes": "32",
        "value": "t_bytes32"
      },
      "t_mapping(t_uint256,t_address)": {
        "encoding": "mapping",
        "key": "t_uint256",
        "label": "mapping(uint256 => address)",
        "numberOfBytes": "32",
        "value": "t_address"
      },
      "t_mapping(t_uint256,t_struct(AuctionData)1667_storage)": {
        "encoding": "mapping",
        "key": "t_uint256",
        "label": "mapping(uint256 => struct EasyAuction.AuctionData)",
        "numberOfBytes": "32",
        "value": "t_struct(AuctionData)1667_storage"
      },
      "t_mapping(t_uint256,t_struct(Data)3477_storage)": {
        "encoding": "mapping",
        "key": "t_uint256",
        "label": "mapping(uint256 => struct IterableOrderedOrderSet.Data)",
        "numberOfBytes": "32",
        "value": "t_struct(Data)3477_storage"
      },
      "t_mapping(t_uint64,t_address)": {
        "encoding": "mapping",
        "key": "t_uint64",
        "label": "mapping(uint64 => address)",
        "numberOfBytes": "32",
        "value": "t_address"
      },
      "t_struct(AuctionData)1667_storage": {
        "encoding": "inplace",
        "label": "struct EasyAuction.AuctionData",
        "members": [
          {
            "astId": 1640,
            "contract": "contracts/EasyAuction.sol:EasyAuction",
            "label": "auctioningToken",
            "offset": 0,
            "slot": "0",
            "type": "t_contract(IERC20)981"
          },
          {
            "astId": 1642,
            "contract": "contracts/EasyAuction.sol:EasyAuction",
            "label": "biddingToken",
            "offset": 0,
            "slot": "1",
            "type": "t_contract(IERC20)981"
          },
          {
            "astId": 1644,
            "contract": "contracts/EasyAuction.sol:EasyAuction",
            "label": "orderCancellationEndDate",
            "offset": 0,
            "slot": "2",
            "type": "t_uint256"
          },
          {
            "astId": 1646,
            "contract": "contracts/EasyAuction.sol:EasyAuction",
            "label": "auctionEndDate",
            "offset": 0,
            "slot": "3",
            "type": "t_uint256"
          },
          {
            "astId": 1648,
            "contract": "contracts/EasyAuction.sol:EasyAuction",
            "label": "initialAuctionOrder",
            "offset": 0,
            "slot": "4",
            "type": "t_bytes32"
          },
          {
            "astId": 1650,
            "contract": "contracts/EasyAuction.sol:EasyAuction",
            "label": "minimumBiddingAmountPerOrder",
            "offset": 0,
            "slot": "5",
            "type": "t_uint256"
          },
          {
            "astId": 1652,
            "contract": "contracts/EasyAuction.sol:EasyAuction",
            "label": "interimSumBidAmount",
            "offset": 0,
            "slot": "6",
            "type": "t_uint256"
          },
          {
            "astId": 1654,
            "contract": "contracts/EasyAuction.sol:EasyAuction",
            "label": "interimOrder",
            "offset": 0,
            "slot": "7",
            "type": "t_bytes32"
          },
          {
            "astId": 1656,
            "contract": "contracts/EasyAuction.sol:EasyAuction",
            "label": "clearingPriceOrder",
            "offset": 0,
            "slot": "8",
            "type": "t_bytes32"
          },
          {
            "astId": 1658,
            "contract": "contracts/EasyAuction.sol:EasyAuction",
            "label": "volumeClearingPriceOrder",
            "offset": 0,
            "slot": "9",
            "type": "t_uint96"
          },
          {
            "astId": 1660,
            "contract": "contracts/EasyAuction.sol:EasyAuction",
            "label": "minFundingThresholdNotReached",
            "offset": 12,
            "slot": "9",
            "type": "t_bool"
          },
          {
            "astId": 1662,
            "contract": "contracts/EasyAuction.sol:EasyAuction",
            "label": "isAtomicClosureAllowed",
            "offset": 13,
            "slot": "9",
            "type": "t_bool"
          },
          {
            "astId": 1664,
            "contract": "contracts/EasyAuction.sol:EasyAuction",
            "label": "feeNumerator",
            "offset": 0,
            "slot": "10",
            "type": "t_uint256"
          },
          {
            "astId": 1666,
            "contract": "contracts/EasyAuction.sol:EasyAuction",
            "label": "minFundingThreshold",
            "offset": 0,
            "slot": "11",
            "type": "t_uint256"
          }
        ],
        "numberOfBytes": "384"
      },
      "t_struct(Data)3286_storage": {
        "encoding": "inplace",
        "label": "struct IdToAddressBiMap.Data",
        "members": [
          {
            "astId": 3281,
            "contract": "contracts/EasyAuction.sol:EasyAuction",
            "label": "idToAddress",
            "offset": 0,
            "slot": "0",
            "type": "t_mapping(t_uint64,t_address)"
          },
          {
            "astId": 3285,
            "contract": "contracts/EasyAuction.sol:EasyAuction",
            "label": "addressToId",
            "offset": 0,
            "slot": "1",
            "type": "t_mapping(t_address,t_uint64)"
          }
        ],
        "numberOfBytes": "64"
      },
      "t_struct(Data)3477_storage": {
        "encoding": "inplace",
        "label": "struct IterableOrderedOrderSet.Data",
        "members": [
          {
            "astId": 3472,
            "contract": "contracts/EasyAuction.sol:EasyAuction",
            "label": "nextMap",
            "offset": 0,
            "slot": "0",
            "type": "t_mapping(t_bytes32,t_bytes32)"
          },
          {
            "astId": 3476,
            "contract": "contracts/EasyAuction.sol:EasyAuction",
            "label": "prevMap",
            "offset": 0,
            "slot": "1",
            "type": "t_mapping(t_bytes32,t_bytes32)"
          }
        ],
        "numberOfBytes": "64"
      },
      "t_uint256": {
        "encoding": "inplace",
        "label": "uint256",
        "numberOfBytes": "32"
      },
      "t_uint64": {
        "encoding": "inplace",
        "label": "uint64",
        "numberOfBytes": "8"
      },
      "t_uint96": {
        "encoding": "inplace",
        "label": "uint96",
        "numberOfBytes": "12"
      }
    }
  }
}