{
  "address": "0xAD4bC59C3E45B9C588798e7002519dbA66b29913",
  "abi": [
    {
      "anonymous": false,
      "inputs": [
        {
          "indexed": false,
          "internalType": "uint256",
          "name": "auctionId",
          "type": "uint256"
        },
        {
          "indexed": false,
          "internalType": "uint96",
          "name": "priceNumerator",
          "type": "uint96"
        },
        {
          "indexed": false,
          "internalType": "uint96",
          "name": "priceDenominator",
          "type": "uint96"
        },
        {
          "indexed": false,
          "internalType": "uint256",
          "name": "rewardFactor",
          "type": "uint256"
        }
      ],
      "name": "AuctionCleared",
      "type": "event"
    },
    {
      "anonymous": false,
      "inputs": [
        {
          "indexed": true,
          "internalType": "uint256",
          "name": "auctionId",
          "type": "uint256"
        },
        {
          "indexed": true,
          "internalType": "uint64",
          "name": "userId",
          "type": "uint64"
        },
        {
          "indexed": false,
          "internalType": "uint96",
          "name": "sellAmount",
          "type": "uint96"
        },
        {
          "indexed": false,
          "internalType": "uint96",
          "name": "buyAmount",
          "type": "uint96"
        }
      ],
      "name": "CancellationSellOrders",
      "type": "event"
    },
    {
      "anonymous": false,
      "inputs": [
        {
          "indexed": false,
          "internalType": "uint256",
          "name": "auctionId",
          "type": "uint256"
        },
        {
          "indexed": true,
          "internalType": "contract ERC20",
          "name": "_sellToken",
          "type": "address"
        },
        {
          "indexed": true,
          "internalType": "contract ERC20",
          "name": "_buyToken",
          "type": "address"
        }
      ],
      "name": "NewAuction",
      "type": "event"
    },
    {
      "anonymous": false,
      "inputs": [
        {
          "indexed": true,
          "internalType": "uint256",
          "name": "auctionId",
          "type": "uint256"
        },
        {
          "indexed": true,
          "internalType": "uint64",
          "name": "userId",
          "type": "uint64"
        },
        {
          "indexed": false,
          "internalType": "uint96",
          "name": "buyAmount",
          "type": "uint96"
        },
        {
          "indexed": false,
          "internalType": "uint96",
          "name": "sellAmount",
          "type": "uint96"
        }
      ],
      "name": "NewSellOrder",
      "type": "event"
    },
    {
      "anonymous": false,
      "inputs": [
        {
          "indexed": false,
          "internalType": "address",
          "name": "user",
          "type": "address"
        },
        {
          "indexed": false,
          "internalType": "uint64",
          "name": "userId",
          "type": "uint64"
        }
      ],
      "name": "UserRegistration",
      "type": "event"
    },
    {
      "inputs": [],
      "name": "auctionCounter",
      "outputs": [
        {
          "internalType": "uint256",
          "name": "",
          "type": "uint256"
        }
      ],
      "stateMutability": "view",
      "type": "function"
    },
    {
      "inputs": [
        {
          "internalType": "uint256",
          "name": "",
          "type": "uint256"
        }
      ],
      "name": "auctionData",
      "outputs": [
        {
          "internalType": "contract ERC20",
          "name": "sellToken",
          "type": "address"
        },
        {
          "internalType": "contract ERC20",
          "name": "buyToken",
          "type": "address"
        },
        {
          "internalType": "uint256",
          "name": "auctionEndDate",
          "type": "uint256"
        },
        {
          "internalType": "bytes32",
          "name": "initialAuctionOrder",
          "type": "bytes32"
        },
        {
          "internalType": "bytes32",
          "name": "clearingPriceOrder",
          "type": "bytes32"
        },
        {
          "internalType": "uint96",
          "name": "volumeClearingPriceOrder",
          "type": "uint96"
        }
      ],
      "stateMutability": "view",
      "type": "function"
    },
    {
      "inputs": [
        {
          "internalType": "uint256",
          "name": "auctionId",
          "type": "uint256"
        },
        {
          "internalType": "bytes32[]",
          "name": "_sellOrders",
          "type": "bytes32[]"
        },
        {
          "internalType": "bytes32[]",
          "name": "_prevSellOrders",
          "type": "bytes32[]"
        }
      ],
      "name": "cancelSellOrders",
      "outputs": [],
      "stateMutability": "nonpayable",
      "type": "function"
    },
    {
      "inputs": [
        {
          "internalType": "uint256",
          "name": "auctionId",
          "type": "uint256"
        },
        {
          "internalType": "bytes32[]",
          "name": "orders",
          "type": "bytes32[]"
        },
        {
          "internalType": "bytes32[]",
          "name": "previousOrders",
          "type": "bytes32[]"
        }
      ],
      "name": "claimFromParticipantOrder",
      "outputs": [
        {
          "internalType": "uint256",
          "name": "sellTokenAmount",
          "type": "uint256"
        },
        {
          "internalType": "uint256",
          "name": "buyTokenAmount",
          "type": "uint256"
        }
      ],
      "stateMutability": "nonpayable",
      "type": "function"
    },
    {
      "inputs": [
        {
          "internalType": "uint256",
          "name": "auctionId",
          "type": "uint256"
        }
      ],
      "name": "getSecondsRemainingInBatch",
      "outputs": [
        {
          "internalType": "uint256",
          "name": "",
          "type": "uint256"
        }
      ],
      "stateMutability": "view",
      "type": "function"
    },
    {
      "inputs": [
        {
          "internalType": "address",
          "name": "user",
          "type": "address"
        }
      ],
      "name": "getUserId",
      "outputs": [
        {
          "internalType": "uint64",
          "name": "userId",
          "type": "uint64"
        }
      ],
      "stateMutability": "nonpayable",
      "type": "function"
    },
    {
      "inputs": [
        {
          "internalType": "contract ERC20",
          "name": "_sellToken",
          "type": "address"
        },
        {
          "internalType": "contract ERC20",
          "name": "_buyToken",
          "type": "address"
        },
        {
          "internalType": "uint256",
          "name": "duration",
          "type": "uint256"
        },
        {
          "internalType": "uint96",
          "name": "_sellAmount",
          "type": "uint96"
        },
        {
          "internalType": "uint96",
          "name": "_minBuyAmount",
          "type": "uint96"
        }
      ],
      "name": "initiateAuction",
      "outputs": [
        {
          "internalType": "uint256",
          "name": "",
          "type": "uint256"
        }
      ],
      "stateMutability": "nonpayable",
      "type": "function"
    },
    {
      "inputs": [],
      "name": "numUsers",
      "outputs": [
        {
          "internalType": "uint64",
          "name": "",
          "type": "uint64"
        }
      ],
      "stateMutability": "view",
      "type": "function"
    },
    {
      "inputs": [
        {
          "internalType": "uint256",
          "name": "auctionId",
          "type": "uint256"
        },
        {
          "internalType": "uint96[]",
          "name": "_minBuyAmounts",
          "type": "uint96[]"
        },
        {
          "internalType": "uint96[]",
          "name": "_sellAmounts",
          "type": "uint96[]"
        },
        {
          "internalType": "bytes32[]",
          "name": "_prevSellOrders",
          "type": "bytes32[]"
        }
      ],
      "name": "placeSellOrders",
      "outputs": [],
      "stateMutability": "nonpayable",
      "type": "function"
    },
    {
      "inputs": [
        {
          "internalType": "address",
          "name": "user",
          "type": "address"
        }
      ],
      "name": "registerUser",
      "outputs": [
        {
          "internalType": "uint64",
          "name": "userId",
          "type": "uint64"
        }
      ],
      "stateMutability": "nonpayable",
      "type": "function"
    },
    {
      "inputs": [
        {
          "internalType": "uint256",
          "name": "",
          "type": "uint256"
        }
      ],
      "name": "sellOrders",
      "outputs": [
        {
          "internalType": "uint256",
          "name": "size",
          "type": "uint256"
        }
      ],
      "stateMutability": "view",
      "type": "function"
    },
    {
      "inputs": [
        {
          "internalType": "uint256",
          "name": "auctionId",
          "type": "uint256"
        },
        {
          "internalType": "bytes32",
          "name": "price",
          "type": "bytes32"
        }
      ],
      "name": "verifyPrice",
      "outputs": [],
      "stateMutability": "nonpayable",
      "type": "function"
    }
  ],
  "transactionHash": "0x0c043dcf6a6b42b9a20bc98a4dbd6772ae6e83970750f0426c42913503f9860d",
  "args": [],
  "solcInputHash": "0fab4188d886834ac2f17a4b35b0ccd1",
  "bytecode": "0x608060405234801561001057600080fd5b50613c39806100206000396000f3fe608060405234801561001057600080fd5b50600436106100b45760003560e01c806355fc62d21161007157806355fc62d2146102db57806356a23c5a1461037a578063a7e76644146104d0578063c1110dd6146104ee578063cc7631091461065f578063f9f0751a14610849576100b4565b806315d37b4b146100b957806319a50f49146100fb5780632199d5cd146101235780632b956ff7146101855780634087db46146101e75780634a8393f314610299575b600080fd5b6100e5600480360360208110156100cf57600080fd5b8101908080359060200190929190505050610881565b6040518082815260200191505060405180910390f35b6101036108db565b604051808267ffffffffffffffff16815260200191505060405180910390f35b6101656004803603602081101561013957600080fd5b81019080803573ffffffffffffffffffffffffffffffffffffffff1690602001909291905050506108f5565b604051808267ffffffffffffffff16815260200191505060405180910390f35b6101c76004803603602081101561019b57600080fd5b81019080803573ffffffffffffffffffffffffffffffffffffffff169060200190929190505050610a76565b604051808267ffffffffffffffff16815260200191505060405180910390f35b610283600480360360a08110156101fd57600080fd5b81019080803573ffffffffffffffffffffffffffffffffffffffff169060200190929190803573ffffffffffffffffffffffffffffffffffffffff1690602001909291908035906020019092919080356bffffffffffffffffffffffff16906020019092919080356bffffffffffffffffffffffff169060200190929190505050610abd565b6040518082815260200191505060405180910390f35b6102c5600480360360208110156102af57600080fd5b8101908080359060200190929190505050610e0f565b6040518082815260200191505060405180910390f35b610307600480360360208110156102f157600080fd5b8101908080359060200190929190505050610e2d565b604051808773ffffffffffffffffffffffffffffffffffffffff1681526020018673ffffffffffffffffffffffffffffffffffffffff168152602001858152602001848152602001838152602001826bffffffffffffffffffffffff168152602001965050505050505060405180910390f35b6104ce6004803603606081101561039057600080fd5b8101908080359060200190929190803590602001906401000000008111156103b757600080fd5b8201836020820111156103c957600080fd5b803590602001918460208302840111640100000000831117156103eb57600080fd5b919080806020026020016040519081016040528093929190818152602001838360200280828437600081840152601f19601f8201169050808301925050505050505091929192908035906020019064010000000081111561044b57600080fd5b82018360208201111561045d57600080fd5b8035906020019184602083028401116401000000008311171561047f57600080fd5b919080806020026020016040519081016040528093929190818152602001838360200280828437600081840152601f19601f820116905080830192505050505050509192919290505050610ec1565b005b6104d8611226565b6040518082815260200191505060405180910390f35b6106426004803603606081101561050457600080fd5b81019080803590602001909291908035906020019064010000000081111561052b57600080fd5b82018360208201111561053d57600080fd5b8035906020019184602083028401116401000000008311171561055f57600080fd5b919080806020026020016040519081016040528093929190818152602001838360200280828437600081840152601f19601f820116905080830192505050505050509192919290803590602001906401000000008111156105bf57600080fd5b8201836020820111156105d157600080fd5b803590602001918460208302840111640100000000831117156105f357600080fd5b919080806020026020016040519081016040528093929190818152602001838360200280828437600081840152601f19601f82011690508083019250505050505050919291929050505061122c565b604051808381526020018281526020019250505060405180910390f35b6108476004803603608081101561067557600080fd5b81019080803590602001909291908035906020019064010000000081111561069c57600080fd5b8201836020820111156106ae57600080fd5b803590602001918460208302840111640100000000831117156106d057600080fd5b919080806020026020016040519081016040528093929190818152602001838360200280828437600081840152601f19601f8201169050808301925050505050505091929192908035906020019064010000000081111561073057600080fd5b82018360208201111561074257600080fd5b8035906020019184602083028401116401000000008311171561076457600080fd5b919080806020026020016040519081016040528093929190818152602001838360200280828437600081840152601f19601f820116905080830192505050505050509192919290803590602001906401000000008111156107c457600080fd5b8201836020820111156107d657600080fd5b803590602001918460208302840111640100000000831117156107f857600080fd5b919080806020026020016040519081016040528093929190818152602001838360200280828437600081840152601f19601f820116905080830192505050505050509192919290505050611660565b005b61087f6004803603604081101561085f57600080fd5b810190808035906020019092919080359060200190929190505050611b5c565b005b600042600160008481526020019081526020016000206002015410156108aa57600090506108d6565b6108d34260016000858152602001908152602001600020600201546122f390919063ffffffff16565b90505b919050565b600460009054906101000a900467ffffffffffffffff1681565b6000610923600460009054906101000a900467ffffffffffffffff1683600261233d9092919063ffffffff16565b610995576040517f08c379a00000000000000000000000000000000000000000000000000000000081526004018080602001828103825260178152602001807f5573657220616c7265616479207265676973746572656400000000000000000081525060200191505060405180910390fd5b600460009054906101000a900467ffffffffffffffff1690506109ea6109e56001600460009054906101000a900467ffffffffffffffff1667ffffffffffffffff1661266390919063ffffffff16565b6126eb565b600460006101000a81548167ffffffffffffffff021916908367ffffffffffffffff1602179055507f6838f67cb358c332087b73dbe769a6c869a5f87225236c16dda5d0013a77074c8282604051808373ffffffffffffffffffffffffffffffffffffffff1681526020018267ffffffffffffffff1681526020019250505060405180910390a1919050565b6000610a8c82600261275690919063ffffffff16565b15610aac57610aa58260026127c390919063ffffffff16565b9050610ab8565b610ab5826108f5565b90505b919050565b600080610ac933610a76565b90508673ffffffffffffffffffffffffffffffffffffffff166323b872dd3330876040518463ffffffff1660e01b8152600401808473ffffffffffffffffffffffffffffffffffffffff1681526020018373ffffffffffffffffffffffffffffffffffffffff168152602001826bffffffffffffffffffffffff1681526020019350505050602060405180830381600087803b158015610b6857600080fd5b505af1158015610b7c573d6000803e3d6000fd5b505050506040513d6020811015610b9257600080fd5b8101908080519060200190929190505050610c15576040517f08c379a000000000000000000000000000000000000000000000000000000000815260040180806020018281038252601b8152602001807f7472616e7366657220776173206e6f74207375636365737366756c000000000081525060200191505060405180910390fd5b6005600081548092919060010191905055506040518060c001604052808873ffffffffffffffffffffffffffffffffffffffff1681526020018773ffffffffffffffffffffffffffffffffffffffff1681526020018642018152602001610c7d8386886128a2565b81526020016000801b815260200160006bffffffffffffffffffffffff1681525060016000600554815260200190815260200160002060008201518160000160006101000a81548173ffffffffffffffffffffffffffffffffffffffff021916908373ffffffffffffffffffffffffffffffffffffffff16021790555060208201518160010160006101000a81548173ffffffffffffffffffffffffffffffffffffffff021916908373ffffffffffffffffffffffffffffffffffffffff16021790555060408201518160020155606082015181600301556080820151816004015560a08201518160050160006101000a8154816bffffffffffffffffffffffff02191690836bffffffffffffffffffffffff1602179055509050508573ffffffffffffffffffffffffffffffffffffffff168773ffffffffffffffffffffffffffffffffffffffff167f15dd9639accd24fcb10b44fe33886ce03e228e4e6ba1f65791edf66fa4acfa036005546040518082815260200191505060405180910390a360055491505095945050505050565b60006020528060005260406000206000915090508060010154905081565b60016020528060005260406000206000915090508060000160009054906101000a900473ffffffffffffffffffffffffffffffffffffffff16908060010160009054906101000a900473ffffffffffffffffffffffffffffffffffffffff16908060020154908060030154908060040154908060050160009054906101000a90046bffffffffffffffffffffffff16905086565b8260016000828152602001908152602001600020600201544210610f30576040517f08c379a0000000000000000000000000000000000000000000000000000000008152600401808060200182810382526022815260200180613bc06022913960400191505060405180910390fd5b6000610f3b33610a76565b90506000805b85518110156110c9576000806000610f6b898581518110610f5e57fe5b6020026020010151612905565b9250925092508567ffffffffffffffff168367ffffffffffffffff1614610fdd576040517f08c379a00000000000000000000000000000000000000000000000000000000081526004018080602001828103825260238152602001806139e26023913960400191505060405180910390fd5b611029898581518110610fec57fe5b602002602001015189868151811061100057fe5b60200260200101516000808e81526020019081526020016000206129939092919063ffffffff16565b156110b95761104f826bffffffffffffffffffffffff168661266390919063ffffffff16565b94508567ffffffffffffffff168a7fad1f0a9acc2f48ab1da69f409c30811bf157a52958535ee74977386574f5b62d848460405180836bffffffffffffffffffffffff168152602001826bffffffffffffffffffffffff1681526020019250505060405180910390a35b5050508080600101915050610f41565b506001600087815260200190815260200160002060010160009054906101000a900473ffffffffffffffffffffffffffffffffffffffff1673ffffffffffffffffffffffffffffffffffffffff1663a9059cbb33836040518363ffffffff1660e01b8152600401808373ffffffffffffffffffffffffffffffffffffffff16815260200182815260200192505050602060405180830381600087803b15801561117157600080fd5b505af1158015611185573d6000803e3d6000fd5b505050506040513d602081101561119b57600080fd5b810190808051906020019092919050505061121e576040517f08c379a000000000000000000000000000000000000000000000000000000000815260040180806020018281038252601b8152602001807f7472616e7366657220776173206e6f74207375636365737366756c000000000081525060200191505060405180910390fd5b505050505050565b60055481565b600080846000801b600160008381526020019081526020016000206004015414156112bf576040517f08c379a00000000000000000000000000000000000000000000000000000000081526004018080602001828103825260188152602001807f41756374696f6e206e6f74207965742066696e6973686564000000000000000081525060200191505060405180910390fd5b6112c761396b565b600160008881526020019081526020016000206040518060c00160405290816000820160009054906101000a900473ffffffffffffffffffffffffffffffffffffffff1673ffffffffffffffffffffffffffffffffffffffff1673ffffffffffffffffffffffffffffffffffffffff1681526020016001820160009054906101000a900473ffffffffffffffffffffffffffffffffffffffff1673ffffffffffffffffffffffffffffffffffffffff1673ffffffffffffffffffffffffffffffffffffffff1681526020016002820154815260200160038201548152602001600482015481526020016005820160009054906101000a90046bffffffffffffffffffffffff166bffffffffffffffffffffffff166bffffffffffffffffffffffff168152505090506000806113ff8360800151612905565b925092505060005b88518110156116535761145c89828151811061141f57fe5b602002602001015189838151811061143357fe5b60200260200101516000808e81526020019081526020016000206129939092919063ffffffff16565b6114ce576040517f08c379a000000000000000000000000000000000000000000000000000000000815260040180806020018281038252601c8152602001807f6f72646572206973206e6f206c6f6e67657220636c61696d61626c650000000081525060200191505060405180910390fd5b6000806114ed8b84815181106114e057fe5b6020026020010151612905565b925050915085608001518b848151811061150357fe5b602002602001015114156115a057611564846bffffffffffffffffffffffff16611556876bffffffffffffffffffffffff168960a001516bffffffffffffffffffffffff16612a8e90919063ffffffff16565b612b1490919063ffffffff16565b98506115998660a001516bffffffffffffffffffffffff16826bffffffffffffffffffffffff166122f390919063ffffffff16565b9750611638565b6115ca86608001518c85815181106115b457fe5b6020026020010151612b5e90919063ffffffff16565b156116255761161e846bffffffffffffffffffffffff16611610876bffffffffffffffffffffffff16846bffffffffffffffffffffffff16612a8e90919063ffffffff16565b612b1490919063ffffffff16565b9850611637565b806bffffffffffffffffffffffff1697505b5b6116448c8a8a85612d16565b50508080600101915050611407565b5050505050935093915050565b83600160008281526020019081526020016000206002015442106116cf576040517f08c379a0000000000000000000000000000000000000000000000000000000008152600401808060200182810382526022815260200180613bc06022913960400191505060405180910390fd5b6000806116f16001600089815260200190815260200160002060030154612905565b925092505060008061170233610a76565b905060005b88518110156119de5761175288828151811061171f57fe5b60200260200101516bffffffffffffffffffffffff16856bffffffffffffffffffffffff16612a8e90919063ffffffff16565b611794866bffffffffffffffffffffffff168b848151811061177057fe5b60200260200101516bffffffffffffffffffffffff16612a8e90919063ffffffff16565b106117ea576040517f08c379a0000000000000000000000000000000000000000000000000000000008152600401808060200182810382526029815260200180613b976029913960400191505060405180910390fd5b611388846bffffffffffffffffffffffff168161180357fe5b0489828151811061181057fe5b60200260200101516bffffffffffffffffffffffff1611611899576040517f08c379a000000000000000000000000000000000000000000000000000000000815260040180806020018281038252600f8152602001807f6f7264657220746f6f20736d616c6c000000000000000000000000000000000081525060200191505060405180910390fd5b60006119046118cf848c85815181106118ae57fe5b60200260200101518c86815181106118c257fe5b60200260200101516128a2565b8984815181106118db57fe5b60200260200101516000808f8152602001908152602001600020612fa39092919063ffffffff16565b905080156119d05761194089838151811061191b57fe5b60200260200101516bffffffffffffffffffffffff168561266390919063ffffffff16565b93508267ffffffffffffffff168b7f9304f2fc7ed6d42c0400e678dbc7283e1e9054889c3afea5f965adff66ef9eac8c858151811061197b57fe5b60200260200101518c868151811061198f57fe5b602002602001015160405180836bffffffffffffffffffffffff168152602001826bffffffffffffffffffffffff1681526020019250505060405180910390a35b508080600101915050611707565b50600160008a815260200190815260200160002060010160009054906101000a900473ffffffffffffffffffffffffffffffffffffffff1673ffffffffffffffffffffffffffffffffffffffff166323b872dd3330856040518463ffffffff1660e01b8152600401808473ffffffffffffffffffffffffffffffffffffffff1681526020018373ffffffffffffffffffffffffffffffffffffffff1681526020018281526020019350505050602060405180830381600087803b158015611aa457600080fd5b505af1158015611ab8573d6000803e3d6000fd5b505050506040513d6020811015611ace57600080fd5b8101908080519060200190929190505050611b51576040517f08c379a000000000000000000000000000000000000000000000000000000000815260040180806020018281038252601b8152602001807f7472616e7366657220776173206e6f74207375636365737366756c000000000081525060200191505060405180910390fd5b505050505050505050565b81600160008281526020019081526020016000206002015442118015611b9a57506000801b6001600083815260200190815260200160002060040154145b611bef576040517f08c379a0000000000000000000000000000000000000000000000000000000008152600401808060200182810382526028815260200180613b1f6028913960400191505060405180910390fd5b600080611bfb84612905565b92509250506000806000611c24600160008a815260200190815260200160002060030154612905565b9250925092506000856bffffffffffffffffffffffff1611611cae576040517f08c379a00000000000000000000000000000000000000000000000000000000081526004018080602001828103825260158152602001807f7072696365206d75737420626520706f7374697665000000000000000000000081525060200191505060405180910390fd5b600080600160001b905060008060008c8152602001908152602001600020600101541115611d8057611cfa816000808d815260200190815260200160002061323490919063ffffffff16565b90505b888114158015611d1c5750611d1b8982612b5e90919063ffffffff16565b5b15611d7f576000611d2c82612905565b92505050611d51816bffffffffffffffffffffffff168461266390919063ffffffff16565b9250611d77826000808e815260200190815260200160002061323490919063ffffffff16565b915050611cfd565b5b6000611dc3876bffffffffffffffffffffffff16611db58a6bffffffffffffffffffffffff1686612a8e90919063ffffffff16565b612b1490919063ffffffff16565b9050818a1415611f68576000611dd883612905565b925050506000611dff83876bffffffffffffffffffffffff166122f390919063ffffffff16565b9050611e428a6bffffffffffffffffffffffff16611e348b6bffffffffffffffffffffffff1684612a8e90919063ffffffff16565b612b1490919063ffffffff16565b600160008f815260200190815260200160002060050160006101000a8154816bffffffffffffffffffffffff02191690836bffffffffffffffffffffffff160217905550816bffffffffffffffffffffffff16600160008f815260200190815260200160002060050160009054906101000a90046bffffffffffffffffffffffff166bffffffffffffffffffffffff161115611f46576040517f08c379a000000000000000000000000000000000000000000000000000000000815260040180806020018281038252601f8152602001807f6f726465722063616e206e6f7420626520636c656172696e67206f726465720081525060200191505060405180910390fd5b83600160008f81526020019081526020016000206004018190555050506121f6565b836bffffffffffffffffffffffff168110156120a157611fad876bffffffffffffffffffffffff16856bffffffffffffffffffffffff16612a8e90919063ffffffff16565b611fdc866bffffffffffffffffffffffff168a6bffffffffffffffffffffffff16612a8e90919063ffffffff16565b14612032576040517f08c379a0000000000000000000000000000000000000000000000000000000008152600401808060200182810382526030815260200180613a056030913960400191505060405180910390fd5b80600160008d815260200190815260200160002060050160006101000a8154816bffffffffffffffffffffffff02191690836bffffffffffffffffffffffff1602179055506120828689896128a2565b600160008d8152602001908152602001600020600401819055506121f5565b89600160008d815260200190815260200160002060040181905550836bffffffffffffffffffffffff16811461213f576040517f08c379a000000000000000000000000000000000000000000000000000000000815260040180806020018281038252601b8152602001807f7072696365206973206e6f7420636c656172696e67207072696365000000000081525060200191505060405180910390fd5b61216e876bffffffffffffffffffffffff16856bffffffffffffffffffffffff16612a8e90919063ffffffff16565b61219d866bffffffffffffffffffffffff168a6bffffffffffffffffffffffff16612a8e90919063ffffffff16565b11156121f4576040517f08c379a0000000000000000000000000000000000000000000000000000000008152600401808060200182810382526031815260200180613a576031913960400191505060405180910390fd5b5b5b6000612221600160008e815260200190815260200160002060020154426122f390919063ffffffff16565b9050600061226b61226461225160016122438687612a8e90919063ffffffff16565b61266390919063ffffffff16565b6305f5e100612b1490919063ffffffff16565b600a613341565b90507f5630ff72dd0a997d2783277090c48828946009a78b7a8d4cb290a31796474c368d8b8b8460405180858152602001846bffffffffffffffffffffffff168152602001836bffffffffffffffffffffffff16815260200182815260200194505050505060405180910390a16122e28d8261335a565b505050505050505050505050505050565b600061233583836040518060400160405280601e81526020017f536166654d6174683a207375627472616374696f6e206f766572666c6f770000815250613623565b905092915050565b60008073ffffffffffffffffffffffffffffffffffffffff168273ffffffffffffffffffffffffffffffffffffffff1614156123e1576040517f08c379a000000000000000000000000000000000000000000000000000000000815260040180806020018281038252601a8152602001807f43616e6e6f7420696e73657274207a65726f206164647265737300000000000081525060200191505060405180910390fd5b7fffffffffffffffffffffffffffffffffffffffffffffffffffffffffffffffff67ffffffffffffffff168367ffffffffffffffff16141561248b576040517f08c379a00000000000000000000000000000000000000000000000000000000081526004018080602001828103825260188152602001807f43616e6e6f7420696e73657274206d61782075696e743634000000000000000081525060200191505060405180910390fd5b60008460010160008473ffffffffffffffffffffffffffffffffffffffff1673ffffffffffffffffffffffffffffffffffffffff16815260200190815260200160002060009054906101000a900467ffffffffffffffff1667ffffffffffffffff161415806125735750600073ffffffffffffffffffffffffffffffffffffffff168460000160006001860167ffffffffffffffff1667ffffffffffffffff16815260200190815260200160002060009054906101000a900473ffffffffffffffffffffffffffffffffffffffff1673ffffffffffffffffffffffffffffffffffffffff1614155b15612581576000905061265c565b818460000160006001860167ffffffffffffffff1667ffffffffffffffff16815260200190815260200160002060006101000a81548173ffffffffffffffffffffffffffffffffffffffff021916908373ffffffffffffffffffffffffffffffffffffffff160217905550600183018460010160008473ffffffffffffffffffffffffffffffffffffffff1673ffffffffffffffffffffffffffffffffffffffff16815260200190815260200160002060006101000a81548167ffffffffffffffff021916908367ffffffffffffffff160217905550600190505b9392505050565b6000808284019050838110156126e1576040517f08c379a000000000000000000000000000000000000000000000000000000000815260040180806020018281038252601b8152602001807f536166654d6174683a206164646974696f6e206f766572666c6f77000000000081525060200191505060405180910390fd5b8091505092915050565b600068010000000000000000821061274e576040517f08c379a0000000000000000000000000000000000000000000000000000000008152600401808060200182810382526026815260200180613ad36026913960400191505060405180910390fd5b819050919050565b6000808360010160008473ffffffffffffffffffffffffffffffffffffffff1673ffffffffffffffffffffffffffffffffffffffff16815260200190815260200160002060009054906101000a900467ffffffffffffffff1667ffffffffffffffff161415905092915050565b60006127cf8383612756565b612841576040517f08c379a000000000000000000000000000000000000000000000000000000000815260040180806020018281038252601b8152602001807f4d7573742068617665204164647265737320746f20676574204944000000000081525060200191505060405180910390fd5b60018360010160008473ffffffffffffffffffffffffffffffffffffffff1673ffffffffffffffffffffffffffffffffffffffff16815260200190815260200160002060009054906101000a900467ffffffffffffffff1603905092915050565b6000816bffffffffffffffffffffffff166c01000000000000000000000000846bffffffffffffffffffffffff160278010000000000000000000000000000000000000000000000008667ffffffffffffffff1602010160001b90509392505050565b600080600078010000000000000000000000000000000000000000000000008460001c8161292f57fe5b0492506c0100000000000000000000000078010000000000000000000000000000000000000000000000008560001c8161296557fe5b068161296d57fe5b0491506c010000000000000000000000008460001c8161298957fe5b0690509193909250565b600061299f84846136e3565b6129ac5760009050612a87565b60008290505b838560000160008381526020019081526020016000205414612a20577fffffffffffffffffffffffffffffffffffffffff00000000000000000000000160001b811415612a03576000915050612a87565b8460000160008281526020019081526020016000205490506129b2565b84600001600085815260200190815260200160002054856000016000838152602001908152602001600020819055506000801b8560000160008681526020019081526020016000208190555084600101600081548092919060019003919050555060019150505b9392505050565b600080831415612aa15760009050612b0e565b6000828402905082848281612ab257fe5b0414612b09576040517f08c379a0000000000000000000000000000000000000000000000000000000008152600401808060200182810382526021815260200180613ab26021913960400191505060405180910390fd5b809150505b92915050565b6000612b5683836040518060400160405280601a81526020017f536166654d6174683a206469766973696f6e206279207a65726f00000000000081525061374c565b905092915050565b600080600080612b6d86612905565b9250925092506000806000612b8188612905565b925092509250612bb6846bffffffffffffffffffffffff16836bffffffffffffffffffffffff16612a8e90919063ffffffff16565b612be5826bffffffffffffffffffffffff16876bffffffffffffffffffffffff16612a8e90919063ffffffff16565b1015612bfa5760019650505050505050612d10565b612c29846bffffffffffffffffffffffff16836bffffffffffffffffffffffff16612a8e90919063ffffffff16565b612c58826bffffffffffffffffffffffff16876bffffffffffffffffffffffff16612a8e90919063ffffffff16565b1115612c6d5760009650505050505050612d10565b8267ffffffffffffffff168667ffffffffffffffff161415612cda576040517f08c379a000000000000000000000000000000000000000000000000000000000815260040180806020018281038252602d815260200180613b47602d913960400191505060405180910390fd5b8267ffffffffffffffff168667ffffffffffffffff161015612d055760019650505050505050612d10565b600096505050505050505b92915050565b6000612d2c82600261381290919063ffffffff16565b90506001600086815260200190815260200160002060000160009054906101000a900473ffffffffffffffffffffffffffffffffffffffff1673ffffffffffffffffffffffffffffffffffffffff1663a9059cbb82866040518363ffffffff1660e01b8152600401808373ffffffffffffffffffffffffffffffffffffffff16815260200182815260200192505050602060405180830381600087803b158015612dd557600080fd5b505af1158015612de9573d6000803e3d6000fd5b505050506040513d6020811015612dff57600080fd5b8101908080519060200190929190505050612e65576040517f08c379a0000000000000000000000000000000000000000000000000000000008152600401808060200182810382526023815260200180613b746023913960400191505060405180910390fd5b6001600086815260200190815260200160002060010160009054906101000a900473ffffffffffffffffffffffffffffffffffffffff1673ffffffffffffffffffffffffffffffffffffffff1663a9059cbb82856040518363ffffffff1660e01b8152600401808373ffffffffffffffffffffffffffffffffffffffff16815260200182815260200192505050602060405180830381600087803b158015612f0c57600080fd5b505af1158015612f20573d6000803e3d6000fd5b505050506040513d6020811015612f3657600080fd5b8101908080519060200190929190505050612f9c576040517f08c379a0000000000000000000000000000000000000000000000000000000008152600401808060200182810382526022815260200180613be26022913960400191505060405180910390fd5b5050505050565b600080612faf84612905565b9250505060006bffffffffffffffffffffffff16816bffffffffffffffffffffffff161415613046576040517f08c379a000000000000000000000000000000000000000000000000000000000815260040180806020018281038252601f8152602001807f496e73657274696e67207a65726f206973206e6f7420737570706f727465640081525060200191505060405180910390fd5b61305085856136e3565b1561305f57600091505061322d565b600080866001015414156130cd5784866000016000600160001b8152602001908152602001600020819055507fffffffffffffffffffffffffffffffffffffffff00000000000000000000000160001b86600001600087815260200190815260200160002081905550613212565b600160001b8414806130e557506130e486856136e3565b5b61313a576040517f08c379a0000000000000000000000000000000000000000000000000000000008152600401808060200182810382526026815260200180613af96026913960400191505060405180910390fd5b60008490505b81613210576131588682612b5e90919063ffffffff16565b156131ff576131858688600001600084815260200190815260200160002054612b5e90919063ffffffff16565b6131e15760008760000160008381526020019081526020016000205490508688600001600084815260200190815260200160002081905550808860000160008981526020019081526020016000208190555060019250506131fa565b8660000160008281526020019081526020016000205490505b61320b565b6000935050505061322d565b613140565b505b85600101600081548092919060010191905055506001925050505b9392505050565b60007fffffffffffffffffffffffffffffffffffffffff00000000000000000000000160001b8214156132b2576040517f08c379a000000000000000000000000000000000000000000000000000000000815260040180806020018281038252602a815260200180613a88602a913960400191505060405180910390fd5b6000801b836000016000848152602001908152602001600020541415613323576040517f08c379a0000000000000000000000000000000000000000000000000000000008152600401808060200182810382526022815260200180613a356022913960400191505060405180910390fd5b82600001600083815260200190815260200160002054905092915050565b60008183106133505781613352565b825b905092915050565b60008060008060006133816001600089815260200190815260200160002060030154612905565b9250925092506000801b60016000898152602001908152602001600020600301819055506000806133c7600160008b815260200190815260200160002060040154612905565b92509250506133fb836bffffffffffffffffffffffff16826bffffffffffffffffffffffff16612a8e90919063ffffffff16565b61342a856bffffffffffffffffffffffff16846bffffffffffffffffffffffff16612a8e90919063ffffffff16565b14156135135761348d600160008b815260200190815260200160002060050160009054906101000a90046bffffffffffffffffffffffff166bffffffffffffffffffffffff16846bffffffffffffffffffffffff166122f390919063ffffffff16565b965061350c826bffffffffffffffffffffffff166134fe836bffffffffffffffffffffffff16600160008e815260200190815260200160002060050160009054906101000a90046bffffffffffffffffffffffff166bffffffffffffffffffffffff16612a8e90919063ffffffff16565b612b1490919063ffffffff16565b9550613565565b613562826bffffffffffffffffffffffff16613554836bffffffffffffffffffffffff16866bffffffffffffffffffffffff16612a8e90919063ffffffff16565b612b1490919063ffffffff16565b95505b6135df896135a18a61359361358460018e6122f390919063ffffffff16565b8c612a8e90919063ffffffff16565b612b1490919063ffffffff16565b6135d98b6135cb6135bc60018f6122f390919063ffffffff16565b8c612a8e90919063ffffffff16565b612b1490919063ffffffff16565b88612d16565b613617896135f68a8a612b1490919063ffffffff16565b6136098b8a612b1490919063ffffffff16565b61361233610a76565b612d16565b50505050509250929050565b60008383111582906136d0576040517f08c379a00000000000000000000000000000000000000000000000000000000081526004018080602001828103825283818151815260200191508051906020019080838360005b8381101561369557808201518184015260208101905061367a565b50505050905090810190601f1680156136c25780820380516001836020036101000a031916815260200191505b509250505060405180910390fd5b5060008385039050809150509392505050565b6000600160001b82148061371957507fffffffffffffffffffffffffffffffffffffffff00000000000000000000000160001b82145b156137275760009050613746565b6000801b83600001600084815260200190815260200160002054141590505b92915050565b600080831182906137f8576040517f08c379a00000000000000000000000000000000000000000000000000000000081526004018080602001828103825283818151815260200191508051906020019080838360005b838110156137bd5780820151818401526020810190506137a2565b50505050905090810190601f1680156137ea5780820380516001836020036101000a031916815260200191505b509250505060405180910390fd5b50600083858161380457fe5b049050809150509392505050565b600061381e83836138e5565b613890576040517f08c379a000000000000000000000000000000000000000000000000000000000815260040180806020018281038252601b8152602001807f4d757374206861766520494420746f206765742041646472657373000000000081525060200191505060405180910390fd5b8260000160006001840167ffffffffffffffff1667ffffffffffffffff16815260200190815260200160002060009054906101000a900473ffffffffffffffffffffffffffffffffffffffff16905092915050565b60008073ffffffffffffffffffffffffffffffffffffffff168360000160006001850167ffffffffffffffff1667ffffffffffffffff16815260200190815260200160002060009054906101000a900473ffffffffffffffffffffffffffffffffffffffff1673ffffffffffffffffffffffffffffffffffffffff161415905092915050565b6040518060c00160405280600073ffffffffffffffffffffffffffffffffffffffff168152602001600073ffffffffffffffffffffffffffffffffffffffff16815260200160008152602001600080191681526020016000801916815260200160006bffffffffffffffffffffffff168152509056fe4f6e6c792074686520757365722063616e2063616e63656c20686973206f7264657273737570706c696564207072696365206d75737420626520696e766572736520696e697469616c4f726465724c696d6974547279696e6720746f20676574206e657874206f66206c61737420656c656d656e74636c656172696e6720707269636520697320626574746572207468616e20696e697469616c41756374696f6e4f72646572547279696e6720746f20676574206e657874206f66206e6f6e2d6578697374656e7420656c656d656e74536166654d6174683a206d756c7469706c69636174696f6e206f766572666c6f7753616665436173743a2076616c756520646f65736e27742066697420696e2036342062697473656c6d656e744265666f72654e65774f6e65206d7573742062652076616c6964206f7264657241756374696f6e206e6f7420696e20736f6c7574696f6e207375626d697373696f6e20706861736575736572206973206e6f7420616c6c6f77656420746f20706c6163652073616d65206f72646572207477696365436c61696d207472616e7366657220666f722073656c6c546f6b656e206661696c65646c696d6974207072696365206e6f7420626574746572207468616e206d696d696d616c206f666665726e6f206c6f6e67657220696e206f7264657220706c6163656d656e74207068617365436c61696d207472616e7366657220666f7220627579546f6b656e206661696c6564a26469706673582212206da2e1c768250fca85a19b393c64d76a53b132882fd1859d9be099acd0061c7e64736f6c634300060c0033",
  "devdoc": {
    "kind": "dev",
    "methods": {},
    "version": 1
  },
  "userdoc": {
    "kind": "user",
    "methods": {},
    "version": 1
  },
  "storageLayout": {
    "storage": [
      {
        "astId": 1540,
        "contract": "contracts/EasyAuction.sol:EasyAuction",
        "label": "sellOrders",
        "offset": 0,
        "slot": "0",
        "type": "t_mapping(t_uint256,t_struct(Data)2739_storage)"
      },
      {
        "astId": 1544,
        "contract": "contracts/EasyAuction.sol:EasyAuction",
        "label": "auctionData",
        "offset": 0,
        "slot": "1",
        "type": "t_mapping(t_uint256,t_struct(AuctionData)1536_storage)"
      },
      {
        "astId": 1546,
        "contract": "contracts/EasyAuction.sol:EasyAuction",
        "label": "registeredUsers",
        "offset": 0,
        "slot": "2",
        "type": "t_struct(Data)2537_storage"
      },
      {
        "astId": 1548,
        "contract": "contracts/EasyAuction.sol:EasyAuction",
        "label": "numUsers",
        "offset": 0,
        "slot": "4",
        "type": "t_uint64"
      },
      {
        "astId": 1550,
        "contract": "contracts/EasyAuction.sol:EasyAuction",
        "label": "auctionCounter",
        "offset": 0,
        "slot": "5",
        "type": "t_uint256"
      }
    ],
    "types": {
      "t_address": {
        "encoding": "inplace",
        "label": "address",
        "numberOfBytes": "20"
      },
      "t_bytes32": {
        "encoding": "inplace",
        "label": "bytes32",
        "numberOfBytes": "32"
      },
      "t_contract(ERC20)798": {
        "encoding": "inplace",
        "label": "contract ERC20",
        "numberOfBytes": "20"
      },
      "t_mapping(t_address,t_uint64)": {
        "encoding": "mapping",
        "key": "t_address",
        "label": "mapping(address => uint64)",
        "numberOfBytes": "32",
        "value": "t_uint64"
      },
      "t_mapping(t_bytes32,t_bytes32)": {
        "encoding": "mapping",
        "key": "t_bytes32",
        "label": "mapping(bytes32 => bytes32)",
        "numberOfBytes": "32",
        "value": "t_bytes32"
      },
      "t_mapping(t_uint256,t_struct(AuctionData)1536_storage)": {
        "encoding": "mapping",
        "key": "t_uint256",
        "label": "mapping(uint256 => struct EasyAuction.AuctionData)",
        "numberOfBytes": "32",
        "value": "t_struct(AuctionData)1536_storage"
      },
      "t_mapping(t_uint256,t_struct(Data)2739_storage)": {
        "encoding": "mapping",
        "key": "t_uint256",
        "label": "mapping(uint256 => struct IterableOrderedOrderSet.Data)",
        "numberOfBytes": "32",
        "value": "t_struct(Data)2739_storage"
      },
      "t_mapping(t_uint64,t_address)": {
        "encoding": "mapping",
        "key": "t_uint64",
        "label": "mapping(uint64 => address)",
        "numberOfBytes": "32",
        "value": "t_address"
      },
      "t_struct(AuctionData)1536_storage": {
        "encoding": "inplace",
        "label": "struct EasyAuction.AuctionData",
        "members": [
          {
            "astId": 1525,
            "contract": "contracts/EasyAuction.sol:EasyAuction",
            "label": "sellToken",
            "offset": 0,
            "slot": "0",
            "type": "t_contract(ERC20)798"
          },
          {
            "astId": 1527,
            "contract": "contracts/EasyAuction.sol:EasyAuction",
            "label": "buyToken",
            "offset": 0,
            "slot": "1",
            "type": "t_contract(ERC20)798"
          },
          {
            "astId": 1529,
            "contract": "contracts/EasyAuction.sol:EasyAuction",
            "label": "auctionEndDate",
            "offset": 0,
            "slot": "2",
            "type": "t_uint256"
          },
          {
            "astId": 1531,
            "contract": "contracts/EasyAuction.sol:EasyAuction",
            "label": "initialAuctionOrder",
            "offset": 0,
            "slot": "3",
            "type": "t_bytes32"
          },
          {
            "astId": 1533,
            "contract": "contracts/EasyAuction.sol:EasyAuction",
            "label": "clearingPriceOrder",
            "offset": 0,
            "slot": "4",
            "type": "t_bytes32"
          },
          {
            "astId": 1535,
            "contract": "contracts/EasyAuction.sol:EasyAuction",
            "label": "volumeClearingPriceOrder",
            "offset": 0,
            "slot": "5",
            "type": "t_uint96"
          }
        ],
        "numberOfBytes": "192"
      },
      "t_struct(Data)2537_storage": {
        "encoding": "inplace",
        "label": "struct IdToAddressBiMap.Data",
        "members": [
          {
            "astId": 2532,
            "contract": "contracts/EasyAuction.sol:EasyAuction",
            "label": "idToAddress",
            "offset": 0,
            "slot": "0",
            "type": "t_mapping(t_uint64,t_address)"
          },
          {
            "astId": 2536,
            "contract": "contracts/EasyAuction.sol:EasyAuction",
            "label": "addressToId",
            "offset": 0,
            "slot": "1",
            "type": "t_mapping(t_address,t_uint64)"
          }
        ],
        "numberOfBytes": "64"
      },
      "t_struct(Data)2739_storage": {
        "encoding": "inplace",
        "label": "struct IterableOrderedOrderSet.Data",
        "members": [
          {
            "astId": 2736,
            "contract": "contracts/EasyAuction.sol:EasyAuction",
            "label": "nextMap",
            "offset": 0,
            "slot": "0",
            "type": "t_mapping(t_bytes32,t_bytes32)"
          },
          {
            "astId": 2738,
            "contract": "contracts/EasyAuction.sol:EasyAuction",
            "label": "size",
            "offset": 0,
            "slot": "1",
            "type": "t_uint256"
          }
        ],
        "numberOfBytes": "64"
      },
      "t_uint256": {
        "encoding": "inplace",
        "label": "uint256",
        "numberOfBytes": "32"
      },
      "t_uint64": {
        "encoding": "inplace",
        "label": "uint64",
        "numberOfBytes": "8"
      },
      "t_uint96": {
        "encoding": "inplace",
        "label": "uint96",
        "numberOfBytes": "12"
      }
    }
  }
}