{
  "address": "0x732ed4E98f7906B81eb8ECD5269952DCEd966A0f",
  "abi": [
    {
      "inputs": [],
      "stateMutability": "nonpayable",
      "type": "constructor"
    },
    {
      "anonymous": false,
      "inputs": [
        {
          "indexed": true,
          "internalType": "uint256",
          "name": "auctionId",
          "type": "uint256"
        },
        {
          "indexed": false,
          "internalType": "uint96",
          "name": "priceNumerator",
          "type": "uint96"
        },
        {
          "indexed": false,
          "internalType": "uint96",
          "name": "priceDenominator",
          "type": "uint96"
        }
      ],
      "name": "AuctionCleared",
      "type": "event"
    },
    {
      "anonymous": false,
      "inputs": [
        {
          "indexed": true,
          "internalType": "uint256",
          "name": "auctionId",
          "type": "uint256"
        },
        {
          "indexed": true,
          "internalType": "uint64",
          "name": "userId",
          "type": "uint64"
        },
        {
          "indexed": false,
          "internalType": "uint96",
          "name": "sellAmount",
          "type": "uint96"
        },
        {
          "indexed": false,
          "internalType": "uint96",
          "name": "buyAmount",
          "type": "uint96"
        }
      ],
      "name": "CancellationSellOrder",
      "type": "event"
    },
    {
      "anonymous": false,
      "inputs": [
        {
          "indexed": true,
          "internalType": "uint256",
          "name": "auctionId",
          "type": "uint256"
        },
        {
          "indexed": true,
          "internalType": "uint64",
          "name": "userId",
          "type": "uint64"
        },
        {
          "indexed": false,
          "internalType": "uint96",
          "name": "buyAmount",
          "type": "uint96"
        },
        {
          "indexed": false,
          "internalType": "uint96",
          "name": "sellAmount",
          "type": "uint96"
        }
      ],
      "name": "ClaimedFromOrder",
      "type": "event"
    },
    {
      "anonymous": false,
      "inputs": [
        {
          "indexed": true,
          "internalType": "uint256",
          "name": "auctionId",
          "type": "uint256"
        },
        {
          "indexed": true,
          "internalType": "contract IERC20",
          "name": "_auctioningToken",
          "type": "address"
        },
        {
          "indexed": true,
          "internalType": "contract IERC20",
          "name": "_biddingToken",
          "type": "address"
        }
      ],
      "name": "NewAuction",
      "type": "event"
    },
    {
      "anonymous": false,
      "inputs": [
        {
          "indexed": true,
          "internalType": "uint256",
          "name": "auctionId",
          "type": "uint256"
        },
        {
          "indexed": true,
          "internalType": "uint64",
          "name": "userId",
          "type": "uint64"
        },
        {
          "indexed": false,
          "internalType": "uint96",
          "name": "buyAmount",
          "type": "uint96"
        },
        {
          "indexed": false,
          "internalType": "uint96",
          "name": "sellAmount",
          "type": "uint96"
        }
      ],
      "name": "NewSellOrder",
      "type": "event"
    },
    {
      "anonymous": false,
      "inputs": [
        {
          "indexed": true,
          "internalType": "uint64",
          "name": "userId",
          "type": "uint64"
        },
        {
          "indexed": true,
          "internalType": "address",
          "name": "userAddress",
          "type": "address"
        }
      ],
      "name": "NewUser",
      "type": "event"
    },
    {
      "anonymous": false,
      "inputs": [
        {
          "indexed": true,
          "internalType": "address",
          "name": "previousOwner",
          "type": "address"
        },
        {
          "indexed": true,
          "internalType": "address",
          "name": "newOwner",
          "type": "address"
        }
      ],
      "name": "OwnershipTransferred",
      "type": "event"
    },
    {
      "anonymous": false,
      "inputs": [
        {
          "indexed": true,
          "internalType": "address",
          "name": "user",
          "type": "address"
        },
        {
          "indexed": false,
          "internalType": "uint64",
          "name": "userId",
          "type": "uint64"
        }
      ],
      "name": "UserRegistration",
      "type": "event"
    },
    {
      "inputs": [],
      "name": "FEE_DENOMINATOR",
      "outputs": [
        {
          "internalType": "uint256",
          "name": "",
          "type": "uint256"
        }
      ],
      "stateMutability": "view",
      "type": "function"
    },
    {
      "inputs": [],
      "name": "auctionCounter",
      "outputs": [
        {
          "internalType": "uint256",
          "name": "",
          "type": "uint256"
        }
      ],
      "stateMutability": "view",
      "type": "function"
    },
    {
      "inputs": [
        {
          "internalType": "uint256",
          "name": "",
          "type": "uint256"
        }
      ],
      "name": "auctionData",
      "outputs": [
        {
          "internalType": "contract IERC20",
          "name": "auctioningToken",
          "type": "address"
        },
        {
          "internalType": "contract IERC20",
          "name": "biddingToken",
          "type": "address"
        },
        {
          "internalType": "uint256",
          "name": "orderCancellationEndDate",
          "type": "uint256"
        },
        {
          "internalType": "uint256",
          "name": "auctionEndDate",
          "type": "uint256"
        },
        {
          "internalType": "bytes32",
          "name": "initialAuctionOrder",
          "type": "bytes32"
        },
        {
          "internalType": "uint256",
          "name": "minimumBiddingAmount",
          "type": "uint256"
        },
        {
          "internalType": "uint256",
          "name": "interimSumBidAmount",
          "type": "uint256"
        },
        {
          "internalType": "bytes32",
          "name": "interimOrder",
          "type": "bytes32"
        },
        {
          "internalType": "bytes32",
          "name": "clearingPriceOrder",
          "type": "bytes32"
        },
        {
          "internalType": "uint96",
          "name": "volumeClearingPriceOrder",
          "type": "uint96"
        },
        {
          "internalType": "uint256",
          "name": "feeNumerator",
          "type": "uint256"
        }
      ],
      "stateMutability": "view",
      "type": "function"
    },
    {
      "inputs": [
        {
          "internalType": "uint256",
          "name": "auctionId",
          "type": "uint256"
        },
        {
          "internalType": "bytes32[]",
          "name": "_sellOrders",
          "type": "bytes32[]"
        },
        {
          "internalType": "bytes32[]",
          "name": "_prevSellOrders",
          "type": "bytes32[]"
        },
        {
          "internalType": "bytes32[]",
          "name": "_fallbackPrevSellOrders",
          "type": "bytes32[]"
        }
      ],
      "name": "cancelSellOrders",
      "outputs": [],
      "stateMutability": "nonpayable",
      "type": "function"
    },
    {
      "inputs": [
        {
          "internalType": "uint256",
          "name": "auctionId",
          "type": "uint256"
        },
        {
          "internalType": "bytes32[]",
          "name": "orders",
          "type": "bytes32[]"
        },
        {
          "internalType": "bytes32[]",
          "name": "previousOrders",
          "type": "bytes32[]"
        }
      ],
      "name": "claimFromParticipantOrder",
      "outputs": [
        {
          "internalType": "uint256",
          "name": "sumAuctioningTokenAmount",
          "type": "uint256"
        },
        {
          "internalType": "uint256",
          "name": "sumBiddingTokenAmount",
          "type": "uint256"
        }
      ],
      "stateMutability": "nonpayable",
      "type": "function"
    },
    {
      "inputs": [
        {
          "internalType": "uint256",
          "name": "auctionId",
          "type": "uint256"
        },
        {
          "internalType": "bytes32",
          "name": "order",
          "type": "bytes32"
        }
      ],
      "name": "containsOrder",
      "outputs": [
        {
          "internalType": "bool",
          "name": "",
          "type": "bool"
        }
      ],
      "stateMutability": "view",
      "type": "function"
    },
    {
      "inputs": [],
      "name": "feeNumerator",
      "outputs": [
        {
          "internalType": "uint256",
          "name": "",
          "type": "uint256"
        }
      ],
      "stateMutability": "view",
      "type": "function"
    },
    {
      "inputs": [],
      "name": "feeReceiverUserId",
      "outputs": [
        {
          "internalType": "uint64",
          "name": "",
          "type": "uint64"
        }
      ],
      "stateMutability": "view",
      "type": "function"
    },
    {
      "inputs": [
        {
          "internalType": "uint256",
          "name": "auctionId",
          "type": "uint256"
        }
      ],
      "name": "getSecondsRemainingInBatch",
      "outputs": [
        {
          "internalType": "uint256",
          "name": "",
          "type": "uint256"
        }
      ],
      "stateMutability": "view",
      "type": "function"
    },
    {
      "inputs": [
        {
          "internalType": "address",
          "name": "user",
          "type": "address"
        }
      ],
      "name": "getUserId",
      "outputs": [
        {
          "internalType": "uint64",
          "name": "userId",
          "type": "uint64"
        }
      ],
      "stateMutability": "nonpayable",
      "type": "function"
    },
    {
      "inputs": [
        {
          "internalType": "contract IERC20",
          "name": "_auctioningToken",
          "type": "address"
        },
        {
          "internalType": "contract IERC20",
          "name": "_biddingToken",
          "type": "address"
        },
        {
          "internalType": "uint256",
          "name": "orderCancelationPeriodDuration",
          "type": "uint256"
        },
        {
          "internalType": "uint256",
          "name": "duration",
          "type": "uint256"
        },
        {
          "internalType": "uint96",
          "name": "_auctionedSellAmount",
          "type": "uint96"
        },
        {
          "internalType": "uint96",
          "name": "_minBuyAmount",
          "type": "uint96"
        },
        {
          "internalType": "uint256",
          "name": "minimumBiddingAmount",
          "type": "uint256"
        }
      ],
      "name": "initiateAuction",
      "outputs": [
        {
          "internalType": "uint256",
          "name": "",
          "type": "uint256"
        }
      ],
      "stateMutability": "nonpayable",
      "type": "function"
    },
    {
      "inputs": [],
      "name": "numUsers",
      "outputs": [
        {
          "internalType": "uint64",
          "name": "",
          "type": "uint64"
        }
      ],
      "stateMutability": "view",
      "type": "function"
    },
    {
      "inputs": [],
      "name": "owner",
      "outputs": [
        {
          "internalType": "address",
          "name": "",
          "type": "address"
        }
      ],
      "stateMutability": "view",
      "type": "function"
    },
    {
      "inputs": [
        {
          "internalType": "uint256",
          "name": "auctionId",
          "type": "uint256"
        },
        {
          "internalType": "uint96[]",
          "name": "_minBuyAmounts",
          "type": "uint96[]"
        },
        {
          "internalType": "uint96[]",
          "name": "_sellAmounts",
          "type": "uint96[]"
        },
        {
          "internalType": "bytes32[]",
          "name": "_prevSellOrders",
          "type": "bytes32[]"
        },
        {
          "internalType": "bytes32[]",
          "name": "_fallbackPrevSellOrders",
          "type": "bytes32[]"
        }
      ],
      "name": "placeSellOrders",
      "outputs": [
        {
          "internalType": "uint64",
          "name": "userId",
          "type": "uint64"
        }
      ],
      "stateMutability": "nonpayable",
      "type": "function"
    },
    {
      "inputs": [
        {
          "internalType": "uint256",
          "name": "auctionId",
          "type": "uint256"
        },
        {
          "internalType": "uint256",
          "name": "iterationSteps",
          "type": "uint256"
        }
      ],
      "name": "precalculateSellAmountSum",
      "outputs": [],
      "stateMutability": "nonpayable",
      "type": "function"
    },
    {
      "inputs": [
        {
          "internalType": "address",
          "name": "user",
          "type": "address"
        }
      ],
      "name": "registerUser",
      "outputs": [
        {
          "internalType": "uint64",
          "name": "userId",
          "type": "uint64"
        }
      ],
      "stateMutability": "nonpayable",
      "type": "function"
    },
    {
      "inputs": [],
      "name": "renounceOwnership",
      "outputs": [],
      "stateMutability": "nonpayable",
      "type": "function"
    },
    {
      "inputs": [
        {
          "internalType": "uint256",
          "name": "",
          "type": "uint256"
        }
      ],
      "name": "sellOrders",
      "outputs": [
        {
          "internalType": "uint256",
          "name": "size",
          "type": "uint256"
        }
      ],
      "stateMutability": "view",
      "type": "function"
    },
    {
      "inputs": [
        {
          "internalType": "uint256",
          "name": "newFeeNumerator",
          "type": "uint256"
        },
        {
          "internalType": "address",
          "name": "newfeeReceiverAddress",
          "type": "address"
        }
      ],
      "name": "setFeeParameters",
      "outputs": [],
      "stateMutability": "nonpayable",
      "type": "function"
    },
    {
      "inputs": [
        {
          "internalType": "address",
          "name": "newOwner",
          "type": "address"
        }
      ],
      "name": "transferOwnership",
      "outputs": [],
      "stateMutability": "nonpayable",
      "type": "function"
    },
    {
      "inputs": [
        {
          "internalType": "uint256",
          "name": "auctionId",
          "type": "uint256"
        },
        {
          "internalType": "bytes32",
          "name": "price",
          "type": "bytes32"
        }
      ],
      "name": "verifyPrice",
      "outputs": [],
      "stateMutability": "nonpayable",
      "type": "function"
    }
  ],
  "transactionHash": "0x4820578ca4b3fb9c9abb8b2685e77f8e67e12e14aed01be2829179315d154652",
  "args": [],
  "solcInputHash": "3ac6f061ca4ad4265b611f68f29bf1b8",
  "bytecode": "0x608060405260006007556000600860006101000a81548167ffffffffffffffff021916908367ffffffffffffffff1602179055503480156200004057600080fd5b50600062000053620000f760201b60201c565b9050806000806101000a81548173ffffffffffffffffffffffffffffffffffffffff021916908373ffffffffffffffffffffffffffffffffffffffff1602179055508073ffffffffffffffffffffffffffffffffffffffff16600073ffffffffffffffffffffffffffffffffffffffff167f8be0079c531659141344cd1fd0a4f28419497f9722a3daafe3b4186f6b6457e060405160405180910390a350620000ff565b600033905090565b614f3d806200010f6000396000f3fe608060405234801561001057600080fd5b50600436106101375760003560e01c80635cefb291116100b8578063ba937bb01161007c578063ba937bb01461094c578063c1110dd614610a12578063d73792a914610b83578063e86dea4a14610ba1578063f2fde38b14610bbf578063f9f0751a14610c0357610137565b80635cefb2911461087a57806363c699a4146108a2578063715018a6146108f05780638da5cb5b146108fa578063a7e766441461092e57610137565b80633e12905f116100ff5780633e12905f1461045457806340b20b091461048c57806342eb3573146104da5780634a8393f31461077657806355fc62d2146107b857610137565b806315d37b4b1461013c57806319a50f491461017e5780632199d5cd146101a65780632b956ff7146102085780632f2a5f6b1461026a575b600080fd5b6101686004803603602081101561015257600080fd5b8101908080359060200190929190505050610c3b565b6040518082815260200191505060405180910390f35b610186610c95565b604051808267ffffffffffffffff16815260200191505060405180910390f35b6101e8600480360360208110156101bc57600080fd5b81019080803573ffffffffffffffffffffffffffffffffffffffff169060200190929190505050610caf565b604051808267ffffffffffffffff16815260200191505060405180910390f35b61024a6004803603602081101561021e57600080fd5b81019080803573ffffffffffffffffffffffffffffffffffffffff169060200190929190505050610e29565b604051808267ffffffffffffffff16815260200191505060405180910390f35b6104526004803603608081101561028057600080fd5b8101908080359060200190929190803590602001906401000000008111156102a757600080fd5b8201836020820111156102b957600080fd5b803590602001918460208302840111640100000000831117156102db57600080fd5b919080806020026020016040519081016040528093929190818152602001838360200280828437600081840152601f19601f8201169050808301925050505050505091929192908035906020019064010000000081111561033b57600080fd5b82018360208201111561034d57600080fd5b8035906020019184602083028401116401000000008311171561036f57600080fd5b919080806020026020016040519081016040528093929190818152602001838360200280828437600081840152601f19601f820116905080830192505050505050509192919290803590602001906401000000008111156103cf57600080fd5b8201836020820111156103e157600080fd5b8035906020019184602083028401116401000000008311171561040357600080fd5b919080806020026020016040519081016040528093929190818152602001838360200280828437600081840152601f19601f820116905080830192505050505050509192919290505050610ebe565b005b61048a6004803603604081101561046a57600080fd5b81019080803590602001909291908035906020019092919050505061116e565b005b6104d8600480360360408110156104a257600080fd5b8101908080359060200190929190803573ffffffffffffffffffffffffffffffffffffffff1690602001909291905050506113f6565b005b610756600480360360a08110156104f057600080fd5b81019080803590602001909291908035906020019064010000000081111561051757600080fd5b82018360208201111561052957600080fd5b8035906020019184602083028401116401000000008311171561054b57600080fd5b919080806020026020016040519081016040528093929190818152602001838360200280828437600081840152601f19601f820116905080830192505050505050509192919290803590602001906401000000008111156105ab57600080fd5b8201836020820111156105bd57600080fd5b803590602001918460208302840111640100000000831117156105df57600080fd5b919080806020026020016040519081016040528093929190818152602001838360200280828437600081840152601f19601f8201169050808301925050505050505091929192908035906020019064010000000081111561063f57600080fd5b82018360208201111561065157600080fd5b8035906020019184602083028401116401000000008311171561067357600080fd5b919080806020026020016040519081016040528093929190818152602001838360200280828437600081840152601f19601f820116905080830192505050505050509192919290803590602001906401000000008111156106d357600080fd5b8201836020820111156106e557600080fd5b8035906020019184602083028401116401000000008311171561070757600080fd5b919080806020026020016040519081016040528093929190818152602001838360200280828437600081840152601f19601f820116905080830192505050505050509192919290505050611554565b604051808267ffffffffffffffff16815260200191505060405180910390f35b6107a26004803603602081101561078c57600080fd5b8101908080359060200190929190505050611971565b6040518082815260200191505060405180910390f35b6107e4600480360360208110156107ce57600080fd5b810190808035906020019092919050505061198f565b604051808c73ffffffffffffffffffffffffffffffffffffffff1681526020018b73ffffffffffffffffffffffffffffffffffffffff1681526020018a8152602001898152602001888152602001878152602001868152602001858152602001848152602001836bffffffffffffffffffffffff1681526020018281526020019b50505050505050505050505060405180910390f35b610882611a41565b604051808267ffffffffffffffff16815260200191505060405180910390f35b6108d8600480360360408110156108b857600080fd5b810190808035906020019092919080359060200190929190505050611a5b565b60405180821515815260200191505060405180910390f35b6108f8611a8a565b005b610902611c10565b604051808273ffffffffffffffffffffffffffffffffffffffff16815260200191505060405180910390f35b610936611c39565b6040518082815260200191505060405180910390f35b6109fc600480360360e081101561096257600080fd5b81019080803573ffffffffffffffffffffffffffffffffffffffff169060200190929190803573ffffffffffffffffffffffffffffffffffffffff169060200190929190803590602001909291908035906020019092919080356bffffffffffffffffffffffff16906020019092919080356bffffffffffffffffffffffff16906020019092919080359060200190929190505050611c3f565b6040518082815260200191505060405180910390f35b610b6660048036036060811015610a2857600080fd5b810190808035906020019092919080359060200190640100000000811115610a4f57600080fd5b820183602082011115610a6157600080fd5b80359060200191846020830284011164010000000083111715610a8357600080fd5b919080806020026020016040519081016040528093929190818152602001838360200280828437600081840152601f19601f82011690508083019250505050505050919291929080359060200190640100000000811115610ae357600080fd5b820183602082011115610af557600080fd5b80359060200191846020830284011164010000000083111715610b1757600080fd5b919080806020026020016040519081016040528093929190818152602001838360200280828437600081840152601f19601f820116905080830192505050505050509192919290505050611f6b565b604051808381526020018281526020019250505060405180910390f35b610b8b61251b565b6040518082815260200191505060405180910390f35b610ba9612521565b6040518082815260200191505060405180910390f35b610c0160048036036020811015610bd557600080fd5b81019080803573ffffffffffffffffffffffffffffffffffffffff169060200190929190505050612527565b005b610c3960048036036040811015610c1957600080fd5b810190808035906020019092919080359060200190929190505050612732565b005b60004260026000848152602001908152602001600020600301541015610c645760009050610c90565b610c8d426002600085815260200190815260200160002060030154612ebb90919063ffffffff16565b90505b919050565b600560009054906101000a900467ffffffffffffffff1681565b6000610cdd600560009054906101000a900467ffffffffffffffff16836003612f059092919063ffffffff16565b610d4f576040517f08c379a00000000000000000000000000000000000000000000000000000000081526004018080602001828103825260178152602001807f5573657220616c7265616479207265676973746572656400000000000000000081525060200191505060405180910390fd5b600560009054906101000a900467ffffffffffffffff169050610da4610d9f6001600560009054906101000a900467ffffffffffffffff1667ffffffffffffffff1661322b90919063ffffffff16565b6132b3565b600560006101000a81548167ffffffffffffffff021916908367ffffffffffffffff1602179055508173ffffffffffffffffffffffffffffffffffffffff167f6838f67cb358c332087b73dbe769a6c869a5f87225236c16dda5d0013a77074c82604051808267ffffffffffffffff16815260200191505060405180910390a2919050565b6000610e3f82600361331e90919063ffffffff16565b15610e5f57610e5882600361338b90919063ffffffff16565b9050610eb9565b610e6882610caf565b90508173ffffffffffffffffffffffffffffffffffffffff168167ffffffffffffffff167f969d438b19b6b5fb3c0d3c6f16867e519fcec4233799d6be29d1c00f2045ba2660405160405180910390a35b919050565b83600260008281526020019081526020016000206003015442108015610ef95750600260008281526020019081526020016000206002015442105b610f4e576040517f08c379a0000000000000000000000000000000000000000000000000000000008152600401808060200182810382526032815260200180614cd26032913960400191505060405180910390fd5b6000610f5933610e29565b90506000805b8651811015611103576000610fcc888381518110610f7957fe5b6020026020010151888481518110610f8d57fe5b6020026020010151888581518110610fa157fe5b6020026020010151600160008e815260200190815260200160002061346a909392919063ffffffff16565b905080156110f5576000806000610ff58b8681518110610fe857fe5b6020026020010151613494565b9250925092508667ffffffffffffffff168367ffffffffffffffff1614611067576040517f08c379a0000000000000000000000000000000000000000000000000000000008152600401808060200182810382526023815260200180614c2b6023913960400191505060405180910390fd5b611088816bffffffffffffffffffffffff168761322b90919063ffffffff16565b95508667ffffffffffffffff168c7f7edae327fe79804b2f38bd490d874a0d188d3ae8911b303205abe47400086ac4848460405180836bffffffffffffffffffffffff168152602001826bffffffffffffffffffffffff1681526020019250505060405180910390a35050505b508080600101915050610f5f565b506111653382600260008b815260200190815260200160002060010160009054906101000a900473ffffffffffffffffffffffffffffffffffffffff1673ffffffffffffffffffffffffffffffffffffffff166135229092919063ffffffff16565b50505050505050565b816002600082815260200190815260200160002060030154421180156111ac57506000801b6002600083815260200190815260200160002060080154145b611201576040517f08c379a0000000000000000000000000000000000000000000000000000000008152600401808060200182810382526028815260200180614e3e6028913960400191505060405180910390fd5b60006112226002600086815260200190815260200160002060040154613494565b925050506000600260008681526020019081526020016000206006015490506000600260008781526020019081526020016000206007015490506000801b81141561126f57600160001b90505b60005b858110156112e15761129f82600160008a81526020019081526020016000206135c490919063ffffffff16565b915060006112ac83613494565b925050506112d1816bffffffffffffffffffffffff168561322b90919063ffffffff16565b9350508080600101915050611272565b506000806112ee83613494565b9250925050611322816bffffffffffffffffffffffff16866bffffffffffffffffffffffff166136d190919063ffffffff16565b611343836bffffffffffffffffffffffff16866136d190919063ffffffff16565b106113b6576040517f08c379a00000000000000000000000000000000000000000000000000000000081526004018080602001828103825260198152602001807f746f6f206d616e79206f72646572732073756d6d65642075700000000000000081525060200191505060405180910390fd5b83600260008a81526020019081526020016000206006018190555082600260008a8152602001908152602001600020600701819055505050505050505050565b6113fe613757565b73ffffffffffffffffffffffffffffffffffffffff1660008054906101000a900473ffffffffffffffffffffffffffffffffffffffff1673ffffffffffffffffffffffffffffffffffffffff16146114be576040517f08c379a00000000000000000000000000000000000000000000000000000000081526004018080602001828103825260208152602001807f4f776e61626c653a2063616c6c6572206973206e6f7420746865206f776e657281525060200191505060405180910390fd5b600f821115611518576040517f08c379a000000000000000000000000000000000000000000000000000000000815260040180806020018281038252602d815260200180614d4c602d913960400191505060405180910390fd5b61152181610e29565b600860006101000a81548167ffffffffffffffff021916908367ffffffffffffffff160217905550816007819055505050565b600085600260008281526020019081526020016000206003015442106115c5576040517f08c379a0000000000000000000000000000000000000000000000000000000008152600401808060200182810382526022815260200180614ee66022913960400191505060405180910390fd5b6000806115e7600260008b815260200190815260200160002060040154613494565b925092505060005b885181101561178b5761163a88828151811061160757fe5b60200260200101516bffffffffffffffffffffffff16836bffffffffffffffffffffffff166136d190919063ffffffff16565b61167c846bffffffffffffffffffffffff168b848151811061165857fe5b60200260200101516bffffffffffffffffffffffff166136d190919063ffffffff16565b106116d2576040517f08c379a0000000000000000000000000000000000000000000000000000000008152600401808060200182810382526029815260200180614e936029913960400191505060405180910390fd5b600260008b8152602001908152602001600020600501548882815181106116f557fe5b60200260200101516bffffffffffffffffffffffff161161177e576040517f08c379a000000000000000000000000000000000000000000000000000000000815260040180806020018281038252600f8152602001807f6f7264657220746f6f20736d616c6c000000000000000000000000000000000081525060200191505060405180910390fd5b80806001019150506115ef565b505050600061179933610e29565b925060005b87518110156119025760006118286117dd868b85815181106117bc57fe5b60200260200101518b86815181106117d057fe5b602002602001015161375f565b8884815181106117e957fe5b60200260200101518885815181106117fd57fe5b6020026020010151600160008f81526020019081526020016000206137c2909392919063ffffffff16565b905080156118f45761186488838151811061183f57fe5b60200260200101516bffffffffffffffffffffffff168461322b90919063ffffffff16565b92508467ffffffffffffffff168a7f9304f2fc7ed6d42c0400e678dbc7283e1e9054889c3afea5f965adff66ef9eac8b858151811061189f57fe5b60200260200101518b86815181106118b357fe5b602002602001015160405180836bffffffffffffffffffffffff168152602001826bffffffffffffffffffffffff1681526020019250505060405180910390a35b50808060010191505061179e565b50611966333083600260008d815260200190815260200160002060010160009054906101000a900473ffffffffffffffffffffffffffffffffffffffff1673ffffffffffffffffffffffffffffffffffffffff166137ec909392919063ffffffff16565b505095945050505050565b60016020528060005260406000206000915090508060010154905081565b60026020528060005260406000206000915090508060000160009054906101000a900473ffffffffffffffffffffffffffffffffffffffff16908060010160009054906101000a900473ffffffffffffffffffffffffffffffffffffffff16908060020154908060030154908060040154908060050154908060060154908060070154908060080154908060090160009054906101000a90046bffffffffffffffffffffffff169080600a015490508b565b600860009054906101000a900467ffffffffffffffff1681565b6000611a8282600160008681526020019081526020016000206138ad90919063ffffffff16565b905092915050565b611a92613757565b73ffffffffffffffffffffffffffffffffffffffff1660008054906101000a900473ffffffffffffffffffffffffffffffffffffffff1673ffffffffffffffffffffffffffffffffffffffff1614611b52576040517f08c379a00000000000000000000000000000000000000000000000000000000081526004018080602001828103825260208152602001807f4f776e61626c653a2063616c6c6572206973206e6f7420746865206f776e657281525060200191505060405180910390fd5b600073ffffffffffffffffffffffffffffffffffffffff1660008054906101000a900473ffffffffffffffffffffffffffffffffffffffff1673ffffffffffffffffffffffffffffffffffffffff167f8be0079c531659141344cd1fd0a4f28419497f9722a3daafe3b4186f6b6457e060405160405180910390a360008060006101000a81548173ffffffffffffffffffffffffffffffffffffffff021916908373ffffffffffffffffffffffffffffffffffffffff160217905550565b60008060009054906101000a900473ffffffffffffffffffffffffffffffffffffffff16905090565b60065481565b600080611c4b33610e29565b9050611cc43330611c9d6103e8611c8f611c726007546103e861322b90919063ffffffff16565b8b6bffffffffffffffffffffffff166136d190919063ffffffff16565b61391690919063ffffffff16565b8c73ffffffffffffffffffffffffffffffffffffffff166137ec909392919063ffffffff16565b60008311611d1d576040517f08c379a000000000000000000000000000000000000000000000000000000000815260040180806020018281038252602e815260200180614c74602e913960400191505060405180910390fd5b6006600081548092919060010191905055506040518061016001604052808a73ffffffffffffffffffffffffffffffffffffffff1681526020018973ffffffffffffffffffffffffffffffffffffffff16815260200188420181526020018742018152602001611d8e83878961375f565b8152602001848152602001600081526020016000801b81526020016000801b815260200160006bffffffffffffffffffffffff16815260200160075481525060026000600654815260200190815260200160002060008201518160000160006101000a81548173ffffffffffffffffffffffffffffffffffffffff021916908373ffffffffffffffffffffffffffffffffffffffff16021790555060208201518160010160006101000a81548173ffffffffffffffffffffffffffffffffffffffff021916908373ffffffffffffffffffffffffffffffffffffffff16021790555060408201518160020155606082015181600301556080820151816004015560a0820151816005015560c0820151816006015560e0820151816007015561010082015181600801556101208201518160090160006101000a8154816bffffffffffffffffffffffff02191690836bffffffffffffffffffffffff16021790555061014082015181600a01559050508773ffffffffffffffffffffffffffffffffffffffff168973ffffffffffffffffffffffffffffffffffffffff166006547f15dd9639accd24fcb10b44fe33886ce03e228e4e6ba1f65791edf66fa4acfa0360405160405180910390a4600654915050979650505050505050565b600080846000801b60026000838152602001908152602001600020600801541415611ffe576040517f08c379a00000000000000000000000000000000000000000000000000000000081526004018080602001828103825260188152602001807f41756374696f6e206e6f74207965742066696e6973686564000000000000000081525060200191505060405180910390fd5b612006614b67565b60026000888152602001908152602001600020604051806101600160405290816000820160009054906101000a900473ffffffffffffffffffffffffffffffffffffffff1673ffffffffffffffffffffffffffffffffffffffff1673ffffffffffffffffffffffffffffffffffffffff1681526020016001820160009054906101000a900473ffffffffffffffffffffffffffffffffffffffff1673ffffffffffffffffffffffffffffffffffffffff1673ffffffffffffffffffffffffffffffffffffffff168152602001600282015481526020016003820154815260200160048201548152602001600582015481526020016006820154815260200160078201548152602001600882015481526020016009820160009054906101000a90046bffffffffffffffffffffffff166bffffffffffffffffffffffff166bffffffffffffffffffffffff168152602001600a820154815250509050600080612172836101000151613494565b925092505060006121968960008151811061218957fe5b6020026020010151613494565b5050905060005b8951811015612501576121f38a82815181106121b557fe5b60200260200101518a83815181106121c957fe5b6020026020010151600160008f81526020019081526020016000206139609092919063ffffffff16565b612265576040517f08c379a000000000000000000000000000000000000000000000000000000000815260040180806020018281038252601c8152602001807f6f72646572206973206e6f206c6f6e67657220636c61696d61626c650000000081525060200191505060405180910390fd5b60008060006122868d858151811061227957fe5b6020026020010151613494565b9250925092508467ffffffffffffffff168367ffffffffffffffff16146122f8576040517f08c379a0000000000000000000000000000000000000000000000000000000008152600401808060200182810382526023815260200180614e1b6023913960400191505060405180910390fd5b8761010001518d858151811061230a57fe5b602002602001015114156123cd5761237e61236f876bffffffffffffffffffffffff166123618a6bffffffffffffffffffffffff168c61012001516bffffffffffffffffffffffff166136d190919063ffffffff16565b61391690919063ffffffff16565b8c61322b90919063ffffffff16565b9a506123c66123b78961012001516bffffffffffffffffffffffff16836bffffffffffffffffffffffff16612ebb90919063ffffffff16565b8b61322b90919063ffffffff16565b995061248a565b6123f88861010001518e86815181106123e257fe5b6020026020010151613a7f90919063ffffffff16565b156124655761245e61244f876bffffffffffffffffffffffff166124418a6bffffffffffffffffffffffff16856bffffffffffffffffffffffff166136d190919063ffffffff16565b61391690919063ffffffff16565b8c61322b90919063ffffffff16565b9a50612489565b612486816bffffffffffffffffffffffff168b61322b90919063ffffffff16565b99505b5b8467ffffffffffffffff168e7f3f2c83616e48a2f8b3c9cc26499e2e5c61643714dac49027d82cf6732f96a91a848460405180836bffffffffffffffffffffffff168152602001826bffffffffffffffffffffffff1681526020019250505060405180910390a3505050808060010191505061219d565b5061250e8a888884613c37565b5050505050935093915050565b6103e881565b60075481565b61252f613757565b73ffffffffffffffffffffffffffffffffffffffff1660008054906101000a900473ffffffffffffffffffffffffffffffffffffffff1673ffffffffffffffffffffffffffffffffffffffff16146125ef576040517f08c379a00000000000000000000000000000000000000000000000000000000081526004018080602001828103825260208152602001807f4f776e61626c653a2063616c6c6572206973206e6f7420746865206f776e657281525060200191505060405180910390fd5b600073ffffffffffffffffffffffffffffffffffffffff168173ffffffffffffffffffffffffffffffffffffffff161415612675576040517f08c379a0000000000000000000000000000000000000000000000000000000008152600401808060200182810382526026815260200180614c4e6026913960400191505060405180910390fd5b8073ffffffffffffffffffffffffffffffffffffffff1660008054906101000a900473ffffffffffffffffffffffffffffffffffffffff1673ffffffffffffffffffffffffffffffffffffffff167f8be0079c531659141344cd1fd0a4f28419497f9722a3daafe3b4186f6b6457e060405160405180910390a3806000806101000a81548173ffffffffffffffffffffffffffffffffffffffff021916908373ffffffffffffffffffffffffffffffffffffffff16021790555050565b8160026000828152602001908152602001600020600301544211801561277057506000801b6002600083815260200190815260200160002060080154145b6127c5576040517f08c379a0000000000000000000000000000000000000000000000000000000008152600401808060200182810382526028815260200180614e3e6028913960400191505060405180910390fd5b6000806127d184613494565b925092505060008060006127fa600260008a815260200190815260200160002060040154613494565b9250925092506000856bffffffffffffffffffffffff1611612884576040517f08c379a00000000000000000000000000000000000000000000000000000000081526004018080602001828103825260158152602001807f7072696365206d75737420626520706f7374697665000000000000000000000081525060200191505060405180910390fd5b6000600260008a81526020019081526020016000206006015490506000600260008b81526020019081526020016000206007015490506000801b8114156128cd57600160001b90505b6000600160008c81526020019081526020016000206001015411156129985761291181600160008d81526020019081526020016000206135c490919063ffffffff16565b90505b88811415801561293357506129328982613a7f90919063ffffffff16565b5b1561299757600061294382613494565b92505050612968816bffffffffffffffffffffffff168461322b90919063ffffffff16565b925061298f82600160008e81526020019081526020016000206135c490919063ffffffff16565b915050612914565b5b60006129db876bffffffffffffffffffffffff166129cd8a6bffffffffffffffffffffffff16866136d190919063ffffffff16565b61391690919063ffffffff16565b9050818a1415612b885760006129f083613494565b925050506000612a1783876bffffffffffffffffffffffff16612ebb90919063ffffffff16565b9050612a62612a5d8b6bffffffffffffffffffffffff16612a4f8c6bffffffffffffffffffffffff16856136d190919063ffffffff16565b61391690919063ffffffff16565b613d2c565b600260008f815260200190815260200160002060090160006101000a8154816bffffffffffffffffffffffff02191690836bffffffffffffffffffffffff160217905550816bffffffffffffffffffffffff16600260008f815260200190815260200160002060090160009054906101000a90046bffffffffffffffffffffffff166bffffffffffffffffffffffff161115612b66576040517f08c379a000000000000000000000000000000000000000000000000000000000815260040180806020018281038252601f8152602001807f6f726465722063616e206e6f7420626520636c656172696e67206f726465720081525060200191505060405180910390fd5b83600260008f8152602001908152602001600020600801819055505050612e1e565b836bffffffffffffffffffffffff16811015612cc957612bcd876bffffffffffffffffffffffff16856bffffffffffffffffffffffff166136d190919063ffffffff16565b612bfc866bffffffffffffffffffffffff168a6bffffffffffffffffffffffff166136d190919063ffffffff16565b14612c52576040517f08c379a0000000000000000000000000000000000000000000000000000000008152600401808060200182810382526030815260200180614ca26030913960400191505060405180910390fd5b612c5b81613d2c565b600260008d815260200190815260200160002060090160006101000a8154816bffffffffffffffffffffffff02191690836bffffffffffffffffffffffff160217905550612caa86898961375f565b600260008d815260200190815260200160002060080181905550612e1d565b89600260008d815260200190815260200160002060080181905550836bffffffffffffffffffffffff168114612d67576040517f08c379a000000000000000000000000000000000000000000000000000000000815260040180806020018281038252601b8152602001807f7072696365206973206e6f7420636c656172696e67207072696365000000000081525060200191505060405180910390fd5b612d96876bffffffffffffffffffffffff16856bffffffffffffffffffffffff166136d190919063ffffffff16565b612dc5866bffffffffffffffffffffffff168a6bffffffffffffffffffffffff166136d190919063ffffffff16565b1115612e1c576040517f08c379a0000000000000000000000000000000000000000000000000000000008152600401808060200182810382526031815260200180614d796031913960400191505060405180910390fd5b5b5b8a7f8e633245b93c41d24c82377f869edd0ac49ea9084bb0fa0265125a7b1df7fc95898960405180836bffffffffffffffffffffffff168152602001826bffffffffffffffffffffffff1681526020019250505060405180910390a26000600260008d8152602001908152602001600020600a01541115612ea357612ea28b613d9b565b5b612eac8b613fe7565b50505050505050505050505050565b6000612efd83836040518060400160405280601e81526020017f536166654d6174683a207375627472616374696f6e206f766572666c6f770000815250614208565b905092915050565b60008073ffffffffffffffffffffffffffffffffffffffff168273ffffffffffffffffffffffffffffffffffffffff161415612fa9576040517f08c379a000000000000000000000000000000000000000000000000000000000815260040180806020018281038252601a8152602001807f43616e6e6f7420696e73657274207a65726f206164647265737300000000000081525060200191505060405180910390fd5b7fffffffffffffffffffffffffffffffffffffffffffffffffffffffffffffffff67ffffffffffffffff168367ffffffffffffffff161415613053576040517f08c379a00000000000000000000000000000000000000000000000000000000081526004018080602001828103825260188152602001807f43616e6e6f7420696e73657274206d61782075696e743634000000000000000081525060200191505060405180910390fd5b60008460010160008473ffffffffffffffffffffffffffffffffffffffff1673ffffffffffffffffffffffffffffffffffffffff16815260200190815260200160002060009054906101000a900467ffffffffffffffff1667ffffffffffffffff1614158061313b5750600073ffffffffffffffffffffffffffffffffffffffff168460000160006001860167ffffffffffffffff1667ffffffffffffffff16815260200190815260200160002060009054906101000a900473ffffffffffffffffffffffffffffffffffffffff1673ffffffffffffffffffffffffffffffffffffffff1614155b156131495760009050613224565b818460000160006001860167ffffffffffffffff1667ffffffffffffffff16815260200190815260200160002060006101000a81548173ffffffffffffffffffffffffffffffffffffffff021916908373ffffffffffffffffffffffffffffffffffffffff160217905550600183018460010160008473ffffffffffffffffffffffffffffffffffffffff1673ffffffffffffffffffffffffffffffffffffffff16815260200190815260200160002060006101000a81548167ffffffffffffffff021916908367ffffffffffffffff160217905550600190505b9392505050565b6000808284019050838110156132a9576040517f08c379a000000000000000000000000000000000000000000000000000000000815260040180806020018281038252601b8152602001807f536166654d6174683a206164646974696f6e206f766572666c6f77000000000081525060200191505060405180910390fd5b8091505092915050565b6000680100000000000000008210613316576040517f08c379a0000000000000000000000000000000000000000000000000000000008152600401808060200182810382526026815260200180614df56026913960400191505060405180910390fd5b819050919050565b6000808360010160008473ffffffffffffffffffffffffffffffffffffffff1673ffffffffffffffffffffffffffffffffffffffff16815260200190815260200160002060009054906101000a900467ffffffffffffffff1667ffffffffffffffff161415905092915050565b6000613397838361331e565b613409576040517f08c379a000000000000000000000000000000000000000000000000000000000815260040180806020018281038252601b8152602001807f4d7573742068617665204164647265737320746f20676574204944000000000081525060200191505060405180910390fd5b60018360010160008473ffffffffffffffffffffffffffffffffffffffff1673ffffffffffffffffffffffffffffffffffffffff16815260200190815260200160002060009054906101000a900467ffffffffffffffff1603905092915050565b6000613477858585613960565b90508061348c57613489858584613960565b90505b949350505050565b600080600078010000000000000000000000000000000000000000000000008460001c816134be57fe5b0492506c0100000000000000000000000078010000000000000000000000000000000000000000000000008560001c816134f457fe5b06816134fc57fe5b0491506c010000000000000000000000008460001c8161351857fe5b0690509193909250565b6135bf8363a9059cbb60e01b8484604051602401808373ffffffffffffffffffffffffffffffffffffffff16815260200182815260200192505050604051602081830303815290604052907bffffffffffffffffffffffffffffffffffffffffffffffffffffffff19166020820180517bffffffffffffffffffffffffffffffffffffffffffffffffffffffff83818316178352505050506142c8565b505050565b60007fffffffffffffffffffffffffffffffffffffffff00000000000000000000000160001b821415613642576040517f08c379a000000000000000000000000000000000000000000000000000000000815260040180806020018281038252602a815260200180614daa602a913960400191505060405180910390fd5b6000801b8360000160008481526020019081526020016000205414156136b3576040517f08c379a0000000000000000000000000000000000000000000000000000000008152600401808060200182810382526022815260200180614d046022913960400191505060405180910390fd5b82600001600083815260200190815260200160002054905092915050565b6000808314156136e45760009050613751565b60008284029050828482816136f557fe5b041461374c576040517f08c379a0000000000000000000000000000000000000000000000000000000008152600401808060200182810382526021815260200180614dd46021913960400191505060405180910390fd5b809150505b92915050565b600033905090565b6000816bffffffffffffffffffffffff166c01000000000000000000000000846bffffffffffffffffffffffff160278010000000000000000000000000000000000000000000000008667ffffffffffffffff1602010160001b90509392505050565b60006137cf8585856143b7565b9050806137e4576137e18585846143b7565b90505b949350505050565b6138a7846323b872dd60e01b858585604051602401808473ffffffffffffffffffffffffffffffffffffffff1681526020018373ffffffffffffffffffffffffffffffffffffffff1681526020018281526020019350505050604051602081830303815290604052907bffffffffffffffffffffffffffffffffffffffffffffffffffffffff19166020820180517bffffffffffffffffffffffffffffffffffffffffffffffffffffffff83818316178352505050506142c8565b50505050565b6000600160001b8214806138e357507fffffffffffffffffffffffffffffffffffffffff00000000000000000000000160001b82145b156138f15760009050613910565b6000801b83600001600084815260200190815260200160002054141590505b92915050565b600061395883836040518060400160405280601a81526020017f536166654d6174683a206469766973696f6e206279207a65726f0000000000008152506146a8565b905092915050565b600061396c84846138ad565b158061398f5750600160001b821415801561398e575061398c84836138ad565b155b5b1561399d5760009050613a78565b60008290505b838560000160008381526020019081526020016000205414613a11577fffffffffffffffffffffffffffffffffffffffff00000000000000000000000160001b8114156139f4576000915050613a78565b8460000160008281526020019081526020016000205490506139a3565b84600001600085815260200190815260200160002054856000016000838152602001908152602001600020819055506000801b8560000160008681526020019081526020016000208190555084600101600081548092919060019003919050555060019150505b9392505050565b600080600080613a8e86613494565b9250925092506000806000613aa288613494565b925092509250613ad7846bffffffffffffffffffffffff16836bffffffffffffffffffffffff166136d190919063ffffffff16565b613b06826bffffffffffffffffffffffff16876bffffffffffffffffffffffff166136d190919063ffffffff16565b1015613b1b5760019650505050505050613c31565b613b4a846bffffffffffffffffffffffff16836bffffffffffffffffffffffff166136d190919063ffffffff16565b613b79826bffffffffffffffffffffffff16876bffffffffffffffffffffffff166136d190919063ffffffff16565b1115613b8e5760009650505050505050613c31565b8267ffffffffffffffff168667ffffffffffffffff161415613bfb576040517f08c379a000000000000000000000000000000000000000000000000000000000815260040180806020018281038252602d815260200180614e66602d913960400191505060405180910390fd5b8267ffffffffffffffff168667ffffffffffffffff161015613c265760019650505050505050613c31565b600096505050505050505b92915050565b6000613c4d82600361476e90919063ffffffff16565b90506000841115613cba57613cb981856002600089815260200190815260200160002060000160009054906101000a900473ffffffffffffffffffffffffffffffffffffffff1673ffffffffffffffffffffffffffffffffffffffff166135229092919063ffffffff16565b5b6000831115613d2557613d2481846002600089815260200190815260200160002060010160009054906101000a900473ffffffffffffffffffffffffffffffffffffffff1673ffffffffffffffffffffffffffffffffffffffff166135229092919063ffffffff16565b5b5050505050565b60006c010000000000000000000000008210613d93576040517f08c379a0000000000000000000000000000000000000000000000000000000008152600401808060200182810382526026815260200180614c056026913960400191505060405180910390fd5b819050919050565b6000806000613dbf6002600086815260200190815260200160002060040154613494565b925092509250600080613de76002600088815260200190815260200160002060080154613494565b92509250506000613e396103e8613e2b600260008b8152602001908152602001600020600a0154876bffffffffffffffffffffffff166136d190919063ffffffff16565b61391690919063ffffffff16565b9050613e6a846bffffffffffffffffffffffff16836bffffffffffffffffffffffff166136d190919063ffffffff16565b613e99866bffffffffffffffffffffffff16856bffffffffffffffffffffffff166136d190919063ffffffff16565b1415613fba576000613efe600260008a815260200190815260200160002060090160009054906101000a90046bffffffffffffffffffffffff166bffffffffffffffffffffffff16866bffffffffffffffffffffffff16612ebb90919063ffffffff16565b9050613f5588613f37876bffffffffffffffffffffffff16613f2985876136d190919063ffffffff16565b61391690919063ffffffff16565b6000600860009054906101000a900467ffffffffffffffff16613c37565b613fb488613fac876bffffffffffffffffffffffff16613f9e613f8f868b6bffffffffffffffffffffffff16612ebb90919063ffffffff16565b876136d190919063ffffffff16565b61391690919063ffffffff16565b60008a613c37565b50613fde565b613fdd87826000600860009054906101000a900467ffffffffffffffff16613c37565b5b50505050505050565b600080600080600061400e6002600088815260200190815260200160002060040154613494565b9250925092506000801b6002600088815260200190815260200160002060040181905550600080614054600260008a815260200190815260200160002060080154613494565b9250925050614088836bffffffffffffffffffffffff16826bffffffffffffffffffffffff166136d190919063ffffffff16565b6140b7856bffffffffffffffffffffffff16846bffffffffffffffffffffffff166136d190919063ffffffff16565b14156141a05761411a600260008a815260200190815260200160002060090160009054906101000a90046bffffffffffffffffffffffff166bffffffffffffffffffffffff16846bffffffffffffffffffffffff16612ebb90919063ffffffff16565b9650614199826bffffffffffffffffffffffff1661418b836bffffffffffffffffffffffff16600260008d815260200190815260200160002060090160009054906101000a90046bffffffffffffffffffffffff166bffffffffffffffffffffffff166136d190919063ffffffff16565b61391690919063ffffffff16565b95506141f2565b6141ef826bffffffffffffffffffffffff166141e1836bffffffffffffffffffffffff16866bffffffffffffffffffffffff166136d190919063ffffffff16565b61391690919063ffffffff16565b95505b6141fe88888888613c37565b5050505050915091565b60008383111582906142b5576040517f08c379a00000000000000000000000000000000000000000000000000000000081526004018080602001828103825283818151815260200191508051906020019080838360005b8381101561427a57808201518184015260208101905061425f565b50505050905090810190601f1680156142a75780820380516001836020036101000a031916815260200191505b509250505060405180910390fd5b5060008385039050809150509392505050565b606061432a826040518060400160405280602081526020017f5361666545524332303a206c6f772d6c6576656c2063616c6c206661696c65648152508573ffffffffffffffffffffffffffffffffffffffff166148419092919063ffffffff16565b90506000815111156143b25780806020019051602081101561434b57600080fd5b81019080805190602001909291905050506143b1576040517f08c379a000000000000000000000000000000000000000000000000000000000815260040180806020018281038252602a815260200180614ebc602a913960400191505060405180910390fd5b5b505050565b6000806143c384613494565b9250505060006bffffffffffffffffffffffff16816bffffffffffffffffffffffff16141561445a576040517f08c379a000000000000000000000000000000000000000000000000000000000815260040180806020018281038252601f8152602001807f496e73657274696e67207a65726f206973206e6f7420737570706f727465640081525060200191505060405180910390fd5b600160001b84148061448e57507fffffffffffffffffffffffffffffffffffffffff00000000000000000000000160001b84145b15614501576040517f08c379a000000000000000000000000000000000000000000000000000000000815260040180806020018281038252601e8152602001807f496e73657274696e6720656c656d656e74206973206e6f742076616c6964000081525060200191505060405180910390fd5b61450b85856138ad565b1561451a5760009150506146a1565b600160001b831480614532575061453185846138ad565b5b6145405760009150506146a1565b600080866001015414156145ae5784866000016000600160001b8152602001908152602001600020819055507fffffffffffffffffffffffffffffffffffffffff00000000000000000000000160001b86600001600087815260200190815260200160002081905550614686565b60008490505b81614684576145cc8682613a7f90919063ffffffff16565b15614673576145f98688600001600084815260200190815260200160002054613a7f90919063ffffffff16565b61465557600087600001600083815260200190815260200160002054905086886000016000848152602001908152602001600020819055508088600001600089815260200190815260200160002081905550600192505061466e565b8660000160008281526020019081526020016000205490505b61467f565b600093505050506146a1565b6145b4565b505b85600101600081548092919060010191905055506001925050505b9392505050565b60008083118290614754576040517f08c379a00000000000000000000000000000000000000000000000000000000081526004018080602001828103825283818151815260200191508051906020019080838360005b838110156147195780820151818401526020810190506146fe565b50505050905090810190601f1680156147465780820380516001836020036101000a031916815260200191505b509250505060405180910390fd5b50600083858161476057fe5b049050809150509392505050565b600061477a8383614859565b6147ec576040517f08c379a000000000000000000000000000000000000000000000000000000000815260040180806020018281038252601b8152602001807f4d757374206861766520494420746f206765742041646472657373000000000081525060200191505060405180910390fd5b8260000160006001840167ffffffffffffffff1667ffffffffffffffff16815260200190815260200160002060009054906101000a900473ffffffffffffffffffffffffffffffffffffffff16905092915050565b606061485084846000856148df565b90509392505050565b60008073ffffffffffffffffffffffffffffffffffffffff168360000160006001850167ffffffffffffffff1667ffffffffffffffff16815260200190815260200160002060009054906101000a900473ffffffffffffffffffffffffffffffffffffffff1673ffffffffffffffffffffffffffffffffffffffff161415905092915050565b60608247101561493a576040517f08c379a0000000000000000000000000000000000000000000000000000000008152600401808060200182810382526026815260200180614d266026913960400191505060405180910390fd5b61494385614a88565b6149b5576040517f08c379a000000000000000000000000000000000000000000000000000000000815260040180806020018281038252601d8152602001807f416464726573733a2063616c6c20746f206e6f6e2d636f6e747261637400000081525060200191505060405180910390fd5b600060608673ffffffffffffffffffffffffffffffffffffffff1685876040518082805190602001908083835b60208310614a0557805182526020820191506020810190506020830392506149e2565b6001836020036101000a03801982511681845116808217855250505050505090500191505060006040518083038185875af1925050503d8060008114614a67576040519150601f19603f3d011682016040523d82523d6000602084013e614a6c565b606091505b5091509150614a7c828286614a9b565b92505050949350505050565b600080823b905060008111915050919050565b60608315614aab57829050614b60565b600083511115614abe5782518084602001fd5b816040517f08c379a00000000000000000000000000000000000000000000000000000000081526004018080602001828103825283818151815260200191508051906020019080838360005b83811015614b25578082015181840152602081019050614b0a565b50505050905090810190601f168015614b525780820380516001836020036101000a031916815260200191505b509250505060405180910390fd5b9392505050565b604051806101600160405280600073ffffffffffffffffffffffffffffffffffffffff168152602001600073ffffffffffffffffffffffffffffffffffffffff1681526020016000815260200160008152602001600080191681526020016000815260200160008152602001600080191681526020016000801916815260200160006bffffffffffffffffffffffff16815260200160008152509056fe53616665436173743a2076616c756520646f65736e27742066697420696e20393620626974734f6e6c792074686520757365722063616e2063616e63656c20686973206f72646572734f776e61626c653a206e6577206f776e657220697320746865207a65726f20616464726573736d696e696d756d42696464696e67416d6f756e74206973206e6f7420616c6c6f77656420746f206265207a65726f737570706c696564207072696365206d75737420626520696e766572736520696e697469616c4f726465724c696d69746e6f206c6f6e67657220696e206f7264657220706c6163656d656e7420616e642063616e63656c6174696f6e207068617365547279696e6720746f20676574206e657874206f66206c61737420656c656d656e74416464726573733a20696e73756666696369656e742062616c616e636520666f722063616c6c466565206973206e6f7420616c6c6f77656420746f2062652073657420686967686572207468616e20312e3525636c656172696e6720707269636520697320626574746572207468616e20696e697469616c41756374696f6e4f72646572547279696e6720746f20676574206e657874206f66206e6f6e2d6578697374656e7420656c656d656e74536166654d6174683a206d756c7469706c69636174696f6e206f766572666c6f7753616665436173743a2076616c756520646f65736e27742066697420696e20363420626974736f6e6c7920616c6c6f77656420746f20636c61696d20666f722073616d65207573657241756374696f6e206e6f7420696e20736f6c7574696f6e207375626d697373696f6e20706861736575736572206973206e6f7420616c6c6f77656420746f20706c6163652073616d65206f726465722074776963656c696d6974207072696365206e6f7420626574746572207468616e206d696d696d616c206f666665725361666545524332303a204552433230206f7065726174696f6e20646964206e6f7420737563636565646e6f206c6f6e67657220696e206f7264657220706c6163656d656e74207068617365a26469706673582212205dfa59e194f753dfd42c190b940c1bece8f8aea4636c067848c9aec607de7c1664736f6c634300060c0033",
  "devdoc": {
    "kind": "dev",
    "methods": {
      "owner()": {
        "details": "Returns the address of the current owner."
      },
      "renounceOwnership()": {
        "details": "Leaves the contract without owner. It will not be possible to call `onlyOwner` functions anymore. Can only be called by the current owner. NOTE: Renouncing ownership will leave the contract without an owner, thereby removing any functionality that is only available to the owner."
      },
      "transferOwnership(address)": {
        "details": "Transfers ownership of the contract to a new account (`newOwner`). Can only be called by the current owner."
      }
    },
    "version": 1
  },
  "userdoc": {
    "kind": "user",
    "methods": {},
    "version": 1
  },
  "storageLayout": {
    "storage": [
      {
        "astId": 30,
        "contract": "contracts/EasyAuction.sol:EasyAuction",
        "label": "_owner",
        "offset": 0,
        "slot": "0",
        "type": "t_address"
      },
      {
        "astId": 1144,
        "contract": "contracts/EasyAuction.sol:EasyAuction",
        "label": "sellOrders",
        "offset": 0,
        "slot": "1",
        "type": "t_mapping(t_uint256,t_struct(Data)2671_storage)"
      },
      {
        "astId": 1148,
        "contract": "contracts/EasyAuction.sol:EasyAuction",
        "label": "auctionData",
        "offset": 0,
        "slot": "2",
        "type": "t_mapping(t_uint256,t_struct(AuctionData)1140_storage)"
      },
      {
        "astId": 1150,
        "contract": "contracts/EasyAuction.sol:EasyAuction",
        "label": "registeredUsers",
        "offset": 0,
        "slot": "3",
        "type": "t_struct(Data)2482_storage"
      },
      {
        "astId": 1152,
        "contract": "contracts/EasyAuction.sol:EasyAuction",
        "label": "numUsers",
        "offset": 0,
        "slot": "5",
        "type": "t_uint64"
      },
      {
        "astId": 1154,
        "contract": "contracts/EasyAuction.sol:EasyAuction",
        "label": "auctionCounter",
        "offset": 0,
        "slot": "6",
        "type": "t_uint256"
      },
      {
        "astId": 1163,
        "contract": "contracts/EasyAuction.sol:EasyAuction",
        "label": "feeNumerator",
        "offset": 0,
        "slot": "7",
        "type": "t_uint256"
      },
      {
        "astId": 1169,
        "contract": "contracts/EasyAuction.sol:EasyAuction",
        "label": "feeReceiverUserId",
        "offset": 0,
        "slot": "8",
        "type": "t_uint64"
      }
    ],
    "types": {
      "t_address": {
        "encoding": "inplace",
        "label": "address",
        "numberOfBytes": "20"
      },
      "t_bytes32": {
        "encoding": "inplace",
        "label": "bytes32",
        "numberOfBytes": "32"
      },
      "t_contract(IERC20)478": {
        "encoding": "inplace",
        "label": "contract IERC20",
        "numberOfBytes": "20"
      },
      "t_mapping(t_address,t_uint64)": {
        "encoding": "mapping",
        "key": "t_address",
        "label": "mapping(address => uint64)",
        "numberOfBytes": "32",
        "value": "t_uint64"
      },
      "t_mapping(t_bytes32,t_bytes32)": {
        "encoding": "mapping",
        "key": "t_bytes32",
        "label": "mapping(bytes32 => bytes32)",
        "numberOfBytes": "32",
        "value": "t_bytes32"
      },
      "t_mapping(t_uint256,t_struct(AuctionData)1140_storage)": {
        "encoding": "mapping",
        "key": "t_uint256",
        "label": "mapping(uint256 => struct EasyAuction.AuctionData)",
        "numberOfBytes": "32",
        "value": "t_struct(AuctionData)1140_storage"
      },
      "t_mapping(t_uint256,t_struct(Data)2671_storage)": {
        "encoding": "mapping",
        "key": "t_uint256",
        "label": "mapping(uint256 => struct IterableOrderedOrderSet.Data)",
        "numberOfBytes": "32",
        "value": "t_struct(Data)2671_storage"
      },
      "t_mapping(t_uint64,t_address)": {
        "encoding": "mapping",
        "key": "t_uint64",
        "label": "mapping(uint64 => address)",
        "numberOfBytes": "32",
        "value": "t_address"
      },
      "t_struct(AuctionData)1140_storage": {
        "encoding": "inplace",
        "label": "struct EasyAuction.AuctionData",
        "members": [
          {
            "astId": 1119,
            "contract": "contracts/EasyAuction.sol:EasyAuction",
            "label": "auctioningToken",
            "offset": 0,
            "slot": "0",
            "type": "t_contract(IERC20)478"
          },
          {
            "astId": 1121,
            "contract": "contracts/EasyAuction.sol:EasyAuction",
            "label": "biddingToken",
            "offset": 0,
            "slot": "1",
            "type": "t_contract(IERC20)478"
          },
          {
            "astId": 1123,
            "contract": "contracts/EasyAuction.sol:EasyAuction",
            "label": "orderCancellationEndDate",
            "offset": 0,
            "slot": "2",
            "type": "t_uint256"
          },
          {
            "astId": 1125,
            "contract": "contracts/EasyAuction.sol:EasyAuction",
            "label": "auctionEndDate",
            "offset": 0,
            "slot": "3",
            "type": "t_uint256"
          },
          {
            "astId": 1127,
            "contract": "contracts/EasyAuction.sol:EasyAuction",
            "label": "initialAuctionOrder",
            "offset": 0,
            "slot": "4",
            "type": "t_bytes32"
          },
          {
            "astId": 1129,
            "contract": "contracts/EasyAuction.sol:EasyAuction",
            "label": "minimumBiddingAmount",
            "offset": 0,
            "slot": "5",
            "type": "t_uint256"
          },
          {
            "astId": 1131,
            "contract": "contracts/EasyAuction.sol:EasyAuction",
            "label": "interimSumBidAmount",
            "offset": 0,
            "slot": "6",
            "type": "t_uint256"
          },
          {
            "astId": 1133,
            "contract": "contracts/EasyAuction.sol:EasyAuction",
            "label": "interimOrder",
            "offset": 0,
            "slot": "7",
            "type": "t_bytes32"
          },
          {
            "astId": 1135,
            "contract": "contracts/EasyAuction.sol:EasyAuction",
            "label": "clearingPriceOrder",
            "offset": 0,
            "slot": "8",
            "type": "t_bytes32"
          },
          {
            "astId": 1137,
            "contract": "contracts/EasyAuction.sol:EasyAuction",
            "label": "volumeClearingPriceOrder",
            "offset": 0,
            "slot": "9",
            "type": "t_uint96"
          },
          {
            "astId": 1139,
            "contract": "contracts/EasyAuction.sol:EasyAuction",
            "label": "feeNumerator",
            "offset": 0,
            "slot": "10",
            "type": "t_uint256"
          }
        ],
        "numberOfBytes": "352"
      },
      "t_struct(Data)2482_storage": {
        "encoding": "inplace",
        "label": "struct IdToAddressBiMap.Data",
        "members": [
          {
            "astId": 2477,
            "contract": "contracts/EasyAuction.sol:EasyAuction",
            "label": "idToAddress",
            "offset": 0,
            "slot": "0",
            "type": "t_mapping(t_uint64,t_address)"
          },
          {
            "astId": 2481,
            "contract": "contracts/EasyAuction.sol:EasyAuction",
            "label": "addressToId",
            "offset": 0,
            "slot": "1",
            "type": "t_mapping(t_address,t_uint64)"
          }
        ],
        "numberOfBytes": "64"
      },
      "t_struct(Data)2671_storage": {
        "encoding": "inplace",
        "label": "struct IterableOrderedOrderSet.Data",
        "members": [
          {
            "astId": 2668,
            "contract": "contracts/EasyAuction.sol:EasyAuction",
            "label": "nextMap",
            "offset": 0,
            "slot": "0",
            "type": "t_mapping(t_bytes32,t_bytes32)"
          },
          {
            "astId": 2670,
            "contract": "contracts/EasyAuction.sol:EasyAuction",
            "label": "size",
            "offset": 0,
            "slot": "1",
            "type": "t_uint256"
          }
        ],
        "numberOfBytes": "64"
      },
      "t_uint256": {
        "encoding": "inplace",
        "label": "uint256",
        "numberOfBytes": "32"
      },
      "t_uint64": {
        "encoding": "inplace",
        "label": "uint64",
        "numberOfBytes": "8"
      },
      "t_uint96": {
        "encoding": "inplace",
        "label": "uint96",
        "numberOfBytes": "12"
      }
    }
  }
}