{
  "address": "0xA8199BbBcc12E8Dd20690549DE8dAF1C4f712690",
  "abi": [
    {
      "inputs": [],
      "stateMutability": "nonpayable",
      "type": "constructor"
    },
    {
      "anonymous": false,
      "inputs": [
        {
          "indexed": true,
          "internalType": "uint256",
          "name": "auctionId",
          "type": "uint256"
        },
        {
          "indexed": false,
          "internalType": "uint96",
          "name": "priceNumerator",
          "type": "uint96"
        },
        {
          "indexed": false,
          "internalType": "uint96",
          "name": "priceDenominator",
          "type": "uint96"
        }
      ],
      "name": "AuctionCleared",
      "type": "event"
    },
    {
      "anonymous": false,
      "inputs": [
        {
          "indexed": true,
          "internalType": "uint256",
          "name": "auctionId",
          "type": "uint256"
        },
        {
          "indexed": true,
          "internalType": "uint64",
          "name": "userId",
          "type": "uint64"
        },
        {
          "indexed": false,
          "internalType": "uint96",
          "name": "buyAmount",
          "type": "uint96"
        },
        {
          "indexed": false,
          "internalType": "uint96",
          "name": "sellAmount",
          "type": "uint96"
        }
      ],
      "name": "CancellationSellOrder",
      "type": "event"
    },
    {
      "anonymous": false,
      "inputs": [
        {
          "indexed": true,
          "internalType": "uint256",
          "name": "auctionId",
          "type": "uint256"
        },
        {
          "indexed": true,
          "internalType": "uint64",
          "name": "userId",
          "type": "uint64"
        },
        {
          "indexed": false,
          "internalType": "uint96",
          "name": "buyAmount",
          "type": "uint96"
        },
        {
          "indexed": false,
          "internalType": "uint96",
          "name": "sellAmount",
          "type": "uint96"
        }
      ],
      "name": "ClaimedFromOrder",
      "type": "event"
    },
    {
      "anonymous": false,
      "inputs": [
        {
          "indexed": true,
          "internalType": "uint256",
          "name": "auctionId",
          "type": "uint256"
        },
        {
          "indexed": true,
          "internalType": "contract IERC20",
          "name": "_auctioningToken",
          "type": "address"
        },
        {
          "indexed": true,
          "internalType": "contract IERC20",
          "name": "_biddingToken",
          "type": "address"
        },
        {
          "indexed": false,
          "internalType": "uint256",
          "name": "orderCancellationEndDate",
          "type": "uint256"
        },
        {
          "indexed": false,
          "internalType": "uint256",
          "name": "auctionEndDate",
          "type": "uint256"
        },
        {
          "indexed": false,
          "internalType": "uint96",
          "name": "_auctionedSellAmount",
          "type": "uint96"
        },
        {
          "indexed": false,
          "internalType": "uint96",
          "name": "_minBuyAmount",
          "type": "uint96"
        },
        {
          "indexed": false,
          "internalType": "uint256",
          "name": "minimumBiddingAmountPerOrder",
          "type": "uint256"
        },
        {
          "indexed": false,
          "internalType": "uint256",
          "name": "minFundingThreshold",
          "type": "uint256"
        }
      ],
      "name": "NewAuction",
      "type": "event"
    },
    {
      "anonymous": false,
      "inputs": [
        {
          "indexed": true,
          "internalType": "uint256",
          "name": "auctionId",
          "type": "uint256"
        },
        {
          "indexed": true,
          "internalType": "uint64",
          "name": "userId",
          "type": "uint64"
        },
        {
          "indexed": false,
          "internalType": "uint96",
          "name": "buyAmount",
          "type": "uint96"
        },
        {
          "indexed": false,
          "internalType": "uint96",
          "name": "sellAmount",
          "type": "uint96"
        }
      ],
      "name": "NewSellOrder",
      "type": "event"
    },
    {
      "anonymous": false,
      "inputs": [
        {
          "indexed": true,
          "internalType": "uint64",
          "name": "userId",
          "type": "uint64"
        },
        {
          "indexed": true,
          "internalType": "address",
          "name": "userAddress",
          "type": "address"
        }
      ],
      "name": "NewUser",
      "type": "event"
    },
    {
      "anonymous": false,
      "inputs": [
        {
          "indexed": true,
          "internalType": "address",
          "name": "previousOwner",
          "type": "address"
        },
        {
          "indexed": true,
          "internalType": "address",
          "name": "newOwner",
          "type": "address"
        }
      ],
      "name": "OwnershipTransferred",
      "type": "event"
    },
    {
      "anonymous": false,
      "inputs": [
        {
          "indexed": true,
          "internalType": "address",
          "name": "user",
          "type": "address"
        },
        {
          "indexed": false,
          "internalType": "uint64",
          "name": "userId",
          "type": "uint64"
        }
      ],
      "name": "UserRegistration",
      "type": "event"
    },
    {
      "inputs": [],
      "name": "FEE_DENOMINATOR",
      "outputs": [
        {
          "internalType": "uint256",
          "name": "",
          "type": "uint256"
        }
      ],
      "stateMutability": "view",
      "type": "function"
    },
    {
      "inputs": [],
      "name": "auctionCounter",
      "outputs": [
        {
          "internalType": "uint256",
          "name": "",
          "type": "uint256"
        }
      ],
      "stateMutability": "view",
      "type": "function"
    },
    {
      "inputs": [
        {
          "internalType": "uint256",
          "name": "",
          "type": "uint256"
        }
      ],
      "name": "auctionData",
      "outputs": [
        {
          "internalType": "contract IERC20",
          "name": "auctioningToken",
          "type": "address"
        },
        {
          "internalType": "contract IERC20",
          "name": "biddingToken",
          "type": "address"
        },
        {
          "internalType": "uint256",
          "name": "orderCancellationEndDate",
          "type": "uint256"
        },
        {
          "internalType": "uint256",
          "name": "auctionEndDate",
          "type": "uint256"
        },
        {
          "internalType": "bytes32",
          "name": "initialAuctionOrder",
          "type": "bytes32"
        },
        {
          "internalType": "uint256",
          "name": "minimumBiddingAmountPerOrder",
          "type": "uint256"
        },
        {
          "internalType": "uint256",
          "name": "interimSumBidAmount",
          "type": "uint256"
        },
        {
          "internalType": "bytes32",
          "name": "interimOrder",
          "type": "bytes32"
        },
        {
          "internalType": "bytes32",
          "name": "clearingPriceOrder",
          "type": "bytes32"
        },
        {
          "internalType": "uint96",
          "name": "volumeClearingPriceOrder",
          "type": "uint96"
        },
        {
          "internalType": "uint256",
          "name": "feeNumerator",
          "type": "uint256"
        },
        {
          "internalType": "uint256",
          "name": "minFundingThreshold",
          "type": "uint256"
        },
        {
          "internalType": "bool",
          "name": "minFundingThresholdNotReached",
          "type": "bool"
        }
      ],
      "stateMutability": "view",
      "type": "function"
    },
    {
      "inputs": [
        {
          "internalType": "uint256",
          "name": "auctionId",
          "type": "uint256"
        },
        {
          "internalType": "bytes32[]",
          "name": "_sellOrders",
          "type": "bytes32[]"
        }
      ],
      "name": "cancelSellOrders",
      "outputs": [],
      "stateMutability": "nonpayable",
      "type": "function"
    },
    {
      "inputs": [
        {
          "internalType": "uint256",
          "name": "auctionId",
          "type": "uint256"
        },
        {
          "internalType": "bytes32[]",
          "name": "orders",
          "type": "bytes32[]"
        }
      ],
      "name": "claimFromParticipantOrder",
      "outputs": [
        {
          "internalType": "uint256",
          "name": "sumAuctioningTokenAmount",
          "type": "uint256"
        },
        {
          "internalType": "uint256",
          "name": "sumBiddingTokenAmount",
          "type": "uint256"
        }
      ],
      "stateMutability": "nonpayable",
      "type": "function"
    },
    {
      "inputs": [
        {
          "internalType": "uint256",
          "name": "auctionId",
          "type": "uint256"
        },
        {
          "internalType": "bytes32",
          "name": "order",
          "type": "bytes32"
        }
      ],
      "name": "containsOrder",
      "outputs": [
        {
          "internalType": "bool",
          "name": "",
          "type": "bool"
        }
      ],
      "stateMutability": "view",
      "type": "function"
    },
    {
      "inputs": [],
      "name": "feeNumerator",
      "outputs": [
        {
          "internalType": "uint256",
          "name": "",
          "type": "uint256"
        }
      ],
      "stateMutability": "view",
      "type": "function"
    },
    {
      "inputs": [],
      "name": "feeReceiverUserId",
      "outputs": [
        {
          "internalType": "uint64",
          "name": "",
          "type": "uint64"
        }
      ],
      "stateMutability": "view",
      "type": "function"
    },
    {
      "inputs": [
        {
          "internalType": "uint256",
          "name": "auctionId",
          "type": "uint256"
        }
      ],
      "name": "getSecondsRemainingInBatch",
      "outputs": [
        {
          "internalType": "uint256",
          "name": "",
          "type": "uint256"
        }
      ],
      "stateMutability": "view",
      "type": "function"
    },
    {
      "inputs": [
        {
          "internalType": "address",
          "name": "user",
          "type": "address"
        }
      ],
      "name": "getUserId",
      "outputs": [
        {
          "internalType": "uint64",
          "name": "userId",
          "type": "uint64"
        }
      ],
      "stateMutability": "nonpayable",
      "type": "function"
    },
    {
      "inputs": [
        {
          "internalType": "contract IERC20",
          "name": "_auctioningToken",
          "type": "address"
        },
        {
          "internalType": "contract IERC20",
          "name": "_biddingToken",
          "type": "address"
        },
        {
          "internalType": "uint256",
          "name": "orderCancelationPeriodDuration",
          "type": "uint256"
        },
        {
          "internalType": "uint256",
          "name": "duration",
          "type": "uint256"
        },
        {
          "internalType": "uint96",
          "name": "_auctionedSellAmount",
          "type": "uint96"
        },
        {
          "internalType": "uint96",
          "name": "_minBuyAmount",
          "type": "uint96"
        },
        {
          "internalType": "uint256",
          "name": "minimumBiddingAmountPerOrder",
          "type": "uint256"
        },
        {
          "internalType": "uint256",
          "name": "minFundingThreshold",
          "type": "uint256"
        }
      ],
      "name": "initiateAuction",
      "outputs": [
        {
          "internalType": "uint256",
          "name": "",
          "type": "uint256"
        }
      ],
      "stateMutability": "nonpayable",
      "type": "function"
    },
    {
      "inputs": [],
      "name": "numUsers",
      "outputs": [
        {
          "internalType": "uint64",
          "name": "",
          "type": "uint64"
        }
      ],
      "stateMutability": "view",
      "type": "function"
    },
    {
      "inputs": [],
      "name": "owner",
      "outputs": [
        {
          "internalType": "address",
          "name": "",
          "type": "address"
        }
      ],
      "stateMutability": "view",
      "type": "function"
    },
    {
      "inputs": [
        {
          "internalType": "uint256",
          "name": "auctionId",
          "type": "uint256"
        },
        {
          "internalType": "uint96[]",
          "name": "_minBuyAmounts",
          "type": "uint96[]"
        },
        {
          "internalType": "uint96[]",
          "name": "_sellAmounts",
          "type": "uint96[]"
        },
        {
          "internalType": "bytes32[]",
          "name": "_prevSellOrders",
          "type": "bytes32[]"
        }
      ],
      "name": "placeSellOrders",
      "outputs": [
        {
          "internalType": "uint64",
          "name": "userId",
          "type": "uint64"
        }
      ],
      "stateMutability": "nonpayable",
      "type": "function"
    },
    {
      "inputs": [
        {
          "internalType": "uint256",
          "name": "auctionId",
          "type": "uint256"
        },
        {
          "internalType": "uint256",
          "name": "iterationSteps",
          "type": "uint256"
        }
      ],
      "name": "precalculateSellAmountSum",
      "outputs": [],
      "stateMutability": "nonpayable",
      "type": "function"
    },
    {
      "inputs": [
        {
          "internalType": "address",
          "name": "user",
          "type": "address"
        }
      ],
      "name": "registerUser",
      "outputs": [
        {
          "internalType": "uint64",
          "name": "userId",
          "type": "uint64"
        }
      ],
      "stateMutability": "nonpayable",
      "type": "function"
    },
    {
      "inputs": [],
      "name": "renounceOwnership",
      "outputs": [],
      "stateMutability": "nonpayable",
      "type": "function"
    },
    {
      "inputs": [
        {
          "internalType": "uint256",
          "name": "newFeeNumerator",
          "type": "uint256"
        },
        {
          "internalType": "address",
          "name": "newfeeReceiverAddress",
          "type": "address"
        }
      ],
      "name": "setFeeParameters",
      "outputs": [],
      "stateMutability": "nonpayable",
      "type": "function"
    },
    {
      "inputs": [
        {
          "internalType": "address",
          "name": "newOwner",
          "type": "address"
        }
      ],
      "name": "transferOwnership",
      "outputs": [],
      "stateMutability": "nonpayable",
      "type": "function"
    },
    {
      "inputs": [
        {
          "internalType": "uint256",
          "name": "auctionId",
          "type": "uint256"
        },
        {
          "internalType": "bytes32",
          "name": "price",
          "type": "bytes32"
        }
      ],
      "name": "verifyPrice",
      "outputs": [],
      "stateMutability": "nonpayable",
      "type": "function"
    }
  ],
  "transactionHash": "0x534840e36f1eea81ed2c5a888290d3767ac40a7d6f28da51ebce0ca9f1995efd",
  "args": [],
  "solcInputHash": "4ff325701385710817b8f3360230250e",
  "bytecode": "0x608060405260006007556000600860006101000a81548167ffffffffffffffff021916908367ffffffffffffffff1602179055503480156200004057600080fd5b50600062000053620000f760201b60201c565b9050806000806101000a81548173ffffffffffffffffffffffffffffffffffffffff021916908373ffffffffffffffffffffffffffffffffffffffff1602179055508073ffffffffffffffffffffffffffffffffffffffff16600073ffffffffffffffffffffffffffffffffffffffff167f8be0079c531659141344cd1fd0a4f28419497f9722a3daafe3b4186f6b6457e060405160405180910390a350620000ff565b600033905090565b614fb5806200010f6000396000f3fe608060405234801561001057600080fd5b506004361061012c5760003560e01c8063715018a6116100ad578063cc76310911610071578063cc763109146106f9578063d73792a914610901578063e86dea4a1461091f578063f2fde38b1461093d578063f9f0751a146109815761012c565b8063715018a6146104fe5780637882deaf146105085780637ed18b70146105e55780638da5cb5b146106a7578063a7e76644146106db5761012c565b80633e12905f116100f45780633e12905f1461033057806340b20b091461036857806355fc62d2146103b65780635cefb2911461048857806363c699a4146104b05761012c565b80630b330cd11461013157806315d37b4b1461020257806319a50f49146102445780632199d5cd1461026c5780632b956ff7146102ce575b600080fd5b6101ec600480360361010081101561014857600080fd5b81019080803573ffffffffffffffffffffffffffffffffffffffff169060200190929190803573ffffffffffffffffffffffffffffffffffffffff169060200190929190803590602001909291908035906020019092919080356bffffffffffffffffffffffff16906020019092919080356bffffffffffffffffffffffff16906020019092919080359060200190929190803590602001909291905050506109b9565b6040518082815260200191505060405180910390f35b61022e6004803603602081101561021857600080fd5b8101908080359060200190929190505050610e84565b6040518082815260200191505060405180910390f35b61024c610ede565b604051808267ffffffffffffffff16815260200191505060405180910390f35b6102ae6004803603602081101561028257600080fd5b81019080803573ffffffffffffffffffffffffffffffffffffffff169060200190929190505050610ef8565b604051808267ffffffffffffffff16815260200191505060405180910390f35b610310600480360360208110156102e457600080fd5b81019080803573ffffffffffffffffffffffffffffffffffffffff169060200190929190505050611072565b604051808267ffffffffffffffff16815260200191505060405180910390f35b6103666004803603604081101561034657600080fd5b810190808035906020019092919080359060200190929190505050611107565b005b6103b46004803603604081101561037e57600080fd5b8101908080359060200190929190803573ffffffffffffffffffffffffffffffffffffffff16906020019092919050505061143b565b005b6103e2600480360360208110156103cc57600080fd5b8101908080359060200190929190505050611599565b604051808e73ffffffffffffffffffffffffffffffffffffffff1681526020018d73ffffffffffffffffffffffffffffffffffffffff1681526020018c81526020018b81526020018a8152602001898152602001888152602001878152602001868152602001856bffffffffffffffffffffffff16815260200184815260200183815260200182151581526020019d505050505050505050505050505060405180910390f35b610490611664565b604051808267ffffffffffffffff16815260200191505060405180910390f35b6104e6600480360360408110156104c657600080fd5b81019080803590602001909291908035906020019092919050505061167e565b60405180821515815260200191505060405180910390f35b6105066116ad565b005b6105c86004803603604081101561051e57600080fd5b81019080803590602001909291908035906020019064010000000081111561054557600080fd5b82018360208201111561055757600080fd5b8035906020019184602083028401116401000000008311171561057957600080fd5b919080806020026020016040519081016040528093929190818152602001838360200280828437600081840152601f19601f820116905080830192505050505050509192919290505050611833565b604051808381526020018281526020019250505060405180910390f35b6106a5600480360360408110156105fb57600080fd5b81019080803590602001909291908035906020019064010000000081111561062257600080fd5b82018360208201111561063457600080fd5b8035906020019184602083028401116401000000008311171561065657600080fd5b919080806020026020016040519081016040528093929190818152602001838360200280828437600081840152601f19601f820116905080830192505050505050509192919290505050611e64565b005b6106af6120e8565b604051808273ffffffffffffffffffffffffffffffffffffffff16815260200191505060405180910390f35b6106e3612111565b6040518082815260200191505060405180910390f35b6108e16004803603608081101561070f57600080fd5b81019080803590602001909291908035906020019064010000000081111561073657600080fd5b82018360208201111561074857600080fd5b8035906020019184602083028401116401000000008311171561076a57600080fd5b919080806020026020016040519081016040528093929190818152602001838360200280828437600081840152601f19601f820116905080830192505050505050509192919290803590602001906401000000008111156107ca57600080fd5b8201836020820111156107dc57600080fd5b803590602001918460208302840111640100000000831117156107fe57600080fd5b919080806020026020016040519081016040528093929190818152602001838360200280828437600081840152601f19601f8201169050808301925050505050505091929192908035906020019064010000000081111561085e57600080fd5b82018360208201111561087057600080fd5b8035906020019184602083028401116401000000008311171561089257600080fd5b919080806020026020016040519081016040528093929190818152602001838360200280828437600081840152601f19601f820116905080830192505050505050509192919290505050612117565b604051808267ffffffffffffffff16815260200191505060405180910390f35b61090961251e565b6040518082815260200191505060405180910390f35b610927612524565b6040518082815260200191505060405180910390f35b61097f6004803603602081101561095357600080fd5b81019080803573ffffffffffffffffffffffffffffffffffffffff16906020019092919050505061252a565b005b6109b76004803603604081101561099757600080fd5b810190808035906020019092919080359060200190929190505050612735565b005b6000806109c533611072565b9050610a3e3330610a176103e8610a096109ec6007546103e8612f7590919063ffffffff16565b8c6bffffffffffffffffffffffff16612ffd90919063ffffffff16565b61308390919063ffffffff16565b8d73ffffffffffffffffffffffffffffffffffffffff166130cd909392919063ffffffff16565b6000866bffffffffffffffffffffffff1611610ac2576040517f08c379a000000000000000000000000000000000000000000000000000000000815260040180806020018281038252601a8152602001807f63616e6e6f742061756374696f6e207a65726f20746f6b656e7300000000000081525060200191505060405180910390fd5b6000856bffffffffffffffffffffffff1611610b29576040517f08c379a0000000000000000000000000000000000000000000000000000000008152600401808060200182810382526023815260200180614cc16023913960400191505060405180910390fd5b60008411610b82576040517f08c379a0000000000000000000000000000000000000000000000000000000008152600401808060200182810382526036815260200180614e166036913960400191505060405180910390fd5b600660008154809291906001019190505550610bb160016000600654815260200190815260200160002061318e565b6000884201905060008842019050604051806101a001604052808d73ffffffffffffffffffffffffffffffffffffffff1681526020018c73ffffffffffffffffffffffffffffffffffffffff168152602001838152602001828152602001610c1a858a8c613213565b8152602001878152602001600081526020016000801b81526020016000801b815260200160006bffffffffffffffffffffffff16815260200160075481526020018681526020016000151581525060026000600654815260200190815260200160002060008201518160000160006101000a81548173ffffffffffffffffffffffffffffffffffffffff021916908373ffffffffffffffffffffffffffffffffffffffff16021790555060208201518160010160006101000a81548173ffffffffffffffffffffffffffffffffffffffff021916908373ffffffffffffffffffffffffffffffffffffffff16021790555060408201518160020155606082015181600301556080820151816004015560a0820151816005015560c0820151816006015560e0820151816007015561010082015181600801556101208201518160090160006101000a8154816bffffffffffffffffffffffff02191690836bffffffffffffffffffffffff16021790555061014082015181600a015561016082015181600b015561018082015181600c0160006101000a81548160ff0219169083151502179055509050508a73ffffffffffffffffffffffffffffffffffffffff168c73ffffffffffffffffffffffffffffffffffffffff166006547fa92661149edb0f48f9ae55773e4d477ab8a61006bd5204ff2596fd0f85546d1885858d8d8d8d60405180878152602001868152602001856bffffffffffffffffffffffff168152602001846bffffffffffffffffffffffff168152602001838152602001828152602001965050505050505060405180910390a4600654935050505098975050505050505050565b60004260026000848152602001908152602001600020600301541015610ead5760009050610ed9565b610ed642600260008581526020019081526020016000206003015461325490919063ffffffff16565b90505b919050565b600560009054906101000a900467ffffffffffffffff1681565b6000610f26600560009054906101000a900467ffffffffffffffff1683600361329e9092919063ffffffff16565b610f98576040517f08c379a00000000000000000000000000000000000000000000000000000000081526004018080602001828103825260178152602001807f5573657220616c7265616479207265676973746572656400000000000000000081525060200191505060405180910390fd5b600560009054906101000a900467ffffffffffffffff169050610fed610fe86001600560009054906101000a900467ffffffffffffffff1667ffffffffffffffff16612f7590919063ffffffff16565b6135c4565b600560006101000a81548167ffffffffffffffff021916908367ffffffffffffffff1602179055508173ffffffffffffffffffffffffffffffffffffffff167f6838f67cb358c332087b73dbe769a6c869a5f87225236c16dda5d0013a77074c82604051808267ffffffffffffffff16815260200191505060405180910390a2919050565b600061108882600361362f90919063ffffffff16565b156110a8576110a182600361369c90919063ffffffff16565b9050611102565b6110b182610ef8565b90508173ffffffffffffffffffffffffffffffffffffffff168167ffffffffffffffff167f969d438b19b6b5fb3c0d3c6f16867e519fcec4233799d6be29d1c00f2045ba2660405160405180910390a35b919050565b816000600260008381526020019081526020016000206003015490506000811415801561113357508042115b801561115757506000801b6002600084815260200190815260200160002060080154145b6111ac576040517f08c379a0000000000000000000000000000000000000000000000000000000008152600401808060200182810382526028815260200180614eb66028913960400191505060405180910390fd5b5060006111ce600260008681526020019081526020016000206004015461377b565b925050506000600260008681526020019081526020016000206006015490506000600260008781526020019081526020016000206007015490506000801b81141561121b57600160001b90505b60005b8581101561128d5761124b82600160008a81526020019081526020016000206137a190919063ffffffff16565b915060006112588361377b565b9250505061127d816bffffffffffffffffffffffff1685612f7590919063ffffffff16565b935050808060010191505061121e565b507fffffffffffffffffffffffffffffffffffffffff00000000000000000000000160001b811415611327576040517f08c379a00000000000000000000000000000000000000000000000000000000081526004018080602001828103825260198152602001807f7265616368656420656e64206f66206f72646572206c6973740000000000000081525060200191505060405180910390fd5b6000806113338361377b565b9250925050611367816bffffffffffffffffffffffff16866bffffffffffffffffffffffff16612ffd90919063ffffffff16565b611388836bffffffffffffffffffffffff1686612ffd90919063ffffffff16565b106113fb576040517f08c379a00000000000000000000000000000000000000000000000000000000081526004018080602001828103825260198152602001807f746f6f206d616e79206f72646572732073756d6d65642075700000000000000081525060200191505060405180910390fd5b83600260008a81526020019081526020016000206006018190555082600260008a8152602001908152602001600020600701819055505050505050505050565b61144361389f565b73ffffffffffffffffffffffffffffffffffffffff1660008054906101000a900473ffffffffffffffffffffffffffffffffffffffff1673ffffffffffffffffffffffffffffffffffffffff1614611503576040517f08c379a00000000000000000000000000000000000000000000000000000000081526004018080602001828103825260208152602001807f4f776e61626c653a2063616c6c6572206973206e6f7420746865206f776e657281525060200191505060405180910390fd5b600f82111561155d576040517f08c379a000000000000000000000000000000000000000000000000000000000815260040180806020018281038252602d815260200180614d8e602d913960400191505060405180910390fd5b61156681611072565b600860006101000a81548167ffffffffffffffff021916908367ffffffffffffffff160217905550816007819055505050565b60026020528060005260406000206000915090508060000160009054906101000a900473ffffffffffffffffffffffffffffffffffffffff16908060010160009054906101000a900473ffffffffffffffffffffffffffffffffffffffff16908060020154908060030154908060040154908060050154908060060154908060070154908060080154908060090160009054906101000a90046bffffffffffffffffffffffff169080600a01549080600b01549080600c0160009054906101000a900460ff1690508d565b600860009054906101000a900467ffffffffffffffff1681565b60006116a582600160008681526020019081526020016000206138a790919063ffffffff16565b905092915050565b6116b561389f565b73ffffffffffffffffffffffffffffffffffffffff1660008054906101000a900473ffffffffffffffffffffffffffffffffffffffff1673ffffffffffffffffffffffffffffffffffffffff1614611775576040517f08c379a00000000000000000000000000000000000000000000000000000000081526004018080602001828103825260208152602001807f4f776e61626c653a2063616c6c6572206973206e6f7420746865206f776e657281525060200191505060405180910390fd5b600073ffffffffffffffffffffffffffffffffffffffff1660008054906101000a900473ffffffffffffffffffffffffffffffffffffffff1673ffffffffffffffffffffffffffffffffffffffff167f8be0079c531659141344cd1fd0a4f28419497f9722a3daafe3b4186f6b6457e060405160405180910390a360008060006101000a81548173ffffffffffffffffffffffffffffffffffffffff021916908373ffffffffffffffffffffffffffffffffffffffff160217905550565b600080836000801b600260008381526020019081526020016000206008015414156118c6576040517f08c379a00000000000000000000000000000000000000000000000000000000081526004018080602001828103825260188152602001807f41756374696f6e206e6f74207965742066696e6973686564000000000000000081525060200191505060405180910390fd5b60005b84518110156119895761190a8582815181106118e157fe5b6020026020010151600160008981526020019081526020016000206138e390919063ffffffff16565b61197c576040517f08c379a000000000000000000000000000000000000000000000000000000000815260040180806020018281038252601c8152602001807f6f72646572206973206e6f206c6f6e67657220636c61696d61626c650000000081525060200191505060405180910390fd5b80806001019150506118c9565b50611992614ba4565b60026000878152602001908152602001600020604051806101a00160405290816000820160009054906101000a900473ffffffffffffffffffffffffffffffffffffffff1673ffffffffffffffffffffffffffffffffffffffff1673ffffffffffffffffffffffffffffffffffffffff1681526020016001820160009054906101000a900473ffffffffffffffffffffffffffffffffffffffff1673ffffffffffffffffffffffffffffffffffffffff1673ffffffffffffffffffffffffffffffffffffffff168152602001600282015481526020016003820154815260200160048201548152602001600582015481526020016006820154815260200160078201548152602001600882015481526020016009820160009054906101000a90046bffffffffffffffffffffffff166bffffffffffffffffffffffff166bffffffffffffffffffffffff168152602001600a8201548152602001600b8201548152602001600c820160009054906101000a900460ff1615151515815250509050600080611b2383610100015161377b565b92509250506000611b4788600081518110611b3a57fe5b602002602001015161377b565b505090506000600260008b8152602001908152602001600020600c0160009054906101000a900460ff16905060005b8951811015611e4a576000806000611ba08d8581518110611b9357fe5b602002602001015161377b565b9250925092508567ffffffffffffffff168367ffffffffffffffff1614611c12576040517f08c379a0000000000000000000000000000000000000000000000000000000008152600401808060200182810382526023815260200180614e936023913960400191505060405180910390fd5b8415611c4057611c39816bffffffffffffffffffffffff168c612f7590919063ffffffff16565b9a50611dd3565b8861010001518d8581518110611c5257fe5b60200260200101511415611d1557611cc6611cb7886bffffffffffffffffffffffff16611ca98b6bffffffffffffffffffffffff168d61012001516bffffffffffffffffffffffff16612ffd90919063ffffffff16565b61308390919063ffffffff16565b8d612f7590919063ffffffff16565b9b50611d0e611cff8a61012001516bffffffffffffffffffffffff16836bffffffffffffffffffffffff1661325490919063ffffffff16565b8c612f7590919063ffffffff16565b9a50611dd2565b611d408961010001518e8681518110611d2a57fe5b602002602001015161392090919063ffffffff16565b15611dad57611da6611d97886bffffffffffffffffffffffff16611d898b6bffffffffffffffffffffffff16856bffffffffffffffffffffffff16612ffd90919063ffffffff16565b61308390919063ffffffff16565b8d612f7590919063ffffffff16565b9b50611dd1565b611dce816bffffffffffffffffffffffff168c612f7590919063ffffffff16565b9a505b5b5b8567ffffffffffffffff168e7f3f2c83616e48a2f8b3c9cc26499e2e5c61643714dac49027d82cf6732f96a91a848460405180836bffffffffffffffffffffffff168152602001826bffffffffffffffffffffffff1681526020019250505060405180910390a35050508080600101915050611b76565b50611e578a898985613ad8565b5050505050509250929050565b81600260008281526020019081526020016000206003015442108015611e9f5750600260008281526020019081526020016000206002015442105b611ef4576040517f08c379a0000000000000000000000000000000000000000000000000000000008152600401808060200182810382526032815260200180614d146032913960400191505060405180910390fd5b6000611eff33611072565b90506000805b845181101561207f576000611f48868381518110611f1f57fe5b6020026020010151600160008a8152602001908152602001600020613bcd90919063ffffffff16565b90508015612071576000806000611f71898681518110611f6457fe5b602002602001015161377b565b9250925092508667ffffffffffffffff168367ffffffffffffffff1614611fe3576040517f08c379a0000000000000000000000000000000000000000000000000000000008152600401808060200182810382526023815260200180614c786023913960400191505060405180910390fd5b612004816bffffffffffffffffffffffff1687612f7590919063ffffffff16565b95508667ffffffffffffffff168a7f7edae327fe79804b2f38bd490d874a0d188d3ae8911b303205abe47400086ac4848460405180836bffffffffffffffffffffffff168152602001826bffffffffffffffffffffffff1681526020019250505060405180910390a35050505b508080600101915050611f05565b506120e133826002600089815260200190815260200160002060010160009054906101000a900473ffffffffffffffffffffffffffffffffffffffff1673ffffffffffffffffffffffffffffffffffffffff16613c789092919063ffffffff16565b5050505050565b60008060009054906101000a900473ffffffffffffffffffffffffffffffffffffffff16905090565b60065481565b60008460026000828152602001908152602001600020600301544210612188576040517f08c379a0000000000000000000000000000000000000000000000000000000008152600401808060200182810382526022815260200180614f5e6022913960400191505060405180910390fd5b6000806121aa600260008a81526020019081526020016000206004015461377b565b925092505060005b875181101561234e576121fd8782815181106121ca57fe5b60200260200101516bffffffffffffffffffffffff16836bffffffffffffffffffffffff16612ffd90919063ffffffff16565b61223f846bffffffffffffffffffffffff168a848151811061221b57fe5b60200260200101516bffffffffffffffffffffffff16612ffd90919063ffffffff16565b10612295576040517f08c379a0000000000000000000000000000000000000000000000000000000008152600401808060200182810382526029815260200180614f0b6029913960400191505060405180910390fd5b600260008a8152602001908152602001600020600501548782815181106122b857fe5b60200260200101516bffffffffffffffffffffffff1611612341576040517f08c379a000000000000000000000000000000000000000000000000000000000815260040180806020018281038252600f8152602001807f6f7264657220746f6f20736d616c6c000000000000000000000000000000000081525060200191505060405180910390fd5b80806001019150506121b2565b505050600061235c33611072565b925060005b86518110156124b05760006123d66123a0868a858151811061237f57fe5b60200260200101518a868151811061239357fe5b6020026020010151613213565b8784815181106123ac57fe5b6020026020010151600160008d8152602001908152602001600020613d1a9092919063ffffffff16565b905080156124a2576124128783815181106123ed57fe5b60200260200101516bffffffffffffffffffffffff1684612f7590919063ffffffff16565b92508467ffffffffffffffff16897f9304f2fc7ed6d42c0400e678dbc7283e1e9054889c3afea5f965adff66ef9eac8a858151811061244d57fe5b60200260200101518a868151811061246157fe5b602002602001015160405180836bffffffffffffffffffffffff168152602001826bffffffffffffffffffffffff1681526020019250505060405180910390a35b508080600101915050612361565b50612514333083600260008c815260200190815260200160002060010160009054906101000a900473ffffffffffffffffffffffffffffffffffffffff1673ffffffffffffffffffffffffffffffffffffffff166130cd909392919063ffffffff16565b5050949350505050565b6103e881565b60075481565b61253261389f565b73ffffffffffffffffffffffffffffffffffffffff1660008054906101000a900473ffffffffffffffffffffffffffffffffffffffff1673ffffffffffffffffffffffffffffffffffffffff16146125f2576040517f08c379a00000000000000000000000000000000000000000000000000000000081526004018080602001828103825260208152602001807f4f776e61626c653a2063616c6c6572206973206e6f7420746865206f776e657281525060200191505060405180910390fd5b600073ffffffffffffffffffffffffffffffffffffffff168173ffffffffffffffffffffffffffffffffffffffff161415612678576040517f08c379a0000000000000000000000000000000000000000000000000000000008152600401808060200182810382526026815260200180614c9b6026913960400191505060405180910390fd5b8073ffffffffffffffffffffffffffffffffffffffff1660008054906101000a900473ffffffffffffffffffffffffffffffffffffffff1673ffffffffffffffffffffffffffffffffffffffff167f8be0079c531659141344cd1fd0a4f28419497f9722a3daafe3b4186f6b6457e060405160405180910390a3806000806101000a81548173ffffffffffffffffffffffffffffffffffffffff021916908373ffffffffffffffffffffffffffffffffffffffff16021790555050565b816000600260008381526020019081526020016000206003015490506000811415801561276157508042115b801561278557506000801b6002600084815260200190815260200160002060080154145b6127da576040517f08c379a0000000000000000000000000000000000000000000000000000000008152600401808060200182810382526028815260200180614eb66028913960400191505060405180910390fd5b506000806127e78461377b565b92509250506000806000612810600260008a81526020019081526020016000206004015461377b565b9250925092506000856bffffffffffffffffffffffff161161289a576040517f08c379a00000000000000000000000000000000000000000000000000000000081526004018080602001828103825260158152602001807f7072696365206d75737420626520706f7374697665000000000000000000000081525060200191505060405180910390fd5b6000600260008a81526020019081526020016000206006015490506000600260008b81526020019081526020016000206007015490506000801b8114156128e357600160001b90505b6128fe600160008c8152602001908152602001600020613fc8565b6129ae5761292781600160008d81526020019081526020016000206137a190919063ffffffff16565b90505b8881141580156129495750612948898261392090919063ffffffff16565b5b156129ad5760006129598261377b565b9250505061297e816bffffffffffffffffffffffff1684612f7590919063ffffffff16565b92506129a582600160008e81526020019081526020016000206137a190919063ffffffff16565b91505061292a565b5b60006129f1876bffffffffffffffffffffffff166129e38a6bffffffffffffffffffffffff1686612ffd90919063ffffffff16565b61308390919063ffffffff16565b9050818a1415612bef576000612a068361377b565b925050506000612a2d83876bffffffffffffffffffffffff1661325490919063ffffffff16565b9050612a78612a738b6bffffffffffffffffffffffff16612a658c6bffffffffffffffffffffffff1685612ffd90919063ffffffff16565b61308390919063ffffffff16565b614010565b600260008f815260200190815260200160002060090160006101000a8154816bffffffffffffffffffffffff02191690836bffffffffffffffffffffffff160217905550612b0b600260008f815260200190815260200160002060090160009054906101000a90046bffffffffffffffffffffffff166bffffffffffffffffffffffff1684612f7590919063ffffffff16565b9250816bffffffffffffffffffffffff16600260008f815260200190815260200160002060090160009054906101000a90046bffffffffffffffffffffffff166bffffffffffffffffffffffff161115612bcd576040517f08c379a000000000000000000000000000000000000000000000000000000000815260040180806020018281038252601f8152602001807f6f726465722063616e206e6f7420626520636c656172696e67206f726465720081525060200191505060405180910390fd5b83600260008f8152602001908152602001600020600801819055505050612e85565b836bffffffffffffffffffffffff16811015612d3057612c34876bffffffffffffffffffffffff16856bffffffffffffffffffffffff16612ffd90919063ffffffff16565b612c63866bffffffffffffffffffffffff168a6bffffffffffffffffffffffff16612ffd90919063ffffffff16565b14612cb9576040517f08c379a0000000000000000000000000000000000000000000000000000000008152600401808060200182810382526030815260200180614ce46030913960400191505060405180910390fd5b612cc281614010565b600260008d815260200190815260200160002060090160006101000a8154816bffffffffffffffffffffffff02191690836bffffffffffffffffffffffff160217905550612d11868989613213565b600260008d815260200190815260200160002060080181905550612e84565b89600260008d815260200190815260200160002060080181905550836bffffffffffffffffffffffff168114612dce576040517f08c379a000000000000000000000000000000000000000000000000000000000815260040180806020018281038252601b8152602001807f7072696365206973206e6f7420636c656172696e67207072696365000000000081525060200191505060405180910390fd5b612dfd876bffffffffffffffffffffffff16856bffffffffffffffffffffffff16612ffd90919063ffffffff16565b612e2c866bffffffffffffffffffffffff168a6bffffffffffffffffffffffff16612ffd90919063ffffffff16565b1115612e83576040517f08c379a0000000000000000000000000000000000000000000000000000000008152600401808060200182810382526031815260200180614dbb6031913960400191505060405180910390fd5b5b5b80600260008d8152602001908152602001600020600b01541115612ed7576001600260008d8152602001908152602001600020600c0160006101000a81548160ff021916908315150217905550612f01565b6000600260008d8152602001908152602001600020600a01541115612f0057612eff8b61407f565b5b5b612f0a8b6142cb565b50508a7f8e633245b93c41d24c82377f869edd0ac49ea9084bb0fa0265125a7b1df7fc95898960405180836bffffffffffffffffffffffff168152602001826bffffffffffffffffffffffff1681526020019250505060405180910390a25050505050505050505050565b600080828401905083811015612ff3576040517f08c379a000000000000000000000000000000000000000000000000000000000815260040180806020018281038252601b8152602001807f536166654d6174683a206164646974696f6e206f766572666c6f77000000000081525060200191505060405180910390fd5b8091505092915050565b600080831415613010576000905061307d565b600082840290508284828161302157fe5b0414613078576040517f08c379a0000000000000000000000000000000000000000000000000000000008152600401808060200182810382526021815260200180614e4c6021913960400191505060405180910390fd5b809150505b92915050565b60006130c583836040518060400160405280601a81526020017f536166654d6174683a206469766973696f6e206279207a65726f000000000000815250614536565b905092915050565b613188846323b872dd60e01b858585604051602401808473ffffffffffffffffffffffffffffffffffffffff1681526020018373ffffffffffffffffffffffffffffffffffffffff1681526020018281526020019350505050604051602081830303815290604052907bffffffffffffffffffffffffffffffffffffffffffffffffffffffff19166020820180517bffffffffffffffffffffffffffffffffffffffffffffffffffffffff83818316178352505050506145fc565b50505050565b7fffffffffffffffffffffffffffffffffffffffff00000000000000000000000160001b816000016000600160001b815260200190815260200160002081905550600160001b8160010160007fffffffffffffffffffffffffffffffffffffffff00000000000000000000000160001b81526020019081526020016000208190555050565b6000816bffffffffffffffffffffffff166060846bffffffffffffffffffffffff16901b60c08667ffffffffffffffff16901b010160001b90509392505050565b600061329683836040518060400160405280601e81526020017f536166654d6174683a207375627472616374696f6e206f766572666c6f7700008152506146eb565b905092915050565b60008073ffffffffffffffffffffffffffffffffffffffff168273ffffffffffffffffffffffffffffffffffffffff161415613342576040517f08c379a000000000000000000000000000000000000000000000000000000000815260040180806020018281038252601a8152602001807f43616e6e6f7420696e73657274207a65726f206164647265737300000000000081525060200191505060405180910390fd5b7fffffffffffffffffffffffffffffffffffffffffffffffffffffffffffffffff67ffffffffffffffff168367ffffffffffffffff1614156133ec576040517f08c379a00000000000000000000000000000000000000000000000000000000081526004018080602001828103825260188152602001807f43616e6e6f7420696e73657274206d61782075696e743634000000000000000081525060200191505060405180910390fd5b60008460010160008473ffffffffffffffffffffffffffffffffffffffff1673ffffffffffffffffffffffffffffffffffffffff16815260200190815260200160002060009054906101000a900467ffffffffffffffff1667ffffffffffffffff161415806134d45750600073ffffffffffffffffffffffffffffffffffffffff168460000160006001860167ffffffffffffffff1667ffffffffffffffff16815260200190815260200160002060009054906101000a900473ffffffffffffffffffffffffffffffffffffffff1673ffffffffffffffffffffffffffffffffffffffff1614155b156134e257600090506135bd565b818460000160006001860167ffffffffffffffff1667ffffffffffffffff16815260200190815260200160002060006101000a81548173ffffffffffffffffffffffffffffffffffffffff021916908373ffffffffffffffffffffffffffffffffffffffff160217905550600183018460010160008473ffffffffffffffffffffffffffffffffffffffff1673ffffffffffffffffffffffffffffffffffffffff16815260200190815260200160002060006101000a81548167ffffffffffffffff021916908367ffffffffffffffff160217905550600190505b9392505050565b6000680100000000000000008210613627576040517f08c379a0000000000000000000000000000000000000000000000000000000008152600401808060200182810382526026815260200180614e6d6026913960400191505060405180910390fd5b819050919050565b6000808360010160008473ffffffffffffffffffffffffffffffffffffffff1673ffffffffffffffffffffffffffffffffffffffff16815260200190815260200160002060009054906101000a900467ffffffffffffffff1667ffffffffffffffff161415905092915050565b60006136a8838361362f565b61371a576040517f08c379a000000000000000000000000000000000000000000000000000000000815260040180806020018281038252601b8152602001807f4d7573742068617665204164647265737320746f20676574204944000000000081525060200191505060405180910390fd5b60018360010160008473ffffffffffffffffffffffffffffffffffffffff1673ffffffffffffffffffffffffffffffffffffffff16815260200190815260200160002060009054906101000a900467ffffffffffffffff1603905092915050565b600080600060c08460001c901c925060608460001c901c91508360001c90509193909250565b60007fffffffffffffffffffffffffffffffffffffffff00000000000000000000000160001b82141561381f576040517f08c379a0000000000000000000000000000000000000000000000000000000008152600401808060200182810382526022815260200180614d466022913960400191505060405180910390fd5b60008360000160008481526020019081526020016000205490506000801b811415613895576040517f08c379a000000000000000000000000000000000000000000000000000000000815260040180806020018281038252602a815260200180614dec602a913960400191505060405180910390fd5b8091505092915050565b600033905090565b6000600160001b8214156138be57600090506138dd565b6000801b83600001600084815260200190815260200160002054141590505b92915050565b6000806138f08484613bcd565b90508015613916576000801b846001016000858152602001908152602001600020819055505b8091505092915050565b60008060008061392f8661377b565b92509250925060008060006139438861377b565b925092509250613978846bffffffffffffffffffffffff16836bffffffffffffffffffffffff16612ffd90919063ffffffff16565b6139a7826bffffffffffffffffffffffff16876bffffffffffffffffffffffff16612ffd90919063ffffffff16565b10156139bc5760019650505050505050613ad2565b6139eb846bffffffffffffffffffffffff16836bffffffffffffffffffffffff16612ffd90919063ffffffff16565b613a1a826bffffffffffffffffffffffff16876bffffffffffffffffffffffff16612ffd90919063ffffffff16565b1115613a2f5760009650505050505050613ad2565b8267ffffffffffffffff168667ffffffffffffffff161415613a9c576040517f08c379a000000000000000000000000000000000000000000000000000000000815260040180806020018281038252602d815260200180614ede602d913960400191505060405180910390fd5b8267ffffffffffffffff168667ffffffffffffffff161015613ac75760019650505050505050613ad2565b600096505050505050505b92915050565b6000613aee8260036147ab90919063ffffffff16565b90506000841115613b5b57613b5a81856002600089815260200190815260200160002060000160009054906101000a900473ffffffffffffffffffffffffffffffffffffffff1673ffffffffffffffffffffffffffffffffffffffff16613c789092919063ffffffff16565b5b6000831115613bc657613bc581846002600089815260200190815260200160002060010160009054906101000a900473ffffffffffffffffffffffffffffffffffffffff1673ffffffffffffffffffffffffffffffffffffffff16613c789092919063ffffffff16565b5b5050505050565b6000613bd983836138a7565b613be65760009050613c72565b60008360010160008481526020019081526020016000205490506000846000016000858152602001908152602001600020549050808560000160008481526020019081526020016000208190555081856001016000838152602001908152602001600020819055506000801b856000016000868152602001908152602001600020819055506001925050505b92915050565b613d158363a9059cbb60e01b8484604051602401808373ffffffffffffffffffffffffffffffffffffffff16815260200182815260200192505050604051602081830303815290604052907bffffffffffffffffffffffffffffffffffffffffffffffffffffffff19166020820180517bffffffffffffffffffffffffffffffffffffffffffffffffffffffff83818316178352505050506145fc565b505050565b600080613d268461377b565b9250505060006bffffffffffffffffffffffff16816bffffffffffffffffffffffff161415613dbd576040517f08c379a000000000000000000000000000000000000000000000000000000000815260040180806020018281038252601f8152602001807f496e73657274696e67207a65726f206973206e6f7420737570706f727465640081525060200191505060405180910390fd5b600160001b8414158015613df457507fffffffffffffffffffffffffffffffffffffffff00000000000000000000000160001b8414155b613e66576040517f08c379a000000000000000000000000000000000000000000000000000000000815260040180806020018281038252601e8152602001807f496e73657274696e6720656c656d656e74206973206e6f742076616c6964000081525060200191505060405180910390fd5b613e7085856138a7565b15613e7f576000915050613fc1565b600160001b8314158015613eaa57506000801b85600101600085815260200190815260200160002054145b15613eb9576000915050613fc1565b613ecc848461392090919063ffffffff16565b613eda576000915050613fc1565b5b6000801b856000016000858152602001908152602001600020541415613f1857846001016000848152602001908152602001600020549250613edb565b6000808490505b809150866000016000828152602001908152602001600020549050613f4d868261392090919063ffffffff16565b613f1f578587600001600084815260200190815260200160002081905550858760010160008381526020019081526020016000208190555081876001016000888152602001908152602001600020819055508087600001600088815260200190815260200160002081905550600193505050505b9392505050565b60007fffffffffffffffffffffffffffffffffffffffff00000000000000000000000160001b826000016000600160001b815260200190815260200160002054149050919050565b60006c010000000000000000000000008210614077576040517f08c379a0000000000000000000000000000000000000000000000000000000008152600401808060200182810382526026815260200180614c526026913960400191505060405180910390fd5b819050919050565b60008060006140a3600260008681526020019081526020016000206004015461377b565b9250925092506000806140cb600260008881526020019081526020016000206008015461377b565b9250925050600061411d6103e861410f600260008b8152602001908152602001600020600a0154876bffffffffffffffffffffffff16612ffd90919063ffffffff16565b61308390919063ffffffff16565b905061414e846bffffffffffffffffffffffff16836bffffffffffffffffffffffff16612ffd90919063ffffffff16565b61417d866bffffffffffffffffffffffff16856bffffffffffffffffffffffff16612ffd90919063ffffffff16565b141561429e5760006141e2600260008a815260200190815260200160002060090160009054906101000a90046bffffffffffffffffffffffff166bffffffffffffffffffffffff16866bffffffffffffffffffffffff1661325490919063ffffffff16565b90506142398861421b876bffffffffffffffffffffffff1661420d8587612ffd90919063ffffffff16565b61308390919063ffffffff16565b6000600860009054906101000a900467ffffffffffffffff16613ad8565b61429888614290876bffffffffffffffffffffffff16614282614273868b6bffffffffffffffffffffffff1661325490919063ffffffff16565b87612ffd90919063ffffffff16565b61308390919063ffffffff16565b60008a613ad8565b506142c2565b6142c187826000600860009054906101000a900467ffffffffffffffff16613ad8565b5b50505050505050565b60008060008060006142f2600260008881526020019081526020016000206004015461377b565b92509250925060026000878152602001908152602001600020600c0160009054906101000a900460ff16156143415761433c86826bffffffffffffffffffffffff16600086613ad8565b61452e565b6000801b6002600088815260200190815260200160002060040181905550600080614381600260008a81526020019081526020016000206008015461377b565b92509250506143b5836bffffffffffffffffffffffff16826bffffffffffffffffffffffff16612ffd90919063ffffffff16565b6143e4856bffffffffffffffffffffffff16846bffffffffffffffffffffffff16612ffd90919063ffffffff16565b14156144cd57614447600260008a815260200190815260200160002060090160009054906101000a90046bffffffffffffffffffffffff166bffffffffffffffffffffffff16846bffffffffffffffffffffffff1661325490919063ffffffff16565b96506144c6826bffffffffffffffffffffffff166144b8836bffffffffffffffffffffffff16600260008d815260200190815260200160002060090160009054906101000a90046bffffffffffffffffffffffff166bffffffffffffffffffffffff16612ffd90919063ffffffff16565b61308390919063ffffffff16565b955061451f565b61451c826bffffffffffffffffffffffff1661450e836bffffffffffffffffffffffff16866bffffffffffffffffffffffff16612ffd90919063ffffffff16565b61308390919063ffffffff16565b95505b61452b88888888613ad8565b50505b505050915091565b600080831182906145e2576040517f08c379a00000000000000000000000000000000000000000000000000000000081526004018080602001828103825283818151815260200191508051906020019080838360005b838110156145a757808201518184015260208101905061458c565b50505050905090810190601f1680156145d45780820380516001836020036101000a031916815260200191505b509250505060405180910390fd5b5060008385816145ee57fe5b049050809150509392505050565b606061465e826040518060400160405280602081526020017f5361666545524332303a206c6f772d6c6576656c2063616c6c206661696c65648152508573ffffffffffffffffffffffffffffffffffffffff1661487e9092919063ffffffff16565b90506000815111156146e65780806020019051602081101561467f57600080fd5b81019080805190602001909291905050506146e5576040517f08c379a000000000000000000000000000000000000000000000000000000000815260040180806020018281038252602a815260200180614f34602a913960400191505060405180910390fd5b5b505050565b6000838311158290614798576040517f08c379a00000000000000000000000000000000000000000000000000000000081526004018080602001828103825283818151815260200191508051906020019080838360005b8381101561475d578082015181840152602081019050614742565b50505050905090810190601f16801561478a5780820380516001836020036101000a031916815260200191505b509250505060405180910390fd5b5060008385039050809150509392505050565b60006147b78383614896565b614829576040517f08c379a000000000000000000000000000000000000000000000000000000000815260040180806020018281038252601b8152602001807f4d757374206861766520494420746f206765742041646472657373000000000081525060200191505060405180910390fd5b8260000160006001840167ffffffffffffffff1667ffffffffffffffff16815260200190815260200160002060009054906101000a900473ffffffffffffffffffffffffffffffffffffffff16905092915050565b606061488d848460008561491c565b90509392505050565b60008073ffffffffffffffffffffffffffffffffffffffff168360000160006001850167ffffffffffffffff1667ffffffffffffffff16815260200190815260200160002060009054906101000a900473ffffffffffffffffffffffffffffffffffffffff1673ffffffffffffffffffffffffffffffffffffffff161415905092915050565b606082471015614977576040517f08c379a0000000000000000000000000000000000000000000000000000000008152600401808060200182810382526026815260200180614d686026913960400191505060405180910390fd5b61498085614ac5565b6149f2576040517f08c379a000000000000000000000000000000000000000000000000000000000815260040180806020018281038252601d8152602001807f416464726573733a2063616c6c20746f206e6f6e2d636f6e747261637400000081525060200191505060405180910390fd5b600060608673ffffffffffffffffffffffffffffffffffffffff1685876040518082805190602001908083835b60208310614a425780518252602082019150602081019050602083039250614a1f565b6001836020036101000a03801982511681845116808217855250505050505090500191505060006040518083038185875af1925050503d8060008114614aa4576040519150601f19603f3d011682016040523d82523d6000602084013e614aa9565b606091505b5091509150614ab9828286614ad8565b92505050949350505050565b600080823b905060008111915050919050565b60608315614ae857829050614b9d565b600083511115614afb5782518084602001fd5b816040517f08c379a00000000000000000000000000000000000000000000000000000000081526004018080602001828103825283818151815260200191508051906020019080838360005b83811015614b62578082015181840152602081019050614b47565b50505050905090810190601f168015614b8f5780820380516001836020036101000a031916815260200191505b509250505060405180910390fd5b9392505050565b604051806101a00160405280600073ffffffffffffffffffffffffffffffffffffffff168152602001600073ffffffffffffffffffffffffffffffffffffffff1681526020016000815260200160008152602001600080191681526020016000815260200160008152602001600080191681526020016000801916815260200160006bffffffffffffffffffffffff1681526020016000815260200160008152602001600015158152509056fe53616665436173743a2076616c756520646f65736e27742066697420696e20393620626974734f6e6c792074686520757365722063616e2063616e63656c20686973206f72646572734f776e61626c653a206e6577206f776e657220697320746865207a65726f2061646472657373746f6b656e732063616e6e6f742062652061756374696f6e656420666f722066726565737570706c696564207072696365206d75737420626520696e766572736520696e697469616c4f726465724c696d69746e6f206c6f6e67657220696e206f7264657220706c6163656d656e7420616e642063616e63656c6174696f6e207068617365547279696e6720746f20676574206e657874206f66206c61737420656c656d656e74416464726573733a20696e73756666696369656e742062616c616e636520666f722063616c6c466565206973206e6f7420616c6c6f77656420746f2062652073657420686967686572207468616e20312e3525636c656172696e6720707269636520697320626574746572207468616e20696e697469616c41756374696f6e4f72646572547279696e6720746f20676574206e657874206f66206e6f6e2d6578697374656e7420656c656d656e746d696e696d756d42696464696e67416d6f756e745065724f72646572206973206e6f7420616c6c6f77656420746f206265207a65726f536166654d6174683a206d756c7469706c69636174696f6e206f766572666c6f7753616665436173743a2076616c756520646f65736e27742066697420696e20363420626974736f6e6c7920616c6c6f77656420746f20636c61696d20666f722073616d65207573657241756374696f6e206e6f7420696e20736f6c7574696f6e207375626d697373696f6e20706861736575736572206973206e6f7420616c6c6f77656420746f20706c6163652073616d65206f726465722074776963656c696d6974207072696365206e6f7420626574746572207468616e206d696d696d616c206f666665725361666545524332303a204552433230206f7065726174696f6e20646964206e6f7420737563636565646e6f206c6f6e67657220696e206f7264657220706c6163656d656e74207068617365a26469706673582212208d07ae8d1ac964241d48ed8dcac5a579f95f79e7e30e4a3504aac51e7cb9209864736f6c634300060c0033",
  "devdoc": {
    "kind": "dev",
    "methods": {
      "owner()": {
        "details": "Returns the address of the current owner."
      },
      "renounceOwnership()": {
        "details": "Leaves the contract without owner. It will not be possible to call `onlyOwner` functions anymore. Can only be called by the current owner. NOTE: Renouncing ownership will leave the contract without an owner, thereby removing any functionality that is only available to the owner."
      },
      "transferOwnership(address)": {
        "details": "Transfers ownership of the contract to a new account (`newOwner`). Can only be called by the current owner."
      }
    },
    "version": 1
  },
  "userdoc": {
    "kind": "user",
    "methods": {},
    "version": 1
  },
  "storageLayout": {
    "storage": [
      {
        "astId": 30,
        "contract": "contracts/EasyAuction.sol:EasyAuction",
        "label": "_owner",
        "offset": 0,
        "slot": "0",
        "type": "t_address"
      },
      {
        "astId": 1169,
        "contract": "contracts/EasyAuction.sol:EasyAuction",
        "label": "sellOrders",
        "offset": 0,
        "slot": "1",
        "type": "t_mapping(t_uint256,t_struct(Data)2791_storage)"
      },
      {
        "astId": 1173,
        "contract": "contracts/EasyAuction.sol:EasyAuction",
        "label": "auctionData",
        "offset": 0,
        "slot": "2",
        "type": "t_mapping(t_uint256,t_struct(AuctionData)1165_storage)"
      },
      {
        "astId": 1175,
        "contract": "contracts/EasyAuction.sol:EasyAuction",
        "label": "registeredUsers",
        "offset": 0,
        "slot": "3",
        "type": "t_struct(Data)2600_storage"
      },
      {
        "astId": 1177,
        "contract": "contracts/EasyAuction.sol:EasyAuction",
        "label": "numUsers",
        "offset": 0,
        "slot": "5",
        "type": "t_uint64"
      },
      {
        "astId": 1179,
        "contract": "contracts/EasyAuction.sol:EasyAuction",
        "label": "auctionCounter",
        "offset": 0,
        "slot": "6",
        "type": "t_uint256"
      },
      {
        "astId": 1188,
        "contract": "contracts/EasyAuction.sol:EasyAuction",
        "label": "feeNumerator",
        "offset": 0,
        "slot": "7",
        "type": "t_uint256"
      },
      {
        "astId": 1194,
        "contract": "contracts/EasyAuction.sol:EasyAuction",
        "label": "feeReceiverUserId",
        "offset": 0,
        "slot": "8",
        "type": "t_uint64"
      }
    ],
    "types": {
      "t_address": {
        "encoding": "inplace",
        "label": "address",
        "numberOfBytes": "20"
      },
      "t_bool": {
        "encoding": "inplace",
        "label": "bool",
        "numberOfBytes": "1"
      },
      "t_bytes32": {
        "encoding": "inplace",
        "label": "bytes32",
        "numberOfBytes": "32"
      },
      "t_contract(IERC20)478": {
        "encoding": "inplace",
        "label": "contract IERC20",
        "numberOfBytes": "20"
      },
      "t_mapping(t_address,t_uint64)": {
        "encoding": "mapping",
        "key": "t_address",
        "label": "mapping(address => uint64)",
        "numberOfBytes": "32",
        "value": "t_uint64"
      },
      "t_mapping(t_bytes32,t_bytes32)": {
        "encoding": "mapping",
        "key": "t_bytes32",
        "label": "mapping(bytes32 => bytes32)",
        "numberOfBytes": "32",
        "value": "t_bytes32"
      },
      "t_mapping(t_uint256,t_struct(AuctionData)1165_storage)": {
        "encoding": "mapping",
        "key": "t_uint256",
        "label": "mapping(uint256 => struct EasyAuction.AuctionData)",
        "numberOfBytes": "32",
        "value": "t_struct(AuctionData)1165_storage"
      },
      "t_mapping(t_uint256,t_struct(Data)2791_storage)": {
        "encoding": "mapping",
        "key": "t_uint256",
        "label": "mapping(uint256 => struct IterableOrderedOrderSet.Data)",
        "numberOfBytes": "32",
        "value": "t_struct(Data)2791_storage"
      },
      "t_mapping(t_uint64,t_address)": {
        "encoding": "mapping",
        "key": "t_uint64",
        "label": "mapping(uint64 => address)",
        "numberOfBytes": "32",
        "value": "t_address"
      },
      "t_struct(AuctionData)1165_storage": {
        "encoding": "inplace",
        "label": "struct EasyAuction.AuctionData",
        "members": [
          {
            "astId": 1140,
            "contract": "contracts/EasyAuction.sol:EasyAuction",
            "label": "auctioningToken",
            "offset": 0,
            "slot": "0",
            "type": "t_contract(IERC20)478"
          },
          {
            "astId": 1142,
            "contract": "contracts/EasyAuction.sol:EasyAuction",
            "label": "biddingToken",
            "offset": 0,
            "slot": "1",
            "type": "t_contract(IERC20)478"
          },
          {
            "astId": 1144,
            "contract": "contracts/EasyAuction.sol:EasyAuction",
            "label": "orderCancellationEndDate",
            "offset": 0,
            "slot": "2",
            "type": "t_uint256"
          },
          {
            "astId": 1146,
            "contract": "contracts/EasyAuction.sol:EasyAuction",
            "label": "auctionEndDate",
            "offset": 0,
            "slot": "3",
            "type": "t_uint256"
          },
          {
            "astId": 1148,
            "contract": "contracts/EasyAuction.sol:EasyAuction",
            "label": "initialAuctionOrder",
            "offset": 0,
            "slot": "4",
            "type": "t_bytes32"
          },
          {
            "astId": 1150,
            "contract": "contracts/EasyAuction.sol:EasyAuction",
            "label": "minimumBiddingAmountPerOrder",
            "offset": 0,
            "slot": "5",
            "type": "t_uint256"
          },
          {
            "astId": 1152,
            "contract": "contracts/EasyAuction.sol:EasyAuction",
            "label": "interimSumBidAmount",
            "offset": 0,
            "slot": "6",
            "type": "t_uint256"
          },
          {
            "astId": 1154,
            "contract": "contracts/EasyAuction.sol:EasyAuction",
            "label": "interimOrder",
            "offset": 0,
            "slot": "7",
            "type": "t_bytes32"
          },
          {
            "astId": 1156,
            "contract": "contracts/EasyAuction.sol:EasyAuction",
            "label": "clearingPriceOrder",
            "offset": 0,
            "slot": "8",
            "type": "t_bytes32"
          },
          {
            "astId": 1158,
            "contract": "contracts/EasyAuction.sol:EasyAuction",
            "label": "volumeClearingPriceOrder",
            "offset": 0,
            "slot": "9",
            "type": "t_uint96"
          },
          {
            "astId": 1160,
            "contract": "contracts/EasyAuction.sol:EasyAuction",
            "label": "feeNumerator",
            "offset": 0,
            "slot": "10",
            "type": "t_uint256"
          },
          {
            "astId": 1162,
            "contract": "contracts/EasyAuction.sol:EasyAuction",
            "label": "minFundingThreshold",
            "offset": 0,
            "slot": "11",
            "type": "t_uint256"
          },
          {
            "astId": 1164,
            "contract": "contracts/EasyAuction.sol:EasyAuction",
            "label": "minFundingThresholdNotReached",
            "offset": 0,
            "slot": "12",
            "type": "t_bool"
          }
        ],
        "numberOfBytes": "416"
      },
      "t_struct(Data)2600_storage": {
        "encoding": "inplace",
        "label": "struct IdToAddressBiMap.Data",
        "members": [
          {
            "astId": 2595,
            "contract": "contracts/EasyAuction.sol:EasyAuction",
            "label": "idToAddress",
            "offset": 0,
            "slot": "0",
            "type": "t_mapping(t_uint64,t_address)"
          },
          {
            "astId": 2599,
            "contract": "contracts/EasyAuction.sol:EasyAuction",
            "label": "addressToId",
            "offset": 0,
            "slot": "1",
            "type": "t_mapping(t_address,t_uint64)"
          }
        ],
        "numberOfBytes": "64"
      },
      "t_struct(Data)2791_storage": {
        "encoding": "inplace",
        "label": "struct IterableOrderedOrderSet.Data",
        "members": [
          {
            "astId": 2786,
            "contract": "contracts/EasyAuction.sol:EasyAuction",
            "label": "nextMap",
            "offset": 0,
            "slot": "0",
            "type": "t_mapping(t_bytes32,t_bytes32)"
          },
          {
            "astId": 2790,
            "contract": "contracts/EasyAuction.sol:EasyAuction",
            "label": "prevMap",
            "offset": 0,
            "slot": "1",
            "type": "t_mapping(t_bytes32,t_bytes32)"
          }
        ],
        "numberOfBytes": "64"
      },
      "t_uint256": {
        "encoding": "inplace",
        "label": "uint256",
        "numberOfBytes": "32"
      },
      "t_uint64": {
        "encoding": "inplace",
        "label": "uint64",
        "numberOfBytes": "8"
      },
      "t_uint96": {
        "encoding": "inplace",
        "label": "uint96",
        "numberOfBytes": "12"
      }
    }
  }
}