{
  "address": "0xdC5f67d34aB3489b5bfD34645B7271615FAcdfA2",
  "abi": [
    {
      "inputs": [],
      "stateMutability": "nonpayable",
      "type": "constructor"
    },
    {
      "anonymous": false,
      "inputs": [
        {
          "indexed": true,
          "internalType": "uint256",
          "name": "auctionId",
          "type": "uint256"
        },
        {
          "indexed": false,
          "internalType": "uint96",
          "name": "soldAuctioningTokens",
          "type": "uint96"
        },
        {
          "indexed": false,
          "internalType": "uint96",
          "name": "soldBiddingTokens",
          "type": "uint96"
        },
        {
          "indexed": false,
          "internalType": "bytes32",
          "name": "clearingPriceOrder",
          "type": "bytes32"
        }
      ],
      "name": "AuctionCleared",
      "type": "event"
    },
    {
      "anonymous": false,
      "inputs": [
        {
          "indexed": true,
          "internalType": "uint256",
          "name": "auctionId",
          "type": "uint256"
        },
        {
          "indexed": true,
          "internalType": "uint64",
          "name": "userId",
          "type": "uint64"
        },
        {
          "indexed": false,
          "internalType": "uint96",
          "name": "buyAmount",
          "type": "uint96"
        },
        {
          "indexed": false,
          "internalType": "uint96",
          "name": "sellAmount",
          "type": "uint96"
        }
      ],
      "name": "CancellationSellOrder",
      "type": "event"
    },
    {
      "anonymous": false,
      "inputs": [
        {
          "indexed": true,
          "internalType": "uint256",
          "name": "auctionId",
          "type": "uint256"
        },
        {
          "indexed": true,
          "internalType": "uint64",
          "name": "userId",
          "type": "uint64"
        },
        {
          "indexed": false,
          "internalType": "uint96",
          "name": "buyAmount",
          "type": "uint96"
        },
        {
          "indexed": false,
          "internalType": "uint96",
          "name": "sellAmount",
          "type": "uint96"
        }
      ],
      "name": "ClaimedFromOrder",
      "type": "event"
    },
    {
      "anonymous": false,
      "inputs": [
        {
          "indexed": true,
          "internalType": "uint256",
          "name": "auctionId",
          "type": "uint256"
        },
        {
          "indexed": true,
          "internalType": "contract IERC20",
          "name": "_auctioningToken",
          "type": "address"
        },
        {
          "indexed": true,
          "internalType": "contract IERC20",
          "name": "_biddingToken",
          "type": "address"
        },
        {
          "indexed": false,
          "internalType": "uint256",
          "name": "orderCancellationEndDate",
          "type": "uint256"
        },
        {
          "indexed": false,
          "internalType": "uint256",
          "name": "auctionEndDate",
          "type": "uint256"
        },
        {
          "indexed": false,
          "internalType": "uint96",
          "name": "_auctionedSellAmount",
          "type": "uint96"
        },
        {
          "indexed": false,
          "internalType": "uint96",
          "name": "_minBuyAmount",
          "type": "uint96"
        },
        {
          "indexed": false,
          "internalType": "uint256",
          "name": "minimumBiddingAmountPerOrder",
          "type": "uint256"
        },
        {
          "indexed": false,
          "internalType": "uint256",
          "name": "minFundingThreshold",
          "type": "uint256"
        }
      ],
      "name": "NewAuction",
      "type": "event"
    },
    {
      "anonymous": false,
      "inputs": [
        {
          "indexed": true,
          "internalType": "uint256",
          "name": "auctionId",
          "type": "uint256"
        },
        {
          "indexed": true,
          "internalType": "uint64",
          "name": "userId",
          "type": "uint64"
        },
        {
          "indexed": false,
          "internalType": "uint96",
          "name": "buyAmount",
          "type": "uint96"
        },
        {
          "indexed": false,
          "internalType": "uint96",
          "name": "sellAmount",
          "type": "uint96"
        }
      ],
      "name": "NewSellOrder",
      "type": "event"
    },
    {
      "anonymous": false,
      "inputs": [
        {
          "indexed": true,
          "internalType": "uint64",
          "name": "userId",
          "type": "uint64"
        },
        {
          "indexed": true,
          "internalType": "address",
          "name": "userAddress",
          "type": "address"
        }
      ],
      "name": "NewUser",
      "type": "event"
    },
    {
      "anonymous": false,
      "inputs": [
        {
          "indexed": true,
          "internalType": "address",
          "name": "previousOwner",
          "type": "address"
        },
        {
          "indexed": true,
          "internalType": "address",
          "name": "newOwner",
          "type": "address"
        }
      ],
      "name": "OwnershipTransferred",
      "type": "event"
    },
    {
      "anonymous": false,
      "inputs": [
        {
          "indexed": true,
          "internalType": "address",
          "name": "user",
          "type": "address"
        },
        {
          "indexed": false,
          "internalType": "uint64",
          "name": "userId",
          "type": "uint64"
        }
      ],
      "name": "UserRegistration",
      "type": "event"
    },
    {
      "inputs": [],
      "name": "FEE_DENOMINATOR",
      "outputs": [
        {
          "internalType": "uint256",
          "name": "",
          "type": "uint256"
        }
      ],
      "stateMutability": "view",
      "type": "function"
    },
    {
      "inputs": [],
      "name": "auctionCounter",
      "outputs": [
        {
          "internalType": "uint256",
          "name": "",
          "type": "uint256"
        }
      ],
      "stateMutability": "view",
      "type": "function"
    },
    {
      "inputs": [
        {
          "internalType": "uint256",
          "name": "",
          "type": "uint256"
        }
      ],
      "name": "auctionData",
      "outputs": [
        {
          "internalType": "contract IERC20",
          "name": "auctioningToken",
          "type": "address"
        },
        {
          "internalType": "contract IERC20",
          "name": "biddingToken",
          "type": "address"
        },
        {
          "internalType": "uint256",
          "name": "orderCancellationEndDate",
          "type": "uint256"
        },
        {
          "internalType": "uint256",
          "name": "auctionEndDate",
          "type": "uint256"
        },
        {
          "internalType": "bytes32",
          "name": "initialAuctionOrder",
          "type": "bytes32"
        },
        {
          "internalType": "uint256",
          "name": "minimumBiddingAmountPerOrder",
          "type": "uint256"
        },
        {
          "internalType": "uint256",
          "name": "interimSumBidAmount",
          "type": "uint256"
        },
        {
          "internalType": "bytes32",
          "name": "interimOrder",
          "type": "bytes32"
        },
        {
          "internalType": "bytes32",
          "name": "clearingPriceOrder",
          "type": "bytes32"
        },
        {
          "internalType": "uint96",
          "name": "volumeClearingPriceOrder",
          "type": "uint96"
        },
        {
          "internalType": "bool",
          "name": "minFundingThresholdNotReached",
          "type": "bool"
        },
        {
          "internalType": "bool",
          "name": "isAtomicClosureAllowed",
          "type": "bool"
        },
        {
          "internalType": "uint256",
          "name": "feeNumerator",
          "type": "uint256"
        },
        {
          "internalType": "uint256",
          "name": "minFundingThreshold",
          "type": "uint256"
        }
      ],
      "stateMutability": "view",
      "type": "function"
    },
    {
      "inputs": [
        {
          "internalType": "uint256",
          "name": "auctionId",
          "type": "uint256"
        },
        {
          "internalType": "bytes32[]",
          "name": "_sellOrders",
          "type": "bytes32[]"
        }
      ],
      "name": "cancelSellOrders",
      "outputs": [],
      "stateMutability": "nonpayable",
      "type": "function"
    },
    {
      "inputs": [
        {
          "internalType": "uint256",
          "name": "auctionId",
          "type": "uint256"
        },
        {
          "internalType": "bytes32[]",
          "name": "orders",
          "type": "bytes32[]"
        }
      ],
      "name": "claimFromParticipantOrder",
      "outputs": [
        {
          "internalType": "uint256",
          "name": "sumAuctioningTokenAmount",
          "type": "uint256"
        },
        {
          "internalType": "uint256",
          "name": "sumBiddingTokenAmount",
          "type": "uint256"
        }
      ],
      "stateMutability": "nonpayable",
      "type": "function"
    },
    {
      "inputs": [
        {
          "internalType": "uint256",
          "name": "auctionId",
          "type": "uint256"
        },
        {
          "internalType": "bytes32",
          "name": "order",
          "type": "bytes32"
        }
      ],
      "name": "containsOrder",
      "outputs": [
        {
          "internalType": "bool",
          "name": "",
          "type": "bool"
        }
      ],
      "stateMutability": "view",
      "type": "function"
    },
    {
      "inputs": [],
      "name": "feeNumerator",
      "outputs": [
        {
          "internalType": "uint256",
          "name": "",
          "type": "uint256"
        }
      ],
      "stateMutability": "view",
      "type": "function"
    },
    {
      "inputs": [],
      "name": "feeReceiverUserId",
      "outputs": [
        {
          "internalType": "uint64",
          "name": "",
          "type": "uint64"
        }
      ],
      "stateMutability": "view",
      "type": "function"
    },
    {
      "inputs": [
        {
          "internalType": "uint256",
          "name": "auctionId",
          "type": "uint256"
        }
      ],
      "name": "getSecondsRemainingInBatch",
      "outputs": [
        {
          "internalType": "uint256",
          "name": "",
          "type": "uint256"
        }
      ],
      "stateMutability": "view",
      "type": "function"
    },
    {
      "inputs": [
        {
          "internalType": "address",
          "name": "user",
          "type": "address"
        }
      ],
      "name": "getUserId",
      "outputs": [
        {
          "internalType": "uint64",
          "name": "userId",
          "type": "uint64"
        }
      ],
      "stateMutability": "nonpayable",
      "type": "function"
    },
    {
      "inputs": [
        {
          "internalType": "contract IERC20",
          "name": "_auctioningToken",
          "type": "address"
        },
        {
          "internalType": "contract IERC20",
          "name": "_biddingToken",
          "type": "address"
        },
        {
          "internalType": "uint256",
          "name": "orderCancelationPeriodDuration",
          "type": "uint256"
        },
        {
          "internalType": "uint256",
          "name": "duration",
          "type": "uint256"
        },
        {
          "internalType": "uint96",
          "name": "_auctionedSellAmount",
          "type": "uint96"
        },
        {
          "internalType": "uint96",
          "name": "_minBuyAmount",
          "type": "uint96"
        },
        {
          "internalType": "uint256",
          "name": "minimumBiddingAmountPerOrder",
          "type": "uint256"
        },
        {
          "internalType": "uint256",
          "name": "minFundingThreshold",
          "type": "uint256"
        },
        {
          "internalType": "bool",
          "name": "isAtomicClosureAllowed",
          "type": "bool"
        }
      ],
      "name": "initiateAuction",
      "outputs": [
        {
          "internalType": "uint256",
          "name": "",
          "type": "uint256"
        }
      ],
      "stateMutability": "nonpayable",
      "type": "function"
    },
    {
      "inputs": [],
      "name": "numUsers",
      "outputs": [
        {
          "internalType": "uint64",
          "name": "",
          "type": "uint64"
        }
      ],
      "stateMutability": "view",
      "type": "function"
    },
    {
      "inputs": [],
      "name": "owner",
      "outputs": [
        {
          "internalType": "address",
          "name": "",
          "type": "address"
        }
      ],
      "stateMutability": "view",
      "type": "function"
    },
    {
      "inputs": [
        {
          "internalType": "uint256",
          "name": "auctionId",
          "type": "uint256"
        },
        {
          "internalType": "uint96[]",
          "name": "_minBuyAmounts",
          "type": "uint96[]"
        },
        {
          "internalType": "uint96[]",
          "name": "_sellAmounts",
          "type": "uint96[]"
        },
        {
          "internalType": "bytes32[]",
          "name": "_prevSellOrders",
          "type": "bytes32[]"
        }
      ],
      "name": "placeSellOrders",
      "outputs": [
        {
          "internalType": "uint64",
          "name": "userId",
          "type": "uint64"
        }
      ],
      "stateMutability": "nonpayable",
      "type": "function"
    },
    {
      "inputs": [
        {
          "internalType": "uint256",
          "name": "auctionId",
          "type": "uint256"
        },
        {
          "internalType": "uint256",
          "name": "iterationSteps",
          "type": "uint256"
        }
      ],
      "name": "precalculateSellAmountSum",
      "outputs": [],
      "stateMutability": "nonpayable",
      "type": "function"
    },
    {
      "inputs": [
        {
          "internalType": "address",
          "name": "user",
          "type": "address"
        }
      ],
      "name": "registerUser",
      "outputs": [
        {
          "internalType": "uint64",
          "name": "userId",
          "type": "uint64"
        }
      ],
      "stateMutability": "nonpayable",
      "type": "function"
    },
    {
      "inputs": [],
      "name": "renounceOwnership",
      "outputs": [],
      "stateMutability": "nonpayable",
      "type": "function"
    },
    {
      "inputs": [
        {
          "internalType": "uint256",
          "name": "newFeeNumerator",
          "type": "uint256"
        },
        {
          "internalType": "address",
          "name": "newfeeReceiverAddress",
          "type": "address"
        }
      ],
      "name": "setFeeParameters",
      "outputs": [],
      "stateMutability": "nonpayable",
      "type": "function"
    },
    {
      "inputs": [
        {
          "internalType": "uint256",
          "name": "auctionId",
          "type": "uint256"
        }
      ],
      "name": "settleAuction",
      "outputs": [
        {
          "internalType": "bytes32",
          "name": "clearingOrder",
          "type": "bytes32"
        }
      ],
      "stateMutability": "nonpayable",
      "type": "function"
    },
    {
      "inputs": [
        {
          "internalType": "uint256",
          "name": "auctionId",
          "type": "uint256"
        },
        {
          "internalType": "uint96[]",
          "name": "_minBuyAmount",
          "type": "uint96[]"
        },
        {
          "internalType": "uint96[]",
          "name": "_sellAmount",
          "type": "uint96[]"
        },
        {
          "internalType": "bytes32[]",
          "name": "_prevSellOrder",
          "type": "bytes32[]"
        }
      ],
      "name": "settleAuctionAtomically",
      "outputs": [],
      "stateMutability": "nonpayable",
      "type": "function"
    },
    {
      "inputs": [
        {
          "internalType": "address",
          "name": "newOwner",
          "type": "address"
        }
      ],
      "name": "transferOwnership",
      "outputs": [],
      "stateMutability": "nonpayable",
      "type": "function"
    }
  ],
  "transactionHash": "0x55427d94b761837f93dcc14fb085b22a09f3c5ee92d654ad4c3059eaa8fe418a",
  "args": [],
  "solcInputHash": "f5b28dc22056380bfce1595787bb4937",
  "bytecode": "0x60806040526000600755600880546001600160401b03191660011790553480156200002957600080fd5b5060006200003662000086565b600080546001600160a01b0319166001600160a01b0383169081178255604051929350917f8be0079c531659141344cd1fd0a4f28419497f9722a3daafe3b4186f6b6457e0908290a3506200008a565b3390565b613c27806200009a6000396000f3fe608060405234801561001057600080fd5b50600436106101775760003560e01c806363c699a4116100d8578063a2d1338b1161008c578063d73792a911610066578063d73792a91461094b578063e86dea4a14610953578063f2fde38b1461095b57610177565b8063a2d1338b146105df578063a7e7664414610791578063cc7631091461079957610177565b80637882deaf116100bd5780637882deaf146104415780637ed18b70146105045780638da5cb5b146105ae57610177565b806363c699a414610402578063715018a61461043957610177565b80632e9936111161012f57806340b20b091161011457806340b20b09146102f557806355fc62d21461032e5780635cefb291146103fa57610177565b80632e993611146102b35780633e12905f146102d057610177565b806319a50f491161016057806319a50f49146102285780632199d5cd1461024d5780632b956ff71461028057610177565b8063078dc5f81461017c57806315d37b4b1461020b575b600080fd5b6101f9600480360361012081101561019357600080fd5b5073ffffffffffffffffffffffffffffffffffffffff81358116916020810135909116906040810135906060810135906bffffffffffffffffffffffff608082013581169160a08101359091169060c08101359060e0810135906101000135151561098e565b60408051918252519081900360200190f35b6101f96004803603602081101561022157600080fd5b5035610e2e565b610230610e73565b6040805167ffffffffffffffff9092168252519081900360200190f35b6102306004803603602081101561026357600080fd5b503573ffffffffffffffffffffffffffffffffffffffff16610e83565b6102306004803603602081101561029657600080fd5b503573ffffffffffffffffffffffffffffffffffffffff16610f9f565b6101f9600480360360208110156102c957600080fd5b5035611021565b6102f3600480360360408110156102e657600080fd5b508035906020013561140c565b005b6102f36004803603604081101561030b57600080fd5b508035906020013573ffffffffffffffffffffffffffffffffffffffff1661165e565b61034b6004803603602081101561034457600080fd5b503561175d565b604051808f73ffffffffffffffffffffffffffffffffffffffff1681526020018e73ffffffffffffffffffffffffffffffffffffffff1681526020018d81526020018c81526020018b81526020018a8152602001898152602001888152602001878152602001866bffffffffffffffffffffffff168152602001851515815260200184151581526020018381526020018281526020019e50505050505050505050505050505060405180910390f35b61023061180d565b6104256004803603604081101561041857600080fd5b508035906020013561181d565b604080519115158252519081900360200190f35b6102f361183e565b6104eb6004803603604081101561045757600080fd5b8135919081019060408101602082013564010000000081111561047957600080fd5b82018360208201111561048b57600080fd5b803590602001918460208302840111640100000000831117156104ad57600080fd5b919080806020026020016040519081016040528093929190818152602001838360200280828437600092019190915250929550611924945050505050565b6040805192835260208301919091528051918290030190f35b6102f36004803603604081101561051a57600080fd5b8135919081019060408101602082013564010000000081111561053c57600080fd5b82018360208201111561054e57600080fd5b8035906020019184602083028401116401000000008311171561057057600080fd5b919080806020026020016040519081016040528093929190818152602001838360200280828437600092019190915250929550611dee945050505050565b6105b6611fc0565b6040805173ffffffffffffffffffffffffffffffffffffffff9092168252519081900360200190f35b6102f3600480360360808110156105f557600080fd5b8135919081019060408101602082013564010000000081111561061757600080fd5b82018360208201111561062957600080fd5b8035906020019184602083028401116401000000008311171561064b57600080fd5b919080806020026020016040519081016040528093929190818152602001838360200280828437600092019190915250929594936020810193503591505064010000000081111561069b57600080fd5b8201836020820111156106ad57600080fd5b803590602001918460208302840111640100000000831117156106cf57600080fd5b919080806020026020016040519081016040528093929190818152602001838360200280828437600092019190915250929594936020810193503591505064010000000081111561071f57600080fd5b82018360208201111561073157600080fd5b8035906020019184602083028401116401000000008311171561075357600080fd5b919080806020026020016040519081016040528093929190818152602001838360200280828437600092019190915250929550611fdc945050505050565b6101f96121b9565b610230600480360360808110156107af57600080fd5b813591908101906040810160208201356401000000008111156107d157600080fd5b8201836020820111156107e357600080fd5b8035906020019184602083028401116401000000008311171561080557600080fd5b919080806020026020016040519081016040528093929190818152602001838360200280828437600092019190915250929594936020810193503591505064010000000081111561085557600080fd5b82018360208201111561086757600080fd5b8035906020019184602083028401116401000000008311171561088957600080fd5b91908080602002602001604051908101604052809392919081815260200183836020028082843760009201919091525092959493602081019350359150506401000000008111156108d957600080fd5b8201836020820111156108eb57600080fd5b8035906020019184602083028401116401000000008311171561090d57600080fd5b9190808060200260200160405190810160405280939291908181526020018383602002808284376000920191909152509295506121bf945050505050565b6101f9612226565b6101f961222c565b6102f36004803603602081101561097157600080fd5b503573ffffffffffffffffffffffffffffffffffffffff16612232565b60008061099a33610f9f565b90506109fb33306109dc6103e86109d66109c16007546103e861238890919063ffffffff16565b6bffffffffffffffffffffffff8e16906123e2565b9061243b565b73ffffffffffffffffffffffffffffffffffffffff8f1692919061247d565b6000876bffffffffffffffffffffffff1611610a5e576040805162461bcd60e51b815260206004820152601a60248201527f63616e6e6f742061756374696f6e207a65726f20746f6b656e73000000000000604482015290519081900360640190fd5b6000866bffffffffffffffffffffffff1611610aab5760405162461bcd60e51b81526004018080602001828103825260238152602001806139446023913960400191505060405180910390fd5b60008511610aea5760405162461bcd60e51b8152600401808060200182810382526036815260200180613a5f6036913960400191505060405180910390fd5b87891115610b295760405162461bcd60e51b8152600401808060200182810382526029815260200180613b7d6029913960400191505060405180910390fd5b60068054600190810191829055600091825260205260409020610b4b90612518565b604080516101c08101825273ffffffffffffffffffffffffffffffffffffffff808e1682528c16602082015242808c019282018390528a01606082018190529060808101610b9a858b8d61255c565b815260200188815260200160008152602001600160001b81526020016000801b815260200160006bffffffffffffffffffffffff168152602001600015158152602001861515815260200160075481526020018781525060026000600654815260200190815260200160002060008201518160000160006101000a81548173ffffffffffffffffffffffffffffffffffffffff021916908373ffffffffffffffffffffffffffffffffffffffff16021790555060208201518160010160006101000a81548173ffffffffffffffffffffffffffffffffffffffff021916908373ffffffffffffffffffffffffffffffffffffffff16021790555060408201518160020155606082015181600301556080820151816004015560a0820151816005015560c0820151816006015560e0820151816007015561010082015181600801556101208201518160090160006101000a8154816bffffffffffffffffffffffff02191690836bffffffffffffffffffffffff16021790555061014082015181600901600c6101000a81548160ff02191690831515021790555061016082015181600901600d6101000a81548160ff02191690831515021790555061018082015181600a01556101a082015181600b01559050508b73ffffffffffffffffffffffffffffffffffffffff168d73ffffffffffffffffffffffffffffffffffffffff166006547fa92661149edb0f48f9ae55773e4d477ab8a61006bd5204ff2596fd0f85546d1885858e8e8e8e60405180878152602001868152602001856bffffffffffffffffffffffff168152602001846bffffffffffffffffffffffff168152602001838152602001828152602001965050505050505060405180910390a450506006549b9a5050505050505050505050565b600081815260026020526040812060030154421115610e4f57506000610e6e565b600082815260026020526040902060030154610e6b90426125bb565b90505b919050565b60055467ffffffffffffffff1681565b600554600090610ea790610ea29067ffffffffffffffff166001612388565b6125fd565b600580547fffffffffffffffffffffffffffffffffffffffffffffffff00000000000000001667ffffffffffffffff9283161790819055610eec91600391168461264a565b610f3d576040805162461bcd60e51b815260206004820152601760248201527f5573657220616c72656164792072656769737465726564000000000000000000604482015290519081900360640190fd5b506005546040805167ffffffffffffffff9092168083529051909173ffffffffffffffffffffffffffffffffffffffff8416917f6838f67cb358c332087b73dbe769a6c869a5f87225236c16dda5d0013a77074c9181900360200190a2919050565b6000610fac600383612829565b15610fc357610fbc600383612861565b9050610e6e565b610fcc82610e83565b90508173ffffffffffffffffffffffffffffffffffffffff168167ffffffffffffffff167f969d438b19b6b5fb3c0d3c6f16867e519fcec4233799d6be29d1c00f2045ba2660405160405180910390a3919050565b600081815260026020526040812060030154829080158015906110445750804210155b801561105f5750600082815260026020526040902060080154155b61109a5760405162461bcd60e51b8152600401808060200182810382526028815260200180613aff6028913960400191505060405180910390fd5b50600083815260026020526040812060040154819081906110ba90612917565b6000898152600260205260408120600681015460079091015494975092955090935090919080845b60008b81526001602052604081206110fa9086612926565b90507fffffffffffffffffffffffffffffffffffffffff00000000000000000000000181141561112a5750611183565b80945061113685612917565b6bffffffffffffffffffffffff918216965016935061115790508684612388565b955061117390506bffffffffffffffffffffffff8716836123e2565b61117d86856123e2565b106110e2575b6000851180156111b357506111a66bffffffffffffffffffffffff8716836123e2565b6111b086856123e2565b10155b1561128a5760006111e06111d9856109d66bffffffffffffffffffffffff8b16876123e2565b87906125bb565b90508083106112615760006111f584836125bb565b9050611200816129d2565b60008e815260026020526040902060090180547fffffffffffffffffffffffffffffffffffffffff000000000000000000000000166bffffffffffffffffffffffff9290921691909117905561125687836125bb565b9650859b5050611284565b61126b86846125bb565b955061128160008861127c896129d2565b61255c565b9a505b50611302565b866bffffffffffffffffffffffff168511156112b6576112af60008761127c886129d2565b9950611302565b6112c26000878961255c565b99506112ff6112fa886bffffffffffffffffffffffff166109d6896bffffffffffffffffffffffff16896123e290919063ffffffff16565b6129d2565b90505b60008b8152600260205260409020600881018b9055600b01548510156113695760008b815260026020526040902060090180547fffffffffffffffffffffffffffffffffffffff00ffffffffffffffffffffffff166c010000000000000000000000001790555b6113838b826bffffffffffffffffffffffff168a89612a1f565b604080516bffffffffffffffffffffffff8084168252871660208201528082018c905290518c917f4d160a2a345f2faeb9ac2e65272820b8ca5473b80aabef416bdf7e07ee7f5910919081900360600190a25050506000978852505060026020525050604084206004810185905560078101859055600681018590556005019390935550919050565b6000828152600260205260409020600301548290801580159061142f5750804210155b801561144a5750600082815260026020526040902060080154155b6114855760405162461bcd60e51b8152600401808060200182810382526028815260200180613aff6028913960400191505060405180910390fd5b506000838152600260205260408120600401546114a190612917565b6000878152600260205260408120600681015460079091015492955093509091505b858110156115195760008781526001602052604090206114e39083612926565b915060006114f083612917565b925061150e91508590506bffffffffffffffffffffffff8316612388565b9350506001016114c3565b507fffffffffffffffffffffffffffffffffffffffff00000000000000000000000181141561158f576040805162461bcd60e51b815260206004820152601960248201527f7265616368656420656e64206f66206f72646572206c69737400000000000000604482015290519081900360640190fd5b60008061159b83612917565b92509250506115cf816bffffffffffffffffffffffff16866bffffffffffffffffffffffff166123e290919063ffffffff16565b6115e7856bffffffffffffffffffffffff85166123e2565b10611639576040805162461bcd60e51b815260206004820152601960248201527f746f6f206d616e79206f72646572732073756d6d656420757000000000000000604482015290519081900360640190fd5b5050600095865260026020526040909520600681019190915560070193909355505050565b611666612b96565b60005473ffffffffffffffffffffffffffffffffffffffff9081169116146116d5576040805162461bcd60e51b815260206004820181905260248201527f4f776e61626c653a2063616c6c6572206973206e6f7420746865206f776e6572604482015290519081900360640190fd5b600f8211156117155760405162461bcd60e51b815260040180806020018281038252602d8152602001806139e1602d913960400191505060405180910390fd5b61171e81610f9f565b600880547fffffffffffffffffffffffffffffffffffffffffffffffff00000000000000001667ffffffffffffffff9290921691909117905550600755565b600260208190526000918252604090912080546001820154928201546003830154600484015460058501546006860154600787015460088801546009890154600a8a0154600b909a015473ffffffffffffffffffffffffffffffffffffffff998a169b9099169997989697959694959394929391926bffffffffffffffffffffffff82169260ff6c0100000000000000000000000084048116936d0100000000000000000000000000900416918e565b60085467ffffffffffffffff1681565b60008281526001602052604081206118359083612b9a565b90505b92915050565b611846612b96565b60005473ffffffffffffffffffffffffffffffffffffffff9081169116146118b5576040805162461bcd60e51b815260206004820181905260248201527f4f776e61626c653a2063616c6c6572206973206e6f7420746865206f776e6572604482015290519081900360640190fd5b6000805460405173ffffffffffffffffffffffffffffffffffffffff909116907f8be0079c531659141344cd1fd0a4f28419497f9722a3daafe3b4186f6b6457e0908390a3600080547fffffffffffffffffffffffff0000000000000000000000000000000000000000169055565b6000828152600260205260408120600801548190849061198b576040805162461bcd60e51b815260206004820152601860248201527f41756374696f6e206e6f74207965742066696e69736865640000000000000000604482015290519081900360640190fd5b60005b8451811015611a28576119cf8582815181106119a657fe5b602002602001015160016000898152602001908152602001600020612bc390919063ffffffff16565b611a20576040805162461bcd60e51b815260206004820152601c60248201527f6f72646572206973206e6f206c6f6e67657220636c61696d61626c6500000000604482015290519081900360640190fd5b60010161198e565b50611a31613807565b50600085815260026020818152604080842081516101c081018352815473ffffffffffffffffffffffffffffffffffffffff90811682526001830154169381019390935292830154908201526003820154606082015260048201546080820152600582015460a0820152600682015460c0820152600782015460e08201526008820154610100820181905260098301546bffffffffffffffffffffffff811661012084015260ff6c010000000000000000000000008204811615156101408501526d0100000000000000000000000000909104161515610160830152600a830154610180830152600b909201546101a082015291908190611b3190612917565b92509250506000611b5588600081518110611b4857fe5b6020026020010151612917565b505060008a8152600260205260408120600901549192506c0100000000000000000000000090910460ff16905b8951811015611dd4576000806000611b9f8d8581518110611b4857fe5b9250925092508567ffffffffffffffff168367ffffffffffffffff1614611bf75760405162461bcd60e51b8152600401808060200182810382526023815260200180613adc6023913960400191505060405180910390fd5b8415611c1c57611c158b6bffffffffffffffffffffffff8316612388565b9a50611d62565b8861010001518d8581518110611c2e57fe5b60200260200101511415611ccc57611c8c611c85886bffffffffffffffffffffffff166109d68b6bffffffffffffffffffffffff168d61012001516bffffffffffffffffffffffff166123e290919063ffffffff16565b8d90612388565b9b50611c15611cc58a61012001516bffffffffffffffffffffffff16836bffffffffffffffffffffffff166125bb90919063ffffffff16565b8c90612388565b611cf78961010001518e8681518110611ce157fe5b6020026020010151612bef90919063ffffffff16565b15611d4757611d40611c85886bffffffffffffffffffffffff166109d68b6bffffffffffffffffffffffff16856bffffffffffffffffffffffff166123e290919063ffffffff16565b9b50611d62565b611d5f8b6bffffffffffffffffffffffff8316612388565b9a505b8567ffffffffffffffff168e7f3f2c83616e48a2f8b3c9cc26499e2e5c61643714dac49027d82cf6732f96a91a848460405180836bffffffffffffffffffffffff168152602001826bffffffffffffffffffffffff1681526020019250505060405180910390a3505050600101611b82565b50611de18a898985612d3c565b5050505050509250929050565b6000828152600260208190526040909120015482904210611e405760405162461bcd60e51b81526004018080602001828103825260328152602001806139676032913960400191505060405180910390fd5b6000611e4b33610f9f565b90506000805b8451811015611f85576000611e94868381518110611e6b57fe5b6020026020010151600160008a8152602001908152602001600020612dba90919063ffffffff16565b90508015611f7c576000806000611eb0898681518110611b4857fe5b9250925092508667ffffffffffffffff168367ffffffffffffffff1614611f085760405162461bcd60e51b81526004018080602001828103825260238152602001806138fb6023913960400191505060405180910390fd5b611f20866bffffffffffffffffffffffff8316612388565b604080516bffffffffffffffffffffffff808616825284166020820152815192985067ffffffffffffffff8a16928d927f7edae327fe79804b2f38bd490d874a0d188d3ae8911b303205abe47400086ac4928290030190a35050505b50600101611e51565b50600085815260026020526040902060010154611fb99073ffffffffffffffffffffffffffffffffffffffff163383612e0f565b5050505050565b60005473ffffffffffffffffffffffffffffffffffffffff1690565b60008481526002602052604090206003015484908015801590611fff5750804210155b801561201a5750600082815260026020526040902060080154155b6120555760405162461bcd60e51b8152600401808060200182810382526028815260200180613aff6028913960400191505060405180910390fd5b506000858152600260205260409020600901546d0100000000000000000000000000900460ff166120b75760405162461bcd60e51b81526004018080602001828103825260288152602001806138a26028913960400191505060405180910390fd5b835160011480156120c9575082516001145b6121045760405162461bcd60e51b8152600401808060200182810382526027815260200180613a0e6027913960400191505060405180910390fd5b600061210f33610f9f565b905061215f612147828760008151811061212557fe5b60200260200101518760008151811061213a57fe5b602002602001015161255c565b60008881526002602052604090206007015490612bef565b61219a5760405162461bcd60e51b81526004018080602001828103825260318152602001806138ca6031913960400191505060405180910390fd5b6121a686868686612ea1565b506121b086611021565b50505050505050565b60065481565b600084815260026020526040812060030154859042106122105760405162461bcd60e51b8152600401808060200182810382526022815260200180613bd06022913960400191505060405180910390fd5b61221c86868686612ea1565b9695505050505050565b6103e881565b60075481565b61223a612b96565b60005473ffffffffffffffffffffffffffffffffffffffff9081169116146122a9576040805162461bcd60e51b815260206004820181905260248201527f4f776e61626c653a2063616c6c6572206973206e6f7420746865206f776e6572604482015290519081900360640190fd5b73ffffffffffffffffffffffffffffffffffffffff81166122fb5760405162461bcd60e51b815260040180806020018281038252602681526020018061391e6026913960400191505060405180910390fd5b6000805460405173ffffffffffffffffffffffffffffffffffffffff808516939216917f8be0079c531659141344cd1fd0a4f28419497f9722a3daafe3b4186f6b6457e091a3600080547fffffffffffffffffffffffff00000000000000000000000000000000000000001673ffffffffffffffffffffffffffffffffffffffff92909216919091179055565b600082820183811015611835576040805162461bcd60e51b815260206004820152601b60248201527f536166654d6174683a206164646974696f6e206f766572666c6f770000000000604482015290519081900360640190fd5b6000826123f157506000611838565b828202828482816123fe57fe5b04146118355760405162461bcd60e51b8152600401808060200182810382526021815260200180613a956021913960400191505060405180910390fd5b600061183583836040518060400160405280601a81526020017f536166654d6174683a206469766973696f6e206279207a65726f000000000000815250613199565b6040805173ffffffffffffffffffffffffffffffffffffffff80861660248301528416604482015260648082018490528251808303909101815260849091019091526020810180517bffffffffffffffffffffffffffffffffffffffffffffffffffffffff167f23b872dd0000000000000000000000000000000000000000000000000000000017905261251290859061323b565b50505050565b60016000818152602083815260408083207fffffffffffffffffffffffffffffffffffffffff00000000000000000000000190819055835293830190529190912055565b7fffffffffffffffff00000000000000000000000000000000000000000000000060c084901b1677ffffffffffffffffffffffff000000000000000000000000606084901b16016bffffffffffffffffffffffff8216015b9392505050565b600061183583836040518060400160405280601e81526020017f536166654d6174683a207375627472616374696f6e206f766572666c6f7700008152506132f9565b60006801000000000000000082106126465760405162461bcd60e51b8152600401808060200182810382526026815260200180613ab66026913960400191505060405180910390fd5b5090565b600073ffffffffffffffffffffffffffffffffffffffff82166126b4576040805162461bcd60e51b815260206004820152601a60248201527f43616e6e6f7420696e73657274207a65726f2061646472657373000000000000604482015290519081900360640190fd5b67ffffffffffffffff8381161415612713576040805162461bcd60e51b815260206004820152601860248201527f43616e6e6f7420696e73657274206d61782075696e7436340000000000000000604482015290519081900360640190fd5b73ffffffffffffffffffffffffffffffffffffffff8216600090815260018501602052604090205467ffffffffffffffff16151580612783575067ffffffffffffffff600184011660009081526020859052604090205473ffffffffffffffffffffffffffffffffffffffff1615155b15612790575060006125b4565b50600191820167ffffffffffffffff1660008181526020858152604080832080547fffffffffffffffffffffffff00000000000000000000000000000000000000001673ffffffffffffffffffffffffffffffffffffffff969096169586179055938252948401909452922080547fffffffffffffffffffffffffffffffffffffffffffffffff00000000000000001690921790915590565b73ffffffffffffffffffffffffffffffffffffffff166000908152600191909101602052604090205467ffffffffffffffff16151590565b600061286d8383612829565b6128be576040805162461bcd60e51b815260206004820152601b60248201527f4d7573742068617665204164647265737320746f206765742049440000000000604482015290519081900360640190fd5b5073ffffffffffffffffffffffffffffffffffffffff166000908152600191909101602052604090205467ffffffffffffffff167fffffffffffffffffffffffffffffffffffffffffffffffffffffffffffffffff0190565b60c081901c91606082901c9190565b60007fffffffffffffffffffffffffffffffffffffffff0000000000000000000000018214156129875760405162461bcd60e51b81526004018080602001828103825260228152602001806139996022913960400191505060405180910390fd5b600082815260208490526040902054806118355760405162461bcd60e51b815260040180806020018281038252602a815260200180613a35602a913960400191505060405180910390fd5b60006c0100000000000000000000000082106126465760405162461bcd60e51b815260040180806020018281038252602681526020018061387c6026913960400191505060405180910390fd5b6000848152600260205260408120600a0154612a52906103e8906109d6906bffffffffffffffffffffffff8616906123e2565b6000868152600260205260409020600901549091506c01000000000000000000000000900460ff1615612aa857612aa385612a9b6bffffffffffffffffffffffff851684612388565b600086612d3c565b611fb9565b6000858152600260205260408120600801548190612ac590612917565b909350915060009050612ae66bffffffffffffffffffffffff8616886125bb565b90506000612b10612b096bffffffffffffffffffffffff88166109d688866123e2565b8390612388565b90506000612b47856bffffffffffffffffffffffff166109d6866bffffffffffffffffffffffff168c6123e290919063ffffffff16565b9050612b558a83838b612d3c565b612b8a8a612b756bffffffffffffffffffffffff8a166109d68a8e6123e2565b60085460009067ffffffffffffffff16612d3c565b50505050505050505050565b3390565b60006001821415612bad57506000611838565b5060009081526020919091526040902054151590565b600080612bd08484612dba565b9050801561183557600092835260019390930160205250604081205590565b600080600080612bfe86612917565b9250925092506000806000612c1288612917565b91945092509050612c346bffffffffffffffffffffffff8084169086166123e2565b612c4f6bffffffffffffffffffffffff8781169084166123e2565b1015612c645760019650505050505050611838565b612c7f6bffffffffffffffffffffffff8381169086166123e2565b612c9a6bffffffffffffffffffffffff8781169084166123e2565b1115612caf5760009650505050505050611838565b8267ffffffffffffffff168667ffffffffffffffff161415612d025760405162461bcd60e51b815260040180806020018281038252602d815260200180613b27602d913960400191505060405180910390fd5b8267ffffffffffffffff168667ffffffffffffffff161015612d2d5760019650505050505050611838565b50600098975050505050505050565b6000612d49600383613353565b90508315612d8157600085815260026020526040902054612d819073ffffffffffffffffffffffffffffffffffffffff168286612e0f565b8215611fb957600085815260026020526040902060010154611fb99073ffffffffffffffffffffffffffffffffffffffff168285612e0f565b6000612dc68383612b9a565b612dd257506000611838565b5060008181526001838101602081815260408085205487835281862080548288528388208190558752938352908520559383529390925290915590565b6040805173ffffffffffffffffffffffffffffffffffffffff8416602482015260448082018490528251808303909101815260649091019091526020810180517bffffffffffffffffffffffffffffffffffffffffffffffffffffffff167fa9059cbb00000000000000000000000000000000000000000000000000000000179052612e9c90849061323b565b505050565b60008481526002602052604081206004015481908190612ec090612917565b92509250506000612ed033610f9f565b6000898152600260205260408120600501549195505b885181101561315857612f31888281518110612efe57fe5b60200260200101516bffffffffffffffffffffffff16856bffffffffffffffffffffffff166123e290919063ffffffff16565b612f73866bffffffffffffffffffffffff168b8481518110612f4f57fe5b60200260200101516bffffffffffffffffffffffff166123e290919063ffffffff16565b10612faf5760405162461bcd60e51b8152600401808060200182810382526029815260200180613b546029913960400191505060405180910390fd5b81888281518110612fbc57fe5b60200260200101516bffffffffffffffffffffffff1611613024576040805162461bcd60e51b815260206004820152600f60248201527f6f7264657220746f6f20736d616c6c0000000000000000000000000000000000604482015290519081900360640190fd5b600061308361304d888c858151811061303957fe5b60200260200101518c868151811061213a57fe5b89848151811061305957fe5b6020026020010151600160008f81526020019081526020016000206133e79092919063ffffffff16565b9050801561314f576130bf89838151811061309a57fe5b60200260200101516bffffffffffffffffffffffff168561238890919063ffffffff16565b93508667ffffffffffffffff168b7f9304f2fc7ed6d42c0400e678dbc7283e1e9054889c3afea5f965adff66ef9eac8c85815181106130fa57fe5b60200260200101518c868151811061310e57fe5b602002602001015160405180836bffffffffffffffffffffffff168152602001826bffffffffffffffffffffffff1681526020019250505060405180910390a35b50600101612ee6565b5060008981526002602052604090206001015461318d9073ffffffffffffffffffffffffffffffffffffffff1633308561247d565b50505050949350505050565b600081836132255760405162461bcd60e51b81526004018080602001828103825283818151815260200191508051906020019080838360005b838110156131ea5781810151838201526020016131d2565b50505050905090810190601f1680156132175780820380516001836020036101000a031916815260200191505b509250505060405180910390fd5b50600083858161323157fe5b0495945050505050565b606061329d826040518060400160405280602081526020017f5361666545524332303a206c6f772d6c6576656c2063616c6c206661696c65648152508573ffffffffffffffffffffffffffffffffffffffff166135c59092919063ffffffff16565b805190915015612e9c578080602001905160208110156132bc57600080fd5b5051612e9c5760405162461bcd60e51b815260040180806020018281038252602a815260200180613ba6602a913960400191505060405180910390fd5b6000818484111561334b5760405162461bcd60e51b81526020600482018181528351602484015283519092839260449091019190850190808383600083156131ea5781810151838201526020016131d2565b505050900390565b600061335f83836135dc565b6133b0576040805162461bcd60e51b815260206004820152601b60248201527f4d757374206861766520494420746f2067657420416464726573730000000000604482015290519081900360640190fd5b5060010167ffffffffffffffff166000908152602091909152604090205473ffffffffffffffffffffffffffffffffffffffff1690565b6000806133f384612917565b925050506bffffffffffffffffffffffff8116613457576040805162461bcd60e51b815260206004820152601f60248201527f496e73657274696e67207a65726f206973206e6f7420737570706f7274656400604482015290519081900360640190fd5b6001841480159061348857507fffffffffffffffffffffffffffffffffffffffff0000000000000000000000018414155b6134d9576040805162461bcd60e51b815260206004820152601e60248201527f496e73657274696e6720656c656d656e74206973206e6f742076616c69640000604482015290519081900360640190fd5b6134e38585612b9a565b156134f25760009150506125b4565b6001831480159061351157506000838152600186016020526040902054155b156135205760009150506125b4565b61352a8385612bef565b6135385760009150506125b4565b5b6000838152602086905260409020546135645760009283526001850160205260409092205491613539565b6000835b6000818152602088905260409020549091506135848187612bef565b613568576000828152602088815260408083208990558383526001808b0183528184208a905589845281842095909555908990529020559150509392505050565b60606135d48484600085613614565b949350505050565b60010167ffffffffffffffff166000908152602091909152604090205473ffffffffffffffffffffffffffffffffffffffff16151590565b6060824710156136555760405162461bcd60e51b81526004018080602001828103825260268152602001806139bb6026913960400191505060405180910390fd5b61365e8561379b565b6136af576040805162461bcd60e51b815260206004820152601d60248201527f416464726573733a2063616c6c20746f206e6f6e2d636f6e7472616374000000604482015290519081900360640190fd5b600060608673ffffffffffffffffffffffffffffffffffffffff1685876040518082805190602001908083835b6020831061371957805182527fffffffffffffffffffffffffffffffffffffffffffffffffffffffffffffffe090920191602091820191016136dc565b6001836020036101000a03801982511681845116808217855250505050505090500191505060006040518083038185875af1925050503d806000811461377b576040519150601f19603f3d011682016040523d82523d6000602084013e613780565b606091505b50915091506137908282866137a1565b979650505050505050565b3b151590565b606083156137b05750816125b4565b8251156137c05782518084602001fd5b60405162461bcd60e51b81526020600482018181528451602484015284518593919283926044019190850190808383600083156131ea5781810151838201526020016131d2565b604080516101c081018252600080825260208201819052918101829052606081018290526080810182905260a0810182905260c0810182905260e08101829052610100810182905261012081018290526101408101829052610160810182905261018081018290526101a08101919091529056fe53616665436173743a2076616c756520646f65736e27742066697420696e20393620626974736e6f7420616c6c6f77656420746f20736574746c652061756374696f6e2061746f6d6963616c6c7970726563616c63756c61746553656c6c416d6f756e7453756d20697320616c726561647920746f6f20616476616e6365644f6e6c792074686520757365722063616e2063616e63656c20686973206f72646572734f776e61626c653a206e6577206f776e657220697320746865207a65726f2061646472657373746f6b656e732063616e6e6f742062652061756374696f6e656420666f7220667265656e6f206c6f6e67657220696e206f7264657220706c6163656d656e7420616e642063616e63656c6174696f6e207068617365547279696e6720746f20676574206e657874206f66206c61737420656c656d656e74416464726573733a20696e73756666696369656e742062616c616e636520666f722063616c6c466565206973206e6f7420616c6c6f77656420746f2062652073657420686967686572207468616e20312e35254f6e6c79206f6e65206f726465722063616e20626520706c616365642061746f6d6963616c6c79547279696e6720746f20676574206e657874206f66206e6f6e2d6578697374656e7420656c656d656e746d696e696d756d42696464696e67416d6f756e745065724f72646572206973206e6f7420616c6c6f77656420746f206265207a65726f536166654d6174683a206d756c7469706c69636174696f6e206f766572666c6f7753616665436173743a2076616c756520646f65736e27742066697420696e20363420626974736f6e6c7920616c6c6f77656420746f20636c61696d20666f722073616d65207573657241756374696f6e206e6f7420696e20736f6c7574696f6e207375626d697373696f6e20706861736575736572206973206e6f7420616c6c6f77656420746f20706c6163652073616d65206f726465722074776963656c696d6974207072696365206e6f7420626574746572207468616e206d696d696d616c206f6666657274696d6520706572696f647320617265206e6f7420636f6e6669677572656420636f72726563746c795361666545524332303a204552433230206f7065726174696f6e20646964206e6f7420737563636565646e6f206c6f6e67657220696e206f7264657220706c6163656d656e74207068617365a2646970667358221220f95a61e281d5ecad9af81b4bbc3d8066bf9d1e2aea7152e90ca8d4b78d25027964736f6c634300060c0033",
  "devdoc": {
    "kind": "dev",
    "methods": {
      "owner()": {
        "details": "Returns the address of the current owner."
      },
      "renounceOwnership()": {
        "details": "Leaves the contract without owner. It will not be possible to call `onlyOwner` functions anymore. Can only be called by the current owner. NOTE: Renouncing ownership will leave the contract without an owner, thereby removing any functionality that is only available to the owner."
      },
      "transferOwnership(address)": {
        "details": "Transfers ownership of the contract to a new account (`newOwner`). Can only be called by the current owner."
      }
    },
    "version": 1
  },
  "userdoc": {
    "kind": "user",
    "methods": {},
    "version": 1
  },
  "storageLayout": {
    "storage": [
      {
        "astId": 30,
        "contract": "contracts/EasyAuction.sol:EasyAuction",
        "label": "_owner",
        "offset": 0,
        "slot": "0",
        "type": "t_address"
      },
      {
        "astId": 1668,
        "contract": "contracts/EasyAuction.sol:EasyAuction",
        "label": "sellOrders",
        "offset": 0,
        "slot": "1",
        "type": "t_mapping(t_uint256,t_struct(Data)3267_storage)"
      },
      {
        "astId": 1672,
        "contract": "contracts/EasyAuction.sol:EasyAuction",
        "label": "auctionData",
        "offset": 0,
        "slot": "2",
        "type": "t_mapping(t_uint256,t_struct(AuctionData)1664_storage)"
      },
      {
        "astId": 1674,
        "contract": "contracts/EasyAuction.sol:EasyAuction",
        "label": "registeredUsers",
        "offset": 0,
        "slot": "3",
        "type": "t_struct(Data)3076_storage"
      },
      {
        "astId": 1676,
        "contract": "contracts/EasyAuction.sol:EasyAuction",
        "label": "numUsers",
        "offset": 0,
        "slot": "5",
        "type": "t_uint64"
      },
      {
        "astId": 1678,
        "contract": "contracts/EasyAuction.sol:EasyAuction",
        "label": "auctionCounter",
        "offset": 0,
        "slot": "6",
        "type": "t_uint256"
      },
      {
        "astId": 1687,
        "contract": "contracts/EasyAuction.sol:EasyAuction",
        "label": "feeNumerator",
        "offset": 0,
        "slot": "7",
        "type": "t_uint256"
      },
      {
        "astId": 1693,
        "contract": "contracts/EasyAuction.sol:EasyAuction",
        "label": "feeReceiverUserId",
        "offset": 0,
        "slot": "8",
        "type": "t_uint64"
      }
    ],
    "types": {
      "t_address": {
        "encoding": "inplace",
        "label": "address",
        "numberOfBytes": "20"
      },
      "t_bool": {
        "encoding": "inplace",
        "label": "bool",
        "numberOfBytes": "1"
      },
      "t_bytes32": {
        "encoding": "inplace",
        "label": "bytes32",
        "numberOfBytes": "32"
      },
      "t_contract(IERC20)981": {
        "encoding": "inplace",
        "label": "contract IERC20",
        "numberOfBytes": "20"
      },
      "t_mapping(t_address,t_uint64)": {
        "encoding": "mapping",
        "key": "t_address",
        "label": "mapping(address => uint64)",
        "numberOfBytes": "32",
        "value": "t_uint64"
      },
      "t_mapping(t_bytes32,t_bytes32)": {
        "encoding": "mapping",
        "key": "t_bytes32",
        "label": "mapping(bytes32 => bytes32)",
        "numberOfBytes": "32",
        "value": "t_bytes32"
      },
      "t_mapping(t_uint256,t_struct(AuctionData)1664_storage)": {
        "encoding": "mapping",
        "key": "t_uint256",
        "label": "mapping(uint256 => struct EasyAuction.AuctionData)",
        "numberOfBytes": "32",
        "value": "t_struct(AuctionData)1664_storage"
      },
      "t_mapping(t_uint256,t_struct(Data)3267_storage)": {
        "encoding": "mapping",
        "key": "t_uint256",
        "label": "mapping(uint256 => struct IterableOrderedOrderSet.Data)",
        "numberOfBytes": "32",
        "value": "t_struct(Data)3267_storage"
      },
      "t_mapping(t_uint64,t_address)": {
        "encoding": "mapping",
        "key": "t_uint64",
        "label": "mapping(uint64 => address)",
        "numberOfBytes": "32",
        "value": "t_address"
      },
      "t_struct(AuctionData)1664_storage": {
        "encoding": "inplace",
        "label": "struct EasyAuction.AuctionData",
        "members": [
          {
            "astId": 1637,
            "contract": "contracts/EasyAuction.sol:EasyAuction",
            "label": "auctioningToken",
            "offset": 0,
            "slot": "0",
            "type": "t_contract(IERC20)981"
          },
          {
            "astId": 1639,
            "contract": "contracts/EasyAuction.sol:EasyAuction",
            "label": "biddingToken",
            "offset": 0,
            "slot": "1",
            "type": "t_contract(IERC20)981"
          },
          {
            "astId": 1641,
            "contract": "contracts/EasyAuction.sol:EasyAuction",
            "label": "orderCancellationEndDate",
            "offset": 0,
            "slot": "2",
            "type": "t_uint256"
          },
          {
            "astId": 1643,
            "contract": "contracts/EasyAuction.sol:EasyAuction",
            "label": "auctionEndDate",
            "offset": 0,
            "slot": "3",
            "type": "t_uint256"
          },
          {
            "astId": 1645,
            "contract": "contracts/EasyAuction.sol:EasyAuction",
            "label": "initialAuctionOrder",
            "offset": 0,
            "slot": "4",
            "type": "t_bytes32"
          },
          {
            "astId": 1647,
            "contract": "contracts/EasyAuction.sol:EasyAuction",
            "label": "minimumBiddingAmountPerOrder",
            "offset": 0,
            "slot": "5",
            "type": "t_uint256"
          },
          {
            "astId": 1649,
            "contract": "contracts/EasyAuction.sol:EasyAuction",
            "label": "interimSumBidAmount",
            "offset": 0,
            "slot": "6",
            "type": "t_uint256"
          },
          {
            "astId": 1651,
            "contract": "contracts/EasyAuction.sol:EasyAuction",
            "label": "interimOrder",
            "offset": 0,
            "slot": "7",
            "type": "t_bytes32"
          },
          {
            "astId": 1653,
            "contract": "contracts/EasyAuction.sol:EasyAuction",
            "label": "clearingPriceOrder",
            "offset": 0,
            "slot": "8",
            "type": "t_bytes32"
          },
          {
            "astId": 1655,
            "contract": "contracts/EasyAuction.sol:EasyAuction",
            "label": "volumeClearingPriceOrder",
            "offset": 0,
            "slot": "9",
            "type": "t_uint96"
          },
          {
            "astId": 1657,
            "contract": "contracts/EasyAuction.sol:EasyAuction",
            "label": "minFundingThresholdNotReached",
            "offset": 12,
            "slot": "9",
            "type": "t_bool"
          },
          {
            "astId": 1659,
            "contract": "contracts/EasyAuction.sol:EasyAuction",
            "label": "isAtomicClosureAllowed",
            "offset": 13,
            "slot": "9",
            "type": "t_bool"
          },
          {
            "astId": 1661,
            "contract": "contracts/EasyAuction.sol:EasyAuction",
            "label": "feeNumerator",
            "offset": 0,
            "slot": "10",
            "type": "t_uint256"
          },
          {
            "astId": 1663,
            "contract": "contracts/EasyAuction.sol:EasyAuction",
            "label": "minFundingThreshold",
            "offset": 0,
            "slot": "11",
            "type": "t_uint256"
          }
        ],
        "numberOfBytes": "384"
      },
      "t_struct(Data)3076_storage": {
        "encoding": "inplace",
        "label": "struct IdToAddressBiMap.Data",
        "members": [
          {
            "astId": 3071,
            "contract": "contracts/EasyAuction.sol:EasyAuction",
            "label": "idToAddress",
            "offset": 0,
            "slot": "0",
            "type": "t_mapping(t_uint64,t_address)"
          },
          {
            "astId": 3075,
            "contract": "contracts/EasyAuction.sol:EasyAuction",
            "label": "addressToId",
            "offset": 0,
            "slot": "1",
            "type": "t_mapping(t_address,t_uint64)"
          }
        ],
        "numberOfBytes": "64"
      },
      "t_struct(Data)3267_storage": {
        "encoding": "inplace",
        "label": "struct IterableOrderedOrderSet.Data",
        "members": [
          {
            "astId": 3262,
            "contract": "contracts/EasyAuction.sol:EasyAuction",
            "label": "nextMap",
            "offset": 0,
            "slot": "0",
            "type": "t_mapping(t_bytes32,t_bytes32)"
          },
          {
            "astId": 3266,
            "contract": "contracts/EasyAuction.sol:EasyAuction",
            "label": "prevMap",
            "offset": 0,
            "slot": "1",
            "type": "t_mapping(t_bytes32,t_bytes32)"
          }
        ],
        "numberOfBytes": "64"
      },
      "t_uint256": {
        "encoding": "inplace",
        "label": "uint256",
        "numberOfBytes": "32"
      },
      "t_uint64": {
        "encoding": "inplace",
        "label": "uint64",
        "numberOfBytes": "8"
      },
      "t_uint96": {
        "encoding": "inplace",
        "label": "uint96",
        "numberOfBytes": "12"
      }
    }
  }
}