{"address":"0x0F4648d997e486cE06577d6Ee2FecBcA84b834F4","abi":[{"inputs":[],"stateMutability":"nonpayable","type":"constructor"},{"inputs":[],"name":"domainSeparator","outputs":[{"internalType":"bytes32","name":"","type":"bytes32"}],"stateMutability":"view","type":"function"},{"inputs":[{"internalType":"address","name":"user","type":"address"},{"internalType":"uint256","name":"auctionId","type":"uint256"},{"internalType":"bytes","name":"callData","type":"bytes"}],"name":"isAllowed","outputs":[{"internalType":"bytes4","name":"","type":"bytes4"}],"stateMutability":"view","type":"function"},{"inputs":[{"internalType":"address","name":"user","type":"address"},{"internalType":"uint256","name":"auctionId","type":"uint256"},{"internalType":"address","name":"allower","type":"address"},{"internalType":"bytes","name":"callData","type":"bytes"}],"name":"isAllowedBy","outputs":[{"internalType":"bytes4","name":"","type":"bytes4"}],"stateMutability":"view","type":"function"}],"transactionHash":"0x0de81ba1d40ca65e635198fbc57b0aac52950152e7ec6e4b1e27537b0cc6c9ef","args":[],"solcInputHash":"ad868d512eafc63430765fc273a2c47b","bytecode":"0x60a060405234801561001057600080fd5b5060004690507f8b73c3c69bb8fe3d512ecc4cf759cc79239f7b179b0ffacaa9a75d522b39400f7f64aea53a8993ca7da1a35d4bd452fdb6171945e1d5fa9b7b34165966167f81c27f0984d5efd47d99151ae1be065a709e56c602102f24c1abc4008eb3f815a8d2178330604051602001808681526020018581526020018481526020018381526020018273ffffffffffffffffffffffffffffffffffffffff168152602001955050505050506040516020818303038152906040528051906020012060808181525050506080516105e76100fa60003980610297528061058f52506105e76000f3fe608060405234801561001057600080fd5b50600436106100415760003560e01c806319a05a7e146100465780631c841c421461011c578063f698da2514610212575b600080fd5b6100e76004803603606081101561005c57600080fd5b81019080803573ffffffffffffffffffffffffffffffffffffffff16906020019092919080359060200190929190803590602001906401000000008111156100a357600080fd5b8201836020820111156100b557600080fd5b803590602001918460018302840111640100000000831117156100d757600080fd5b9091929391929390505050610230565b60405180827bffffffffffffffffffffffffffffffffffffffffffffffffffffffff1916815260200191505060405180910390f35b6101dd6004803603608081101561013257600080fd5b81019080803573ffffffffffffffffffffffffffffffffffffffff16906020019092919080359060200190929190803573ffffffffffffffffffffffffffffffffffffffff1690602001909291908035906020019064010000000081111561019957600080fd5b8201836020820111156101ab57600080fd5b803590602001918460018302840111640100000000831117156101cd57600080fd5b9091929391929390505050610249565b60405180827bffffffffffffffffffffffffffffffffffffffffffffffffffffffff1916815260200191505060405180910390f35b61021a61058d565b6040518082815260200191505060405180910390f35b600061023f8585338686610249565b9050949350505050565b6000806000808585606081101561025f57600080fd5b81019080803560ff169060200190929190803590602001909291908035906020019092919050505080935081945082955050505060007f00000000000000000000000000000000000000000000000000000000000000008a8a604051602001808481526020018373ffffffffffffffffffffffffffffffffffffffff1681526020018281526020019350505050604051602081830303815290604052805190602001209050600060018260405160200180807f19457468657265756d205369676e6564204d6573736167653a0a333200000000815250601c018281526020019150506040516020818303038152906040528051906020012086868660405160008152602001604052604051808581526020018460ff1681526020018381526020018281526020019450505050506020604051602081039080840390855afa1580156103ae573d6000803e3d6000fd5b50505060206040510351905060608973ffffffffffffffffffffffffffffffffffffffff1663f59c2f068c6040518263ffffffff1660e01b81526004018082815260200191505060006040518083038186803b15801561040d57600080fd5b505afa158015610421573d6000803e3d6000fd5b505050506040513d6000823e3d601f19601f82011682018060405250602081101561044b57600080fd5b810190808051604051939291908464010000000082111561046b57600080fd5b8382019150602082018581111561048157600080fd5b825186600182028301116401000000008211171561049e57600080fd5b8083526020830192505050908051906020019080838360005b838110156104d25780820151818401526020810190506104b7565b50505050905090810190601f1680156104ff5780820380516001836020036101000a031916815260200191505b5060405250505090508173ffffffffffffffffffffffffffffffffffffffff1681806020019051602081101561053457600080fd5b810190808051906020019092919050505073ffffffffffffffffffffffffffffffffffffffff161415610576576319a05a7e60e01b9650505050505050610584565b600060e01b96505050505050505b95945050505050565b7f00000000000000000000000000000000000000000000000000000000000000008156fea2646970667358221220d2e1085587cf2a04b429e878578aec6a21ad5d9c2f0b847f4c8118455b9bb18164736f6c634300060c0033","devdoc":{"kind":"dev","methods":{},"stateVariables":{"DOMAIN_NAME":{"details":"The EIP-712 domain name used for computing the domain separator."},"DOMAIN_TYPE_HASH":{"details":"The EIP-712 domain type hash used for computing the domain separator."},"DOMAIN_VERSION":{"details":"The EIP-712 domain version used for computing the domain separator."},"domainSeparator":{"details":"The domain separator used for signing orders that gets mixed in making signatures for different domains incompatible. This domain separator is computed following the EIP-712 standard and has replay protection mixed in so that signed orders are only valid for specific GPv2 contracts."}},"version":1},"userdoc":{"kind":"user","methods":{},"version":1},"storageLayout":{"storage":[],"types":null}}