{
  "contractName": "EasyAuction",
  "abi": [
    {
      "inputs": [],
      "stateMutability": "nonpayable",
      "type": "constructor"
    },
    {
      "anonymous": false,
      "inputs": [
        {
          "indexed": false,
          "internalType": "uint256",
          "name": "auctionId",
          "type": "uint256"
        },
        {
          "indexed": true,
          "internalType": "contract ERC20",
          "name": "_sellToken",
          "type": "address"
        },
        {
          "indexed": true,
          "internalType": "contract ERC20",
          "name": "_buyToken",
          "type": "address"
        }
      ],
      "name": "NewAuction",
      "type": "event"
    },
    {
      "anonymous": false,
      "inputs": [
        {
          "indexed": true,
          "internalType": "uint256",
          "name": "auctionId",
          "type": "uint256"
        },
        {
          "indexed": true,
          "internalType": "uint64",
          "name": "userId",
          "type": "uint64"
        },
        {
          "indexed": false,
          "internalType": "uint96[]",
          "name": "sellAmountOfBuy",
          "type": "uint96[]"
        },
        {
          "indexed": false,
          "internalType": "uint96[]",
          "name": "buyAmountOfBuy",
          "type": "uint96[]"
        }
      ],
      "name": "NewBuyOrders",
      "type": "event"
    },
    {
      "anonymous": false,
      "inputs": [
        {
          "indexed": false,
          "internalType": "address",
          "name": "user",
          "type": "address"
        },
        {
          "indexed": false,
          "internalType": "uint64",
          "name": "userId",
          "type": "uint64"
        }
      ],
      "name": "UserRegistration",
      "type": "event"
    },
    {
      "inputs": [],
      "name": "auctionCounter",
      "outputs": [
        {
          "internalType": "uint256",
          "name": "",
          "type": "uint256"
        }
      ],
      "stateMutability": "view",
      "type": "function"
    },
    {
      "inputs": [
        {
          "internalType": "uint256",
          "name": "",
          "type": "uint256"
        }
      ],
      "name": "auctionData",
      "outputs": [
        {
          "internalType": "contract ERC20",
          "name": "sellToken",
          "type": "address"
        },
        {
          "internalType": "contract ERC20",
          "name": "buyToken",
          "type": "address"
        },
        {
          "internalType": "uint256",
          "name": "auctionEndDate",
          "type": "uint256"
        },
        {
          "internalType": "bytes32",
          "name": "sellOrder",
          "type": "bytes32"
        },
        {
          "internalType": "bytes32",
          "name": "clearingPriceOrder",
          "type": "bytes32"
        },
        {
          "internalType": "uint96",
          "name": "volumeClearingPriceOrder",
          "type": "uint96"
        }
      ],
      "stateMutability": "view",
      "type": "function"
    },
    {
      "inputs": [
        {
          "internalType": "uint256",
          "name": "",
          "type": "uint256"
        }
      ],
      "name": "buyOrders",
      "outputs": [
        {
          "internalType": "uint256",
          "name": "size",
          "type": "uint256"
        }
      ],
      "stateMutability": "view",
      "type": "function"
    },
    {
      "inputs": [],
      "name": "donationAccount",
      "outputs": [
        {
          "internalType": "address",
          "name": "",
          "type": "address"
        }
      ],
      "stateMutability": "view",
      "type": "function"
    },
    {
      "inputs": [],
      "name": "numUsers",
      "outputs": [
        {
          "internalType": "uint64",
          "name": "",
          "type": "uint64"
        }
      ],
      "stateMutability": "view",
      "type": "function"
    },
    {
      "inputs": [
        {
          "internalType": "contract ERC20",
          "name": "_sellToken",
          "type": "address"
        },
        {
          "internalType": "contract ERC20",
          "name": "_buyToken",
          "type": "address"
        },
        {
          "internalType": "uint256",
          "name": "duration",
          "type": "uint256"
        },
        {
          "internalType": "uint96",
          "name": "_sellAmount",
          "type": "uint96"
        },
        {
          "internalType": "uint96",
          "name": "_buyAmount",
          "type": "uint96"
        }
      ],
      "name": "initiateAuction",
      "outputs": [
        {
          "internalType": "uint256",
          "name": "",
          "type": "uint256"
        }
      ],
      "stateMutability": "nonpayable",
      "type": "function"
    },
    {
      "inputs": [
        {
          "internalType": "uint256",
          "name": "auctionId",
          "type": "uint256"
        },
        {
          "internalType": "uint96[]",
          "name": "_buyAmount",
          "type": "uint96[]"
        },
        {
          "internalType": "uint96[]",
          "name": "_sellAmount",
          "type": "uint96[]"
        },
        {
          "internalType": "bytes32[]",
          "name": "_prevBuyOrders",
          "type": "bytes32[]"
        }
      ],
      "name": "placeBuyOrders",
      "outputs": [],
      "stateMutability": "nonpayable",
      "type": "function"
    },
    {
      "inputs": [
        {
          "internalType": "uint256",
          "name": "auctionId",
          "type": "uint256"
        }
      ],
      "name": "calculatePrice",
      "outputs": [
        {
          "internalType": "uint96",
          "name": "priceNumerator",
          "type": "uint96"
        },
        {
          "internalType": "uint96",
          "name": "priceDenominator",
          "type": "uint96"
        }
      ],
      "stateMutability": "nonpayable",
      "type": "function"
    },
    {
      "inputs": [
        {
          "internalType": "uint256",
          "name": "auctionId",
          "type": "uint256"
        },
        {
          "internalType": "bytes32[]",
          "name": "orders",
          "type": "bytes32[]"
        }
      ],
      "name": "claimFromBuyOrder",
      "outputs": [
        {
          "internalType": "uint256",
          "name": "sumSellToken",
          "type": "uint256"
        },
        {
          "internalType": "uint256",
          "name": "sumBuyToken",
          "type": "uint256"
        }
      ],
      "stateMutability": "nonpayable",
      "type": "function"
    },
    {
      "inputs": [
        {
          "internalType": "uint256",
          "name": "auctionId",
          "type": "uint256"
        }
      ],
      "name": "claimFromSellOrder",
      "outputs": [
        {
          "internalType": "uint256",
          "name": "sumSellToken",
          "type": "uint256"
        },
        {
          "internalType": "uint256",
          "name": "sumBuyToken",
          "type": "uint256"
        }
      ],
      "stateMutability": "nonpayable",
      "type": "function"
    },
    {
      "inputs": [
        {
          "internalType": "address",
          "name": "user",
          "type": "address"
        }
      ],
      "name": "registerUser",
      "outputs": [
        {
          "internalType": "uint64",
          "name": "userId",
          "type": "uint64"
        }
      ],
      "stateMutability": "nonpayable",
      "type": "function"
    },
    {
      "inputs": [
        {
          "internalType": "address",
          "name": "user",
          "type": "address"
        }
      ],
      "name": "getUserId",
      "outputs": [
        {
          "internalType": "uint64",
          "name": "userId",
          "type": "uint64"
        }
      ],
      "stateMutability": "nonpayable",
      "type": "function"
    },
    {
      "inputs": [
        {
          "internalType": "uint256",
          "name": "auctionId",
          "type": "uint256"
        }
      ],
      "name": "getSecondsRemainingInBatch",
      "outputs": [
        {
          "internalType": "uint256",
          "name": "",
          "type": "uint256"
        }
      ],
      "stateMutability": "view",
      "type": "function"
    }
  ],
  "bytecode": "0x608060405234801561001057600080fd5b5060048054600160401b600160e01b031916336801000000000000000002179055611f70806100406000396000f3fe608060405234801561001057600080fd5b50600436106100cf5760003560e01c80634087db461161008c5780637ce83083116100665780637ce830831461029c578063a7e7664414610344578063ae1042651461034c578063dc3f4a121461038f576100cf565b80634087db46146101c657806355fc62d2146102135780636a85a2fb14610278576100cf565b806313d375ff146100d457806315d37b4b1461010a57806319a50f49146101395780632199d5cd1461015d5780632b956ff71461018357806335cea288146101a9575b600080fd5b6100f1600480360360208110156100ea57600080fd5b503561053d565b6040805192835260208301919091528051918290030190f35b6101276004803603602081101561012057600080fd5b50356106ce565b60408051918252519081900360200190f35b610141610719565b604080516001600160401b039092168252519081900360200190f35b6101416004803603602081101561017357600080fd5b50356001600160a01b0316610728565b6101416004803603602081101561019957600080fd5b50356001600160a01b0316610827565b610127600480360360208110156101bf57600080fd5b5035610860565b610127600480360360a08110156101dc57600080fd5b506001600160a01b0381358116916020810135909116906040810135906001600160601b0360608201358116916080013516610875565b6102306004803603602081101561022957600080fd5b5035610a82565b604080516001600160a01b03978816815295909616602086015284860193909352606084019190915260808301526001600160601b031660a082015290519081900360c00190f35b610280610acf565b604080516001600160a01b039092168252519081900360200190f35b6100f1600480360360408110156102b257600080fd5b81359190810190604081016020820135600160201b8111156102d357600080fd5b8201836020820111156102e557600080fd5b803590602001918460208302840111600160201b8311171561030657600080fd5b919080806020026020016040519081016040528093929190818152602001838360200280828437600092019190915250929550610ae5945050505050565b610127610d4e565b6103696004803603602081101561036257600080fd5b5035610d54565b604080516001600160601b03938416815291909216602082015281519081900390910190f35b61053b600480360360808110156103a557600080fd5b81359190810190604081016020820135600160201b8111156103c657600080fd5b8201836020820111156103d857600080fd5b803590602001918460208302840111600160201b831117156103f957600080fd5b9190808060200260200160405190810160405280939291908181526020018383602002808284376000920191909152509295949360208101935035915050600160201b81111561044857600080fd5b82018360208201111561045a57600080fd5b803590602001918460208302840111600160201b8311171561047b57600080fd5b9190808060200260200160405190810160405280939291908181526020018383602002808284376000920191909152509295949360208101935035915050600160201b8111156104ca57600080fd5b8201836020820111156104dc57600080fd5b803590602001918460208302840111600160201b831117156104fd57600080fd5b919080806020026020016040519081016040528093929190818152602001838360200280828437600092019190915250929550610f26945050505050565b005b6000818152600160205260408120600401548190839061059f576040805162461bcd60e51b8152602060048201526018602482015277105d58dd1a5bdb881b9bdd081e595d08199a5b9a5cda195960421b604482015290519081900360640190fd5b600084815260016020526040812060030154819081906105be906112ba565b60008a815260016020526040902060048101546003909101549396509194509250141561066057600087815260016020526040902060050154610613906001600160601b03848116911663ffffffff6112df16565b600088815260016020526040902060050154909650610659906001600160601b038085169161064d9190811690851663ffffffff61132a16565b9063ffffffff61138316565b94506106b9565b600087815260016020526040812060040154819061067d906112ba565b92509250506106b4826001600160601b031661064d836001600160601b0316876001600160601b031661132a90919063ffffffff16565b965050505b6106c5878787866113c5565b50505050915091565b6000818152600160205260408120600201544211156106ef57506000610714565b600082815260016020526040902060020154610711904263ffffffff6112df16565b90505b919050565b6004546001600160401b031681565b60045460009061074a906002906001600160401b03168463ffffffff61157216565b61079b576040805162461bcd60e51b815260206004820152601760248201527f5573657220616c72656164792072656769737465726564000000000000000000604482015290519081900360640190fd5b506004546001600160401b03166107c16107bc82600163ffffffff6116ec16565b611746565b6004805467ffffffffffffffff19166001600160401b03928316179055604080516001600160a01b0385168152918316602083015280517f6838f67cb358c332087b73dbe769a6c869a5f87225236c16dda5d0013a77074c9281900390910190a1919050565b600061083a60028363ffffffff61178e16565b156108575761085060028363ffffffff6117b816565b9050610714565b61085082610728565b60006020819052908152604090206001015481565b60008061088133610827565b604080516323b872dd60e01b81523360048201523060248201526001600160601b038716604482015290519192506001600160a01b038916916323b872dd916064808201926020929091908290030181600087803b1580156108e257600080fd5b505af11580156108f6573d6000803e3d6000fd5b505050506040513d602081101561090c57600080fd5b505161095f576040805162461bcd60e51b815260206004820152601b60248201527f7472616e7366657220776173206e6f74207375636365737366756c0000000000604482015290519081900360640190fd5b6005805460010190556040805160c0810182526001600160a01b03808a16825288166020820152428701918101919091526060810161099f838787611842565b8152600060208083018290526040928301829052600580548352600180835292849020855181546001600160a01b03199081166001600160a01b0392831617835587850151958301805490911695821695909517909455858501516002820155606086015160038201556080860151600482015560a09095015194810180546001600160601b0319166001600160601b039096169590951790945592548251908152915189821693918b16927f15dd9639accd24fcb10b44fe33886ce03e228e4e6ba1f65791edf66fa4acfa0392908290030190a3505060055495945050505050565b60016020819052600091825260409091208054918101546002820154600383015460048401546005909401546001600160a01b03958616959093169391929091906001600160601b031686565b600454600160401b90046001600160a01b031681565b60008281526001602052604081206004015481908490610b47576040805162461bcd60e51b8152602060048201526018602482015277105d58dd1a5bdb881b9bdd081e595d08199a5b9a5cda195960421b604482015290519081900360640190fd5b610b4f611d83565b506000858152600160208181526040808420815160c08101835281546001600160a01b0390811682529482015490941692840192909252600282015490830152600381015460608301526004810154608083018190526005909101546001600160601b031660a083015290919081908190610bc9906112ba565b9194509250905060005b8851811015610d35576000610bfa8a8381518110610bed57fe5b60200260200101516112ba565b9250505085608001518a8381518110610c0f57fe5b60200260200101511415610ca557610c63610c56856001600160601b031661064d866001600160601b03168a60a001516001600160601b031661132a90919063ffffffff16565b8a9063ffffffff6116ec16565b9850610c9e610c918760a001516001600160601b0316836001600160601b03166112df90919063ffffffff16565b899063ffffffff6116ec16565b9750610d2c565b610ccf86608001518b8481518110610cb957fe5b602002602001015161186e90919063ffffffff16565b15610d1057610d09610c56856001600160601b031661064d866001600160601b0316856001600160601b031661132a90919063ffffffff16565b9850610d2c565b610d29886001600160601b03831663ffffffff6116ec16565b97505b50600101610bd3565b50610d42898888866113c5565b50505050509250929050565b60055481565b6000818152600160205260408120600201548190839042118015610d875750600081815260016020526040902060040154155b610dc25760405162461bcd60e51b8152600401808060200182810382526028815260200180611e9a6028913960400191505060405180910390fd5b600084815260016020526040812060030154610ddd906112ba565b509150600090506002600160601b031960015b836001600160601b0316836001600160601b03161015610e6f576000888152602081905260409020610e28908363ffffffff6119bb16565b91506001821415610e3b57506000610e6f565b6000610e46836112ba565b9250610e679150506001600160601b0385811690831663ffffffff6116ec16565b935050610df0565b8181610eac575060008881526001602052604090206003810154600590910180546001600160601b0319166001600160601b038616179055610ef8565b610ec86001600160601b0385811690871663ffffffff6112df16565b60008a815260016020526040902060050180546001600160601b0319166001600160601b03929092169190911790555b6000898152600160205260409020600401819055610f15816112ba565b909b909a5098505050505050505050565b60008481526001602052604090206002015484904210610f775760405162461bcd60e51b815260040180806020018281038252602a815260200180611ddb602a913960400191505060405180910390fd5b6000858152600160205260408120600301548190610f94906112ba565b90935091506000905080610fa733610827565b905060005b885181101561110457610fe4898281518110610fc457fe5b60200260200101516001600160601b0316846116ec90919063ffffffff16565b925061101e888281518110610ff557fe5b60200260200101516001600160601b0316866001600160601b031661132a90919063ffffffff16565b611056856001600160601b03168b848151811061103757fe5b60200260200101516001600160601b031661132a90919063ffffffff16565b106110925760405162461bcd60e51b8152600401808060200182810382526029815260200180611f126029913960400191505060405180910390fd5b6110fb6110c6838a84815181106110a557fe5b60200260200101518c85815181106110b957fe5b6020026020010151611842565b8883815181106110d257fe5b60200260200101516000808e8152602001908152602001600020611a5b9092919063ffffffff16565b50600101610fac565b50806001600160401b0316897fa7ef64038efda8233261d8fc7da23d887d47e17fbcccd2841a2cdf0355a166bb8a8a604051808060200180602001838103835285818151815260200191508051906020019060200280838360005b8381101561117757818101518382015260200161115f565b50505050905001838103825284818151815260200191508051906020019060200280838360005b838110156111b657818101518382015260200161119e565b5050505090500194505050505060405180910390a360008981526001602081815260408084209092015482516323b872dd60e01b81523360048201523060248201526044810187905292516001600160a01b03909116936323b872dd936064808201949392918390030190829087803b15801561123257600080fd5b505af1158015611246573d6000803e3d6000fd5b505050506040513d602081101561125c57600080fd5b50516112af576040805162461bcd60e51b815260206004820152601b60248201527f7472616e7366657220776173206e6f74207375636365737366756c0000000000604482015290519081900360640190fd5b505050505050505050565b600160c01b810491600160601b6001600160c01b03831604916001600160601b031690565b600061132183836040518060400160405280601e81526020017f536166654d6174683a207375627472616374696f6e206f766572666c6f770000815250611b9c565b90505b92915050565b60008261133957506000611324565b8282028284828161134657fe5b04146113215760405162461bcd60e51b8152600401808060200182810382526021815260200180611e2f6021913960400191505060405180910390fd5b600061132183836040518060400160405280601a81526020017f536166654d6174683a206469766973696f6e206279207a65726f000000000000815250611c33565b60006113d860028363ffffffff611c9816565b600086815260016020908152604080832054815163a9059cbb60e01b81526001600160a01b038087166004830152602482018b9052925195965091169363a9059cbb93604480840194938390030190829087803b15801561143857600080fd5b505af115801561144c573d6000803e3d6000fd5b505050506040513d602081101561146257600080fd5b505161149f5760405162461bcd60e51b8152600401808060200182810382526023815260200180611eef6023913960400191505060405180910390fd5b600085815260016020818152604080842090920154825163a9059cbb60e01b81526001600160a01b038681166004830152602482018990529351939091169363a9059cbb93604480840194939192918390030190829087803b15801561150457600080fd5b505af1158015611518573d6000803e3d6000fd5b505050506040513d602081101561152e57600080fd5b505161156b5760405162461bcd60e51b8152600401808060200182810382526023815260200180611eef6023913960400191505060405180910390fd5b5050505050565b60006001600160a01b0382166115cf576040805162461bcd60e51b815260206004820152601a60248201527f43616e6e6f7420696e73657274207a65726f2061646472657373000000000000604482015290519081900360640190fd5b6001600160401b03838116141561162d576040805162461bcd60e51b815260206004820152601860248201527f43616e6e6f7420696e73657274206d61782075696e7436340000000000000000604482015290519081900360640190fd5b6001600160a01b03821660009081526001850160205260409020546001600160401b031615158061168157506001600160401b0360018401166000908152602085905260409020546001600160a01b031615155b1561168e575060006116e5565b5060018281016001600160401b031660008181526020868152604080832080546001600160a01b0319166001600160a01b03881690811790915583528785019091529020805467ffffffffffffffff191690911790555b9392505050565b600082820183811015611321576040805162461bcd60e51b815260206004820152601b60248201527f536166654d6174683a206164646974696f6e206f766572666c6f770000000000604482015290519081900360640190fd5b6000600160401b821061178a5760405162461bcd60e51b8152600401808060200182810382526026815260200180611e506026913960400191505060405180910390fd5b5090565b6001600160a01b0316600090815260019190910160205260409020546001600160401b0316151590565b60006117c4838361178e565b611815576040805162461bcd60e51b815260206004820152601b60248201527f4d7573742068617665204164647265737320746f206765742049440000000000604482015290519081900360640190fd5b506001600160a01b0316600090815260019190910160205260409020546001600160401b03166000190190565b600160c01b6001600160401b0390931692909202600160601b6001600160601b03928316020191160190565b60008060008061187d866112ba565b9250925092506000806000611891886112ba565b919450925090506118b46001600160601b0380841690861663ffffffff61132a16565b6118d06001600160601b0387811690841663ffffffff61132a16565b11156118e55760019650505050505050611324565b6119016001600160601b0383811690861663ffffffff61132a16565b61191d6001600160601b0387811690841663ffffffff61132a16565b10156119325760009650505050505050611324565b826001600160401b0316866001600160401b031614156119835760405162461bcd60e51b815260040180806020018281038252602d815260200180611ec2602d913960400191505060405180910390fd5b826001600160401b0316866001600160401b031611156119ac5760019650505050505050611324565b50600098975050505050505050565b600060018214156119fd5760405162461bcd60e51b815260040180806020018281038252602a815260200180611e05602a913960400191505060405180910390fd5b600082815260208490526040902054611a475760405162461bcd60e51b8152600401808060200182810382526022815260200180611db96022913960400191505060405180910390fd5b506000908152602091909152604090205490565b600080611a67846112ba565b925050506001600160601b038116611ab05760405162461bcd60e51b8152600401808060200182810382526024815260200180611e766024913960400191505060405180910390fd5b611aba8585611d1e565b15611ac95760009150506116e5565b6001850154600090611afe576002600160601b0319600090815260208790526040808220879055868252902060019055611b89565b835b81611b8757611b15818763ffffffff61186e16565b15611b7657600081815260208890526040902054611b39908763ffffffff61186e16565b611b615760008181526020889052604080822080549089905588835291205560019150611b71565b6000908152602087905260409020545b611b82565b600093505050506116e5565b611b00565b505b5050505060019182018054830190555090565b60008184841115611c2b5760405162461bcd60e51b81526004018080602001828103825283818151815260200191508051906020019080838360005b83811015611bf0578181015183820152602001611bd8565b50505050905090810190601f168015611c1d5780820380516001836020036101000a031916815260200191505b509250505060405180910390fd5b505050900390565b60008183611c825760405162461bcd60e51b8152602060048201818152835160248401528351909283926044909101919085019080838360008315611bf0578181015183820152602001611bd8565b506000838581611c8e57fe5b0495945050505050565b6000611ca48383611d59565b611cf5576040805162461bcd60e51b815260206004820152601b60248201527f4d757374206861766520494420746f2067657420416464726573730000000000604482015290519081900360640190fd5b506001016001600160401b0316600090815260209190915260409020546001600160a01b031690565b60006002600160601b0319821480611d365750600182145b15611d4357506000611324565b5060009081526020919091526040902054151590565b6001016001600160401b0316600090815260209190915260409020546001600160a01b0316151590565b6040805160c081018252600080825260208201819052918101829052606081018290526080810182905260a08101919091529056fe547279696e6720746f20676574206e657874206f66206c61737420656c656d656e7441756374696f6e206e6f206c6f6e67657220696e206f7264657220706c6163656d656e74207068617365547279696e6720746f20676574206e657874206f66206e6f6e2d6578697374656e7420656c656d656e74536166654d6174683a206d756c7469706c69636174696f6e206f766572666c6f7753616665436173743a2076616c756520646f65736e27742066697420696e2036342062697473496e73657274696e672075696e743936283029206973206e6f7420737570706f7274656441756374696f6e206e6f7420696e20736f6c7574696f6e207375626d697373696f6e20706861736575736572206973206e6f7420616c6c6f77656420746f20706c6163652073616d65206f72646572207477696365436c61696d207472616e7366657220666f722073656c6c546f6b656e206661696c65646c696d6974207072696365206e6f7420626574746572207468616e206d696d696d616c206f66666572a2646970667358221220ffed0cde139cbc9d54d2bfa007b2b1c5ba9fab242a8acfa28ba413a5d75ef9bc64736f6c63430006080033",
  "immutableReferences": {},
  "source": "pragma solidity >=0.6.8;\nimport \"@openzeppelin/contracts/token/ERC20/ERC20.sol\";\nimport \"./libraries/IterableOrderedOrderSet.sol\";\nimport \"@openzeppelin/contracts/math/SafeMath.sol\";\nimport \"./libraries/IdToAddressBiMap.sol\";\nimport \"@openzeppelin/contracts/utils/SafeCast.sol\";\n\n\ncontract EasyAuction {\n  using SafeMath for uint64;\n  using SafeMath for uint96;\n  using SafeMath for uint256;\n  using SafeCast for uint256;\n  using IterableOrderedOrderSet for IterableOrderedOrderSet.Data;\n  using IterableOrderedOrderSet for bytes32;\n  using IdToAddressBiMap for IdToAddressBiMap.Data;\n\n  modifier atStageOrderplacement(uint256 auctionId) {\n    require(\n      block.timestamp < auctionData[auctionId].auctionEndDate,\n      \"Auction no longer in order placement phase\"\n    );\n    _;\n  }\n\n  modifier atStageSolutionSubmission(uint256 auctionId) {\n    require(\n      block.timestamp > auctionData[auctionId].auctionEndDate &&\n        auctionData[auctionId].clearingPriceOrder == bytes32(0),\n      \"Auction not in solution submission phase\"\n    );\n    _;\n  }\n\n  modifier atStageFinished(uint256 auctionId) {\n    require(\n      auctionData[auctionId].clearingPriceOrder != bytes32(0),\n      \"Auction not yet finished\"\n    );\n    _;\n  }\n\n  event NewBuyOrders(\n    uint256 indexed auctionId,\n    uint64 indexed userId,\n    uint96[] sellAmountOfBuy,\n    uint96[] buyAmountOfBuy\n  );\n  event NewAuction(\n    uint256 auctionId,\n    ERC20 indexed _sellToken,\n    ERC20 indexed _buyToken\n  );\n  event UserRegistration(address user, uint64 userId);\n\n  struct AuctionData {\n    ERC20 sellToken;\n    ERC20 buyToken;\n    uint256 auctionEndDate;\n    bytes32 sellOrder;\n    bytes32 clearingPriceOrder;\n    uint96 volumeClearingPriceOrder;\n  }\n  mapping(uint256 => IterableOrderedOrderSet.Data) public buyOrders;\n  mapping(uint256 => AuctionData) public auctionData;\n  IdToAddressBiMap.Data private registeredUsers;\n  uint64 public numUsers;\n  address public donationAccount;\n  uint256 public auctionCounter;\n\n  constructor() public {\n    donationAccount = msg.sender;\n  }\n\n  function initiateAuction(\n    ERC20 _sellToken,\n    ERC20 _buyToken,\n    uint256 duration,\n    uint96 _sellAmount,\n    uint96 _buyAmount\n  ) public returns (uint256) {\n    uint64 userId = getUserId(msg.sender);\n    require(\n      _sellToken.transferFrom(msg.sender, address(this), _sellAmount),\n      \"transfer was not successful\"\n    );\n    auctionCounter++;\n    auctionData[auctionCounter] = AuctionData(\n      _sellToken,\n      _buyToken,\n      block.timestamp + duration,\n      IterableOrderedOrderSet.encodeOrder(userId, _sellAmount, _buyAmount),\n      bytes32(0),\n      0\n    );\n    emit NewAuction(auctionCounter, _sellToken, _buyToken);\n    return auctionCounter;\n  }\n\n  function placeBuyOrders(\n    uint256 auctionId,\n    uint96[] memory _buyAmount,\n    uint96[] memory _sellAmount,\n    bytes32[] memory _prevBuyOrders\n  ) public atStageOrderplacement(auctionId) {\n    (\n      ,\n      uint96 sellAmountOfSellOrder,\n      uint96 buyAmountOfSellOrder\n    ) = auctionData[auctionId].sellOrder.decodeOrder();\n    uint256 sumOfBuyAmounts = 0;\n    uint64 userId = getUserId(msg.sender);\n    for (uint256 i = 0; i < _buyAmount.length; i++) {\n      sumOfBuyAmounts = sumOfBuyAmounts.add(_buyAmount[i]);\n      require(\n        _buyAmount[i].mul(buyAmountOfSellOrder) <\n          sellAmountOfSellOrder.mul(_sellAmount[i]),\n        \"limit price not better than mimimal offer\"\n      );\n      buyOrders[auctionId].insert(\n        IterableOrderedOrderSet.encodeOrder(\n          userId,\n          _sellAmount[i],\n          _buyAmount[i]\n        ),\n        _prevBuyOrders[i]\n      );\n    }\n    emit NewBuyOrders(auctionId, userId, _buyAmount, _sellAmount);\n    require(\n      auctionData[auctionId].buyToken.transferFrom(\n        msg.sender,\n        address(this),\n        sumOfBuyAmounts\n      ),\n      \"transfer was not successful\"\n    );\n  }\n\n  function calculatePrice(uint256 auctionId)\n    public\n    atStageSolutionSubmission(auctionId)\n    returns (uint96 priceNumerator, uint96 priceDenominator)\n  {\n    (, uint96 sellAmount, ) = auctionData[auctionId].sellOrder.decodeOrder();\n\n    // Search for single partically filled order or last fully filled order:\n    uint96 sumBuyAmount = 0;\n    bytes32 iterOrder = IterableOrderedOrderSet.QUEUE_START;\n    bool buyAmountExceedsSellAmount = true;\n    while (sumBuyAmount < sellAmount) {\n      iterOrder = buyOrders[auctionId].next(iterOrder);\n      if (iterOrder == IterableOrderedOrderSet.QUEUE_END) {\n        buyAmountExceedsSellAmount = false;\n        break;\n      }\n      (, , uint96 buyAmountOfIter) = iterOrder.decodeOrder();\n      sumBuyAmount = uint96(sumBuyAmount.add(buyAmountOfIter)); // todo check correctness\n    }\n\n    // Store result:\n    bytes32 clearingPriceOrder = iterOrder;\n    if (!buyAmountExceedsSellAmount) {\n      clearingPriceOrder = auctionData[auctionId].sellOrder;\n      auctionData[auctionId].volumeClearingPriceOrder = uint96(sumBuyAmount);\n    } else {\n      auctionData[auctionId].volumeClearingPriceOrder = uint96(\n        sumBuyAmount.sub(sellAmount)\n      );\n    }\n    auctionData[auctionId].clearingPriceOrder = clearingPriceOrder;\n    (, priceNumerator, priceDenominator) = clearingPriceOrder.decodeOrder();\n  }\n\n  function claimFromBuyOrder(uint256 auctionId, bytes32[] memory orders)\n    public\n    atStageFinished(auctionId)\n    returns (uint256 sumSellToken, uint256 sumBuyToken)\n  {\n    AuctionData memory auction = auctionData[auctionId];\n    (uint64 userId, uint96 priceDenominator, uint96 priceNumerator) = auction\n      .clearingPriceOrder\n      .decodeOrder();\n    for (uint256 i = 0; i < orders.length; i++) {\n      (, , uint96 buyAmount) = orders[i].decodeOrder();\n      if (orders[i] == auction.clearingPriceOrder) {\n        sumSellToken = sumSellToken.add(\n          auction.volumeClearingPriceOrder.mul(priceNumerator).div(\n            priceDenominator\n          )\n        );\n        sumBuyToken = sumBuyToken.add(\n          buyAmount.sub(auction.volumeClearingPriceOrder)\n        );\n      } else {\n        if (orders[i].biggerThan(auction.clearingPriceOrder)) {\n          sumSellToken = sumSellToken.add(\n            buyAmount.mul(priceNumerator).div(priceDenominator)\n          );\n        } else {\n          sumBuyToken = sumBuyToken.add(buyAmount);\n        }\n      }\n    }\n    sendOutTokens(auctionId, sumSellToken, sumBuyToken, userId);\n  }\n\n  function claimFromSellOrder(uint256 auctionId)\n    public\n    atStageFinished(auctionId)\n    returns (uint256 sumSellToken, uint256 sumBuyToken)\n  {\n    (\n      uint64 userId,\n      uint96 sellAmount,\n      uint96 buyAmount\n    ) = auctionData[auctionId].sellOrder.decodeOrder();\n    if (\n      auctionData[auctionId].sellOrder ==\n      auctionData[auctionId].clearingPriceOrder\n    ) {\n      sumSellToken = sellAmount.sub(\n        auctionData[auctionId].volumeClearingPriceOrder\n      );\n      sumBuyToken = auctionData[auctionId]\n        .volumeClearingPriceOrder\n        .mul(buyAmount)\n        .div(sellAmount);\n    } else {\n      (\n        ,\n        uint96 priceDenominator,\n        uint96 priceNumerator\n      ) = IterableOrderedOrderSet.decodeOrder(\n        auctionData[auctionId].clearingPriceOrder\n      );\n      sumBuyToken = sellAmount.mul(priceNumerator).div(priceDenominator);\n    }\n    sendOutTokens(auctionId, sumSellToken, sumBuyToken, userId);\n  }\n\n  function sendOutTokens(\n    uint256 auctionId,\n    uint256 sellTokenAmount,\n    uint256 buyTokenAmount,\n    uint64 userId\n  ) internal {\n    address userAddress = registeredUsers.getAddressAt(userId);\n    require(\n      auctionData[auctionId].sellToken.transfer(userAddress, sellTokenAmount),\n      \"Claim transfer for sellToken failed\"\n    );\n    require(\n      auctionData[auctionId].buyToken.transfer(userAddress, buyTokenAmount),\n      \"Claim transfer for sellToken failed\"\n    );\n  }\n\n  function registerUser(address user) public returns (uint64 userId) {\n    require(registeredUsers.insert(numUsers, user), \"User already registered\");\n    userId = numUsers;\n    numUsers = numUsers.add(1).toUint64();\n    emit UserRegistration(user, userId);\n  }\n\n  function getUserId(address user) public returns (uint64 userId) {\n    if (registeredUsers.hasAddress(user)) {\n      return registeredUsers.getId(user);\n    } else {\n      return registerUser(user);\n    }\n  }\n\n  function getSecondsRemainingInBatch(uint256 auctionId)\n    public\n    view\n    returns (uint256)\n  {\n    if (auctionData[auctionId].auctionEndDate < block.timestamp) {\n      return 0;\n    }\n    return auctionData[auctionId].auctionEndDate.sub(block.timestamp);\n  }\n}\n",
  "sourcePath": "/Users/alexherrmann/easyAuction/contracts/EasyAuction.sol",
  "compiler": {
    "name": "solc",
    "version": "0.6.8+commit.0bbfe453.Emscripten.clang"
  },
  "schemaVersion": "3.1.0",
  "updatedAt": "2020-05-23T11:58:17.772Z",
  "devdoc": {
    "methods": {}
  },
  "userdoc": {
    "methods": {}
  }
}