{
  "contractName": "EasyAuction",
  "abi": [
    {
      "inputs": [],
      "stateMutability": "nonpayable",
      "type": "constructor"
    },
    {
      "anonymous": false,
      "inputs": [
        {
          "indexed": false,
          "internalType": "uint256",
          "name": "auctionId",
          "type": "uint256"
        },
        {
          "indexed": true,
          "internalType": "contract ERC20",
          "name": "_sellToken",
          "type": "address"
        },
        {
          "indexed": true,
          "internalType": "contract ERC20",
          "name": "_buyToken",
          "type": "address"
        }
      ],
      "name": "NewAuction",
      "type": "event"
    },
    {
      "anonymous": false,
      "inputs": [
        {
          "indexed": true,
          "internalType": "uint256",
          "name": "auctionId",
          "type": "uint256"
        },
        {
          "indexed": true,
          "internalType": "uint64",
          "name": "userId",
          "type": "uint64"
        },
        {
          "indexed": false,
          "internalType": "uint96[]",
          "name": "sellAmountOfBuy",
          "type": "uint96[]"
        },
        {
          "indexed": false,
          "internalType": "uint96[]",
          "name": "buyAmountOfBuy",
          "type": "uint96[]"
        }
      ],
      "name": "NewBuyOrders",
      "type": "event"
    },
    {
      "anonymous": false,
      "inputs": [
        {
          "indexed": false,
          "internalType": "address",
          "name": "user",
          "type": "address"
        },
        {
          "indexed": false,
          "internalType": "uint64",
          "name": "userId",
          "type": "uint64"
        }
      ],
      "name": "UserRegistration",
      "type": "event"
    },
    {
      "inputs": [],
      "name": "auctionCounter",
      "outputs": [
        {
          "internalType": "uint256",
          "name": "",
          "type": "uint256"
        }
      ],
      "stateMutability": "view",
      "type": "function"
    },
    {
      "inputs": [
        {
          "internalType": "uint256",
          "name": "",
          "type": "uint256"
        }
      ],
      "name": "auctionData",
      "outputs": [
        {
          "internalType": "contract ERC20",
          "name": "sellToken",
          "type": "address"
        },
        {
          "internalType": "contract ERC20",
          "name": "buyToken",
          "type": "address"
        },
        {
          "internalType": "uint256",
          "name": "auctionEndDate",
          "type": "uint256"
        },
        {
          "internalType": "bytes32",
          "name": "sellOrder",
          "type": "bytes32"
        },
        {
          "internalType": "bytes32",
          "name": "clearingPriceOrder",
          "type": "bytes32"
        },
        {
          "internalType": "uint96",
          "name": "volumeClearingPriceOrder",
          "type": "uint96"
        }
      ],
      "stateMutability": "view",
      "type": "function"
    },
    {
      "inputs": [
        {
          "internalType": "uint256",
          "name": "",
          "type": "uint256"
        }
      ],
      "name": "buyOrders",
      "outputs": [
        {
          "internalType": "uint256",
          "name": "size",
          "type": "uint256"
        }
      ],
      "stateMutability": "view",
      "type": "function"
    },
    {
      "inputs": [],
      "name": "donationAccount",
      "outputs": [
        {
          "internalType": "address",
          "name": "",
          "type": "address"
        }
      ],
      "stateMutability": "view",
      "type": "function"
    },
    {
      "inputs": [],
      "name": "numUsers",
      "outputs": [
        {
          "internalType": "uint64",
          "name": "",
          "type": "uint64"
        }
      ],
      "stateMutability": "view",
      "type": "function"
    },
    {
      "inputs": [
        {
          "internalType": "contract ERC20",
          "name": "_sellToken",
          "type": "address"
        },
        {
          "internalType": "contract ERC20",
          "name": "_buyToken",
          "type": "address"
        },
        {
          "internalType": "uint256",
          "name": "duration",
          "type": "uint256"
        },
        {
          "internalType": "uint96",
          "name": "_sellAmount",
          "type": "uint96"
        },
        {
          "internalType": "uint96",
          "name": "_buyAmount",
          "type": "uint96"
        }
      ],
      "name": "initiateAuction",
      "outputs": [
        {
          "internalType": "uint256",
          "name": "",
          "type": "uint256"
        }
      ],
      "stateMutability": "nonpayable",
      "type": "function"
    },
    {
      "inputs": [
        {
          "internalType": "uint256",
          "name": "auctionId",
          "type": "uint256"
        },
        {
          "internalType": "uint96[]",
          "name": "_buyAmount",
          "type": "uint96[]"
        },
        {
          "internalType": "uint96[]",
          "name": "_sellAmount",
          "type": "uint96[]"
        },
        {
          "internalType": "bytes32[]",
          "name": "_prevBuyOrders",
          "type": "bytes32[]"
        }
      ],
      "name": "placeBuyOrders",
      "outputs": [],
      "stateMutability": "nonpayable",
      "type": "function"
    },
    {
      "inputs": [
        {
          "internalType": "uint256",
          "name": "auctionId",
          "type": "uint256"
        }
      ],
      "name": "calculatePrice",
      "outputs": [
        {
          "internalType": "uint96",
          "name": "priceNumerator",
          "type": "uint96"
        },
        {
          "internalType": "uint96",
          "name": "priceDenominator",
          "type": "uint96"
        }
      ],
      "stateMutability": "nonpayable",
      "type": "function"
    },
    {
      "inputs": [
        {
          "internalType": "uint256",
          "name": "auctionId",
          "type": "uint256"
        },
        {
          "internalType": "bytes32[]",
          "name": "orders",
          "type": "bytes32[]"
        }
      ],
      "name": "claimFromBuyOrder",
      "outputs": [
        {
          "internalType": "uint256",
          "name": "sumSellToken",
          "type": "uint256"
        },
        {
          "internalType": "uint256",
          "name": "sumBuyToken",
          "type": "uint256"
        }
      ],
      "stateMutability": "nonpayable",
      "type": "function"
    },
    {
      "inputs": [
        {
          "internalType": "uint256",
          "name": "auctionId",
          "type": "uint256"
        }
      ],
      "name": "claimFromSellOrder",
      "outputs": [
        {
          "internalType": "uint256",
          "name": "sumSellToken",
          "type": "uint256"
        },
        {
          "internalType": "uint256",
          "name": "sumBuyToken",
          "type": "uint256"
        }
      ],
      "stateMutability": "nonpayable",
      "type": "function"
    },
    {
      "inputs": [
        {
          "internalType": "address",
          "name": "user",
          "type": "address"
        }
      ],
      "name": "registerUser",
      "outputs": [
        {
          "internalType": "uint64",
          "name": "userId",
          "type": "uint64"
        }
      ],
      "stateMutability": "nonpayable",
      "type": "function"
    },
    {
      "inputs": [
        {
          "internalType": "address",
          "name": "user",
          "type": "address"
        }
      ],
      "name": "getUserId",
      "outputs": [
        {
          "internalType": "uint64",
          "name": "userId",
          "type": "uint64"
        }
      ],
      "stateMutability": "nonpayable",
      "type": "function"
    },
    {
      "inputs": [
        {
          "internalType": "uint256",
          "name": "auctionId",
          "type": "uint256"
        }
      ],
      "name": "getSecondsRemainingInBatch",
      "outputs": [
        {
          "internalType": "uint256",
          "name": "",
          "type": "uint256"
        }
      ],
      "stateMutability": "view",
      "type": "function"
    }
  ],
  "bytecode": "0x608060405234801561001057600080fd5b5060048054600160401b600160e01b031916336801000000000000000002179055611f3e806100406000396000f3fe608060405234801561001057600080fd5b50600436106100cf5760003560e01c80634087db461161008c5780637ce83083116100665780637ce830831461029c578063a7e7664414610344578063ae1042651461034c578063dc3f4a121461038f576100cf565b80634087db46146101c657806355fc62d2146102135780636a85a2fb14610278576100cf565b806313d375ff146100d457806315d37b4b1461010a57806319a50f49146101395780632199d5cd1461015d5780632b956ff71461018357806335cea288146101a9575b600080fd5b6100f1600480360360208110156100ea57600080fd5b503561053d565b6040805192835260208301919091528051918290030190f35b6101276004803603602081101561012057600080fd5b50356106ce565b60408051918252519081900360200190f35b610141610719565b604080516001600160401b039092168252519081900360200190f35b6101416004803603602081101561017357600080fd5b50356001600160a01b0316610728565b6101416004803603602081101561019957600080fd5b50356001600160a01b0316610827565b610127600480360360208110156101bf57600080fd5b5035610860565b610127600480360360a08110156101dc57600080fd5b506001600160a01b0381358116916020810135909116906040810135906001600160601b0360608201358116916080013516610875565b6102306004803603602081101561022957600080fd5b5035610a87565b604080516001600160a01b03978816815295909616602086015284860193909352606084019190915260808301526001600160601b031660a082015290519081900360c00190f35b610280610ad4565b604080516001600160a01b039092168252519081900360200190f35b6100f1600480360360408110156102b257600080fd5b81359190810190604081016020820135600160201b8111156102d357600080fd5b8201836020820111156102e557600080fd5b803590602001918460208302840111600160201b8311171561030657600080fd5b919080806020026020016040519081016040528093929190818152602001838360200280828437600092019190915250929550610aea945050505050565b610127610d53565b6103696004803603602081101561036257600080fd5b5035610d59565b604080516001600160601b03938416815291909216602082015281519081900390910190f35b61053b600480360360808110156103a557600080fd5b81359190810190604081016020820135600160201b8111156103c657600080fd5b8201836020820111156103d857600080fd5b803590602001918460208302840111600160201b831117156103f957600080fd5b9190808060200260200160405190810160405280939291908181526020018383602002808284376000920191909152509295949360208101935035915050600160201b81111561044857600080fd5b82018360208201111561045a57600080fd5b803590602001918460208302840111600160201b8311171561047b57600080fd5b9190808060200260200160405190810160405280939291908181526020018383602002808284376000920191909152509295949360208101935035915050600160201b8111156104ca57600080fd5b8201836020820111156104dc57600080fd5b803590602001918460208302840111600160201b831117156104fd57600080fd5b919080806020026020016040519081016040528093929190818152602001838360200280828437600092019190915250929550610ef3945050505050565b005b6000818152600160205260408120600401548190839061059f576040805162461bcd60e51b8152602060048201526018602482015277105d58dd1a5bdb881b9bdd081e595d08199a5b9a5cda195960421b604482015290519081900360640190fd5b600084815260016020526040812060030154819081906105be90611288565b60008a815260016020526040902060048101546003909101549396509194509250141561066057600087815260016020526040902060050154610613906001600160601b03848116911663ffffffff6112ad16565b600088815260016020526040902060050154909650610659906001600160601b038085169161064d9190811690851663ffffffff6112f816565b9063ffffffff61135116565b94506106b9565b600087815260016020526040812060040154819061067d90611288565b92509250506106b4826001600160601b031661064d836001600160601b0316876001600160601b03166112f890919063ffffffff16565b965050505b6106c587878786611393565b50505050915091565b6000818152600160205260408120600201544211156106ef57506000610714565b600082815260016020526040902060020154610711904263ffffffff6112ad16565b90505b919050565b6004546001600160401b031681565b60045460009061074a906002906001600160401b03168463ffffffff61154016565b61079b576040805162461bcd60e51b815260206004820152601760248201527f5573657220616c72656164792072656769737465726564000000000000000000604482015290519081900360640190fd5b506004546001600160401b03166107c16107bc82600163ffffffff6116ba16565b611714565b6004805467ffffffffffffffff19166001600160401b03928316179055604080516001600160a01b0385168152918316602083015280517f6838f67cb358c332087b73dbe769a6c869a5f87225236c16dda5d0013a77074c9281900390910190a1919050565b600061083a60028363ffffffff61175c16565b156108575761085060028363ffffffff61178616565b9050610714565b61085082610728565b60006020819052908152604090206001015481565b60008061088133610827565b604080516323b872dd60e01b81523360048201523060248201526001600160601b038716604482015290519192506001600160a01b038916916323b872dd916064808201926020929091908290030181600087803b1580156108e257600080fd5b505af11580156108f6573d6000803e3d6000fd5b505050506040513d602081101561090c57600080fd5b505161095f576040805162461bcd60e51b815260206004820152601b60248201527f7472616e7366657220776173206e6f74207375636365737366756c0000000000604482015290519081900360640190fd5b6005805460010190556040805160c0810182526001600160a01b03808a16825288166020820152428701918101919091526060810161099f838787611810565b8152600060208083018290526040928301829052600580548352600180835292849020855181546001600160a01b03199081166001600160a01b0392831617835587850151958301805490911695821695909517909455858501516002820155606086015160038201556080860151600482015560a09095015194810180546bffffffffffffffffffffffff19166001600160601b039096169590951790945592548251908152915189821693918b16927f15dd9639accd24fcb10b44fe33886ce03e228e4e6ba1f65791edf66fa4acfa0392908290030190a3505060055495945050505050565b60016020819052600091825260409091208054918101546002820154600383015460048401546005909401546001600160a01b03958616959093169391929091906001600160601b031686565b600454600160401b90046001600160a01b031681565b60008281526001602052604081206004015481908490610b4c576040805162461bcd60e51b8152602060048201526018602482015277105d58dd1a5bdb881b9bdd081e595d08199a5b9a5cda195960421b604482015290519081900360640190fd5b610b54611d51565b506000858152600160208181526040808420815160c08101835281546001600160a01b0390811682529482015490941692840192909252600282015490830152600381015460608301526004810154608083018190526005909101546001600160601b031660a083015290919081908190610bce90611288565b9194509250905060005b8851811015610d3a576000610bff8a8381518110610bf257fe5b6020026020010151611288565b9250505085608001518a8381518110610c1457fe5b60200260200101511415610caa57610c68610c5b856001600160601b031661064d866001600160601b03168a60a001516001600160601b03166112f890919063ffffffff16565b8a9063ffffffff6116ba16565b9850610ca3610c968760a001516001600160601b0316836001600160601b03166112ad90919063ffffffff16565b899063ffffffff6116ba16565b9750610d31565b610cd486608001518b8481518110610cbe57fe5b602002602001015161183c90919063ffffffff16565b15610d1557610d0e610c5b856001600160601b031661064d866001600160601b0316856001600160601b03166112f890919063ffffffff16565b9850610d31565b610d2e886001600160601b03831663ffffffff6116ba16565b97505b50600101610bd8565b50610d4789888886611393565b50505050509250929050565b60055481565b6000818152600160205260408120600201548190839042118015610d8c5750600081815260016020526040902060040154155b610dc75760405162461bcd60e51b8152600401808060200182810382526028815260200180611e686028913960400191505060405180910390fd5b600084815260016020526040812060030154610de290611288565b509150600090506002600160601b031960015b836001600160601b0316836001600160601b03161015610e56576000888152602081905260409020610e2d908363ffffffff61198916565b91506001821415610e4057506000610e56565b6000610e4b83611288565b9550610df592505050565b8181610e7057506000888152600160205260409020600301545b610e7981611288565b60008c81526001602052604090206004018490559099509750610eb090506001600160601b0385811690871663ffffffff6112ad16565b6000998a526001602052604090992060050180546bffffffffffffffffffffffff19166001600160601b03909a1699909917909855509496939550929350505050565b60008481526001602052604090206002015484904210610f445760405162461bcd60e51b815260040180806020018281038252602a815260200180611da9602a913960400191505060405180910390fd5b6000858152600160205260408120600301548190610f6190611288565b90935091506000905080610f7433610827565b905060005b88518110156110d257610fb1898281518110610f9157fe5b60200260200101516001600160601b0316846116ba90919063ffffffff16565b9250610feb888281518110610fc257fe5b60200260200101516001600160601b0316866001600160601b03166112f890919063ffffffff16565b611023856001600160601b03168b848151811061100457fe5b60200260200101516001600160601b03166112f890919063ffffffff16565b10156110605760405162461bcd60e51b8152600401808060200182810382526029815260200180611ee06029913960400191505060405180910390fd5b6110c9611094838b848151811061107357fe5b60200260200101518b858151811061108757fe5b6020026020010151611810565b8883815181106110a057fe5b60200260200101516000808e8152602001908152602001600020611a299092919063ffffffff16565b50600101610f79565b50806001600160401b0316897fa7ef64038efda8233261d8fc7da23d887d47e17fbcccd2841a2cdf0355a166bb8a8a604051808060200180602001838103835285818151815260200191508051906020019060200280838360005b8381101561114557818101518382015260200161112d565b50505050905001838103825284818151815260200191508051906020019060200280838360005b8381101561118457818101518382015260200161116c565b5050505090500194505050505060405180910390a360008981526001602081815260408084209092015482516323b872dd60e01b81523360048201523060248201526044810187905292516001600160a01b03909116936323b872dd936064808201949392918390030190829087803b15801561120057600080fd5b505af1158015611214573d6000803e3d6000fd5b505050506040513d602081101561122a57600080fd5b505161127d576040805162461bcd60e51b815260206004820152601b60248201527f7472616e7366657220776173206e6f74207375636365737366756c0000000000604482015290519081900360640190fd5b505050505050505050565b600160c01b8104916001605e1b6001600160c01b03831604916001600160601b031690565b60006112ef83836040518060400160405280601e81526020017f536166654d6174683a207375627472616374696f6e206f766572666c6f770000815250611b6a565b90505b92915050565b600082611307575060006112f2565b8282028284828161131457fe5b04146112ef5760405162461bcd60e51b8152600401808060200182810382526021815260200180611dfd6021913960400191505060405180910390fd5b60006112ef83836040518060400160405280601a81526020017f536166654d6174683a206469766973696f6e206279207a65726f000000000000815250611c01565b60006113a660028363ffffffff611c6616565b600086815260016020908152604080832054815163a9059cbb60e01b81526001600160a01b038087166004830152602482018b9052925195965091169363a9059cbb93604480840194938390030190829087803b15801561140657600080fd5b505af115801561141a573d6000803e3d6000fd5b505050506040513d602081101561143057600080fd5b505161146d5760405162461bcd60e51b8152600401808060200182810382526023815260200180611ebd6023913960400191505060405180910390fd5b600085815260016020818152604080842090920154825163a9059cbb60e01b81526001600160a01b038681166004830152602482018990529351939091169363a9059cbb93604480840194939192918390030190829087803b1580156114d257600080fd5b505af11580156114e6573d6000803e3d6000fd5b505050506040513d60208110156114fc57600080fd5b50516115395760405162461bcd60e51b8152600401808060200182810382526023815260200180611ebd6023913960400191505060405180910390fd5b5050505050565b60006001600160a01b03821661159d576040805162461bcd60e51b815260206004820152601a60248201527f43616e6e6f7420696e73657274207a65726f2061646472657373000000000000604482015290519081900360640190fd5b6001600160401b0383811614156115fb576040805162461bcd60e51b815260206004820152601860248201527f43616e6e6f7420696e73657274206d61782075696e7436340000000000000000604482015290519081900360640190fd5b6001600160a01b03821660009081526001850160205260409020546001600160401b031615158061164f57506001600160401b0360018401166000908152602085905260409020546001600160a01b031615155b1561165c575060006116b3565b5060018281016001600160401b031660008181526020868152604080832080546001600160a01b0319166001600160a01b03881690811790915583528785019091529020805467ffffffffffffffff191690911790555b9392505050565b6000828201838110156112ef576040805162461bcd60e51b815260206004820152601b60248201527f536166654d6174683a206164646974696f6e206f766572666c6f770000000000604482015290519081900360640190fd5b6000600160401b82106117585760405162461bcd60e51b8152600401808060200182810382526026815260200180611e1e6026913960400191505060405180910390fd5b5090565b6001600160a01b0316600090815260019190910160205260409020546001600160401b0316151590565b6000611792838361175c565b6117e3576040805162461bcd60e51b815260206004820152601b60248201527f4d7573742068617665204164647265737320746f206765742049440000000000604482015290519081900360640190fd5b506001600160a01b0316600090815260019190910160205260409020546001600160401b03166000190190565b600160c01b6001600160401b0390931692909202600160601b6001600160601b03928316020191160190565b60008060008061184b86611288565b925092509250600080600061185f88611288565b919450925090506118826001600160601b0380841690861663ffffffff6112f816565b61189e6001600160601b0387811690841663ffffffff6112f816565b11156118b357600196505050505050506112f2565b6118cf6001600160601b0383811690861663ffffffff6112f816565b6118eb6001600160601b0387811690841663ffffffff6112f816565b101561190057600096505050505050506112f2565b826001600160401b0316866001600160401b031614156119515760405162461bcd60e51b815260040180806020018281038252602d815260200180611e90602d913960400191505060405180910390fd5b826001600160401b0316866001600160401b0316111561197a57600196505050505050506112f2565b50600098975050505050505050565b600060018214156119cb5760405162461bcd60e51b815260040180806020018281038252602a815260200180611dd3602a913960400191505060405180910390fd5b600082815260208490526040902054611a155760405162461bcd60e51b8152600401808060200182810382526022815260200180611d876022913960400191505060405180910390fd5b506000908152602091909152604090205490565b600080611a3584611288565b925050506001600160601b038116611a7e5760405162461bcd60e51b8152600401808060200182810382526024815260200180611e446024913960400191505060405180910390fd5b611a888585611cec565b15611a975760009150506116b3565b6001850154600090611acc576002600160601b0319600090815260208790526040808220879055868252902060019055611b57565b835b81611b5557611ae3818763ffffffff61183c16565b15611b4457600081815260208890526040902054611b07908763ffffffff61183c16565b611b2f5760008181526020889052604080822080549089905588835291205560019150611b3f565b6000908152602087905260409020545b611b50565b600093505050506116b3565b611ace565b505b5050505060019182018054830190555090565b60008184841115611bf95760405162461bcd60e51b81526004018080602001828103825283818151815260200191508051906020019080838360005b83811015611bbe578181015183820152602001611ba6565b50505050905090810190601f168015611beb5780820380516001836020036101000a031916815260200191505b509250505060405180910390fd5b505050900390565b60008183611c505760405162461bcd60e51b8152602060048201818152835160248401528351909283926044909101919085019080838360008315611bbe578181015183820152602001611ba6565b506000838581611c5c57fe5b0495945050505050565b6000611c728383611d27565b611cc3576040805162461bcd60e51b815260206004820152601b60248201527f4d757374206861766520494420746f2067657420416464726573730000000000604482015290519081900360640190fd5b506001016001600160401b0316600090815260209190915260409020546001600160a01b031690565b60006002600160601b0319821480611d045750600182145b15611d11575060006112f2565b5060009081526020919091526040902054151590565b6001016001600160401b0316600090815260209190915260409020546001600160a01b0316151590565b6040805160c081018252600080825260208201819052918101829052606081018290526080810182905260a08101919091529056fe547279696e6720746f20676574206e657874206f66206c61737420656c656d656e7441756374696f6e206e6f206c6f6e67657220696e206f7264657220706c6163656d656e74207068617365547279696e6720746f20676574206e657874206f66206e6f6e2d6578697374656e7420656c656d656e74536166654d6174683a206d756c7469706c69636174696f6e206f766572666c6f7753616665436173743a2076616c756520646f65736e27742066697420696e2036342062697473496e73657274696e672075696e743936283029206973206e6f7420737570706f7274656441756374696f6e206e6f7420696e20736f6c7574696f6e207375626d697373696f6e20706861736575736572206973206e6f7420616c6c6f77656420746f20706c6163652073616d65206f72646572207477696365436c61696d207472616e7366657220666f722073656c6c546f6b656e206661696c65646c696d6974207072696365206e6f7420626574746572207468616e206d696d696d616c206f66666572a2646970667358221220c445a365ab99ac634d45f6709b5e887ce2c6bd64aad93c5dd07ee32835d56e6d64736f6c63430006080033",
  "immutableReferences": {},
  "source": "pragma solidity >=0.6.8;\nimport \"@openzeppelin/contracts/token/ERC20/ERC20.sol\";\nimport \"./libraries/IterableOrderedOrderSet.sol\";\nimport \"@openzeppelin/contracts/math/SafeMath.sol\";\nimport \"./libraries/IdToAddressBiMap.sol\";\nimport \"@openzeppelin/contracts/utils/SafeCast.sol\";\n\n\ncontract EasyAuction {\n  using SafeMath for uint64;\n  using SafeMath for uint96;\n  using SafeMath for uint256;\n  using SafeCast for uint256;\n  using IterableOrderedOrderSet for IterableOrderedOrderSet.Data;\n  using IterableOrderedOrderSet for bytes32;\n  using IdToAddressBiMap for IdToAddressBiMap.Data;\n\n  modifier atStageOrderplacement(uint256 auctionId) {\n    require(\n      block.timestamp < auctionData[auctionId].auctionEndDate,\n      \"Auction no longer in order placement phase\"\n    );\n    _;\n  }\n\n  modifier atStageSolutionSubmission(uint256 auctionId) {\n    require(\n      block.timestamp > auctionData[auctionId].auctionEndDate &&\n        auctionData[auctionId].clearingPriceOrder == bytes32(0),\n      \"Auction not in solution submission phase\"\n    );\n    _;\n  }\n\n  modifier atStageFinished(uint256 auctionId) {\n    require(\n      auctionData[auctionId].clearingPriceOrder != bytes32(0),\n      \"Auction not yet finished\"\n    );\n    _;\n  }\n\n  event NewBuyOrders(\n    uint256 indexed auctionId,\n    uint64 indexed userId,\n    uint96[] sellAmountOfBuy,\n    uint96[] buyAmountOfBuy\n  );\n  event NewAuction(\n    uint256 auctionId,\n    ERC20 indexed _sellToken,\n    ERC20 indexed _buyToken\n  );\n  event UserRegistration(address user, uint64 userId);\n\n  struct AuctionData {\n    ERC20 sellToken;\n    ERC20 buyToken;\n    uint256 auctionEndDate;\n    bytes32 sellOrder;\n    bytes32 clearingPriceOrder;\n    uint96 volumeClearingPriceOrder;\n  }\n  mapping(uint256 => IterableOrderedOrderSet.Data) public buyOrders;\n  mapping(uint256 => AuctionData) public auctionData;\n  IdToAddressBiMap.Data private registeredUsers;\n  uint64 public numUsers;\n  address public donationAccount;\n  uint256 public auctionCounter;\n\n  constructor() public {\n    donationAccount = msg.sender;\n  }\n\n  function initiateAuction(\n    ERC20 _sellToken,\n    ERC20 _buyToken,\n    uint256 duration,\n    uint96 _sellAmount,\n    uint96 _buyAmount\n  ) public returns (uint256) {\n    uint64 userId = getUserId(msg.sender);\n    require(\n      _sellToken.transferFrom(msg.sender, address(this), _sellAmount),\n      \"transfer was not successful\"\n    );\n    auctionCounter++;\n    auctionData[auctionCounter] = AuctionData(\n      _sellToken,\n      _buyToken,\n      block.timestamp + duration,\n      IterableOrderedOrderSet.encodeOrder(userId, _sellAmount, _buyAmount),\n      bytes32(0),\n      0\n    );\n    emit NewAuction(auctionCounter, _sellToken, _buyToken);\n    return auctionCounter;\n  }\n\n  function placeBuyOrders(\n    uint256 auctionId,\n    uint96[] memory _buyAmount,\n    uint96[] memory _sellAmount,\n    bytes32[] memory _prevBuyOrders\n  ) public atStageOrderplacement(auctionId) {\n    (\n      ,\n      uint96 sellAmountOfSellOrder,\n      uint96 buyAmountOfSellOrder\n    ) = IterableOrderedOrderSet.decodeOrder(auctionData[auctionId].sellOrder);\n    uint256 sumOfBuyAmounts = 0;\n    uint64 userId = getUserId(msg.sender);\n    for (uint256 i = 0; i < _buyAmount.length; i++) {\n      sumOfBuyAmounts = sumOfBuyAmounts.add(_buyAmount[i]);\n      require(\n        _buyAmount[i].mul(buyAmountOfSellOrder) >=\n          sellAmountOfSellOrder.mul(_sellAmount[i]),\n        \"limit price not better than mimimal offer\"\n      );\n      buyOrders[auctionId].insert(\n        IterableOrderedOrderSet.encodeOrder(\n          userId,\n          _buyAmount[i],\n          _sellAmount[i]\n        ),\n        _prevBuyOrders[i]\n      );\n    }\n    emit NewBuyOrders(auctionId, userId, _buyAmount, _sellAmount);\n    require(\n      auctionData[auctionId].buyToken.transferFrom(\n        msg.sender,\n        address(this),\n        sumOfBuyAmounts\n      ),\n      \"transfer was not successful\"\n    );\n  }\n\n  function calculatePrice(uint256 auctionId)\n    public\n    atStageSolutionSubmission(auctionId)\n    returns (uint96 priceNumerator, uint96 priceDenominator)\n  {\n    (, uint96 sellAmount, ) = IterableOrderedOrderSet.decodeOrder(\n      auctionData[auctionId].sellOrder\n    );\n\n    // Search for single partically filled order or last fully filled order:\n    uint96 sumBuyAmount = 0;\n    bytes32 iterOrder = IterableOrderedOrderSet.QUEUE_START;\n    bool buyAmountExceedsSellAmount = true;\n    while (sumBuyAmount < sellAmount) {\n      iterOrder = buyOrders[auctionId].next(iterOrder);\n      if (iterOrder == IterableOrderedOrderSet.QUEUE_END) {\n        buyAmountExceedsSellAmount = false;\n        break;\n      }\n      (, , uint96 buyAmountOfIter) = IterableOrderedOrderSet.decodeOrder(\n        iterOrder\n      );\n      sumBuyAmount = buyAmountOfIter;\n    }\n\n    // Store result:\n    bytes32 clearingPriceOrder = iterOrder;\n    if (!buyAmountExceedsSellAmount) {\n      clearingPriceOrder = auctionData[auctionId].sellOrder;\n    }\n    (, priceNumerator, priceDenominator) = IterableOrderedOrderSet.decodeOrder(\n      clearingPriceOrder\n    );\n    auctionData[auctionId].clearingPriceOrder = clearingPriceOrder;\n    auctionData[auctionId].volumeClearingPriceOrder = uint96(\n      sumBuyAmount.sub(sellAmount)\n    );\n  }\n\n  function claimFromBuyOrder(uint256 auctionId, bytes32[] memory orders)\n    public\n    atStageFinished(auctionId)\n    returns (uint256 sumSellToken, uint256 sumBuyToken)\n  {\n    AuctionData memory auction = auctionData[auctionId];\n    (\n      uint64 userId,\n      uint96 priceDenominator,\n      uint96 priceNumerator\n    ) = IterableOrderedOrderSet.decodeOrder(auction.clearingPriceOrder);\n    for (uint256 i = 0; i < orders.length; i++) {\n      (, , uint96 buyAmount) = IterableOrderedOrderSet.decodeOrder(orders[i]);\n      if (orders[i] == auction.clearingPriceOrder) {\n        sumSellToken = sumSellToken.add(\n          auction.volumeClearingPriceOrder.mul(priceNumerator).div(\n            priceDenominator\n          )\n        );\n        sumBuyToken = sumBuyToken.add(\n          buyAmount.sub(auction.volumeClearingPriceOrder)\n        );\n      } else {\n        if (orders[i].biggerThan(auction.clearingPriceOrder)) {\n          sumSellToken = sumSellToken.add(\n            buyAmount.mul(priceNumerator).div(priceDenominator)\n          );\n        } else {\n          sumBuyToken = sumBuyToken.add(buyAmount);\n        }\n      }\n    }\n    sendOutTokens(auctionId, sumSellToken, sumBuyToken, userId);\n  }\n\n  function claimFromSellOrder(uint256 auctionId)\n    public\n    atStageFinished(auctionId)\n    returns (uint256 sumSellToken, uint256 sumBuyToken)\n  {\n    (\n      uint64 userId,\n      uint96 sellAmount,\n      uint96 buyAmount\n    ) = IterableOrderedOrderSet.decodeOrder(auctionData[auctionId].sellOrder);\n    if (\n      auctionData[auctionId].sellOrder ==\n      auctionData[auctionId].clearingPriceOrder\n    ) {\n      sumSellToken = sellAmount.sub(\n        auctionData[auctionId].volumeClearingPriceOrder\n      );\n      sumBuyToken = auctionData[auctionId]\n        .volumeClearingPriceOrder\n        .mul(buyAmount)\n        .div(sellAmount);\n    } else {\n      (\n        ,\n        uint96 priceDenominator,\n        uint96 priceNumerator\n      ) = IterableOrderedOrderSet.decodeOrder(\n        auctionData[auctionId].clearingPriceOrder\n      );\n      sumBuyToken = sellAmount.mul(priceNumerator).div(priceDenominator);\n    }\n    sendOutTokens(auctionId, sumSellToken, sumBuyToken, userId);\n  }\n\n  function sendOutTokens(\n    uint256 auctionId,\n    uint256 sellTokenAmount,\n    uint256 buyTokenAmount,\n    uint64 userId\n  ) internal {\n    address userAddress = registeredUsers.getAddressAt(userId);\n    require(\n      auctionData[auctionId].sellToken.transfer(userAddress, sellTokenAmount),\n      \"Claim transfer for sellToken failed\"\n    );\n    require(\n      auctionData[auctionId].buyToken.transfer(userAddress, buyTokenAmount),\n      \"Claim transfer for sellToken failed\"\n    );\n  }\n\n  function registerUser(address user) public returns (uint64 userId) {\n    require(registeredUsers.insert(numUsers, user), \"User already registered\");\n    userId = numUsers;\n    numUsers = numUsers.add(1).toUint64();\n    emit UserRegistration(user, userId);\n  }\n\n  function getUserId(address user) public returns (uint64 userId) {\n    if (registeredUsers.hasAddress(user)) {\n      return registeredUsers.getId(user);\n    } else {\n      return registerUser(user);\n    }\n  }\n\n  function getSecondsRemainingInBatch(uint256 auctionId)\n    public\n    view\n    returns (uint256)\n  {\n    if (auctionData[auctionId].auctionEndDate < block.timestamp) {\n      return 0;\n    }\n    return auctionData[auctionId].auctionEndDate.sub(block.timestamp);\n  }\n}\n",
  "sourcePath": "/Users/alexherrmann/easyAuction/contracts/EasyAuction.sol",
  "compiler": {
    "name": "solc",
    "version": "0.6.8+commit.0bbfe453.Emscripten.clang"
  },
  "schemaVersion": "3.1.0",
  "updatedAt": "2020-05-22T19:17:34.663Z",
  "devdoc": {
    "methods": {}
  },
  "userdoc": {
    "methods": {}
  }
}