{
  "contractName": "IterableOrderedOrderSetWrapper",
  "abi": [
    {
      "inputs": [],
      "name": "data",
      "outputs": [
        {
          "internalType": "uint256",
          "name": "size",
          "type": "uint256"
        }
      ],
      "stateMutability": "view",
      "type": "function"
    },
    {
      "inputs": [
        {
          "internalType": "bytes32",
          "name": "value",
          "type": "bytes32"
        }
      ],
      "name": "insert",
      "outputs": [
        {
          "internalType": "bool",
          "name": "",
          "type": "bool"
        }
      ],
      "stateMutability": "nonpayable",
      "type": "function"
    },
    {
      "inputs": [
        {
          "internalType": "bytes32",
          "name": "value",
          "type": "bytes32"
        },
        {
          "internalType": "bytes32",
          "name": "at",
          "type": "bytes32"
        }
      ],
      "name": "insertAt",
      "outputs": [
        {
          "internalType": "bool",
          "name": "",
          "type": "bool"
        }
      ],
      "stateMutability": "nonpayable",
      "type": "function"
    },
    {
      "inputs": [
        {
          "internalType": "bytes32",
          "name": "value",
          "type": "bytes32"
        }
      ],
      "name": "remove",
      "outputs": [
        {
          "internalType": "bool",
          "name": "",
          "type": "bool"
        }
      ],
      "stateMutability": "nonpayable",
      "type": "function"
    },
    {
      "inputs": [
        {
          "internalType": "bytes32",
          "name": "value",
          "type": "bytes32"
        },
        {
          "internalType": "bytes32",
          "name": "at",
          "type": "bytes32"
        }
      ],
      "name": "removeAt",
      "outputs": [
        {
          "internalType": "bool",
          "name": "",
          "type": "bool"
        }
      ],
      "stateMutability": "nonpayable",
      "type": "function"
    },
    {
      "inputs": [
        {
          "internalType": "bytes32",
          "name": "value",
          "type": "bytes32"
        }
      ],
      "name": "contains",
      "outputs": [
        {
          "internalType": "bool",
          "name": "",
          "type": "bool"
        }
      ],
      "stateMutability": "view",
      "type": "function"
    },
    {
      "inputs": [],
      "name": "isEmpty",
      "outputs": [
        {
          "internalType": "bool",
          "name": "",
          "type": "bool"
        }
      ],
      "stateMutability": "view",
      "type": "function"
    },
    {
      "inputs": [],
      "name": "size",
      "outputs": [
        {
          "internalType": "uint256",
          "name": "",
          "type": "uint256"
        }
      ],
      "stateMutability": "view",
      "type": "function"
    },
    {
      "inputs": [],
      "name": "first",
      "outputs": [
        {
          "internalType": "bytes32",
          "name": "",
          "type": "bytes32"
        }
      ],
      "stateMutability": "view",
      "type": "function"
    },
    {
      "inputs": [
        {
          "internalType": "bytes32",
          "name": "value",
          "type": "bytes32"
        }
      ],
      "name": "next",
      "outputs": [
        {
          "internalType": "bytes32",
          "name": "",
          "type": "bytes32"
        }
      ],
      "stateMutability": "view",
      "type": "function"
    },
    {
      "inputs": [
        {
          "internalType": "bytes32",
          "name": "value",
          "type": "bytes32"
        }
      ],
      "name": "decodeOrder",
      "outputs": [
        {
          "internalType": "uint64",
          "name": "",
          "type": "uint64"
        },
        {
          "internalType": "uint96",
          "name": "",
          "type": "uint96"
        },
        {
          "internalType": "uint96",
          "name": "",
          "type": "uint96"
        }
      ],
      "stateMutability": "pure",
      "type": "function"
    },
    {
      "inputs": [
        {
          "internalType": "uint64",
          "name": "userId",
          "type": "uint64"
        },
        {
          "internalType": "uint96",
          "name": "sellAmount",
          "type": "uint96"
        },
        {
          "internalType": "uint96",
          "name": "buyAmount",
          "type": "uint96"
        }
      ],
      "name": "encodeOrder",
      "outputs": [
        {
          "internalType": "bytes32",
          "name": "",
          "type": "bytes32"
        }
      ],
      "stateMutability": "pure",
      "type": "function"
    },
    {
      "inputs": [
        {
          "internalType": "bytes32",
          "name": "orderLeft",
          "type": "bytes32"
        },
        {
          "internalType": "bytes32",
          "name": "orderRight",
          "type": "bytes32"
        }
      ],
      "name": "biggerThan",
      "outputs": [
        {
          "internalType": "bool",
          "name": "",
          "type": "bool"
        }
      ],
      "stateMutability": "pure",
      "type": "function"
    }
  ],
  "bytecode": "0x608060405234801561001057600080fd5b5061098b806100206000396000f3fe608060405234801561001057600080fd5b50600436106100cf5760003560e01c80636d5349ea1161008c57806395bc26731161006657806395bc2673146101d25780639be9598f146101ef578063ca6df88514610212578063de853c4014610235576100cf565b80636d5349ea1461018457806373d4a13a146101c2578063949d225d146101ca576100cf565b806302d3af5b146100d45780631787a5bf146101035780631d1a696d1461013a5780632d287e43146101575780633df4ddf414610174578063681fe70c1461017c575b600080fd5b6100f1600480360360208110156100ea57600080fd5b5035610285565b60408051918252519081900360200190f35b6101266004803603604081101561011957600080fd5b508035906020013561029d565b604080519115158252519081900360200190f35b6101266004803603602081101561015057600080fd5b50356102b7565b6101266004803603602081101561016d57600080fd5b50356102c9565b6100f16102e4565b6101266102f5565b6100f16004803603606081101561019a57600080fd5b5067ffffffffffffffff813516906001600160601b03602082013581169160400135166102fc565b6100f1610311565b6100f1610317565b610126600480360360208110156101e857600080fd5b503561031d565b6101266004803603604081101561020557600080fd5b5080359060200135610338565b6101266004803603604081101561022857600080fd5b5080359060200135610344565b6102526004803603602081101561024b57600080fd5b5035610357565b6040805167ffffffffffffffff90941684526001600160601b039283166020850152911682820152519081900360600190f35b6000610297818363ffffffff61037216565b92915050565b60006102b081848463ffffffff61041216565b9392505050565b6000610297818363ffffffff61055316565b600061029781836002600160601b031963ffffffff61041216565b60006102f0600061058e565b905090565b6001541590565b60006103098484846105ef565b949350505050565b60015481565b60015490565b600061029781836002600160601b031963ffffffff61061c16565b60006102b083836106a6565b60006102b081848463ffffffff61061c16565b6000806000610365846107f7565b9250925092509193909250565b600060018214156103b45760405162461bcd60e51b815260040180806020018281038252602a8152602001806108ba602a913960400191505060405180910390fd5b6000828152602084905260409020546103fe5760405162461bcd60e51b81526004018080602001828103825260228152602001806108986022913960400191505060405180910390fd5b506000908152602091909152604090205490565b60008061041e846107f7565b925050506001600160601b0381166104675760405162461bcd60e51b81526004018080602001828103825260248152602001806109056024913960400191505060405180910390fd5b6104718585610553565b156104805760009150506102b0565b60018501546000906104b5576002600160601b0319600090815260208790526040808220879055868252902060019055610540565b835b8161053e576104cc818763ffffffff6106a616565b1561052d576000818152602088905260409020546104f0908763ffffffff6106a616565b6105185760008181526020889052604080822080549089905588835291205560019150610528565b6000908152602087905260409020545b610539565b600093505050506102b0565b6104b7565b505b5050505060019182018054830190555090565b60006002600160601b031982148061056b5750600182145b1561057857506000610297565b5060009081526020919091526040902054151590565b6000808260010154116105d25760405162461bcd60e51b81526004018080602001828103825260228152602001806108766022913960400191505060405180910390fd5b506002600160601b03196000908152602091909152604090205490565b600160c01b67ffffffffffffffff90931692909202600160601b6001600160601b03928316020191160190565b60006106288484610553565b610634575060006102b0565b815b600081815260208690526040902054841461067257600181141561065e5760009150506102b0565b600090815260208590526040902054610636565b6000848152602086905260408082208054938352908220929092559384529290925550506001908101805460001901905590565b6000806000806106b5866107f7565b92509250925060008060006106c9886107f7565b919450925090506106ec6001600160601b0380841690861663ffffffff61081c16565b6107086001600160601b0387811690841663ffffffff61081c16565b111561071d5760019650505050505050610297565b6107396001600160601b0383811690861663ffffffff61081c16565b6107556001600160601b0387811690841663ffffffff61081c16565b101561076a5760009650505050505050610297565b8267ffffffffffffffff168667ffffffffffffffff1614156107bd5760405162461bcd60e51b815260040180806020018281038252602d815260200180610929602d913960400191505060405180910390fd5b8267ffffffffffffffff168667ffffffffffffffff1611156107e85760019650505050505050610297565b50600098975050505050505050565b600160c01b810491600160601b6001600160c01b03831604916001600160601b031690565b60008261082b57506000610297565b8282028284828161083857fe5b04146102b05760405162461bcd60e51b81526004018080602001828103825260218152602001806108e46021913960400191505060405180910390fdfe547279696e6720746f206765742066697273742066726f6d20656d70747920736574547279696e6720746f20676574206e657874206f66206c61737420656c656d656e74547279696e6720746f20676574206e657874206f66206e6f6e2d6578697374656e7420656c656d656e74536166654d6174683a206d756c7469706c69636174696f6e206f766572666c6f77496e73657274696e672075696e743936283029206973206e6f7420737570706f7274656475736572206973206e6f7420616c6c6f77656420746f20706c6163652073616d65206f72646572207477696365a2646970667358221220a19b4ec78be47350c798243592ff8793e890b8269065988f49c261db4ce8112764736f6c63430006080033",
  "immutableReferences": {},
  "source": "pragma solidity ^0.6.0;\nimport \"../libraries/IterableOrderedOrderSet.sol\";\n\n\ncontract IterableOrderedOrderSetWrapper {\n  using IterableOrderedOrderSet for IterableOrderedOrderSet.Data;\n\n  IterableOrderedOrderSet.Data public data;\n\n  function insert(bytes32 value) public returns (bool) {\n    return data.insert(value, IterableOrderedOrderSet.QUEUE_START);\n  }\n\n  function insertAt(bytes32 value, bytes32 at) public returns (bool) {\n    return data.insert(value, at);\n  }\n\n  function remove(bytes32 value) public returns (bool) {\n    return data.remove(value, IterableOrderedOrderSet.QUEUE_START);\n  }\n\n  function removeAt(bytes32 value, bytes32 at) public returns (bool) {\n    return data.remove(value, at);\n  }\n\n  function contains(bytes32 value) public view returns (bool) {\n    return data.contains(value);\n  }\n\n  function isEmpty() public view returns (bool) {\n    return data.size == 0;\n  }\n\n  function size() public view returns (uint256) {\n    return data.size;\n  }\n\n  function first() public view returns (bytes32) {\n    return data.first();\n  }\n\n  function next(bytes32 value) public view returns (bytes32) {\n    return data.next(value);\n  }\n\n  function decodeOrder(bytes32 value)\n    public\n    pure\n    returns (\n      uint64,\n      uint96,\n      uint96\n    )\n  {\n    return IterableOrderedOrderSet.decodeOrder(value);\n  }\n\n  function encodeOrder(\n    uint64 userId,\n    uint96 sellAmount,\n    uint96 buyAmount\n  ) public pure returns (bytes32) {\n    return IterableOrderedOrderSet.encodeOrder(userId, sellAmount, buyAmount);\n  }\n\n  function biggerThan(bytes32 orderLeft, bytes32 orderRight)\n    public\n    pure\n    returns (bool)\n  {\n    return IterableOrderedOrderSet.biggerThan(orderLeft, orderRight);\n  }\n}\n",
  "sourcePath": "/Users/alexherrmann/easyAuction/contracts/test/IterableOrderedOrderSetWrapper.sol",
  "compiler": {
    "name": "solc",
    "version": "0.6.8+commit.0bbfe453.Emscripten.clang"
  },
  "schemaVersion": "3.1.0",
  "updatedAt": "2020-05-23T10:10:39.786Z",
  "devdoc": {
    "methods": {}
  },
  "userdoc": {
    "methods": {}
  }
}